:100000000C94F7080C941F090C941F090C941F09F9
:100010000C941F090C941F090C94EA2C0C941F09D2
:100020000C941F090C941F090C941F090C941F09B0
:100030000C941F090C941F090C941F090C941F09A0
:100040000C941F090C941F090C941F090C941F0990
:100050000C947B2C0C941F090C941F090C941F0901
:100060000C94A02C0C947E2D0C941F090C941F0949
:100070000C941F090C94312C0C941F090C941F092B
:100080000C941F090C941F090C94C52C0C94562C2D
:100090000C94CD2B0C94352D0C940F2D0C941F0922
:1000A0004E414E494E495459494E46CDCCCC3D0A5D
:1000B000D7233C17B7D13877CC2B329595E6241F40
:1000C000B14F0A000020410000C84200401C4620F9
:1000D000BCBE4CCA1B0E5AAEC59D740D0A00090069
:1000E000090009002709000927002000696E6465DE
:1000F00078096E616D650970696E096D6F646509D7
:10010000696E697409746F67676C650D0A000D0A82
:100110000020286C6F777C686967682900270027B2
:10012000005B3020746F203235355D20005B30205D
:10013000746F20315D20003A20005D3D0070696ED3
:100140005B000D0A005D3D0070696E5B0070696EBA
:10015000206572726F723A2063616E6E6F742073E5
:100160006574207374617465206F6620696E7075A4
:10017000742070696E2E0D0A000D0A000D0A003AF7
:1001800020005D3D0070696E5B0070696E206572D5
:10019000726F723A20666972737420617267756D4E
:1001A000656E742073686F756C6420626520706979
:1001B0006E20696E646578206F72206E616D652EA9
:1001C0000D0A006C6F772C6869676800203C746FBB
:1001D00067676C653E203A203C70776D3E205B304F
:1001E00020746F203235355D0D0A00203C696E6940
:1001F000743E2020203A203C6F75747075743E2048
:100200005B3020746F20315D20286C6F777C6869CB
:10021000676829203C70776D3E205B3020746F202A
:100220003235355D0D0A00203C6D6F64653E20203F
:10023000203A20286F75747075747C696E707574BF
:100240007C70756C6C75707C70776D290D0A005D23
:100250000D0A00203C70696E3E202020203A205B71
:100260003020746F20005D0D0A00203C6E616D65CA
:100270003E2020203A2071756F7465642070696E8D
:10028000206E616D65205B005D0D0A00203C696E8B
:100290006465783E20203A205B3120746F20002076
:1002A0006470696E203C696E6465783E7C3C6E616A
:1002B0006D653E203C73657474696E673E205B3DDE
:1002C0005D203C76616C75653E3A206368616E67BF
:1002D00065206F6E652070726F70657274790D0A9B
:1002E00000206470696E203C696E6465783E203C35
:1002F0006E616D653E203C70696E3E203C6D6F64A2
:10030000653E203C696E69743E203C746F67676C83
:10031000653E3A20646566696E652070696E0D0AF7
:1003200000206470696E202D5B2A5D203A20646590
:100330006C657465206C6173742070696E20282A66
:10034000203D20616C6C290D0A00206470696E20CC
:100350003F202020203A2073686F7720616C6C204A
:1003600070696E20646566696E6974696F6E730D7D
:100370000A00436F6D6D616E64206470696E3A208F
:10038000436F6E6669677572652050696E730D0AFA
:10039000006F75747075742C696E7075742C70753F
:1003A0006C6C75702C70776D006E616D652C70696A
:1003B0006E2C6D6F64652C696E69742C746F676741
:1003C0006C65006572726F723A206E6F206D6F728D
:1003D00065206E65772070696E732063616E2062A0
:1003E0006520646566696E65642E20747970652089
:1003F0002770696E2720746F2073656520646566B9
:10040000696E65642070696E732E0D0A002066693E
:100410007273742E0D0A0070696E20617267756DBB
:10042000656E74206572726F723A20706C656173CC
:100430006520646566696E652070696E200070696C
:100440006E20617267756D656E74206572726F7271
:100450003A20666972737420617267756D656E7497
:100460002073686F756C642062652070696E206906
:100470006E646578206F72206E616D652E207479D0
:100480007065202770696E2720746F207365652062
:10049000646566696E65642070696E732E0D0A006E
:1004A0002064656C657465642E0D0A0070696E20A9
:1004B00000616C6C2070696E732064656C65746596
:1004C000642E0D0A00270D0A002700090009000903
:1004D0000009000900090009000900090009006974
:1004E0006E646578096E616D650974726967676528
:1004F0007209736F7572636509616374696F6E0960
:1005000074617267657409636F756E740964656CF4
:10051000617909757009646F776E096F7074696F1E
:100520006E730D0A0027202869646C657C61726D0A
:1005300065647C66696E69736865647C666972650A
:100540006429202A3A7472696767657265642C2091
:100550002B3A73746172742074726967676572658F
:10056000640D0A003A205B3020746F20335D5B2AF3
:100570005D5B2B5D2027002B002A005D3D00746130
:10058000736B5B000D0A002B002A005D3D00746157
:10059000736B5B000D0A006572726F723A207461B2
:1005A000736B2073746174757320636F756C642052
:1005B0006E6F742062652073657420746F2000650F
:1005C00072726F723A207365636F6E642061726736
:1005D000756D656E742073686F756C64206265203C
:1005E0007461736B2073746174652E0D0A006572FB
:1005F000726F723A20666972737420617267756DEA
:10060000656E742073686F756C6420626520746118
:10061000736B20696E646578206F72206E616D6502
:100620002E0D0A00203C6F7074696F6E733E3A2085
:100630002861726D2D6F6E2D66696E697368206119
:10064000726D2D6F6E2D7374617274757020696E8A
:100650007465727275707473290D0A00203C646FA2
:10066000776E3E2020203A206E5B737C6D737C7524
:10067000735D20646F776E2074696D653A20302059
:100680006F72206265747765656E20313030207539
:100690007320616E642031373A35330D0A00203CF7
:1006A00075703E20202020203A206E5B737C6D7395
:1006B0007C75735D2075702074696D653A203020FB
:1006C0006F72206265747765656E203130302075F9
:1006D0007320616E642031373A35330D0A00203CB7
:1006E00064656C61793E20203A206E5B737C6D738B
:1006F0007C75735D2064656C61793A2030206F727F
:10070000206265747765656E203130302075732006
:10071000616E642031373A35330D0A00203C636F37
:10072000756E743E20203A205B2D3120746F20318D
:100730003037333734313832305D2072657065615F
:100740007420636F756E743A202D3120666F7220AD
:10075000636F6E74696E756F75732C203020666FD1
:10076000722073696E676C6520616374696F6E0DCA
:100770000A00203C7461726765743E203A203C6F29
:1007800075747075742D70696E3E20286F75747065
:1007900075742070696E2D696E646578206F7220A3
:1007A00070696E2D6E616D6529203C6F75742D74B6
:1007B00061736B3E20287461736B2D696E6465787C
:1007C000206F72207461736B2D6E616D6529203C02
:1007D0006E6F6E653E2028290D0A00203C6163740F
:1007E000696F6E3E203A203C6F75747075742D7081
:1007F000696E3E20286C6F777C686967687C746FCF
:1008000067676C6529203C6F75742D7461736B3E4E
:10081000202861726D7C73746172747C726573746C
:100820006172747C73746F707C6B69636B29203C9C
:100830006E6F6E653E20286E6F6E65290D0A002072
:100840003C736F757263653E203A203C696E70752B
:10085000742D70696E3E2028696E70757420706901
:100860006E2D696E646578206F722070696E2D6ED2
:10087000616D6529203C696E2D7461736B3E202883
:100880007461736B2D696E646578206F722074617A
:10089000736B2D6E616D65290D0A00203C747269C1
:1008A000676765723E3A203C736F66747761726564
:1008B0003E20286175746F7C6D616E75616C2920B6
:1008C0003C696E7075742D70696E3E202875707C61
:1008D000646F776E7C616E797C686967687C6C6F29
:1008E0007729203C696E2D7461736B3E20287374E8
:1008F0006172747C73746F70290D0A005D0D0A00BB
:10090000203C6E616D653E2020203A2071756F7429
:100910006564207461736B206E616D65205B005DA2
:100920000D0A00203C696E6465783E20203A205B09
:100930003120746F200020647461736B203C696EF9
:100940006465783E7C3C6E616D653E203C70726FE4
:1009500070657274793E205B3D5D203C76616C75FC
:10096000653E0D0A0020647461736B203C696E64FF
:1009700065783E203C6E616D653E203C747269670F
:100980006765723E203C736F757263653E203C6103
:100990006374696F6E3E203C7461726765743E20BB
:1009A0003C636F756E743E203C64656C61793E20DB
:1009B0003C75703E203C646F776E3E203C6F7074D7
:1009C000696F6E733E0D0A0020647461736B202D95
:1009D0005B2A5D203A2064656C657465206C6173E8
:1009E00074207461736B20282A203D20616C6C296F
:1009F0000D0A0020647461736B203F202020203A90
:100A00002073686F7720616C6C207461736B206455
:100A10006566696E6974696F6E730D0A00436F6D68
:100A20006D616E64207461736B3A20646566696EF3
:100A3000652F64656C657465207461736B0D0A00C5
:100A400061726D2D6F6E2D66696E6973682C6172AF
:100A50006D2D6F6E2D737461727475702C696E7468
:100A600065727275707473006E6F6E652C6C6F7743
:100A70002C686967682C746F67676C652C73746F7A
:100A8000702C73746172742C726573746172742C3F
:100A900061726D2C6B69636B006572726F723A20C4
:100AA0006E6F206D6F7265206E6577207461736B59
:100AB000732063616E206265206372656174656492
:100AC0002E0D0A002066697273742E0D0A0074617F
:100AD000736B20617267756D656E74206572726FDD
:100AE000723A20706C6561736520646566696E6535
:100AF000207461736B20007461736B206172677581
:100B00006D656E74206572726F723A2066697273D9
:100B10007420617267756D656E742073686F756C93
:100B200064206265207461736B20696E646578204F
:100B30006F72206E616D652E207479706520277448
:100B400061736B2720746F20736565206465666927
:100B50006E6564207461736B732E0D0A00206465EA
:100B60006C657465642E0D0A007461736B200061FE
:100B70006C6C207461736B732064656C6574656460
:100B80002E0D0A0061726D20617267756D656E745D
:100B9000206572726F723A20666972737420617296
:100BA00067756D656E742073686F756C642062651F
:100BB000207461736B20696E646578206F72206E9B
:100BC000616D652E207479706520277461736B27C1
:100BD00020746F2073656520646566696E656420A6
:100BE0007461736B732E0D0A002061726D65642E43
:100BF0000D0A007461736B2000206973206E6F749E
:100C00002069646C652E0D0A0061726D2065727238
:100C10006F723A207461736B200064697361726D46
:100C200020617267756D656E74206572726F723ABD
:100C300020666972737420617267756D656E7420C9
:100C400073686F756C64206265207461736B2069D2
:100C50006E646578206F72206E616D652E207479E8
:100C6000706520277461736B2720746F207365652E
:100C700020646566696E6564207461736B732E0D04
:100C80000A00206973206E6F742061726D65642E96
:100C90000D0A0064697361726D206572726F723A39
:100CA000207461736B200020737461727465642E0C
:100CB0000D0A007461736B2000206973206E6F74DD
:100CC0002069646C65206F722061726D65642E0D01
:100CD0000A0066697265206572726F723A207461EB
:100CE000736B20006669726520617267756D656E51
:100CF00074206572726F723A206669727374206133
:100D00007267756D656E742073686F756C642062B0
:100D100065207461736B20696E646578206F722042
:100D20006E616D652E20747970652027742720749C
:100D30006F2073656520646566696E656420746103
:100D4000736B732E0D0A000D0A002073746F7070A0
:100D500065642E0D0A007461736B2000616C6C2059
:100D60007461736B732073746F707065642E0D0AF9
:100D7000000D0A0020007420000D0A0020007020E1
:100D8000002E0D0A007461736B732077726974749E
:100D9000656E2E0D0A00456E746572696E6720736C
:100DA000636F70652038206D6F64652E2053656E0B
:100DB0006420616E7920636861726163746572207A
:100DC000746F20656E642E0D0A00456E746572693D
:100DD0006E672073636F7065203136206D6F6465B8
:100DE0002E2053656E6420616E79206368617261A4
:100DF0006374657220746F20656E642E0D0A007234
:100E00006573657420646F6E652E0D0A000D0A000F
:100E10000D0A003D000D0A003A20005D20002074FC
:100E20006F20005B003A20003D005D200020746FC1
:100E300020005B003A20003D003A0D0A00204F756B
:100E40007470757473204469676974616C205369A8
:100E5000676E616C73206F7074696F6E616C6C7912
:100E60002073796E6368726F6E697A656420776942
:100E70007468204469676974616C20496E70757488
:100E8000205369676E616C732E0D0A000D0A002EE7
:100E9000002E0075730073006D73007265736574C6
:100EA00074696E6720666163746F72792064656629
:100EB00061756C74732E0D0A00656E746572203F47
:100EC00020746F2073656520617661696C61626C66
:100ED0006520636F6D6D616E64730D0A000D0A000D
:100EE0002E002E004E695665724469673A20566599
:100EF00072736174696C65204469676974616C2000
:100F000050756C736520436F6E74726F6C6C657294
:100F100020616E642053636F706520000000000044
:100F200000000000436F6D6D616E6473000000008F
:100F300000000000000000000000000000000000B1
:100F4000000000003F000000000000005B677569C2
:100F50005D2053686F772073746174757320616EC0
:100F60006420636F6D6D616E6473000070696E0064
:100F70000000000053657420616E64205175657235
:100F8000792050696E2053746174757300000000FD
:100F9000000000007461736B000000005365742052
:100FA000616E64205175657279205461736B2053B2
:100FB00074617475730000000000000061726D00C0
:100FC000000000003C7461736B3E3A2041726D205A
:100FD0005461736B0000000000000000000000007E
:100FE0000000000064697361726D00003C746173FD
:100FF0006B3E3A2044697361726D205461736B7368
:101000000000000000000000000000007374617226
:10101000740000003C7461736B3E3A20537461723B
:1010200074205461736B0000000000000000000099
:101030000000000073746F70000000005B3C74617E
:10104000736B3E207C20215D3A2053746F702054D6
:1010500061736B0000000000000000006164635FCA
:101060007265730072657475726E2041444320523C
:1010700065736F6C7574696F6E000000000000008E
:10108000000000002E000000000000005265706F9C
:101090007274207374617465206368616E67657330
:1010A0000000000000000000000000000000000040
:1010B00000000000436F6E666967000000000000DA
:1010C0000000000000000000000000000000000020
:1010D000000000006470696E0000000044656669ED
:1010E0006E652050696E73205B5D0000000000009B
:1010F0000000000000000000000000006474617344
:101100006B000000446566696E65205461736B7303
:10111000205B5D00000000000000000000000000F7
:101120000000000077726974650000005361766505
:10113000205461736B730000000000000000000089
:1011400000000000000000000000000073636F70EA
:10115000650000005B31365D205B3C6368616E2D8D
:101160006D61736B3E5D3A2053636F7065204D6F08
:10117000646500006563686F000000004563686F88
:1011800020286F66662C6F6E2900000000000000AA
:1011900000000000000000000000000072657365A0
:1011A00074000000466163746F7279205265736544
:1011B00074000000000000000000000000000000BB
:1011C0000000000068616C740000000048616C74ED
:1011D00020616C6C205461736B732028302C312992
:1011E000000000000000000000000000152E112487
:1011F0001FBECFEFCDBFDFE3DEBF2BE2A8E0B8E23A
:1012000001C01D92A03DB207E1F718E2A0E0B8E2EC
:10121000E4EDFFE602C005900D92A830B107D9F7C2
:1012200018E0C7EFD8E004C02197FE010E945936AC
:10123000C63FD107C9F70E94562E0C94A3360C94D2
:101240000000CF93DF9390E0FC01E45AF145208148
:101250002F3F89F06330710570F4FC01EE5BF145BE
:10126000A08130E2A39FD0011124BC5F61307105E1
:1012700029F411962C93DF91CF910895885D9145C3
:10128000EC01E881EF3F89F0CD014096E80FF92F9E
:10129000F11D9FB7F89412962C93808162307105EE
:1012A00039F4886080839FBFE6CFF0E0E0E0F1CFC3
:1012B000877FF8CF282F30E0F901E25FF145E08128
:1012C000EE2309F1E13021F0F0F0E63098F00895D6
:1012D0004091010A285D3145F90120812C5F81E0B0
:1012E00090E001C0880F2A95EAF7809584238093C7
:1012F000010A089580E1E89FF0011124E05AF54FBA
:1013000081818F7E81830895FF920F931F93CF93E6
:10131000DF93082F10E0F801E45AF145F0809FEFC9
:10132000F916A1F0EB018B3210F40E945A09F80172
:10133000EE5BF145E08180E2E89FF0011124FC5F63
:1013400080818F2179F0209739F4F682DF91CF9157
:101350001F910F91FF900895229711F4F782F6CF15
:10136000F582F4CFD801A85DB1458C91309771F02A
:101370008F3F61F07096E80FF11D9FB7F894808160
:10138000CD2B39F4877F80839FBFE0CFF0E0E0E092
:10139000F4CF8860F8CF0F931F93CF93082F10E0FE
:1013A000F801E45AF145C081CF3FB9F08B3210F417
:1013B0000E945A09F801EE5BF145E08180E2E89F66
:1013C000F0011124FC5F8085C82381E090E009F4DE
:1013D00080E0CF911F910F91089580E090E0F9CFC8
:1013E0008B3210F40C94CB0990E080E008958B329E
:1013F00010F40C94840908958B3210F40C94210994
:101400000895EF92FF920F931F93CF93DF938B3248
:1014100008F04CC0E82EF12CF701E85DF145D081D1
:10142000DF3F09F443C08B01C82F61E070E00E94E8
:10143000FC09101611065CF070E060E08C2FDF9163
:10144000CF911F910F91FF90EF900C94F7090F3FF0
:10145000110521F01CF061E070E0F0CFF701E25FD0
:10146000F145E081E13039F010F0E63030F100383C
:1014700011058CF7E1CF2FB7F8948D2F90E0FC0188
:10148000EE0FFF1FE85CF54F008311832FBF209103
:10149000010A049641E050E0BA0102C0660F771FCE
:1014A0008A95E2F7CB01822B8093010ADF91CF91DD
:1014B0001F910F91FF90EF90089570E1E79FF00169
:1014C0001124E05AF54F8FB7F894948594870587D7
:1014D0008FBF818180618183E9CFCF93DF938FB705
:1014E000F8942091192B30911A2B40911B2B50917D
:1014F0001C2BE091BA0A9091B60A90FF06C02F5FAC
:101500003F4F4F4F5F4FE091BA0A8FBFA091172B0B
:10151000B091182BC091152BD091162B0E947A35C3
:10152000EC9F9001ED9F300D1124620F731F811D00
:10153000911DDF91CF910895AF92BF92CF92DF922C
:10154000EF92FF920F931F93CF93DF936C017B0178
:101550008B01040F151FEB015E01AE18BF08C01709
:10156000D10759F06991D601ED91FC910190F0817C
:10157000E02DC6010995892B79F7C501DF91CF913F
:101580001F910F91FF90EF90DF90CF90BF90AF90A1
:101590000895EF92FF920F931F93CF93DF93C82F7D
:1015A000D0E0A09695E0CC0FDD1F9A95E1F7E98495
:1015B000F82EFF0CFF0CFF0C01E010E08E2D8023B5
:1015C000A9F02F2D210F30E0220F331FF901EC5627
:1015D000F74D80819181892B49F00190F081E02DB8
:1015E0002C5C374DD9018D919C9109951F5F000F9F
:1015F000183021F7E986DF91CF911F910F91FF906D
:10160000EF9008958B3230F5282F30E0F901E85D36
:10161000F145A081AF3FF1F02E5B3145F9018081AA
:10162000E82FEE0FEE0FEE0FEA0FE03398F4F0E242
:101630008F9FC00111249C5F4096A80FB92FB11D48
:101640008C91887F8C93F0E0EE0FFF1FEC56F74DE6
:101650001082118208958B32B8F590E0FC01E85DAC
:10166000F145E081EF3F81F18E5B9145DC012C91EA
:10167000822F880F880F880F8E0F803328F590E017
:10168000880F991FDC01AC56B74D6D937C938C5C31
:10169000974DDC011D921C9233E04330510529F037
:1016A00032E04430510509F031E0B0E22B9FC00137
:1016B00011249C5F4096E80FF92FF11D8081887FEF
:1016C00080838081832B80830895FC015489458920
:1016D000252F30E0842F90E0821B930B541710F0DD
:1016E000CF96089501970895FC01928983899817F0
:1016F00061F0A389AE0FBF2FB11D59968C919389CC
:101700009F5F9F73938B90E008958FEF9FEF0895F5
:10171000FC0192898389981731F08389E80FF11DC4
:10172000818D90E008958FEF9FEF0895FC019289DD
:101730002389892F90E0805C9F4F821B91098F73D2
:1017400099270895CF93DF93EC01E881F981068012
:10175000F781E02D0995EC85FD8586818F73868361
:10176000EC85FD8585818F7585838B898A8B198AA8
:10177000DF91CF910895CF92DF92EF92FF920F9376
:101780001F93CF93DF93EC016A017B01022F8989BC
:10179000882339F0E881F9810288F389E02DCE01B0
:1017A000099598898091E205892B8093E2051FB7FE
:1017B000F89460E070E281EA97E0A70196010E9448
:1017C000183669017A018FEFC81AD80AE80AF80AB0
:1017D000F694E794D794C794EC85FD8586818D7F38
:1017E0008683EC85FD8586818683198AA0912311E5
:1017F0000A2E000CBB0BA70196010E945F3620E069
:1018000034E040E050E00E943A36EC85FD85C20E9F
:10181000D31EE41EF51EC086D186EC85FD850783A8
:10182000EC85FD858681806C8683EC85FD858581D0
:10183000806885838E8562E070E00E94FC098F8558
:1018400061E070E00E94F7098F8561E070E00E941E
:10185000FC091FBFDF91CF911F910F91FF90EF9077
:10186000DF90CF900895CF93DF93FC019489858911
:10187000C485D585981306C08D818F7D8D83DF91BA
:10188000CF910895A589AE0FBF2FB11DA75ABF4FA5
:101890002C91858990E001968F739927858B80E440
:1018A0008C83A485B58512962C9394898589981389
:1018B000E6CFA485B58515968C9115978F7D1596E5
:1018C0008C9387898823D9F2808D80931301178A9E
:1018D000D6CFDC011C96ED91FC910FB607FE03C03C
:1018E000258125FD04C0248125FD0C94330C089529
:1018F000EF92FF920F931F93CF93DF93EC0181E060
:10190000898B9C898D8998131CC0AC85BD851496E4
:101910008C91149785FF15C012966C93AC85BD858C
:1019200080E414968C93EC85FD8585818F7D85837D
:1019300081E090E0DF91CF911F910F91FF90EF90A8
:1019400008958091110180FF08C080911301888F54
:101950008E898093130181E08F8BF62E0C8910E025
:101960000F5F1F4F0F731127E02E8D898E1104C05A
:10197000CE010E94690CF9CFEC89EC0FFD2FF11D0F
:10198000E75AFF4FF0820C8BEC85FD8585818062E4
:10199000CECF0F931F93CF93DF938C01D0E0C0E0A5
:1019A000F801EC0FFD1F6491662341F08DE19BE28D
:1019B0000E94780C892B11F02196F2CFCE01DF9195
:1019C000CF911F910F910895CF93DF93FC0121894F
:1019D0002223C9F0EC018091110180FF08C08091A1
:1019E0001301808F86898093130181E0878BEC85BA
:1019F000FD85858185FD03C0848186FD04C0CE01FF
:101A00000E94690CF4CFDF91CF91089581E0089591
:101A10008F929F92AF92BF92CF92DF92EF92FF92FE
:101A20000F931F93CF93DF93EC01888110E08D32E9
:101A300011F4219611E08881082E000C990BC097B3
:101A40000A9710F500E0C12CD12C7601FE01E00FC1
:101A5000F11DE0810E2E000CFF0BF097EA30F1052E
:101A6000C0F4AAE0B0E0A70196010E947A354F01C8
:101A7000FF0FAA08BB08860E971EA81EB91E8C145D
:101A80009D04AE04BF04B4F4CC24CA94DC2C7601CB
:101A900002C0111113C0C701B601DF91CF911F9190
:101AA0000F91FF90EF90DF90CF90BF90AF909F90FD
:101AB0008F9008950F5F75016401C8CFF094E09492
:101AC000D094C094C11CD11CE11CF11CE4CF8F92B6
:101AD0009F92AF92BF92CF92DF92EF92FF921F93AD
:101AE000CF93DF93EC0110E0C12CD12C7601FE01E5
:101AF000E10FF11DE0810E2E000CFF0BF097EA3094
:101B0000F105D8F4AAE0B0E0A70196010E947A3569
:101B10004F01FF0FAA08BB08860E971EA81EB91E0C
:101B20008C149D04AE04BF0420F01F5F7501640196
:101B3000DECFCC24CA94DC2C7601C701B601DF913C
:101B4000CF911F91FF90EF90DF90CF90BF90AF901B
:101B50009F908F900895CF93C92F682F8DE19BE2BE
:101B60000E94780C6C2F8DE19BE2CF910C94780C45
:101B70001F93CF93DF93172FD82FC92F8DE19BE2AF
:101B80000E94780C612F8DE19BE20E94780C6D2FF2
:101B90008DE19BE20E94780C6C2F8DE19BE2DF913E
:101BA000CF911F910C94780C0F931F93CF93DF93D9
:101BB00010E007E180917E291817D8F4019FE00119
:101BC0001124CC50D74D8E89882389F01E8A612F2D
:101BD0008DE19BE20E94780C8A850E94F0090E94A8
:101BE000AB0D6A897B898C899D890E94B80D1F5F26
:101BF000E1CFDF91CF911F910F9108950F931F9324
:101C0000CF93DF9310E007E180917E291817F0F45D
:101C1000019FE0011124CC50D74D8E898823A1F07B
:101C20001E8A612F8DE19BE20E94780C8A850E94BA
:101C3000F009682F8DE19BE20E94780C6A897B890C
:101C40008C899D890E94B80D1F5FDECFDF91CF91F7
:101C50001F910F91089508951F93CF93DF93EC0187
:101C6000162F8F85882391F08330A9F00E946D0A8A
:101C70006A8B7B8B8C8B9D8B612F70E0688B798B53
:101C800081E08E8BDF91CF911F91089570E08A855E
:101C90000E94F709EBCF662339F01D85612F70E0B4
:101CA0008A850E94010AE2CF1C85F8CFDC011F96CD
:101CB000EC911F97F0E0EC53F2458081813049F0C0
:101CC0001A968C911A97EEEAFDEA30E020E08F3FF9
:101CD00021F48FEF1E968C9308959191891731F01E
:101CE0002F5F3F4F26313105C1F72FEF1E962C9302
:101CF00008958F3F59F09091602A891750F42DE292
:101D0000829FC00111248158964D089580E99EEA72
:101D1000089590E080E00895282F30E09DE2899FAB
:101D2000F0011124E158F64D13A69285925093309C
:101D300050F54091602AAFE7B9E290E03B96491731
:101D400081F09B965C919B97533041F4981731F04A
:101D500060811B965C911B976517A9F09F5F9D960C
:101D6000EECF8DE2829FF001839FF00D1124E158A8
:101D7000F64DE38587E1E89FF0011124EC50F74D23
:101D800082850C94020B0895CF93DF93C82FD0E087
:101D90009DE2899FF0011124E158F64D93A59330FF
:101DA00011F40E948C0E8FB7F8949DE29C9FF00175
:101DB0009D9FF00D1124E158F64D4EEF5FEF6FEF50
:101DC0007FEF478F50A361A372A38FBF81E084A7E9
:101DD000DF91CF9108951F93CF93DF93182FC82FD2
:101DE000D0E02DE2829FF0011124E158F64D8FEFF3
:101DF0009FEFDC01878F90A3A1A3B2A3868D82FB06
:101E0000992790F993A791E094A792859530A9F42A
:101E1000E38527E1E29FF0011124EC50F74D208982
:101E20003189232BC1F00E946D0AAB01BC01812FC7
:101E3000DF91CF911F910C948314963009F059C013
:101E4000E38527E1E29FF0011124EC50F74D208952
:101E50003189232B41F382FFB3C08EEF890F83308A
:101E600008F099C08DE28C9FF0018D9FF00D112438
:101E7000E158F64DE38587E1E89FF0011124EC502D
:101E8000F74D26852F3F09F49BC082858F3F09F4CB
:101E900038C0E22FF0E0DF01AA0FBB1FA85FB74DEB
:101EA0001C9311969C9344E050E0923031F042E054
:101EB00050E0933011F443E050E0263110F5ED5935
:101EC000F04F0C9459367D0F8C0F8F0F920F950F9A
:101ED000980F9B0F9E0FA10FA40FA70FAA0FAD0F76
:101EE000B00FB30FB60FB90FBC0FBF0FC20FC50FA6
:101EF000C80F992309F497CFAECF63E976E10E942A
:101F00002B0B8DE28C9FF0018D9FF00D1124E15879
:101F1000F64D83E083A754C06BE876E1F0CF63E829
:101F200076E1EDCF6BE776E1EACF63E776E1E7CFE5
:101F30006BE676E1E4CF63E676E1E1CF6BE576E14F
:101F4000DECF63E576E1DBCF6BE476E1D8CF63E407
:101F500076E1D5CF6BE376E1D2CF63E376E1CFCF05
:101F60006BE276E1CCCF63E276E1C9CF6BE176E15B
:101F7000C6CF63E176E1C3CF6BE076E1C0CF63E02B
:101F800076E1BDCF6BEF75E1BACF63EF75E1B7CF07
:101F90006BEE75E1B4CF9750923090F4EDE2EC9F88
:101FA000D001ED9FB00D1124A158B64D1B968C9118
:101FB000E89FF0011124E158F64D868D82FDA1CFF6
:101FC000DF91CF911F9108954F925F926F927F9210
:101FD0008F929F92AF92BF92CF92DF92EF92FF9239
:101FE0000F931F93CF93DF939090612A911079C044
:101FF0008DE2882E9EEF492E55245A94652C752C1F
:102000008091602A981608F06CC0C92CD12C8C9C49
:10201000F0018D9CF00D1124E158F64D878D90A1B3
:10202000A1A1B2A1892B8A2B8B2B09F058C0868DD8
:1020300080FF43C0892D0E94EB0E0FE719E2F12CBF
:10204000E12C8C9CE0018D9CD00D1124C158D64D03
:102050005E0123E2A20EB11CA7968091602A8E1524
:102060001F04E9F1E4F1CE14DF0409F1F801878DD2
:1020700090A1A1A1B2A18F3F9F4FAF4FBF4FB9F425
:10208000F8018285883099F48385891110C0F501A3
:10209000408151816281738188819981AA81BB814C
:1020A000480F591F6A1F7B1F8E2D0E948314FFEF5C
:1020B000EF1AFF0A035D1F4FD0CF83A5833019F4B9
:1020C000892D0E948C0E8C9CF0018D9CF00D1124AA
:1020D000E158F64D478E50A261A272A2AECF939402
:1020E0008FCFDF91CF911F910F91FF90EF90DF90F5
:1020F000CF90BF90AF909F908F907F906F905F90A8
:102100004F9008954F925F926F927F928F929F921D
:10211000AF92BF92DF92EF92FF920F931F93CF93F4
:10212000DF93DFB6F8944091602A50E00FE719E2A0
:10213000F80190E080E08417950734F4268D20683C
:10214000268F0196BD96F7CFCFE7D9E2F12CE12C8F
:10215000812C912C540183948091602A90E0E816A0
:10216000F906D4F48F8E98A2A9A2BAA20E946D0A91
:102170004BA05CA06DA07EA0641975098609970923
:102180006FA378A789A79AA78E2D0E9408118FEFB9
:10219000E81AF80AAD96E0CFEFE7F9E230E020E088
:1021A0008217930739F0468D4068468F2F5F3F4F67
:1021B000BD96F6CF0E94E40FD0E0C0E08091602A87
:1021C00090E0C817D9072CF48C2F0E94C40E2196DA
:1021D000F5CF30E020E08217930749F0F801468DF3
:1021E0004F77468F2F5F3F4F035D1F4FF4CFDFBE0A
:1021F000DF91CF911F910F91FF90EF90DF90BF90F3
:10220000AF909F908F907F906F905F904F900895C8
:102210008F929F92AF92BF92CF92DF92EF92FF92F6
:102220001F93CF93DF93C82FD0E02DE2829FF00160
:102230001124E158F64D878D90A1A1A1B2A11816E5
:1022400019061A061B060CF097C0682F61704C0126
:102250005D0121E0821A9108A108B108878E90A241
:10226000A1A2B2A289288A288B2899F4868497840F
:10227000A088B1882EEF82162FEF9206A2062FE3D8
:10228000B20639F4268D27FD04C0878E90A2A1A244
:10229000B2A22DE22C9FF0012D9FF00D1124E158E8
:1022A000F64D878C90A0A1A0B2A081149104A10446
:1022B000B10469F421E024A7C684D784E088F188BA
:1022C000CD28CE28CF2819F08095682F61702DE297
:1022D0002C9FF0012D9FF00D1124E158F64D9585AE
:1022E000943008F0A1C0248580917E29281798F4A5
:1022F000E22EF12C87E1289F900111242C50374DBC
:10230000923031F0933009F443C0913021F46927C1
:10231000C9010E942C0E8DE28C9FF0018D9FF00D63
:102320001124E158F64D478D50A161A172A11416F8
:1023300015061606170604F587A190A5A1A5B2A556
:1023400040FDF3C046895789608D718D840F951FBC
:10235000A61FB71F2DE22C9FF0012D9FF00D112419
:10236000E158F64D0097A10520E4B20708F0E2C05D
:1023700087A390A7A1A7B2A7DF91CF911F91FF904C
:10238000EF90DF90CF90BF90AF909F908F90089587
:10239000662309F28E9DF0018F9DF00D1124EC5003
:1023A000F74D87858823B9F0833049F10E946D0A83
:1023B00027E12E9DF0012F9DF00D1124EC50F74DDB
:1023C000628B738B848B958B812F90E0808B918BAC
:1023D00081E0868BA0CF2089318911E0232B09F081
:1023E00010E0612F70E087E18E9DF0018F9DF00D70
:1023F0001124EC50F74D82850E94F709D7CF8089D0
:10240000918914851817190609F41585612F70E054
:1024100087E18E9DF0018F9DF00D1124EC50F74D5A
:1024200082850E94010AC2CF662309F474CF868D8B
:1024300087FD71CF84853091602A831708F06CC0C6
:10244000E82EF12C963009F455C040F5943009F48B
:1024500060C0953009F448C08DE28E9DD0018F9DFB
:10246000B00D1124A158B64D8C9FF0018D9FF00D39
:102470001124E158F64D43A154A165A176A187A08E
:1024800090A4A1A4B2A4480D591D6A1D7B1D93966A
:102490004D935D936D937C9396973DCF973009F163
:1024A0009830D1F62E9DF0012F9DF00D1124E158AA
:1024B000F64D478D50A161A172A14E3F9FEF590784
:1024C0006907790749F214161506160617060CF166
:1024D0009DE29C9FF0019D9FF00D1124E158F64D67
:1024E00009C00E94EB0EB8CF181419041A041B047B
:1024F0000CF4B2CF43A154A165A176A187A090A40A
:10250000A1A4B2A4480D591D6A1D7B1D0E9483140D
:10251000A3CF0E949B16A0CF8F3F09F0FCCE943032
:1025200009F0F9CE0E948210F6CE428D538D648D53
:10253000758D0CCF8F5F9F4FAF4FBF4387A390A781
:10254000A1A7B2A783A194A1A5A1B6A10197A109B2
:10255000B04C83A394A3A5A3B6A30ECFCF92DF92D2
:10256000EF92FF920F931F93CF93DF93CFE7D9E2C0
:1025700010E000E08091602A80171106F1F0ECF085
:102580008BA5811116C00E946D0ACBA0DCA0EDA026
:10259000FEA06C197D098E099F09CFA0D8A4E9A4DB
:1025A000FAA46C157D058E059F0518F0802F0E94FA
:1025B00008110F5F1F4FAD96DDCFDF91CF911F91B7
:1025C0000F91FF90EF90DF90CF9008952F923F9260
:1025D0004F925F926F927F928F929F92AF92BF9233
:1025E000CF92DF92EF92FF920F931F93CF93DF93DF
:1025F00000D01F92CDB7DEB72FB72983F8948FEFA5
:10260000809300280E946D0A2B013C01312CCC24C0
:10261000CA94DC2C76016DE2262E8091602A381651
:1026200008F079C0032D10E0209EC001219E900D7E
:1026300011248158964D8A839B83FC0183A58823AE
:1026400009F467C04F01FFE18F0E911CEA81FB8105
:10265000878D90A1A1A1B2A1181619061A061B0612
:102660000CF057C083A194A1A5A1B6A147A150A584
:1026700061A572A5840F951FA61FB71F8419950920
:10268000A609B709B3965F012A813B81295D3F4FB7
:102690002A833B8382339105A105B10504F5832D7F
:1026A0000E940811F50180819181A281B381EA81A4
:1026B000FB814081518162817381840F951FA61F28
:1026C000B71F84199509A609B709F4014081518102
:1026D000628173811416150616061706DCF2209E19
:1026E0009001219E300D11242158364DF901478D5E
:1026F00050A161A172A114161506160617064CF416
:102700008C159D05AE05BF0520F4309200286C01A4
:102710007D01339482CF809100288F3F09F4CAC095
:10272000C114D104E104F0E4FF0648F08FEF809378
:102730000028CC24CA94DC2CEC2C4FE3F42E2091FE
:10274000B82B3091B92B2A833B83F90180818E7F8E
:10275000808380818670823009F446C0843051F0D5
:1027600081110FC094E0CC0CDD1CEE1CFF1C9A956F
:10277000D1F707C032E0F694E794D794C7943A951E
:10278000D1F71092C62B1092C72B970144275527DB
:102790002093BA2B3093BB2B4093BC2B5093BD2B73
:1027A000C701B601882799276093BE2B7093BF2B72
:1027B0008093C02B9093C12B211531054105510504
:1027C00079F1F0E0E0E08F0101501109613071050D
:1027D0008105910589F4980150E040E0C701B601F8
:1027E0000E941836F801EFCF23E0CC0CDD1CEE1C64
:1027F000FF1C2A95D1F7C5CF6093BE2B7093BF2BDA
:102800008093C02B9093C12BE093C62BF093C72BE2
:102810002093BA2B3093BB2B4093BC2B5093BD2BF2
:102820008091C62B9091C72B01978093C62B9093D4
:10283000C72B4091BE2B5091BF2B6091C02B709144
:10284000C12B411551056105710561F041505109D8
:10285000610971094093BE2B5093BF2B6093C02B2D
:102860007093C12BEA81FB8120812E7F208321E0A0
:1028700026834091BA2B5091BB2B6091BC2B709159
:10288000BD2B4093C22B5093C32B6093C42B7093EA
:10289000C52B452B462B472B21F48091BE2B9091C5
:1028A000BF2BEA81FB8184879587128613868081FE
:1028B00081608083F981FFBF2396CDBFDEBFDF91AA
:1028C000CF911F910F91FF90EF90DF90CF90BF902D
:1028D000AF909F908F907F906F905F904F903F90C0
:1028E0002F900895E091B82BF091B92B80818E7FC5
:1028F000808381E08683809100288F3F11F00E94C1
:1029000008110C94E6128F929F92AF92BF92CF92D1
:10291000DF92EF92FF920F931F93CF93C82ED12C8B
:102920002DE2829FF0011124E158F64D968D97FD1E
:1029300056C04A015B01C82F1FB7F89483A294A226
:10294000A5A2B6A2428953896489758947A350A775
:1029500061A772A786859785A089B189880F991F7D
:10296000AA1FBB1F0196A11DB11D878F90A3A1A314
:10297000B2A381E084A7452B462B472B19F48C2D5D
:102980000E94081117FD0E94E6121FBF0FE719E20F
:10299000F12CE12C8091602A8E151F0401F1FCF0CE
:1029A000CE14DF04B1F0F801878D90A1A1A1B2A1EE
:1029B0008F3F9F4FAF4FBF4F61F4F8018285873043
:1029C00041F483858C1305C0B501A4018E2D0E94AE
:1029D0008314FFEFEF1AFF0A035D1F4FDBCFCF9188
:1029E0001F910F91FF90EF90DF90CF90BF90AF902D
:1029F0009F908F9008957F928F929F92AF92BF92F7
:102A0000CF92DF92EF92FF920F931F93CF93DF93BA
:102A100094EFC92E98E2D92E10E000E027E1922E23
:102A20008824839480917E298017110609F00CF484
:102A300068C0D6011F96EC911F97F0E0EC53F24569
:102A40008081813009F457C01A968C910E94F00958
:102A50009C013327909EE001919ED00D1124CC5013
:102A6000D74D488959892417350709F444C0782E71
:102A7000288B398B0E946D0A6A8B7B8B8C8B9D8B8C
:102A80008E8A8FE7E82E89E2F82EB12CA12C62966F
:102A90008091602A8A151B0471F16CF1F70192850F
:102AA000923010F1838580131FC0478D50A161A122
:102AB00072A14F3F5F4F6F4F7F4FB1F4933079F06A
:102AC00050F4923079F0488159816A817B818A2D56
:102AD0000E94831409C0953029F09630A1F7772021
:102AE00091F302C07110EFCF8FEFA81AB80AADE2D0
:102AF000EA0EF11CCDCF0F5F1F4FB7E1CB0ED11CFB
:102B000091CFDF91CF911F910F91FF90EF90DF90C8
:102B1000CF90BF90AF909F908F907F900895CF936C
:102B2000C82F0E946D0AAB01BC01EC2FF0E0EE0F44
:102B3000FF1FE85FF74D808191812DE2829FF001B8
:102B40001124E158F64D238530E0923069F497E185
:102B5000929FF001939FF00D1124EC50F74DA1E0EE
:102B6000B0E0A08BB18B0CC09330D9F497E1929F69
:102B7000F001939FF00D1124EC50F74D108A118A4B
:102B800097E1929FF001939FF00D1124EC50F74DC7
:102B9000428B538B648B758B91E0968BCF910C9409
:102BA000831497E1929FF001939FF00D1124EC5054
:102BB000F74D0088F189E02DA1E0B0E0EF2B11F096
:102BC000B0E0A0E097E1929FF001939FF00D1124F7
:102BD000EC50F74DC6CF85E10E94020B85E10E94C3
:102BE0008F150C94E61284E10E94020B84E10E948E
:102BF0008F150C94E61283E10E94020B83E10E9480
:102C00008F150C94E61282E10E94020B82E10E9471
:102C10008F150C94E61281E10E94020B81E10E9463
:102C20008F150C94E61280E10E94020B80E10E9455
:102C30008F150C94E6128FE00E94020B8FE00E9429
:102C40008F150C94E6128EE00E94020B8EE00E941B
:102C50008F150C94E6128DE00E94020B8DE00E940D
:102C60008F150C94E6128CE00E94020B8CE00E94FF
:102C70008F150C94E6128BE00E94020B8BE00E94F1
:102C80008F150C94E6128AE00E94020B8AE00E94E3
:102C90008F150C94E61289E00E94020B89E00E94D5
:102CA0008F150C94E61288E00E94020B88E00E94C7
:102CB0008F150C94E61287E00E94020B87E00E94B9
:102CC0008F150C94E61286E00E94020B86E00E94AB
:102CD0008F150C94E61285E00E94020B85E00E949D
:102CE0008F150C94E61284E00E94020B84E00E948F
:102CF0008F150C94E61283E00E94020B83E00E9481
:102D00008F150C94E61282E00E94020B82E00E9472
:102D10008F150C94E61281E00E94020B81E00E9464
:102D20008F150C94E61280E00E94020B80E00E9456
:102D30008F150C94E6128F929F92AF92BF92CF9212
:102D4000DF92FF920F931F93CF93DF93C82ED12C66
:102D50001FB7F8949DE29C9DE0019D9DD00D11242C
:102D6000C158D64D4F8D58A169A17AA14F3F5F4FF1
:102D70006F4F7F4F0CF448C0F82E8E8D80688E8F79
:102D800081E090E0A0E0B0E08F8F98A3A9A3BAA360
:102D90000E946D0A8BA09CA0ADA0BEA06819790905
:102DA0008A099B096FA378A789A79AA78C2D0E94EF
:102DB00008118E8D8F778E8F1FBFCFE7D9E210E07D
:102DC00000E08091602A80171106F9F0F4F0C01637
:102DD000D106B1F08F8D98A1A9A1BAA18F3F9F4FC5
:102DE000AF4FBF4F69F48A85883051F48B858F11BE
:102DF00007C00E946D0AAB01BC01802F0E948314A2
:102E00000F5F1F4FAD96DDCF1FBFDF91CF911F9199
:102E10000F91FF90DF90CF90BF90AF909F908F90D9
:102E2000089590917E29891738F427E1829FC00187
:102E300011248C50974D089590E080E008958430DF
:102E400048F4E82FF0E0EE0FFF1FE458F2458081D0
:102E50009181089582E99EEA08959DE2899FF0019B
:102E60001124E158F64D878D90A1A1A1B2A11816A9
:102E700019061A061B062CF08E5F843018F080E0CD
:102E8000089583E008951F93CF93DF93C82FD62F23
:102E90008091602AC817A0F4681710F0DFEFD80FF0
:102EA0001DE2DC1768F01C9FF0011124E158F64D7B
:102EB000868D81FF03C08C2F0E94EB0ECF5FF1CF78
:102EC000DF91CF911F910895CF92DF92EF92FF9201
:102ED0009091602A891760F5691710F06FEF690FFC
:102EE000982F3DE22EEFC22EDD24DA94ED2CFD2C3E
:102EF000691780F0399FF0011124E158F64DC78E13
:102F0000D0A2E1A2F2A2268D22FB222720F923A73C
:102F10009F5FEECF9091052891110AC09091612A90
:102F2000911106C0FF90EF90DF90CF900C94431763
:102F3000FF90EF90DF90CF900895DF92EF92FF9295
:102F40000F931F93CF93DF9390917E29992309F4D8
:102F500043C0691710F06FEF690F082F10E097E179
:102F6000899FE0011124CC50D74DE62EF12C87E14A
:102F7000D82EE016F10684F19F858A85E92FF0E0CE
:102F8000EC53F24520812130A9F46C8570E0911159
:102F90000EC00E94F7098C8590E0D09EF001D19E72
:102FA000F00D1124EC50F74D808B918B11C00E94D5
:102FB000010AF1CF0E94F009D09EF001D19EF00DE0
:102FC0001124EC50F74D208931892817390761F712
:102FD0000F5F1F4F6796CDCFDF91CF911F910F915C
:102FE000FF90EF90DF9008950F931F93CF93DF939F
:102FF000C4EFD8E210E000E080917E29801711062E
:1030000091F08CF0EB85EF87F0E0EC53F2456081B6
:1030100070E08A850E94FC09CE010E94560E0F5F67
:103020001F4F6796E9CF80910528811107C06FEF88
:10303000DF91CF911F910F910C949D17DF91CF914C
:103040001F910F9108950F931F93CF93DF93C4EFB8
:10305000D8E210E000E080917E298017110641F04F
:103060003CF08A850E94020B0F5F1F4F6796F3CFDB
:10307000DF91CF911F910F910895CF93DF93CDB73B
:10308000DEB7CC55D109CDBFDEBF0E942318FE01AB
:103090003D9680E5DF011D928A95E9F787E0EAE435
:1030A000FDEADE01119601900D928A95E1F783E029
:1030B000FE013896DF01982F1D929A95E9F792E06C
:1030C0009B8721E02C8728E0E4E5FDEADE015896A5
:1030D00001900D922A95E1F718A219A28AA324E083
:1030E000EEE5FDEADE019F9601900D922A95E1F74B
:1030F000FE01F39626E0DF011D922A95E9F725E00F
:1031000029AF27E0E8E6FDEADE01AA5BBF4F0190A8
:103110000D922A95E1F7E6E4F0E0EC0FFD1F3796FB
:10312000DF011D928A95E9F788E061968FAF61977C
:1031300062969FAF629784E080937E298CE5EC5481
:10314000F109A4EFB8E201900D928A95E1F7C45A13
:10315000DF4FCDBFDEBFDF91CF910C94F417DC01C0
:10316000ED91FC910088F189E02D23E030E0099495
:10317000FC0101900020E9F73197AF01481B590B82
:10318000BC018DE19BE20C949C0A009711F00C9419
:10319000B81890E080E008958AE99EEA0C94C5187A
:1031A0008F929F92AF92BF920F931F93CF93DF9313
:1031B000CDB7DEB7A197CDBFDEBF19A2423008F46C
:1031C0004AE08E010F5D1F4F842E912CB12CA12C53
:1031D000A50194010E941836E62FB901CA01EA3010
:1031E000DCF4E05DD801EE938D01232B242B252BFD
:1031F00079F790E080E0109719F0CD010E94B8189F
:10320000A196CDBFDEBFDF91CF911F910F91BF90EF
:10321000AF909F908F900895E95CE4CFCF92DF92BA
:10322000EF92FF92CF93DF9397FF1BC06B017C015E
:103230006DE28DE19BE20E94780CEC016627772716
:10324000CB016C197D098E099F094AE00E94D018B4
:103250008C0F9D1FDF91CF91FF90EF90DF90CF906B
:1032600008954AE0DF91CF91FF90EF90DF90CF90EB
:103270000C94D018BC01990F880B990B0C940E1963
:10328000682F70E090E080E04AE00C94D01866234C
:1032900081F0FA01808191810E94670D6F3F710575
:1032A0008105910521F018F06FEF7FEFCB016F3FA3
:1032B00061F48FE99EEA0E94C5188091612A0E94FC
:1032C000401987E49DE00C94C90C6093612A611158
:1032D0000C9482106FEF80E00C9464174F925F9211
:1032E0006F927F928F929F92AF92BF92CF92DF9216
:1032F000EF92FF926B017C0188EE482E83E0582EFE
:10330000612C712CC701A30192010E94183649015A
:103310005A01672B682B692BA9F04AE0C701B60157
:103320000E94D01883E99EE0FF90EF90DF90CF904D
:10333000BF90AF909F908F907F906F905F904F90D5
:103340000C94C90CCA01B901A30192010E9418365C
:10335000672B682B692B41F04AE0C501B4010E943C
:10336000D01888E99EE0E0CFC701B60120E432E43E
:103370004FE050E00E941836CA01B9014AE00E94AD
:10338000D01886E99EE0D0CFEF92FF920F931F9363
:10339000CF93DF93C82F90E0FC01EE0FFF1FE80FE3
:1033A000F91FE852F245D28188E2C89F70011124CA
:1033B00087010C5D104FD1FF0DC0C8010E94C90CE0
:1033C00089E39EE0DF91CF911F910F91FF90EF90E5
:1033D0000C94C90C85EA9EEA0E94C518C701845E58
:1033E000904F0E94C90C81E0CF3009F480E0811138
:1033F0005CC0D3FF2FC087E39EE00E94C90C6091A0
:10340000622A7091632A8091642A9091652A0E94B1
:103410000E1984E39EE00E94C90C82E39EE00E94A4
:10342000C90C60E070E0CB010E940E198DE29EE0B5
:103430000E94C90C61E070E080E090E00E940E19EB
:103440008AE29EE00E94C90CC8010E94C90C85E175
:103450009EE0B8CF88E29EE00E94C90C6091622A8B
:103460007091632A8091642A9091652A4AE00E94B3
:10347000D01885E29EE00E94C90C83E29EE00E9483
:10348000C90C4AE060E070E0CB010E94D0188EE1E8
:103490009EE00E94C90C4AE061E070E080E090E0AC
:1034A0000E94D0188BE19EE0CDCF88E19EE0CACF8C
:1034B000EF92FF920F931F93CF93DF9310E007E1FA
:1034C00080917E29181730F5E12EF12C0E9DE00138
:1034D0000F9DD00D1124CC50D74D8E898823C1F07B
:1034E0001E8A8EE79DE00E94C90CC70101960E94CA
:1034F0003A198CE79DE00E94C90C6889798990E0AF
:1035000080E04AE00E94D01889E79DE00E94C90C43
:103510001F5FD6CFC0E0DDE28091602AC81720F59A
:103520000C2F10E0D09FF001D19FF00D1124E15835
:10353000F64D84A58823B1F014A686E79DE00E948D
:10354000C90CC80101960E943A1984E79DE00E94C7
:10355000C90C8C2F0E942D170E94401981E79DE015
:103560000E94C90CCF5FD8CF81E89DE0DF91CF9159
:103570001F910F91FF90EF900C94C90CCF93DF93A4
:10358000EB010E945E358883CE01DF91CF910895D3
:10359000FF920F931F93CF93DF938C01EB01F88081
:1035A0000E945E35F81621F06F2DC8010E94663525
:1035B000CE01DF91CF911F910F91FF900895BF929F
:1035C000CF92DF92EF92FF920F931F93CF93DF93EF
:1035D0007C01EB018B01040F151FB990F701C0802E
:1035E000D180C6010E945E35B81621F06B2DC60150
:1035F0000E946635F70180819181019680839183D5
:10360000C017D10751F7DF91CF911F910F91FF9014
:10361000EF90DF90CF90BF9008950F931F93CF93BB
:10362000DF9300D0CDB7DEB783E690E089839A833D
:1036300041E050E060E67AE2CE0101960E94DF1A96
:1036400010E00DE28091602A181768F4109FB00115
:1036500011246158764D4FE150E0CE0101960E9451
:10366000DF1A1F5FEFCF0F900F90DF91CF911F9167
:103670000F9108950E940D1B85E89DE00C94C90CE4
:103680000F931F93CF93DF9300D0CDB7DEB782E0C7
:1036900090E089839A8341E050E06EE779E2CE01C1
:1036A00001960E94DF1A10E007E180917E29181729
:1036B00068F4109FB00111246C50774D40E150E048
:1036C000CE0101960E94DF1A1F5FEFCF0F900F907F
:1036D000DF91CF911F910F9108951092612A10925E
:1036E000622A1092632A1092642A1092652A0E941C
:1036F0003D180E94401B1092602A6FEF80E00E94EC
:1037000064170E940D1B8FEF9DE00C94C90C3F9233
:103710004F925F926F927F928F929F92AF92BF92E1
:10372000CF92DF92EF92FF920F931F93CF93DF938D
:10373000CDB7DEB76097CDBFDEBF5C016B01188AE5
:10374000FB0101900020E9F73197E61BF70B612C94
:10375000712C00E08FE0482E7F01FF249FE0892E2E
:10376000912C342C301A432D50E0B501660D711D9B
:1037700081E090E08C0F9D1F800F911D0E94A2326E
:1037800010E0802F90E0E1E0F0E0EC0FFD1FE80F8B
:10379000F91F5080552019F02CE2521230C00F3022
:1037A000B1F40FE0112389F0612F70E0A401461BF2
:1037B000570B81E090E08C0F9D1F680F791FCE01A1
:1037C00001960E949436042D011B630CCACF612F11
:1037D00070E0861B970B8E159F0561F481E090E0E9
:1037E0008C0F9D1F680F791FA701C6010E948636A6
:1037F000892B49F07394552021F011E0100F0F5FD1
:10380000C0CF77247A94872D6096CDBFDEBFDF913D
:10381000CF911F910F91FF90EF90DF90CF90BF90CD
:10382000AF909F908F907F906F905F904F903F9060
:103830000895EF92FF920F931F93CF938C01C62FA1
:103840007A01BA0183EC91E00E94871B682F70E037
:1038500090E080E06F3F71058105910571F0F801FE
:103860002785233099F4613071058105910571F444
:103870006FEF70E080E090E009C0C7010E94080D82
:103880006F3FFFEF7F078F079F0761F0F8012785E4
:1038900021110FC051E0672B682B692B09F450E010
:1038A000852FC82F8C2FCF911F910F91FF90EF90F4
:1038B0000895DC01CB018F3F9105A105B10529F0E9
:1038C00024F08FEF90E0A0E0B0E0B7FFEACF80E017
:1038D00090E0DC01E6CF5F926F927F928F929F9291
:1038E000AF92BF92CF92DF92EF92FF920F931F930E
:1038F000CF93DF93CDB7DEB76097CDBFDEBF6C014E
:103900005B01742E188AFC011082E12C10E000E0AB
:103910009FE0592E2FE0822E912C652C601A462DA7
:1039200050E0B5016E0D711D81E090E08C0F9D1F80
:10393000800F911D0E94A232F12CE1E0F0E0EC0F2B
:10394000FD1FE00FF11D80818823D1F08C3229F515
:103950000F3029F50FE0FF2089F06F2D70E0A401F2
:10396000461B570B81E090E08C0F9D1F680F791F5D
:10397000CE0101960E949436052D0F19E60CCDCF8D
:103980000F3041F3171569F08EE9C82E8EEAD82E54
:1039900018C01F5FFF24F394F00E0F5FCECF1711F6
:1039A000F8CF0F1910E061E070E06C0F7D1F6F0D14
:1039B000711DA801C6010E949436F601E00FF11FA7
:1039C0001082C6016096CDBFDEBFDF91CF911F91FF
:1039D0000F91FF90EF90DF90CF90BF90AF909F90AE
:1039E0008F907F906F905F9008958F929F92AF928B
:1039F000BF92CF92DF92EF92FF920F931F93CF93DC
:103A0000DF93CDB7DEB76097CDBFDEBF082FC62EE0
:103A10008091602A681718F0CC24CA94C80E8FEDE4
:103A200094E00E94C90C8091602A882309F4F6C0B2
:103A3000E02EF12C2DE2029F800111240158164D39
:103A4000D12C97E1B92ECE14DF040CF4E7C085EA3F
:103A50009EEA0E94B8188FEFE81AF80AC7010E9480
:103A60003A198DED94E00E94C90CC8010E94C51856
:103A70008BED94E00E94C90CD8011A96EC91F0E00D
:103A8000EE0FFF1FEC57F245808191810E94C5180F
:103A900089ED94E00E94C90CAA24AA94AE0C8091EE
:103AA000602AA81608F0A8C0F8019285923008F4A0
:103AB000A3C08385973008F09AC090917E2989171A
:103AC00008F09AC08B9DC00111248C50974D0E9424
:103AD000C51887ED94E00E94C90CD8011D964C9141
:103AE00068E67AE0CE0101960E946B1C0E94C51820
:103AF00085ED94E00E94C90C8091602AA81608F018
:103B000083C0F80184859585943008F078C0909141
:103B10007E29891708F078C08B9DC00111248C5034
:103B2000974D0E94C51883ED94E00E94C90CD801FE
:103B30001E966D917D918D919C9151976E3FBFEF37
:103B40007B078B07BFE39B0719F46FEF7FEFCB0178
:103B50000E940E1981ED94E00E94C90CF80162895F
:103B60007389848995890E946E198FEC94E00E9474
:103B7000C90CD80156966D917D918D919C91599764
:103B80000E946E198DEC94E00E94C90CF801628DC0
:103B9000738D848D958D0E946E198BEC94E00E943C
:103BA000C90C89EC94E00E94C90CD8015E969C90E7
:103BB000812CAA24A39480E0992049F1992D9A217F
:103BC00099F0882321F085EA9EEA0E94C518482DC5
:103BD00060E47AE0CE0101960E946B1C0E94C51839
:103BE0008A2D8095982281E08394AA0CE5CF0E94CB
:103BF000790E009709F06BCF8EE99EEA68CF0E949C
:103C0000790E009709F08DCF8EE99EEA8ACF85EC78
:103C100094E00E94C90C035D1F4F15CF6096CDBF85
:103C2000DEBFDF91CF911F910F91FF90EF90DF905A
:103C3000CF90BF90AF909F908F900895DF92EF92BA
:103C4000FF920F931F93CF93DF93CDB7DEB76097AB
:103C5000CDBFDEBFF82EE62E8CEE90E00E94C90CA0
:103C600080917E29882309F44CC0E81618F0EE24D0
:103C7000EA94E80E87E1D82EEF1408F442C00F2D25
:103C800010E08AEE90E00E94C90CC80101960E94E3
:103C90003A1987EE90E00E94C90CFD9C8001112426
:103CA0000C50174DC8010E94C51884EE90E00E9488
:103CB000C90CF80182850E94401982EE90E00E94B2
:103CC000C90CF801438561E973E0CE0101960E94B9
:103CD0006B1C0E94C51880EE90E00E94C90CF80190
:103CE00084850E9440198EED90E00E94C90CF80175
:103CF00085850E9440198BED90E00E94C90CF394D9
:103D0000BBCF6096CDBFDEBFDF91CF911F910F91EA
:103D1000FF90EF90DF900895EF92FF920F931F9323
:103D2000CF938C017B01C0E0EC2FF0E0EE0FFF1F82
:103D3000EE0DFF1D608171816115710539F0C801BB
:103D40000E947D36892B19F0CF5FEECFCFEF8C2FFD
:103D5000CF911F910F91FF90EF900895BF92CF9256
:103D6000DF92EF92FF920F931F93CF93DF937C012B
:103D70008B01B12C6701CB0CD11CF601C0810C2E3C
:103D8000000CDD0BCE010E941634892B11F0B39488
:103D9000F1CFE0972A97C0F4C6010E94670DC62FA5
:103DA0006F3F09F0C1508C2FF8010995892B09F458
:103DB000CFEF8C2FDF91CF911F910F91FF90EF905C
:103DC000DF90CF90BF900895C0E08C2FF801099547
:103DD000009771F3BC01C7010E947D36892B49F31E
:103DE000CF5FF3CFCF93611107C00E9482108CE5A3
:103DF0009DE0CF910C94C90C69E77EE0FA018081C7
:103E000091810E94AE1EC82F8F3F79F30E949B16AE
:103E100086E59DE00E94C90CFDE2CF9FC001112400
:103E20008158964D0E94C5188AE49DE0E2CF0F9319
:103E30001F93CF93DF93611108C084EE9CE0DF9164
:103E4000CF911F910F910C94C90CFA0169E77EE0A4
:103E5000808191810E94AE1EC82F8F3F71F3082F81
:103E600010E0DDE2D09FF001D19FF00D1124E15868
:103E7000F64D878D90A1A1A1B2A10296A11DB11D01
:103E80000297A105B10558F082ED9CE00E94C90C93
:103E9000C80101960E943A1989EB9CE0D0CF0E949C
:103EA0006D0AAB01BC018C2F0E94831483EB9CE054
:103EB0000E94C90CCD9FC00111248158964D0E94CB
:103EC000C51887EA9CE0BBCFCF93DF93611106C092
:103ED0008AE19CE0DF91CF910C94C90CFA0169E76B
:103EE0007EE0808191810E94AE1E8F3F89F3C82FB2
:103EF000D0E09DE2899FF0011124E158F64D478DF5
:103F000050A161A172A14F3F5F4F6F4F7F4F59F09A
:103F100083E99CE00E94C90CCE0101960E943A19E7
:103F200082E89CE0D7CFDF91CF910C94C40E0F9321
:103F30001F93CF93DF93611108C084E89BE0DF916A
:103F4000CF911F910F910C94C90CFA0169E77EE0A3
:103F5000808191810E94AE1EC82F8F3F71F3082F80
:103F600010E0DDE2D09FF001D19FF00D1124E15867
:103F7000F64D878D90A1A1A1B2A18E3F9F4FAF4F6B
:103F8000BF4F59F089E09CE00E94C90CC80101961E
:103F90000E943A1989EF9BE0D2CF8C2F0E94EB0E42
:103FA00083EF9BE00E94C90CCD9FC0011124815872
:103FB000964D0E94C51889EE9BE0C1CF7F928F92EB
:103FC0009F92AF92BF92CF92DF92EF92FF920F93A8
:103FD0001F93CF93DF93762E6A01662341F0FA0197
:103FE00080819181FC0120812F3309F055C082E747
:103FF00093E00E94C90C8AE493E00E94C90C81E21C
:1040000093E00E94C90C81EE92E00E94C90C8FE9F6
:1040100092E00E94C90C8CE892E00E94C90C86E0F4
:1040200090E00E943A1988E892E00E94C90C8AE662
:1040300092E00E94C90C89E090E00E943A1986E65D
:1040400092E00E94C90C83E592E00E94C90C85E1D0
:1040500090E00E943A198FE492E00E94C90C87E236
:1040600092E00E94C90C8BEE91E00E94C90C8CEC8E
:1040700091E00E94C90C6FEF80E0DF91CF911F911A
:104080000F91FF90EF90DF90CF90BF90AF909F90F7
:104090008F907F900C941E1E2D32B9F581818A324B
:1040A000B9F40E94231810927E2981EB94E00E94BB
:1040B000C90CDF91CF911F910F91FF90EF90DF908E
:1040C000CF90BF90AF909F908F907F900C94401BAB
:1040D000E0917E29EE2369F3E150E0937E2927E108
:1040E000E29FF0011124EC50F74D82850E94020BF3
:1040F0008CEA94E00E94C90C80917E2990E00196A0
:104100000E943A1980EA94E0D2CF61E177E10E94FF
:10411000AE1EB82E3FEF83136FC0F60180819181F0
:104120000E94670D6F3F49F0BB24BA94B60EFFEFB3
:10413000BF1619F021E0271588F08EE394E0DF9197
:10414000CF911F910F91FF90EF90DF90CF90BF9094
:10415000AF909F908F907F900C94C90C80917E2996
:104160008B1569F087E194E00E94C90C80917E294B
:1041700090E001960E943A198DE094E0E0CF35E09E
:104180003B1570F080E024EF38E28B1560F4295E77
:104190003F4FF9013D979081992329F08F5FF5CF2B
:1041A00083EC93E0CCCF8B1107C087E1B89EF00180
:1041B0001124EC50F74D12860B2D10E0E7E1BE9E66
:1041C000C00111249C012C50374D7901F601628108
:1041D000738189EA93E00E94871B8F3F91F0C1E0D1
:1041E000C80FF2E0F71508F01AC1C13009F0D3C0CA
:1041F000D1E062E0A62E08C091E09715E8F2682FA2
:104200003CCFAA24A394D0E0EA2DF0E0EE0FFF1FEC
:10421000EC0DFD1D6081718149E050E0C7010E94F5
:10422000943687E1809FF001819FF00D1124EC50BE
:10423000F74D1186D11158C0C1E0CA0DC71508F459
:10424000B0C0AA24A394AC0EA71478F5C0E0EA2D60
:10425000F0E0EE0FFF1FEC0DFD1D6081718181E923
:1042600093E00E94871B833089F497E1909FF001CF
:10427000919FF00D1124EC50F74D9285933031F061
:10428000953021F09950923008F080E097E1909FAE
:10429000F001919FF00D1124EC50F74D928598306C
:1042A00099F18F3F91F5C11174C0A394912CA7147B
:1042B00008F44FC0A394A71408F0B1C0EA2DF0E0B1
:1042C000EE0FFF1FEC0DFD1D4081518187E1809FA6
:1042D000E001819FD00D1124CC50D74D6D85C701D1
:1042E0000E94191C8D879BC0CA2DA71408F0F3C02B
:1042F000CD2FC33039F5C1E0AACF35E1361708F02C
:1043000071C0AA24AA946EC082E097E1909FF00148
:10431000919FF00D1124EC50F74D83878787C3CF11
:10432000C53009F07CC0CACF0E94010AA0C08A85AE
:104330000E94F009888B998BA6C0DD2309F481CFF8
:10434000AC2EC2E0A71408F06AC0C43049F7992423
:104350009394EA2DF0E0EE0FFF1FEC0DFD1D408160
:10436000518187E1809FE001819FD00D1124CC50C5
:10437000D74D6C85C7010E94191C8C879F859111B0
:1043800004C091E0811190E09D87992009F492CFBB
:1043900046C0C3E0D7CF82E0A82EC23009F0A9CF33
:1043A000D1E0EC2FF0E0EE0FFF1FEC0DFD1D808142
:1043B00091810E94670D6F3F71058105910521F084
:1043C00018F06FEF7FEFCB01A62E28E0621395CF98
:1043D00087E1809FF001819FF00D1124EC50F74D93
:1043E00082E0878727E1209FC001219F900D112443
:1043F000FC01EC50F74D4F0182858A1509F49DCFE1
:10440000FFEFAF1609F499CF0E94020BF401A286C8
:10441000DD2309F416CFD2E0C71508F45CC0809103
:104420007E298B1104C081E08B0D80937E290E9430
:10443000401B87E1809FE001819FD00D1124CC506B
:10444000D74DDB84DF86ED2DF0E0EC53F245C080E4
:104450006C2D70E08A850E94FC09F1E0CF1267CFD5
:104460006C858A8570E0D1105FCF0E94F70987E1E3
:10447000809FF001819FF00D1124EC50F74D848551
:1044800090E0808B918BC7010E94560E0E946D0AAE
:1044900027E1209FF001219FF00D1124EC50F74DF2
:1044A000628B738B848B958B81E0868B6B2D8B2D30
:1044B0000E941E1E6B2D8B2DDF91CF911F910F91AE
:1044C000FF90EF90DF90CF90BF90AF909F908F9034
:1044D0007F900C949D17AC2ECD2F34CFBF92CF92EE
:1044E000DF92EF92FF920F931F93CF93DF93F62EFD
:1044F0008A0161116FC010917E29112309F458C0FF
:104500001150C4EFD8E2F12CE12C07E167018DE3F3
:1045100091E00E94C90C8FEFE81AF80AC7010E94C7
:104520003A198AE391E00E94C90C0C9DF0010D9D9F
:10453000F00D1124EC50F74D6089718990E080E016
:104540004AE00E94D01887E391E00E94C90CEF85F1
:10455000F0E0EE0FFF1FEE58F245808191810E943E
:10456000C51885EA9EEA0E94C5188F85823050F1F1
:10457000833069F18FE191E00E94C90CCE010E9465
:10458000C5188DE191E00E94C90C8F85823020F41E
:1045900081E191E00E94C90C8EE99EEA0E94C51853
:1045A0008EE091E00E94C90C67961E1508F0AECF10
:1045B000DF91CF911F910F91FF90EF90DF90CF90FF
:1045C000BF9008958DE291E00E94C90CD3CF81E2A3
:1045D00091E0FACF61E177E1FA01808191810E9457
:1045E000AE1E8F3F69F48AE891E0DF91CF911F9171
:1045F0000F91FF90EF90DF90CF90BF900C94C90C7B
:10460000C82FD0E0F1E0FF1568F185E891E00E9445
:10461000C90CCE0101960E943A1982E891E00E94ED
:10462000C90C27E12C9FC0012D9F900D1124EC0196
:10463000CC50D74D6889798990E080E04AE00E94AB
:10464000D0188FE791E00E94C90CEF85F0E0EE0FE3
:10465000FF1FEE58F245808191810E94C5188CE7BA
:1046600091E0C3CFF80182819381FC0120812F3337
:1046700091F487E18C9FF0018D9FF00D1124EC5097
:10468000F74D6089718990E080E04AE00E94D0187F
:1046900089E791E0AACF27E12C9F80012D9F100D83
:1046A00011240C50174DF801B784EB2DF0E0EC53BA
:1046B000F2452081213019F08DE491E096CF0E94DF
:1046C000670DF8013285B11035C021E0672B682BEA
:1046D000692B09F420E0C22ED12CF12CE12C622FA1
:1046E00070E0832F0E94F7090E946D0A27E12C9F3A
:1046F000F0012D9FF00D1124EC50F74D628B738B60
:10470000848B958BC08AD18A81E0868B88E491E086
:104710000E94C90CCE0101960E943A1985E491E0ED
:104720000E94C90C4AE0C701B6010E94D01882E479
:1047300091E05BCF6B017C01FFEFCF16D104E10468
:10474000F10429F020F0C12CD12C7601CA94B601D5
:10475000832F0E94010AC8CFFF920F931F93CF931C
:10476000DF93662351F067EA7EEADA018D919C912E
:104770000E947D36D1E0892B09F0D0E084EE9EE0E6
:104780000E94C90C83E090E00E943A1981E99EE002
:104790000E94C90C82E090E00E943A198FE89EE0E6
:1047A0000E94C90C87E290E00E943A198CE89EE0D2
:1047B0000E94C90C8DE39EE00E94C90C08ED1DEA21
:1047C000C0E0F801F280DD2311F0F2FC0DC08C2F67
:1047D0000E94C419F5FE08C0D801ED91FC9150E08B
:1047E00040E060E08C2F0995CF5F0D5F1F4FC23115
:1047F00041F7DF91CF911F910F91FF900895CF92D4
:10480000DF92EF92FF920F931F93CF93DF93662374
:1048100051F06BEA7EEAFA01808191810E947D3637
:10482000892B09F494C086E99DE00E94C90C0E947E
:104830006D0A6B017C016FEF8DE19BE20E94780CA9
:104840006EEF8DE19BE20E94780CC701B6010E94D9
:10485000B80D40917E2990E080E037E121E0841797
:1048600070F4389FF001399FF00D1124EC50F74D92
:10487000C28AD38AE48AF58A268B0196F0CF0E94F9
:10488000FE0DD7E1C091602ACC2319F10E94FB14E0
:104890000E94AE120E94E40F0E94FE0D8DE19BE289
:1048A0000E94960B892B71F38DE19BE20E94740BA1
:1048B0006FEF8F33B9F58DE19BE20E94780C6EEFBC
:1048C0008DE19BE20E94780C0E946D0A0E94B80D57
:1048D000D9CF80917E29C81708F7DC9F8001112469
:1048E0000C50174DF80182850E94F0096C017C0183
:1048F000FF24F80180899189E816F90689F06C2F68
:104900008DE19BE20E94780C6C2D8DE19BE20E9470
:10491000780C0E946D0A0E94B80DF801E08AF18AB5
:10492000CF5FD7CF8DE19BE20E94780C6FEF8DE1D6
:104930009BE20E94780C0E946D0ADF91CF911F913B
:104940000F91FF90EF90DF90CF900C94B80D8AEC10
:104950009DE00E94C90C0E946D0A6B017C016FEF03
:104960008DE19BE20E94780C8EEF90E00E94AB0DEF
:10497000C701B6010E94B80D40917E2990E080E009
:1049800037E121E0841770F4389FF001399FF00D72
:104990001124EC50F74DC28AD38AE48AF58A268B1B
:1049A0000196F0CF0E94D40DD7E1C091602ACC23AC
:1049B00011F10E94FB140E94AE120E94E40F0E94AB
:1049C000D40D8DE19BE20E94960B892B71F38DE152
:1049D0009BE20E94740B6FEF8F3391F58DE19BE2A8
:1049E0000E94780C8EEF90E00E94AB0D0E946D0A41
:1049F0000E94B80DDACF80917E29C81710F7DC9F8E
:104A0000800111240C50174DF80182850E94F00995
:104A10007C01F80180899189E816F90679F06C2FFC
:104A20008DE19BE20E94780CC7010E94AB0D0E94B1
:104A30006D0A0E94B80DF801E08AF18ACF5FDBCFE2
:104A40008DE19BE20E94780C8FEF90E00E94AB0D0D
:104A500072CF8F929F92AF92BF92CF92DF92EF92DE
:104A6000FF920F931F93CF93DF93EC0109900020E7
:104A7000E9F721978C018C179D0789F46FEF7FEF81
:104A8000CB01DF91CF911F910F91FF90EF90DF90BD
:104A9000CF90BF90AF909F908F900895E7017E01D7
:104AA0000C171D07D0F4FE0182917F01082E000C27
:104AB000990B0E941634892B89F75E017501F50167
:104AC00082915F01082E000C990B0E946A36892B97
:104AD00021F00A151B0590F37501CE19DF09DD27BA
:104AE000AE016EEA7EEAC7010E948636812C47E855
:104AF000942E43E9A42E43E0B42E892B21F0812C7F
:104B0000912C54018394AE0163EB7EEAC7010E94AD
:104B10008636892B39F420E4822E22E4922E2FE06F
:104B2000A22EB12CAE0162EB7EEAC7010E9486364E
:104B3000892B31F498EE892E93E0992EA12CB12C7B
:104B4000AE0165EB7EEAC7010E948636892B21F40F
:104B5000812C912C540183946EE270E0C8010E9474
:104B60007236892B89F1C8010E946E326B017C017B
:104B7000C501B4010E943C34A70196010E949D34F6
:104B80000E94C5356F3FFFEF7F078F079F0709F42E
:104B900075CF611571058105910509F472CF611515
:104BA0007105810520E4920720F06FEF7FEF8FEF12
:104BB0009FE3643671058105910508F062CF64E6D4
:104BC00070E080E090E05DCFC8010E94670DA50114
:104BD00094010E94F435D6CF4F925F926F927F92EC
:104BE0008F929F92AF92BF92CF92DF92EF92FF92FD
:104BF0000F931F93CF93DF93CDB7DEB76097CDBFF1
:104C0000DEBFD62E5A01662341F0FA0180819181E0
:104C1000FC0120812F3309F055C08DE19AE00E94FC
:104C2000C90C83EF99E00E94C90C88EC99E00E94BE
:104C3000C90C85E699E00E94C90C86E399E00E94C0
:104C4000C90C83E299E00E94C90C85E090E00E94C3
:104C50003A198FE199E00E94C90C80E099E00E9426
:104C6000C90C89E090E00E943A198CEF98E00E940C
:104C7000C90C8BE998E00E94C90C8FE398E00E9470
:104C8000C90C8BED97E00E94C90C82E797E00E9467
:104C9000C90C8CE197E00E94C90C8EED96E00E9451
:104CA000C90C8EE996E00E94C90C8CE596E00E9442
:104CB000C90C84E296E00E94C90C6FEF80E00E946C
:104CC000F51C21C02D3299F581818A3239F4109278
:104CD000602A8FE69BE00E94C90C15C08091602A73
:104CE000882389F089E69BE00E94C90C8091602AA4
:104CF0000E9440198DE59BE00E94C90C8091602ABA
:104D000081508093602A6096CDBFDEBFDF91CF9146
:104D10001F910F91FF90EF90DF90CF90BF90AF90D9
:104D20009F908F907F906F905F904F90089569E76C
:104D30007EE00E94AE1E582EFFEF8F1329C0F501B2
:104D4000808191810E94670D6F3F49F055245A94EC
:104D5000560EFFEF5F1619F021E02D1518F087EFC2
:104D60009AE0B9CF8091602A851569F08EEC9AE0BF
:104D70000E94C90C80917E2990E001960E943A1908
:104D800084EC9AE0A8CF853040F089E99AE0A3CF7F
:104D900031E03D1510F0682F92CF052D10E068E945
:104DA0007DEAF501828193810E948C1EC82EFFEF5F
:104DB0008F1791F0EE24E394E80E22E02D1508F40D
:104DC000F0C222E0F22EFD1408F06BC295E0E91269
:104DD000E2C1EE24E3942BC1FF24F394912CEF2D38
:104DE000F0E0EE0FFF1FEA0DFB1D608171818DE287
:104DF000E82E5E9CC001112449E050E08158964D98
:104E00000E949436E09EF001E19EF00D1124E158DD
:104E1000F64D118691100DC0EE24E394EF0CED14C5
:104E2000A8F0FF24F394FE0CFD1408F0D1C0E12C8F
:104E3000A5C0E92CFD1408F49CC0E92C48C132E05F
:104E4000E2E0FE2EE31295C099249394EE2DF0E05B
:104E5000EE0FFF1FEA0DFB1D64E87DEA8081918162
:104E60000E948C1EC82E4FEF841749F08DE2809F60
:104E7000F001819FF00D1124E158F64DC286992072
:104E800081F2FE2CED1408F094C2F2E0EF2EFD1436
:104E900008F05EC089E0E8126EC2EE24E394EF2DC4
:104EA000F0E0EE0FFF1FEA0DFB1D808191810E9453
:104EB00029256F3F5FEF75078507950729F12DE2DB
:104EC000209FF001219FF00D1124E158F64D268519
:104ED000378540895189232B242B252B49F06436B3
:104EE00071058105910520F464E670E080E090E0B2
:104EF0002DE2209FF001219FF00D1124E158F64D85
:104F0000628F738F848F958F8DE2809FF001819FD8
:104F1000F00D1124E158F64D86859785A089B18959
:104F2000892B8A2B8B2B89F0828D938DA48DB58D47
:104F300084369105A105B10540F484E690E0A0E037
:104F4000B0E0828F938FA48FB58FEE2009F4BCC19F
:104F50008091602A851104C081E0850D8093602ACC
:104F6000652D852D0E94F51C652D852D0E946417E9
:104F7000CACE53E0E51239C0EE24E3948DE2809F5F
:104F8000F001819FF00D1124E158F64D2285223069
:104F900088F0EF2DF0E0EE0FFF1FEA0DFB1D808182
:104FA000918161E177E1273010F069E77EE00E94AE
:104FB000AE1EC82E8FEFC81649F08DE2809FF0011B
:104FC000819FF00D1124E158F64DC386E11005C014
:104FD000F394FD1440F5E12C0DC063E0962EFD1412
:104FE00008F02BCF83E0E82E52CF94E0E912EECE0A
:104FF000EE24E394EF2DF0E0EE0FFF1FEA0DFB1D12
:105000006081718188E69AE00E94871B8F3F49F09A
:105010009DE2909FF001919FF00D1124E158F64D13
:105020008587E1103DC0F394FD14A0F5E12CEF2D30
:10503000F0E0EE0FFF1FEA0DFB1D808191814DE234
:10504000409F9001419F300D1124F901E158F64D28
:105050004F012585243038F561E177E10E94AE1ECD
:105060008F3F31F127E1829FF0011124EC50F74D81
:105070009285983021F4F40184858F3FC9F09DE238
:10508000909FF001919FF00D1124E158F64D848717
:10509000E1101BC0F394FD1408F0D7C0E12C80C0D0
:1050A00044E0E42E90CE69E77EE00E94AE1EE5CF9C
:1050B0008DE2809FF001819FF00D1124E158F64DA3
:1050C0008585843029F78FEFE2CF25E0E22EFD14AD
:1050D00008F0DDCE58E0E512DACEEE24E394EF2DB1
:1050E000F0E0EE0FFF1FEA0DFB1D808191810E9411
:1050F00029256F3F4FEF74078407940729F12DE2AC
:10510000209FF001219FF00D1124E158F64D2685D6
:10511000378540895189232B242B252B49F0643670
:1051200071058105910520F464E670E080E090E06F
:105130002DE2209FF001219FF00D1124E158F64D42
:10514000668B778B808F918F8DE2809FF001819F9E
:10515000F00D1124E158F64D86859785A089B18917
:10516000892B8A2B8B2B89F086899789A08DB18D0D
:1051700084369105A105B10540F484E690E0A0E0F5
:10518000B0E0868B978BA08FB18FEE2009F497C08B
:1051900028E0E22E7CCEF6E0EF1286C0EE24E39407
:1051A000EF2DF0E0EE0FFF1FEA0DFB1D80819181D6
:1051B0000E94080D97FD6EC0DC01CB018E3F2FEFE2
:1051C0009207A2072FE3B20724F08DEF9FEFAFEF16
:1051D000BFE32DE2209FF001219FF00D1124E15843
:1051E000F64D86879787A08BB18B892B8A2B8B2BCB
:1051F00051F1828D938DA48DB58D84369105A105D5
:10520000B10540F484E690E0A0E0B0E0828F938F97
:10521000A48FB58F8DE2809FF001819FF00D112446
:10522000E158F64D86899789A08DB18D8436910518
:10523000A105B10540F484E690E0A0E0B0E0868BE3
:10524000978BA08FB18FE1102AC0F394FD1490F5D5
:10525000E12CEF2DF0E0EE0FFF1FEA0DFB1D80812A
:1052600091810E9429256F3F3FEF730783079307C2
:1052700061F02DE2209FF001219FF00D1124E158F3
:10528000F64D628B738B848B958BEE2099F037E013
:10529000E32EFDCD8EEF9FEFAFEFBFE39ACF86E019
:1052A000E82EFD1408F054CEE7E0EE1213CFEE2402
:1052B000E394CFCFF394E12CFD1408F410CFF394D2
:1052C000E12CFD1408F4EBCDF394FD1408F040CE6E
:1052D0008F2D90E0880F991FA80EB91EF501A080B0
:1052E000B180412C66246394712CF5018081882360
:1052F00009F449C06501F60181917F01882309F411
:1053000042C0082E000C990B0E941634892BB9F567
:105310005701F70181914F01882339F0082E000CC5
:10532000990B0E941634892B61F1EC18FD08F0E10D
:10533000EF16F1041CF04FE0E42EF12CA701B601AA
:10534000CE0101960E94943621E030E02C0F3D1FE3
:10535000E20EF31EF7011082B90180E49AE00E9488
:10536000871B8F3F11F2930102C0220F331F8A95D2
:10537000E2F7422ABACF8AE0E812EACDA9CF670164
:10538000BACF7401C5CF3FEF431609F4E1CD8DE2EA
:10539000809FF001819FF00D1124E158F64D468E5B
:1053A000D7CD41E0E4124BCD9924939492E0F92EAD
:1053B00016CD92E0E92E07CDCF92DF92EF92FF92C9
:1053C0000F931F93CF93DF936623C1F0DA01ED9122
:1053D000FC9190819F3391F0282F30E0F901EE0F7E
:1053E000FF1FE20FF31FE852F245128114FD06C0C1
:1053F00091E08F3009F490E0992351F0DF91CF9143
:105400001F910F91FF90EF90DF90CF900C94C419F3
:10541000EA01B8E28B9FC0011124845E904F0E9484
:10542000C90C83E19EE00E94C90C8881998113FF19
:1054300026C00E94723297FF03C060E070E0CB018B
:10544000161617061806190624F461E070E080E0CD
:1054500090E06093622A7093632A8093642A909309
:10546000652A0E940E1980E19EE0DF91CF911F9185
:105470000F91FF90EF90DF90CF900C94C90CEC014E
:10548000C12CD12C7601E991EE23D1F00E2E000C27
:10549000FF0BF097EA30F10598F4AAE0B0E0A7011D
:1054A00096010E947A358F01FF0F220B330B060FF6
:1054B000171F281F391F0C151D052E053F05C8F4A1
:1054C000C701B601611571058105910521F061E003
:1054D00070E080E090E06093622A7093632A80938A
:1054E000642A9093652A4AE00E94D0188DE09EE0DD
:1054F000BCCF68017901C7CFAF92BF92CF92DF9244
:10550000EF92FF920F931F93CF93DF93C62F7A01F1
:10551000611149C0D091602ADD23D1F10FE719E272
:10552000EE24E394F12C8C2F0E942D17D82E8EE7B9
:1055300095E00E94C90CC7010E943A198BE795E0DB
:105540000E94C90C8D2D0E944019F80183A580FF8F
:1055500004C089E795E00E94C90CF80183A581FF8A
:1055600004C087E795E00E94C90C84E695E00E949C
:10557000C90CC8010E94C51885E295E00E94C90CBB
:10558000CF5FFFEFEF1AFF0A035D1F4FDC13CBCF96
:10559000DF91CF911F910F91FF90EF90DF90CF900F
:1055A000BF90AF90089569E77EE0FA018081918114
:1055B0000E94AE1E182F8EEE95E01F3FC1F1A12E66
:1055C000B12CC23008F03FC0812F0E942D17C82F88
:1055D0008EE895E00E94C90CC50101960E943A1917
:1055E0008BE895E00E94C90C8C2F0E9440198DE237
:1055F0008A9DF0018B9DF00D1124E158F64D83A595
:1056000080FF04C089E895E00E94C90C8DE28A9D64
:10561000F0018B9DF00D1124E158F64D83A581FF1B
:1056200004C087E895E00E94C90C84E895E0DF910A
:10563000CF911F910F91FF90EF90DF90CF90BF908F
:10564000AF900C94C90CF70182819381FC012081F9
:10565000022E000C330B205331092A30310578F526
:105660000E9472326B017C018FEB95E0FFEFCF1649
:10567000D104E104F104D9F2D701C6010297A109CE
:10568000B1098F3F2FEF9207A207B20709F466C056
:10569000FCF48E3F9F4FAF4FBF4F09F443C087E9E3
:1056A00095E00E94C90CF601EE0FFF1FE458F24589
:1056B000808191810E94C51884E995E0B8CF6FE19F
:1056C00077E10E94AE1EC82ED12CF12CE12CCCCF5C
:1056D0000097A105B10531F10197A105B105F9F6D2
:1056E0008DE28A9DF0018B9DF00D1124E158F64D5D
:1056F000878D90A1A1A1B2A18E3F9F4FAF4FBF4F09
:1057000070F20E946D0AAB01BC01812FDF91CF9135
:105710001F910F91FF90EF90DF90CF90BF90AF90CF
:105720000C9483148DE28A9DE0018B9DD00D112491
:10573000C158D64D8F8D98A1A9A1BAA18F3F9F4F77
:10574000AF4FBF4F0CF4ABCF8E8D80688E8F812F03
:105750000E949B168E8D8F778E8F1ACF8DE28A9D39
:10576000F0018B9DF00D1124E158F64D878D90A12D
:10577000A1A1B2A18E3F9F4FAF4FBF4F09F08FCF76
:10578000812FDF91CF911F910F91FF90EF90DF90CC
:10579000CF90BF90AF900C94EB0E1F920F920FB66C
:1057A0000F9211242F933F934F935F936F937F93A7
:1057B0008F939F93AF93BF934091112B5091122BD6
:1057C0006091132B7091142B80910F2B9091102BC3
:1057D00020910D2B30910E2B420F531F611D711D17
:1057E00020910B2B30910C2B820F931F883E23E0CE
:1057F000920730F0885E93404F5F5F4F6F4F7F4F4F
:1058000080930F2B9093102B4093112B5093122BBE
:105810006093132B7093142B8091192B90911A2B5A
:10582000A0911B2BB0911C2B0196A11DB11D809343
:10583000192B90931A2BA0931B2BB0931C2B81E058
:105840008093B60ABF91AF919F918F917F916F9195
:105850005F914F913F912F910F900FBE0F901F902E
:1058600018951F920F920FB60F9211242F933F930A
:105870004F935F936F937F938F939F93AF93BF9358
:10588000EF93FF9385E00E94C90AFF91EF91BF91CA
:10589000AF919F918F917F916F915F914F913F91C8
:1058A0002F910F900FBE0F901F9018951F920F927F
:1058B0000FB60F9211242F933F934F935F936F93E3
:1058C0007F938F939F93AF93BF93EF93FF9384E066
:1058D0000E94C90AFF91EF91BF91AF919F918F9163
:1058E0007F916F915F914F913F912F910F900FBEDC
:1058F0000F901F9018951F920F920FB60F921124C0
:105900002F933F934F935F936F937F938F939F93C7
:10591000AF93BF93EF93FF9383E00E94C90AFF9177
:10592000EF91BF91AF919F918F917F916F915F9117
:105930004F913F912F910F900FBE0F901F90189590
:105940001F920F920FB60F9211242F933F934F93F4
:105950005F936F937F938F939F93AF93BF93EF93D7
:10596000FF9382E00E94C90AFF91EF91BF91AF912E
:105970009F918F917F916F915F914F913F912F9167
:105980000F900FBE0F901F9018951F920F920FB699
:105990000F9211242F933F934F935F936F937F93B5
:1059A0008F939F93AF93BF93EF93FF9381E00E94F8
:1059B000C90AFF91EF91BF91AF919F918F917F9114
:1059C0006F915F914F913F912F910F900FBE0F906C
:1059D0001F9018951F920F920FB60F9211242F93BC
:1059E0003F934F935F936F937F938F939F93AF9367
:1059F000BF93EF93FF9380E00E94C90AFF91EF915C
:105A0000BF91AF919F918F917F916F915F914F91D6
:105A10003F912F910F900FBE0F901F9018951F92DE
:105A20000F920FB60F9211242F933F934F935F93D2
:105A30006F937F938F939F93AF93BF93EF93FF9356
:105A40008DE19BE20E94330CFF91EF91BF91AF91EA
:105A50009F918F917F916F915F914F913F912F9186
:105A60000F900FBE0F901F9018951F920F920FB6B8
:105A70000F9211242F933F934F935F936F937F93D4
:105A80008F939F93AF93BF93EF93FF93E091292B55
:105A9000F0912A2B818181FD2FC0608180912F2B75
:105AA0008F5F8F739091302B891741F0E0912F2BEE
:105AB000F0E0E35EF44D618F80932F2B8091B62B45
:105AC0009091B72B009739F0DC01ED91FC9101909A
:105AD000F081E02D0995FF91EF91BF91AF919F91DA
