:100000000C94420A0C941D2E0C94F22D0C94C72DC6
:100010000C949C2D0C94712D0C94462D0C941B2D3E
:100020000C94F02C0C94730A0C94730A0C94730ABD
:100030000C94730A0C94730A0C94730A0C94730A4C
:100040000C94730A0C94730A0C94730A0C94730A3C
:100050000C94A82E0C94730A0C94730A0C94A62C7E
:100060000C94730A0C94722E0C94482E0C94730A00
:100070000C94730A0C94D32E0C94730A0C94730A88
:100080000C94730A0C94730A0C94730A0C94730AFC
:100090000C94730A0C94730A0C94730A0C94730AEC
:1000A0000C94730A0C94730A0C94730A0C94730ADC
:1000B0000C94730A0C94730A0C94730A0C94730ACC
:1000C0000C94730A0C94730A0C94730A0C94730ABC
:1000D0000C94730A0C94730A0C94730A0C94730AAC
:1000E0000C94730A0C940C0D0C94C0170C94320DE4
:1000F0000C94BE0B0C94EC0B0C94190C0C94A817DC
:100100000C94F60B0C94B9200C94B20A0C94B70C16
:100110000C94E40F0C942D0C0C944C180C94C80BFC
:100120000C94820D0C949E0C0C94C80D0C94D60C5F
:100130000C94180D0C94AE0A0C94F71C0C94CE0A77
:100140000C946E0D0C9436240C9439210C94F70CFD
:100150000C94A0170C94250D0C94552B0C94892607
:100160000C94DE0C0C94D40A0C94B30C0C94A90CD3
:100170000C94A10A0C949D0A0C94AD0C0C94871558
:100180000C94A50A0C945F0D0C94C00A0C94DA0B25
:100190000C94B10C0C94900D0C94C31C0C94B80AE4
:1001A0000C94A0160C9498170C94CA0A0C94EA0CA0
:1001B0000C94B50C0C9473250C9406210C94C60A6F
:1001C0000C94230C0C94410C0C94810E0C94B017DD
:1001D0000C943E180C9494200C94E20B0C94A80AF6
:1001E0000C94D80A0C94BC0A0C949B320C94370CD7
:1001F0000C94300E0C94B8170C947C0F0C94A70B35
:100200000C9480210C94990A0C94E01B0C94B40B70
:100210000C94AF0B0C94000C0C94D20B0C94930A1E
:100220000C94CF1A0C94B52A0C94AB0C0C940F0CB4
:100230000C94D30A4E414E494E495459494E46CD2D
:10024000CCCC3D0AD7233C17B7D13877CC2B32958D
:1002500095E6241FB14F0A000020410000C842006B
:10026000401C4620BCBE4CCA1B0E5AAEC59D740D28
:100270000A000900090009002709000927002000D9
:10028000696E646578096E616D650970696E096DE6
:100290006F646509696E697409746F67676C650DD1
:1002A0000A000D0A0020286C6F777C68696768294E
:1002B00000270027005B3020746F203235355D2029
:1002C000005B3020746F20315D20003A20005D3DDE
:1002D0000070696E5B000D0A005D3D0070696E5B29
:1002E0000070696E206572726F723A2063616E6E83
:1002F0006F7420736574207374617465206F662059
:10030000696E7075742070696E2E0D0A000D0A00FA
:100310000D0A003A20005D3D0070696E5B00706957
:100320006E206572726F723A206669727374206112
:100330007267756D656E742073686F756C6420628A
:10034000652070696E20696E646578206F72206E1A
:10035000616D652E0D0A006C6F772C686967680007
:10036000203C746F67676C653E203A203C70776D67
:100370003E205B3020746F203235355D0D0A002041
:100380003C696E69743E2020203A203C6F75747081
:1003900075743E205B3020746F20315D20286C6FB7
:1003A000777C6869676829203C70776D3E205B30F8
:1003B00020746F203235355D0D0A00203C6D6F646E
:1003C000653E2020203A20286F75747075747C6912
:1003D0006E7075747C70756C6C75707C70776D7CEC
:1003E000616463290D0A005D0D0A00203C70696E8E
:1003F0003E202020203A205B3020746F20005D0DCD
:100400000A00203C6E616D653E2020203A20717507
:100410006F7465642070696E206E616D65205B008D
:100420005D0D0A00203C696E6465783E20203A200C
:100430005B3120746F2000206470696E203C696E0F
:100440006465783E7C3C6E616D653E203C736574EE
:1004500074696E673E205B3D5D203C76616C75651E
:100460003E3A206368616E6765206F6E652070722A
:100470006F70657274790D0A00206470696E203C9B
:10048000696E6465783E203C6E616D653E203C700F
:10049000696E3E203C6D6F64653E203C696E6974F8
:1004A0003E203C746F67676C653E3A206465666900
:1004B0006E652070696E0D0A00206470696E202DD3
:1004C0005B2A5D203A2064656C657465206C6173FD
:1004D000742070696E20282A203D20616C6C290DE3
:1004E0000A00206470696E203F202020203A20738B
:1004F000686F7720616C6C2070696E206465666936
:100500006E6974696F6E730D0A00436F6D6D616E75
:1005100064206470696E3A20436F6E666967757215
:10052000652050696E730D0A006F75747075742CB8
:10053000696E7075742C70756C6C75702C70776D3D
:100540002C616463006E616D652C70696E2C6D6F3B
:1005500064652C696E69742C746F67676C650065DF
:1005600072726F723A206E6F206D6F7265206E65C9
:10057000772070696E732063616E20626520646508
:1005800066696E65642E2074797065202770696EC7
:100590002720746F2073656520646566696E6564E5
:1005A0002070696E732E0D0A002066697273742EB6
:1005B0000D0A0070696E20617267756D656E74203A
:1005C0006572726F723A20706C6561736520646544
:1005D00066696E652070696E200070696E206172B8
:1005E00067756D656E74206572726F723A20666908
:1005F00072737420617267756D656E742073686FB5
:10060000756C642062652070696E20696E6465781F
:10061000206F72206E616D652E20747970652027C1
:1006200070696E2720746F20736565206465666944
:100630006E65642070696E732E0D0A002064656C0F
:10064000657465642E0D0A0070696E2000616C6C23
:100650002070696E732064656C657465642E0D0A84
:1006600000270D0A002700090009000900090009F8
:100670000009000900090009000900696E64657835
:10068000096E616D65097472696767657209736FD8
:100690007572636509616374696F6E09746172676D
:1006A000657409636F756E740964656C61790975A9
:1006B0007009646F776E096F7074696F6E730D0ADD
:1006C0000027202869646C657C61726D65647C66B6
:1006D000696E69736865647C666972656429202A3D
:1006E0003A7472696767657265642C202B3A73747B
:1006F000617274207472696767657265640D0A00BF
:100700003A205B3020746F20335D5B2A5D5B2B5D8C
:100710002027002B002A005D3D007461736B5B0095
:100720000D0A002B002A005D3D007461736B5B00B5
:100730000D0A006572726F723A207461736B2073D8
:10074000746174757320636F756C64206E6F7420B0
:1007500062652073657420746F20006572726F7219
:100760003A207365636F6E6420617267756D656EA4
:10077000742073686F756C64206265207461736B9C
:100780002073746174652E0D0A006572726F723A7F
:1007900020666972737420617267756D656E74206E
:1007A00073686F756C64206265207461736B206977
:1007B0006E646578206F72206E616D652E0D0A0083
:1007C000203C6F7074696F6E733E3A202861726DC1
:1007D0002D6F6E2D66696E6973682061726D2D6F65
:1007E0006E2D7374617274757020696E74657272A7
:1007F00075707473290D0A00203C646F776E3E207B
:1008000020203A206E5B737C6D737C75735D206471
:100810006F776E2074696D653A2030206F722062A8
:1008200065747765656E2031303020757320616E98
:10083000642031373A35330D0A00203C75703E2074
:10084000202020203A206E5B737C6D737C75735D75
:100850002075702074696D653A2030206F722062B7
:1008600065747765656E2031303020757320616E58
:10087000642031373A35330D0A00203C64656C61E1
:10088000793E20203A206E5B737C6D737C75735DBE
:100890002064656C61793A2030206F722062657443
:1008A0007765656E2031303020757320616E64206D
:1008B00031373A35330D0A00203C636F756E743E54
:1008C00020203A205B2D3120746F203130373337B0
:1008D00034313832305D2072657065617420636F29
:1008E000756E743A202D3120666F7220636F6E74BE
:1008F000696E756F75732C203020666F7220736976
:100900006E676C6520616374696F6E0D0A00203C30
:100910007461726765743E203A203C6F757470751F
:10092000742D70696E3E20286F7574707574207018
:10093000696E2D696E646578206F722070696E2D06
:100940006E616D6529203C6F75742D7461736B3E0B
:1009500020287461736B2D696E646578206F722036
:100960007461736B2D6E616D6529203C6164633E1B
:1009700020286164632070696E2D696E646578203B
:100980006F722070696E2D6E616D6529203C6E6FEF
:100990006E653E2028290D0A00203C616374696F52
:1009A0006E3E203A203C6F75747075742D70696EC0
:1009B0003E20286C6F777C686967687C746F676716
:1009C0006C6529203C6F75742D7461736B3E202813
:1009D00061726D7C73746172747C72657374617220
:1009E000747C73746F707C6B69636B29203C6164E9
:1009F000633E202861646329203C6E6F6E653E2053
:100A0000286E6F6E65290D0A00203C736F75726346
:100A1000653E203A203C696E7075742D70696E3E9B
:100A20002028696E7075742070696E2D696E64651A
:100A300078206F722070696E2D6E616D6529203C83
:100A4000696E2D7461736B3E20287461736B2D6920
:100A50006E646578206F72207461736B2D6E616DAA
:100A600065290D0A00203C747269676765723E3A19
:100A7000203C736F6674776172653E2028617574DF
:100A80006F7C6D616E75616C29203C696E70757448
:100A90002D70696E3E202875707C646F776E7C6166
:100AA0006E797C686967687C6C6F7729203C696E19
:100AB0002D7461736B3E202873746172747C73743F
:100AC0006F70290D0A005D0D0A00203C6E616D6596
:100AD0003E2020203A2071756F7465642074617324
:100AE0006B206E616D65205B005D0D0A00203C6926
:100AF0006E6465783E20203A205B3120746F2000C0
:100B000020647461736B203C696E6465783E7C3C44
:100B10006E616D653E203C70726F70657274793ED7
:100B2000205B3D5D203C76616C75653E0D0A0020C2
:100B3000647461736B203C696E6465783E203C6E22
:100B4000616D653E203C747269676765723E203C4A
:100B5000736F757263653E203C616374696F6E3EAE
:100B6000203C7461726765743E203C636F756E74DF
:100B70003E203C64656C61793E203C75703E203CB3
:100B8000646F776E3E203C6F7074696F6E733E0DBC
:100B90000A0020647461736B202D5B2A5D203A206B
:100BA00064656C657465206C617374207461736B2B
:100BB00020282A203D20616C6C290D0A00206474D5
:100BC00061736B203F202020203A2073686F7720CC
:100BD000616C6C207461736B20646566696E697406
:100BE000696F6E730D0A00436F6D6D616E642074E2
:100BF00061736B3A20646566696E652F64656C6528
:100C00007465207461736B0D0A0061726D2D6F6ED7
:100C10002D66696E6973682C61726D2D6F6E2D7310
:100C20007461727475702C696E746572727570740B
:100C300073006E6F6E652C6C6F772C686967682C1B
:100C4000746F67676C652C6164632C73746F702CB0
:100C500073746172742C726573746172742C617236
:100C60006D2C6B69636B006572726F723A206E6FE8
:100C7000206D6F7265206E6577207461736B7320D1
:100C800063616E20626520637265617465642E0D18
:100C90000A002066697273742E0D0A007461736B0A
:100CA00020617267756D656E74206572726F723A3D
:100CB00020706C6561736520646566696E6520747B
:100CC00061736B20007461736B20617267756D6571
:100CD0006E74206572726F723A2066697273742046
:100CE000617267756D656E742073686F756C6420D2
:100CF0006265207461736B20696E646578206F7221
:100D0000206E616D652E2074797065202774617383
:100D10006B2720746F2073656520646566696E6556
:100D200064207461736B732E0D0A002064656C651A
:100D30007465642E0D0A007461736B2000616C6C25
:100D4000207461736B732064656C657465642E0D2B
:100D50000A0061726D20617267756D656E74206541
:100D600072726F723A20666972737420617267756D
:100D70006D656E742073686F756C64206265207495
:100D800061736B20696E646578206F72206E616D8F
:100D9000652E207479706520277461736B27207429
:100DA0006F2073656520646566696E656420746193
:100DB000736B732E0D0A002061726D65642E0D0A2F
:100DC000007461736B2000206973206E6F7420695A
:100DD000646C652E0D0A0061726D206572726F720F
:100DE0003A207461736B200064697361726D2061D5
:100DF0007267756D656E74206572726F723A2066E7
:100E00006972737420617267756D656E74207368A2
:100E10006F756C64206265207461736B20696E6409
:100E20006578206F72206E616D652E207479706513
:100E300020277461736B2720746F207365652064AD
:100E40006566696E6564207461736B732E0D0A00AC
:100E5000206973206E6F742061726D65642E0D0AB7
:100E60000064697361726D206572726F723A2074EA
:100E700061736B200020737461727465642E0D0AB7
:100E8000007461736B2000206973206E6F74206999
:100E9000646C65206F722061726D65642E0D0A00AE
:100EA00066697265206572726F723A207461736B45
:100EB00020006669726520617267756D656E7420C9
:100EC0006572726F723A206669727374206172671C
:100ED000756D656E742073686F756C642062652033
:100EE0007461736B20696E646578206F72206E6127
:100EF0006D652E20747970652027742720746F200B
:100F000073656520646566696E6564207461736BE2
:100F1000732E0D0A000D0A002073746F70706564E3
:100F20002E0D0A007461736B2000616C6C2074617B
:100F3000736B732073746F707065642E0D0A000DEF
:100F40000A0020007420000D0A0020007020002EEE
:100F50000D0A007461736B73207772697474656E27
:100F60002E0D0A00456E746572696E67206F73639B
:100F7000696C6C6F73636F7065206D6F64652E2094
:100F800053656E6420616E79206368617261637479
:100F9000657220746F20656E642E0D0A0072657391
:100FA000657420646F6E652E0D0A000D0A000D0A2F
:100FB000003D000D0A003A20005D200020746F20E3
:100FC000005B003A20003D005D200020746F20008F
:100FD0005B003A20003D003A0D0A00204F75747006
:100FE000757473204469676974616C205369676E16
:100FF000616C73206F7074696F6E616C6C792073B3
:10100000796E6368726F6E697A6564207769746857
:10101000204469676974616C20496E70757420534F
:1010200069676E616C732E0D0A000D0A002E002E8A
:101030000075730073006D73007265736574746975
:101040006E6720666163746F72792064656661758E
:101050006C74732E0D0A00656E746572203F2074E7
:101060006F2073656520617661696C61626C6520D3
:10107000636F6D6D616E64730D0A000D0A002E00C2
:101080002E004E695665724469673A205665727340
:101090006174696C65204469676974616C2050757E
:1010A0006C736520436F6E74726F6C6C6572206137
:1010B0006E642053636F7065200000000000000024
:1010C0000000436F6D6D616E6473000000000000EE
:1010D0000000000000000000000000000000000010
:1010E00000003F000000000000005B6775695D20A4
:1010F00053686F772073746174757320616E642018
:10110000636F6D6D616E6473000070696E00000046
:10111000000053657420616E6420517565727920FA
:1011200050696E20537461747573000000000000F4
:1011300000007461736B0000000053657420616EE1
:1011400064205175657279205461736B205374610A
:101150007475730000000000000061726D000000F3
:1011600000003C7461736B3E3A2041726D20546103
:10117000736B000000000000000000000000000091
:10118000000064697361726D00003C7461736B3EB2
:101190003A2044697361726D205461736B7300006F
:1011A0000000000000000000000073746172740011
:1011B00000003C7461736B3E3A205374617274207A
:1011C0005461736B0000000000000000000000008C
:1011D000000073746F70000000005B3C7461736BFF
:1011E0003E207C20215D3A2053746F70205461733F
:1011F0006B0000000000000000002E000000000056
:1012000000005265706F727420737461746520639E
:1012100068616E6765730000000000000000000058
:1012200000000000000000000000436F6E66696768
:1012300000000000000000000000000000000000AE
:10124000000000000000000000006470696E0000F3
:101250000000446566696E652050696E73205B5DB1
:10126000000000000000000000000000000000007E
:101270000000647461736B000000446566696E650C
:10128000205461736B73205B5D0000000000000060
:101290000000000000000000000077726974650023
:1012A000000053617665205461736B730000000089
:1012B000000000000000000000000000000000002E
:1012C000000073636F70650000004F7363696C6C9E
:1012D0006F73636F7065204D6F64650000000000E0
:1012E000000000000000000000006563686F00005F
:1012F00000004563686F20286F66662C6F6E2900BA
:1013000000000000000000000000000000000000DD
:1013100000007265736574000000466163746F724B
:101320007920526573657400000000000000000021
:101330000000000000000000000068616C74000004
:10134000000048616C7420616C6C205461736B7395
:101350002028302C3129000000000000000000008F
:10136000000000002100240027002A002D0030008A
:10137000330001010000040107010A0100002200FE
:10138000250028002B002E0031003400020100004F
:10139000050108010B0100002000230026002900A0
:1013A0002C002F003200000100000301060109019A
:1013B00005050505070508080808020202020A0AD1
:1013C00008080404040401010101010101010303EF
:1013D000030303030303040707070C0C0C0C0C0C9A
:1013E0000C0C0202020206060606060606060B0B97
:1013F0000B0B0B0B0B0B01021020200808102040D8
:1014000010204080020102010804020101020408C8
:101410001020408080402010080402018004020156
:10142000804020100804020108040201010204089F
:1014300010204080010204081020408000000A0BA8
:1014400002090C0D0E080703040100000000000053
:10145000000000000000000000000000000000008C
:101460000000000000000000121110000000000049
:10147000000000000000000000000000000000006C
:1014800000009B3211241FBECFEFD1E2DEBFCDBFE3
:1014900000E00CBF23E1A8E3B4E001C01D92AB362D
:1014A000B207E1F714E0A0E0B2E0EAE3FDE600E015
:1014B0000BBF02C007900D92A833B107D9F71AE00D
:1014C000C2E4DAE000E006C021970109802FFE01A6
:1014D0000E945736C134D10780E00807A9F70E945F
:1014E0001A2F0C949B360C9400008150823108F026
:1014F0005AC0E82FF0E08827EF57F54F8F4F0C9434
:101500005736A10AA50A930A990A9D0AD30AA80A7E
:10151000AE0AB20AB80ABC0AC00AC60ACA0AD30A84
:10152000CE0AD40AD80A809180008F7780938000F9
:101530000895809180008F7DF9CF80918000877F12
:10154000F5CF84B58F7784BD089584B58F7DFBCFAB
:101550008091B0008F778093B00008958091B000A3
:101560008F7DF9CF809190008F77809390000895C0
:10157000809190008F7DF9CF80919000877FF5CF8B
:101580008091A0008F778093A00008958091A000A3
:101590008F7DF9CF8091A000877FF5CF80912001CA
:1015A0008F77809320010895809120018F7DF9CF5E
:1015B00080912001877FF5CFCF93DF93282F30E0F4
:1015C000F901E45CFB4E8491F901EA50FC4ED491A0
:1015D000F901E055FC4EC491CC23A1F081110E9489
:1015E000750AEC2FF0E0EE0FFF1FEA56FC4EA591B6
:1015F000B491EC91ED2381E090E009F480E0DF917B
:10160000CF91089580E090E0FACF1F93CF93DF93BE
:10161000282F30E0F901E45CFB4E8491F901EA5097
:10162000FC4ED491F901E055FC4EC491CC23A9F0B5
:10163000162F81110E94750AEC2FF0E0EE0FFF1FAC
:10164000E458FC4EA591B4918FB7F894EC91111128
:1016500008C0D095DE23DC938FBFDF91CF911F911F
:101660000895DE2BF8CFCF93DF9390E0FC01EA5092
:10167000FC4E249180559C4EFC0184918823C9F036
:1016800090E0880F991FFC01EE59FC4EA591B49192
:10169000FC01E458FC4EC591D49161110DC09FB777
:1016A000F8948C91209582238C9388812823288319
:1016B0009FBFDF91CF910895623051F49FB7F894A6
:1016C0003C91822F809583238C93E8812E2BEFCF42
:1016D0008FB7F894EC912E2B2C938FBFEACF1F93EA
:1016E000CF93DF93182FEB0161E00E94330B20971B
:1016F00039F460E0812FDF91CF911F910C94050B9D
:10170000CF3FD10511F461E0F5CFE12FF0E0E45CCB
:10171000FB4EE491E150E23108F0B3C0F0E08827DD
:10172000EB56F44F8F4F0C945736A70BAF0BB40BFF
:10173000BE0BC80B410CD20BDA0BE20BEC0BF60B19
:10174000000C0F0C190C410C230C2D0C370C84B51C
:10175000806884BDC7BDDF91CF911F91089584B586
:10176000806284BDC8BDF7CF80918000806880937F
:101770008000D0938900C0938800EDCF80918000D5
:10178000806280938000D0938B00C0938A00E3CF67
:1017900080918000886080938000D0938D00C093FA
:1017A0008C00D9CF8091B00080688093B000C09346
:1017B000B300D1CF8091B00080628093B000C0931D
:1017C000B400C9CF80919000806880939000D0933E
:1017D0009900C0939800BFCF809190008062809361
:1017E0009000D0939B00C0939A00B5CF8091900059
:1017F000886080939000D0939D00C0939C00ABCFF5
:101800008091A00080688093A0008091A0008F7BD1
:101810008093A000D093A900C093A8009CCF809192
:10182000A00080628093A000D093AB00C093AA0078
:1018300092CF8091A00088608093A000D093AD00EB
:10184000C093AC0088CF80912001806880932001F4
:10185000D0932901C09328017ECF8091200180621E
:1018600080932001D0932B01C0932A0174CF8091E3
:101870002001886080932001D0932D01C0932C011A
:101880006ACFC038D1050CF03ECF33CF863308F095
:10189000865320917B00982F9870277F922B9093EE
:1018A0007B008770806480937C0080917A008064E4
:1018B00080937A0080917A0086FDFCCF8091780039
:1018C0009091790008953FB7F8948091C812909153
:1018D000C912A091CA12B091CB1226B5A89B05C01F
:1018E0002F3F19F00196A11DB11D3FBFBA2FA92F9F
:1018F000982F8827BC01CD01620F711D811D911D9C
:1019000042E0660F771F881F991F4A95D1F7089507
:101910008830F0F4282F30E08150873000F5E82F30
:10192000F0E08827E956F34F8F4F0C945736B10CEF
:101930009E0CA90CAB0CAD0CB30CB50CE898220FA7
:10194000331FF901EE5FFD4F87EB9CE091838083AD
:101950000895E998F4CFEA98F2CFEB98F0CFEC989D
:10196000EECFED98ECCFEE98EACFEF98E8CF089560
:10197000883008F076C0E82FF0E0EE0FFF1FEE5F32
:10198000FD4F718360838150873008F03DC0E82FA0
:10199000F0E08827E153F34F8F4F0C9457360C0D2E
:1019A000D60CDE0CEA0CF70C180D250D80916900A1
:1019B0008C7F482B40936900E89A089580916900D4
:1019C000837F440F551F440F551F482B40936900D8
:1019D000E99A0895809169008F7C74E0440F551F47
:1019E0007A95E1F7482B40936900EA9A089580912F
:1019F00069008F7366E0440F551F6A95E1F7482B25
:101A000040936900EB9A089580916A008C7F482B7F
:101A100040936A00EC9A089580916A00837F440F96
:101A2000551F440F551F482B40936A00ED9A0895A7
:101A300080916A008F7C24E0440F551F2A95E1F7BE
:101A4000482B40936A00EE9A089580916A008F7344
:101A500096E0440F551F9A95E1F7482B40936A0092
:101A6000EF9A0895AF92BF92CF92DF92EF92FF92DA
:101A70000F931F93CF93DF936C017B018B01040FB6
:101A8000151FEB015E01AE18BF08C017D10759F052
:101A90006991D601ED91FC910190F081E02DC60194
:101AA0001995892B79F7C501DF91CF911F910F917E
:101AB000FF90EF90DF90CF90BF90AF900895FC0122
:101AC000538D448D252F30E0842F90E0821B930BA3
:101AD000541710F0CF96089501970895FC01918D49
:101AE000828D981761F0A28DAE0FBF2FB11D5D964C
:101AF0008C91928D9F5F9F73928F90E008958FEFEE
:101B00009FEF0895FC01918D828D981731F0828DA1
:101B1000E80FF11D858D90E008958FEF9FEF0895F8
:101B2000FC01918D228D892F90E0805C9F4F821B5C
:101B300091098F73992708958CEC92E10E94900D82
:101B400021E0892B09F420E0822F0895FC01A48D67
:101B5000A80FB92FB11DA35ABF4F2C91848D90E0CF
:101B600001968F739927848FA689B7892C93A089B2
:101B7000B1898C91837080648C93938D848D98133C
:101B800006C00288F389E02D80818F7D80830895CF
:101B9000EF92FF920F931F93CF93DF93EC0181E0BD
:101BA000888F9B8D8C8D98131AC0E889F989808164
:101BB00085FF15C09FB7F894EE89FF896083E88997
:101BC000F98980818370806480839FBF81E090E089
:101BD000DF91CF911F910F91FF90EF900895F62E16
:101BE0000B8D10E00F5F1F4F0F731127E02E8C8DB0
:101BF0008E110CC00FB607FCFACFE889F9898081F5
:101C000085FFF5CFCE010E94A60DF1CFEB8DEC0F35
:101C1000FD2FF11DE35AFF4FF0829FB7F8940B8F11
:101C2000EA89FB8980818062CFCF0F931F93CF9386
:101C3000DF938C01D0E0C0E0F801EC0FFD1F649150
:101C4000662341F08CEC92E10E94C80D892B11F0C3
:101C50002196F2CFCE01DF91CF911F910F91089580
:101C6000CF93DF93EC01888D8823B9F0AA89BB89D3
:101C7000E889F9898C9185FD03C0808186FD0DC0BE
:101C80000FB607FCF7CF8C9185FFF2CF808185FFDF
:101C9000EDCFCE010E94A60DE9CFDF91CF9108953F
:101CA00080E090E0892B29F00E949C0D81110E9418
:101CB000000080E090E0892B49F080E090E0892BE3
:101CC00029F00E94000081110E94000080E090E055
:101CD000892B49F080E090E0892B29F00E940000D8
:101CE00081110E94000080E090E0892B49F080E0A3
:101CF00090E0892B29F00E94000081110C940000D3
:101D0000089508958F929F92AF92BF92CF92DF92E3
:101D1000EF92FF920F931F93CF93DF93EC01888193
:101D200010E08D3211F4219611E08881082E000C0C
:101D3000990BC0970A9710F500E0C12CD12C7601C1
:101D4000FE01E00FF11DE0810E2E000CFF0BF0975D
:101D5000EA30F105C0F4AAE0B0E0A70196010E94C4
:101D6000DC354F01FF0FAA08BB08860E971EA81E80
:101D7000B91E8C149D04AE04BF04B4F4CC24CA94E0
:101D8000DC2C760102C0111113C0C701B601DF912E
:101D9000CF911F910F91FF90EF90DF90CF90BF9068
:101DA000AF909F908F9008950F5F75016401C8CF29
:101DB000F094E094D094C094C11CD11CE11CF11C9F
:101DC000E4CF8F929F92AF92BF92CF92DF92EF9229
:101DD000FF921F93CF93DF93EC0110E0C12CD12C25
:101DE0007601FE01E10FF11DE0810E2E000CFF0BCC
:101DF000F097EA30F105D8F4AAE0B0E0A701960127
:101E00000E94DC354F01FF0FAA08BB08860E971E03
:101E1000A81EB91E8C149D04AE04BF0420F01F5FE1
:101E200075016401DECFCC24CA94DC2C7601C70195
:101E3000B601DF91CF911F91FF90EF90DF90CF908F
:101E4000BF90AF909F908F9008951F93CF93DF9393
:101E5000172FD82FC92F8CEC92E10E94C80D612F4B
:101E60008CEC92E10E94C80D6D2F8CEC92E10E94E7
:101E7000C80D6C2F8CEC92E1DF91CF911F910C94E7
:101E8000C80D0F931F93CF93DF9310E007E180916C
:101E9000F008181760F5019FE0011124CC5BDB4FBF
:101EA0008E898823C9F01E8A8F85612F8430B1F412
:101EB0008CEC92E10E94C80D6889798976956795C6
:101EC000769567958CEC92E10E94C80D6A897B89B2
:101ED0008C899D890E94250F1F5FD9CF8CEC92E1E0
:101EE0000E94C80D8A850E94DC0A682FEBCFDF9123
:101EF000CF911F910F91089508951F93CF93DF9372
:101F0000EC01162F8F85882391F08330A1F00E9479
:101F1000630C6A8B7B8B8C8B9D8B612F70E0798B34
:101F2000688B81E08E8BDF91CF911F9108958A8518
:101F30000E94050BECCF662339F01D85612F70E000
:101F40008A850E946F0BE3CF1C85F8CFDC011A96BF
:101F50009C911A9720E0923051F021E0933039F0B3
:101F60008EEE890F27E1291B843008F02FEF1F9692
:101F7000EC911F97E43041F0F0E0E057FD4F808195
:101F8000813011F02F3F21F48FEF1E968C9308952E
:101F9000923071F0933071F0923171F0933171F0B1
:101FA000943171F0953171F495E01E969C930895EB
:101FB00090E0FBCF91E0F9CF92E0F7CF93E0F5CF3F
:101FC00094E0F3CF9FEFF1CF8F3F59F0909115122E
:101FD000891750F42DE2829FC00111248F50974F32
:101FE00008958BED92E0089590E080E00895282F09
:101FF00030E09DE2899FF0011124EF50F74F13A6C6
:10200000928592509330C0F540911512A1EFB8E03F
:1020100090E03B96491781F09B965C919B975330DB
:1020200041F4981731F060811B965C911B976517FE
:1020300019F19F5F9D96EECF8DE2829FF001839F05
:10204000F00D1124EF50F74FE38587E18E9FF001EB
:102050001124EC5BFB4F9285923049F0933051F0A4
:102060002EEE290F891B243018F08FEF01C080E07D
:102070000C94880C81E0FCCF0895CF93DF93C82F98
:10208000D0E09DE2899FF0011124EF50F74F93A516
:10209000933011F40E94F70F8FB7F8949DE29C9F44
:1020A000F0019D9FF00D1124EF50F74F4EEF5FEFC1
:1020B0006FEF7FEF478F50A361A372A38FBF81E0C3
:1020C00084A7DF91CF9108951F93CF93DF93182FAB
:1020D000C82FD0E02DE2829FF0011124EF50F74F7E
:1020E0008FEF9FEFDC01878F90A3A1A3B2A3868D12
:1020F00082FB992790F993A791E094A79285953058
:10210000A9F4E38527E1E29FF0011124EC5BFB4F8A
:1021100020893189232BB9F00E94630CAB01BC01EB
:10212000812FDF91CF911F910C9492159630D1F5AC
:10213000E38527E1E29FF0011124EC5BFB4F20894E
:102140003189232B49F382FF87C08EEF890F8330BB
:1021500008F06DC08DE28C9FF0018D9FF00D112471
:10216000EF50F74FE38587E18E9FF0011124EC5B80
:10217000FB4F26852F3F09F46FC032853230B1F016
:10218000333099F14EEE430F831B443080F08DE2E3
:102190008C9FF0018D9FF00D1124EF50F74F83E0DD
:1021A00083A75AC0992309F4B7CFCDCF80E0E22F9F
:1021B000F0E0EE0FFF1FE85CFB4F1083918343E0DC
:1021C00050E0923031F041E050E0933011F442E0C1
:1021D00050E02230E9F058F4222399F02130B9F68A
:1021E00090E29CBB68EB77E110C081E0E0CF243047
:1021F000C9F098F0253059F691E09CBB68E977E189
:1022000004C090E19CBB60EC77E10E94B80CBFCFAA
:1022100098E09CBB60EB77E1F8CF94E09CBB68EA68
:1022200077E1F3CF92E09CBB60EA77E1EECF975085
:10223000923090F4EDE2EC9FD001ED9FB00D1124AF
:10224000AF50B74F1B968C91E89FF0011124EF50CF
:10225000F74F868D82FD9BCFDF91CF911F9108951F
:102260004F925F926F927F928F929F92AF92BF92A6
:10227000CF92DF92EF92FF920F931F93CF93DF9352
:1022800090901612911079C08DE2882E9EEF492E03
:1022900055245A94652C752C80911512981608F0C7
:1022A0006CC0C92CD12C8C9CF0018D9CF00D11249C
:1022B000EF50F74F878D90A1A1A1B2A1892B8A2B56
:1022C0008B2B09F058C0868D80FF43C0892D0E945A
:1022D000641001EF18E0F12CE12C8C9CE0018D9C46
:1022E000D00D1124CF50D74F5E0123E2A20EB11CB6
:1022F000A796809115128E151F04E9F1E4F1CE1412
:10230000DF0409F1F801878D90A1A1A1B2A18F3F4F
:102310009F4FAF4FBF4FB9F4F8018285883099F4D1
:102320008385891110C0F5014081518162817381DB
:1023300088819981AA81BB81480F591F6A1F7B1F21
:102340008E2D0E949215FFEFEF1AFF0A035D1F4FBB
:10235000D0CF83A5833019F4892D0E94F70F8C9C70
:10236000F0018D9CF00D1124EF50F74F478E50A2D5
:1023700061A272A2AECF93948FCFDF91CF911F91C4
:102380000F91FF90EF90DF90CF90BF90AF909F9014
:102390008F907F906F905F904F9008954F925F92D3
:1023A0006F927F928F929F92AF92BF92DF92EF9245
:1023B000FF920F931F93CF93DF93DFB6F894409172
:1023C000151250E001EF18E0F80190E080E084176A
:1023D000950734F4268D2068268F0196BD96F7CF99
:1023E000C1EFD8E0F12CE12C812C912C5401839485
:1023F0008091151290E0E816F906D4F48F8E98A219
:10240000A9A2BAA20E94630C4BA05CA06DA07EA002
:1024100064197509860997096FA378A789A79AA7F0
:102420008E2D0E9454128FEFE81AF80AAD96E0CF75
:10243000E1EFF8E030E020E08217930739F0468DB5
:102440004068468F2F5F3F4FBD96F6CF0E943011F8
:10245000D0E0C0E08091151290E0C817D9072CF4A5
:102460008C2F0E943D102196F5CF30E020E082179E
:10247000930749F0F801468D4F77468F2F5F3F4F06
:10248000035D1F4FF4CFDFBEDF91CF911F910F91FE
:10249000FF90EF90DF90BF90AF909F908F907F90D4
:1024A0006F905F904F9008958F929F92AF92BF92DE
:1024B000CF92DF92EF92FF921F93CF93DF93C82FBB
:1024C000D0E02DE2829FF0011124EF50F74F878D6D
:1024D00090A1A1A1B2A1181619061A061B060CF0AC
:1024E00095C0682F61704C015D0121E0821A91084E
:1024F000A108B108878E90A2A1A2B2A289288A2839
:102500008B2899F486849784A088B1882EEF821650
:102510002FEF9206A2062FE3B20639F4268D27FD8F
:1025200004C0878E90A2A1A2B2A22DE22C9FF0013E
:102530002D9FF00D1124EF50F74F878C90A0A1A094
:10254000B2A081149104A104B10469F421E024A78C
:10255000C684D784E088F188CD28CE28CF2819F00A
:102560008095682F61702DE22C9FF0012D9FF00D5A
:102570001124EF50F74F9585953008F0C1C02485A0
:102580008091F008281788F4E22EF12C87E1289F2B
:10259000A00111244C5B5B4F923009F461C008F03C
:1025A00041C06927913009F45BC08DE28C9FF00136
:1025B0008D9FF00D1124EF50F74F478D50A161A171
:1025C00072A1141615061606170604F587A190A524
:1025D000A1A5B2A540FD15C146895789608D718DB1
:1025E000840F951FA61FB71F2DE22C9FF0012D9F72
:1025F000F00D1124EF50F74F0097A10520E4B2072A
:1026000008F004C187A390A7A1A7B2A7DF91CF913B
:102610001F91FF90EF90DF90CF90BF90AF909F9071
:102620008F900895933001F1943009F0BECF20933C
:1026300001028E9DF0018F9DF00D1124EC5BFB4F8C
:102640008285863308F08653982F97709064909314
:102650007C00887080937B008FEC80937A00A5CFFC
:10266000CA010E947D0FA1CF662309F49ECF8E9DE3
:10267000F0018F9DF00D1124EC5BFB4F87858823C3
:10268000B9F0833041F10E94630C27E12E9DF001E7
:102690002F9DF00D1124EC5BFB4F628B738B848BB1
:1026A000958B612F70E0718B608B81E0868B7DCF85
:1026B0008089918911E0892B09F010E087E18E9DD6
:1026C000F0018F9DF00D1124EC5BFB4F612F828593
:1026D0000E94050BD8CF8089918914851817190697
:1026E00009F41585612F70E087E18E9DF0018F9DC3
:1026F000F00D1124EC5BFB4F82850E946F0BC3CF62
:10270000662309F452CF868D87FD4FCF84853091A3
:102710001512831708F06CC0E82EF12C973009F4DD
:1027200055C040F5953009F460C0963009F448C0B2
:102730008DE28E9DD0018F9DB00D1124AF50B74F0B
:102740008C9FF0018D9FF00D1124EF50F74F43A1A6
:1027500054A165A176A187A090A4A1A4B2A4480D1C
:10276000591D6A1D7B1D93964D935D936D937C93CC
:1027700096971BCF983009F19930D1F62E9DF00134
:102780002F9DF00D1124EF50F74F478D50A161A1FF
:1027900072A14E3F9FEF59076907790749F2141656
:1027A0001506160617060CF19DE29C9FF0019D9FF1
:1027B000F00D1124EF50F74F09C00E946410B8CFFC
:1027C000181419041A041B040CF4B2CF43A154A129
:1027D00065A176A187A090A4A1A4B2A4480D591D1B
:1027E0006A1D7B1D0E949215A3CF0E94C817A0CF1F
:1027F0008F3F09F0DACE953009F0D7CE0E94CE1186
:10280000D4CE428D538D648D758DEACE8F5F9F4FF0
:10281000AF4FBF4387A390A7A1A7B2A783A194A15D
:10282000A5A1B6A10197A109B04C83A394A3A5A328
:10283000B6A3ECCECF92DF92EF92FF920F931F934D
:10284000CF93DF93C1EFD8E010E000E08091151244
:1028500080171106F1F0ECF08BA5811116C00E94D3
:10286000630CCBA0DCA0EDA0FEA06C197D098E0945
:102870009F09CFA0D8A4E9A4FAA46C157D058E0504
:102880009F0518F0802F0E9454120F5F1F4FAD96C6
:10289000DDCFDF91CF911F910F91FF90EF90DF90EF
:1028A000CF9008952F923F924F925F926F927F92B6
:1028B0008F929F92AF92BF92CF92DF92EF92FF9250
:1028C0000F931F93CF93DF9300D0CDB7DEB72FB711
:1028D0002983F8948FEF809300020E94630C2B01F0
:1028E0003C01312CCC24CA94DC2C76012DE2222E22
:1028F00080911512381608F079C0032D10E0209E43
:10290000C001219E900D11248F50974F9B838A8385
:10291000FC0183A5882309F467C04F01FFE18F0EF6
:10292000911CEA81FB81878D90A1A1A1B2A118160B
:1029300019061A061B060CF057C083A194A1A5A185
:10294000B6A147A150A561A572A5840F951FA61F2A
:10295000B71F84199509A609B709B3965F012A81A3
:102960003B81295D3F4F3B832A8382339105A1053B
:10297000B10504F5832D0E945412F50180819181E7
:10298000A281B381EA81FB8140815181628173819F
:10299000840F951FA61FB71F84199509A609B709AB
:1029A000F401408151816281738114161506160667
:1029B0001706DCF2209E9001219E300D11242F502D
:1029C000374FF901478D50A161A172A11416150668
:1029D000160617064CF48C159D05AE05BF0520F4B0
:1029E000309200026C017D01339482CF809100020D
:1029F0008F3FD1F1F1E8CF16FFEFDF06FFE7EF06DB
:102A0000F10450F08FEF8093000280E8C82EDD249F
:102A1000DA948FE7E82EF12CA0EAB0E0A701960146
:102A20000E94DC356B017C0124E130E040E050E0A5
:102A30000E9435362115310581E04807510560F5C2
:102A400081E080931912309318122093171280910D
:102A500017129091181290938700809386008091AE
:102A6000191280618093810029812FBF0F900F90F0
:102A70000F90DF91CF911F910F91FF90EF90DF901A
:102A8000CF90BF90AF909F908F907F906F905F900E
:102A90004F903F902F9008952115310598E04907F8
:102AA000510560F482E080931912C701B60120EA53
:102AB00030E040E050E00E943536C5CF21153105A9
:102AC000E0E44E07510550F483E080931912C701EA
:102AD000B60120E035E040E050E0EDCF21153105B2
:102AE0004105514050F484E080931912C701B601AA
:102AF00020E034E140E050E0DECF85E08093191221
:102B0000C701B60120E030E540E050E0D4CF80E1DD
:102B100080938100809100028F3F11F00E94541237
:102B20000C9452148F929F92AF92BF92CF92DF92E9
:102B3000EF92FF920F931F93CF93C82ED12C2DE2CB
:102B4000829FF0011124EF50F74F968D97FD56C0EC
:102B50004A015B01C82F1FB7F89483A294A2A5A2D3
:102B6000B6A2428953896489758947A350A761A792
:102B700072A786859785A089B189880F991FAA1F9A
:102B8000BB1F0196A11DB11D878F90A3A1A3B2A366
:102B900081E084A7452B462B472B19F48C2D0E94EE
:102BA000541217FD0E9452141FBF01EF18E0F12CC0
:102BB000E12C809115128E151F0401F1FCF0CE144A
:102BC000DF04B1F0F801878D90A1A1A1B2A18F3FE0
:102BD0009F4FAF4FBF4F61F4F8018285873041F4BA
:102BE00083858C1305C0B501A4018E2D0E9492151A
:102BF000FFEFEF1AFF0A035D1F4FDBCFCF911F914D
:102C00000F91FF90EF90DF90CF90BF90AF909F908B
:102C10008F9008957F928F929F92AF92BF92CF92A2
:102C2000DF92EF92FF920F931F93CF93DF9394E481
:102C3000C92E94E0D92E10E000E027E1922E8824DE
:102C400083948091F0088017110609F00CF46AC093
:102C5000F6018785E82FF0E0E057FD4F9081913035
:102C600009F45AC0843009F457C0F60182850E94E5
:102C7000DC0A9C013327909EE001919ED00D112427
:102C8000CC5BDB4F488959892417350709F444C0C8
:102C9000782E398B288B0E94630C6A8B7B8B8C8BF4
:102CA0009D8B8E8A81EFE82E88E0F82EB12CA12C26
:102CB0006296809115128A151B0471F16CF1F7016F
:102CC0009285923010F1838580131FC0478D50A1EB
:102CD00061A172A14F3F5F4F6F4F7F4FB1F49330AF
:102CE00079F050F4923079F0488159816A817B8182
:102CF0008A2D0E94921509C0953029F09630A1F7CF
:102D0000772091F302C07110EFCF8FEFA81AB80AA5
:102D1000EDE2EE0EF11CCDCF0F5F1F4FF7E1CF0EAE
:102D2000D11C8FCFDF91CF911F910F91FF90EF902A
:102D3000DF90CF90BF90AF909F908F907F9008953D
:102D4000CF92DF92EF92FF920F931F93CF93DF9377
:102D500084E69FE00E94150E0E94630C6B017C01CB
:102D60006FEF8CEC92E10E94C80D6EEF8CEC92E15B
:102D70000E94C80DC701B6010E94250F4091F008BE
:102D800090E080E037E121E0841770F4389FF00193
:102D9000399FF00D1124EC5BFB4FC28AD38AE48A81
:102DA000F58A268B0196F0CF0E94410FD7E1C091A2
:102DB0001512CC2319F10E940A160E941A140E94BF
:102DC00030110E94410F8CEC92E10E94900D892BF2
:102DD00071F38CEC92E10E946E0D6FEF8F33B9F5B9
:102DE0008CEC92E10E94C80D6EEF8CEC92E10E9497
:102DF000C80D0E94630C0E94250FD9CF8091F00866
:102E0000C81708F7DC9F800111240C5B1B4FF801E9
:102E100082850E94DC0A6C017C01FF24F801808914
:102E20009189E816F90689F06C2F8CEC92E10E94EA
:102E3000C80D6C2D8CEC92E10E94C80D0E94630CB1
:102E40000E94250FF801F18AE08ACF5FD7CF8CEC82
:102E500092E10E94C80D6FEF8CEC92E10E94C80DC8
:102E60000E94630CDF91CF911F910F91FF90EF9023
:102E7000DF90CF900C94250FCF93C82F0E94630C46
:102E8000AB01BC01EC2FF0E0EE0FFF1FE85CFB4F45
:102E9000808191812DE2829FF0011124EF50F74F44
:102EA000238530E0923069F497E1929FF001939F7F
:102EB000F00D1124EC5BFB4FA1E0B0E0B18BA08BD7
:102EC0000CC09330D9F497E1929FF001939FF00DDD
:102ED0001124EC5BFB4F118A108A97E1929FF0015D
:102EE000939FF00D1124EC5BFB4F428B538B648B53
:102EF000758B91E0968BCF910C94921597E1929FF0
:102F0000F001939FF00D1124EC5BFB4F0088F189D9
:102F1000E02DA1E0B0E0EF2B11F0B0E0A0E097E1F0
:102F2000929FF001939FF00D1124EC5BFB4FC6CFF5
:102F300082E00E94880C85E00E943C170C94521499
:102F400083E00E94880C84E00E943C170C94521489
:102F500084E00E94880C83E00E943C170C94521479
:102F600085E00E94880C82E00E943C170C94521469
:102F700081E00E94880C81E00E943C170C9452145E
:102F800080E00E94880C80E00E943C170C94521450
:102F90008F929F92AF92BF92CF92DF92FF920F9348
:102FA0001F93CF93DF93C82ED12C1FB7F8949DE2C7
:102FB0009C9DE0019D9DD00D1124CF50D74F4F8D8A
:102FC00058A169A17AA14F3F5F4F6F4F7F4F0CF41B
:102FD00048C0F82E8E8D80688E8F81E090E0A0E052
:102FE000B0E08F8F98A3A9A3BAA30E94630C8BA013
:102FF0009CA0ADA0BEA0681979098A099B096FA39E
:1030000078A789A79AA78C2D0E9454128E8D8F774E
:103010008E8F1FBFC1EFD8E010E000E08091151245
:1030200080171106F9F0F4F0C016D106B1F08F8DBB
:1030300098A1A9A1BAA18F3F9F4FAF4FBF4F69F48D
:103040008A85883051F48B858F1107C00E94630CEC
:10305000AB01BC01802F0E9492150F5F1F4FAD96F0
:10306000DDCF1FBFDF91CF911F910F91FF90DF90B8
:10307000CF90BF90AF909F908F9008959091F0085F
:10308000891738F427E1829FC00111248C5B9B4F84
:10309000089590E080E00895843048F4E82FF0E04F
:1030A000EE0FFF1FE25AFD4F8081918108958DED53
:1030B00092E008959DE2899FF0011124EF50F74FAF
:1030C000878D90A1A1A1B2A1181619061A061B0698
:1030D0002CF08E5F843018F080E0089583E008952E
:1030E0001F93CF93DF93C82FD62F80911512C81747
:1030F000A0F4681710F0DFEFD80F1DE2DC1768F0BE
:103100001C9FF0011124EF50F74F868D81FF03C003
:103110008C2F0E946410CF5FF1CFDF91CF911F9170
:103120000895CF92DF92EF92FF9290911512891736
:1031300060F5691710F06FEF690F982F3DE22EEFE1
:10314000C22EDD24DA94ED2CFD2C691780F0399F16
:10315000F0011124EF50F74FC78ED0A2E1A2F2A2E6
:10316000268D22FB222720F923A79F5FEECF909187
:10317000120291110AC090911612911106C0FF908F
:10318000EF90DF90CF900C947018FF90EF90DF904D
:10319000CF900895DF92EF92FF920F931F93CF93FA
:1031A000DF939091F008992309F449C0691710F052
:1031B0006FEF690F082F10E097E1899FE00111245C
:1031C000CC5BDB4FE62EF12C87E1D82EE016F10622
:1031D000B4F19F858A85E92FF0E0E057FD4F20810B
:1031E0002130A9F46C8591110EC00E94050B8C85CD
:1031F00090E0D09EF001D19EF00D1124EC5BFB4FCE
:10320000918B808B15C070E00E946F0BF0CF9430D3
:1032100099F48A5C0E94460CD09EF001D19EF00D7C
:103220001124EC5BFB4F208931892817390741F7BE
:103230000F5F1F4F6796CACF0E94DC0AEDCFDF9168
:10324000CF911F910F91FF90EF90DF9008950F9312
:103250001F93CF93DF93C4E4D4E010E000E08091AB
:10326000F00880171106A1F09CF0EB85EF878A85A6
:10327000E43009F48A5CF0E0E057FD4F60810E9481
:10328000330BCE010E94A60F0F5F1F4F6796E7CF4B
:1032900080911202811107C06FEFDF91CF911F91D2
:1032A0000F910C94CA18DF91CF911F910F9108953F
:1032B0000F931F93CF93DF93C4E4D4E010E000E0BA
:1032C0008091F0088017110641F03CF08A850E9439
:1032D000880C0F5F1F4F6796F3CFDF91CF911F913F
:1032E0000F910895CF93DF93CDB7DEB7CF5CD109AF
:1032F0000FB6F894DEBF0FBECDBF0E945819FE0175
:103300003D9683ECDF011D928A95E9F78AE0E5EEB0
:10331000F2E0DE01119601900D928A95E1F792E0BC
:103320009B8781E08C8729E0E6E1F2E0DE01589698
:1033300001900D922A95E1F719A223E02AA38BA30D
:1033400038E0E0E2F2E0DE019F9601900D923A95BE
:10335000E1F718AE1FAA32E139AF8AAF3AE0EFEEDB
:10336000F2E0DE01AA5BBF4F01900D923A95E1F7C2
:1033700033E161963FAF619762968FAF629739E014
:10338000EAE2F2E0DE01A35ABF4F01900D923A95B6
:10339000E1F7A7961FAEA79734E1A8963FAFA8978D
:1033A000A9968FAFA99788E0E4E3F2E0DE01AC587C
:1033B000BF4F01900D928A95E1F7EE961FAE1EAEBB
:1033C000EE9785E0EF968FAFEF978AE0E9EFF2E0B6
:1033D000DE01A557BF4F01900D928A95E1F786E077
:1033E000CB56DF4F8883C559D04089E0EEE3F2E049
:1033F000DE01AE55BF4F01900D928A95E1F7C5559C
:10340000DF4F1882CB5AD04087E0C455DF4F888306
:10341000CC5AD040E8E4F2E0DE01A754BF4F01905F
:103420000D928A95E1F7E9EBF0E0EC0FFD1F37967E
:10343000DF011D922A95E9F788E0CD53DF4F88839D
:10344000C35CD040CC53DF4F9883C45CD04089E04C
:103450008093F0088FECEF5BF109A4E4B4E00190F5
:103460000D928A95E1F7C153DF4F0FB6F894DEBF96
:103470000FBECDBFDF91CF910C942719FC010190B5
:103480000020E9F73197AF01481B590BBC018CECC8
:1034900092E10C94320D8F929F92AF92BF920F9354
:1034A0001F93CF93DF93CDB7DEB7A1970FB6F894F4
:1034B000DEBF0FBECDBF19A2423008F44AE08E0134
:1034C0000F5D1F4F842E912CB12CA12CA5019401CE
:1034D0000E943536E62FB901CA01EA30F4F4E05D06
:1034E000D801EE938D01232B242B252B79F790E027
:1034F00080E0109719F0CD010E943E1AA1960FB6F8
:10350000F894DEBF0FBECDBFDF91CF911F910F9119
:10351000BF90AF909F908F900895E95CE1CF0097A6
:1035200011F00C943E1A90E080E00895CF92DF9263
:10353000EF92FF92CF93DF9397FF1BC06B017C014B
:103540006DE28CEC92E10E94C80DEC0166277727B2
:10355000CB016C197D098E099F094AE00E944B1A24
:103560008C0F9D1FDF91CF91FF90EF90DF90CF9058
:1035700008954AE0DF91CF91FF90EF90DF90CF90D8
:103580000C944B1ABC01990F880B990B0C94961A4A
:10359000682F70E090E080E04AE00C944B1A6623BC
:1035A00081F0FA01808191810E94E10E6F3F7105E7
:1035B0008105910521F018F06FEF7FEFCB016F3F90
:1035C00061F483E093E00E948F1A809116120E94AA
:1035D000C81A85E19FE00C94150E609316126111D4
:1035E0000C94CE116FEF80E00C9491184F925F9283
:1035F0006F927F928F929F92AF92BF92CF92DF9203
:10360000EF92FF926B017C0188EE482E83E0582EEA
:10361000612C712CC701A30192010E94353649012A
:103620005A01672B682B692BA9F04AE0C701B60144
:103630000E944B1A81E390E1FF90EF90DF90CF90D2
:10364000BF90AF909F908F907F906F905F904F90C2
:103650000C94150ECA01B901A30192010E943536DE
:10366000672B682B692B41F04AE0C501B4010E9429
:103670004B1A86E390E1E0CFC701B60120E432E4C3
:103680004FE050E00E943536CA01B9014AE00E947D
:103690004B1A84E390E1D0CFEF92FF920F931F93E8
:1036A000CF93DF93C82F90E0FC01EE0FFF1FE80FD0
:1036B000F91FE855FD4FD28188E2C89F700111249F
:1036C00087010E531F4ED1FF0DC0C8010E94150E79
:1036D00087ED9FE0DF91CF911F910F91FF90EF90C9
:1036E0000C94150E89E093E00E948F1AC70186544E
:1036F0009F4E0E94150E81E0CE3009F480E08111CA
:103700005CC0D3FF2FC085ED9FE00E94150E609135
:103710001A1270911B1280911C1290911D120E941E
:10372000961A82ED9FE00E94150E80ED9FE00E94A8
:10373000150E60E070E0CB010E94961A8BEC9FE0C2
:103740000E94150E61E070E080E090E00E94961A01
:1037500088EC9FE00E94150EC8010E94150E83EBB5
:103760009FE0B8CF86EC9FE00E94150E60911A1280
:1037700070911B1280911C1290911D124AE00E94C0
:103780004B1A83EC9FE00E94150E81EC9FE00E9493
:10379000150E4AE060E070E0CB010E944B1A8CEB02
:1037A0009FE00E94150E4AE061E070E080E090E04A
:1037B0000E944B1A89EB9FE0CDCF86EB9FE0CACFEA
:1037C000EF92FF920F931F93CF93DF9310E007E1E7
:1037D0008091F008181730F5E12EF12C0E9DE001D4
:1037E0000F9DD00D1124CC5BDB4F8E898823C1F057
:1037F0001E8A8CE49FE00E94150EC70101960E946C
:10380000C21A8AE49FE00E94150E6889798990E0C7
:1038100080E04AE00E944B1A87E49FE00E94150E68
:103820001F5FD6CFC0E0DDE280911512C81720F5EA
:103830000C2F10E0D09FF001D19FF00D1124EF501C
:10384000F74F84A58823B1F014A684E49FE00E947A
:10385000150EC80101960E94C21A82E49FE00E94E0
:10386000150E8C2F0E945A180E94C81A8FE39FE0F1
:103870000E94150ECF5FD8CF8FE49FE0DF91CF91EC
:103880001F910F91FF90EF900C94150ECF93DF9343
:10389000EB010E94C6358883CE01DF91CF91089558
:1038A000FF920F931F93CF93DF938C01EB01F8806E
:1038B0000E94C635F81621F06F2DC8010E94CE3542
:1038C000CE01DF91CF911F910F91FF900895BF928C
:1038D000CF92DF92EF92FF920F931F93CF93DF93DC
:1038E0007C01EB018B01040F151FB990F701C0801B
:1038F000D180C6010E94C635B81621F06B2DC601D5
:103900000E94CE35F7018081918101969183808359
:10391000C017D10751F7DF91CF911F910F91FF9001
:10392000EF90DF90CF90BF9008950F931F93CF93A8
:10393000DF931F921F92CDB7DEB783E493E09A83A3
:10394000898341E050E065E172E1CE0101960E9479
:10395000671C10E00DE280911512181768F4109F93
:10396000B00111246F50774F4FE150E0CE01019626
:103970000E94671C1F5FEFCF0F900F90DF91CF91D8
:103980001F910F9108950E94951C83E59FE00C9470
:10399000150E0F931F93CF93DF931F921F92CDB7F6
:1039A000DEB782E090E09A83898341E050E060EFE7
:1039B00078E0CE0101960E94671C10E007E180913B
:1039C000F008181768F4109FB00111246C5B7B4F4E
:1039D00040E150E0CE0101960E94671C1F5FEFCFCF
:1039E0000F900F90DF91CF911F910F91089510923A
:1039F000161210921A1210921B1210921C12109290
:103A00001D120E9472190E94C91C109215126FEFAC
:103A100080E00E9491180E94951C8DE99FE00C9413
:103A2000150E3F924F925F926F927F928F929F926C
:103A3000AF92BF92CF92DF92EF92FF920F931F93BC
:103A4000CF93DF93CDB7DEB760970FB6F894DEBFA4
:103A50000FBECDBF5C016B01188AFB0101900020F5
:103A6000E9F73197E61BF70B612C712C00E08FE032
:103A7000482E7F01FF249FE0892E912C342C301A90
:103A8000432D50E0B501660D711D81E090E08C0F73
:103A90009D1F800F911D0E94FC3210E0802F90E04E
:103AA000E1E0F0E0EC0FFD1FE80FF91F508055201A
:103AB00019F02CE2521230C00F30B1F40FE0112394
:103AC00089F0612F70E0A401461B570B81E090E064
:103AD0008C0F9D1F680F791FCE0101960E948C36B6
:103AE000042D011B630CCACF612F70E0861B970B5E
:103AF0008E159F0561F481E090E08C0F9D1F680F8B
:103B0000791FA701C6010E947E36892B49F0739464
:103B1000552021F011E0100F0F5FC0CF77247A9469
:103B2000872D60960FB6F894DEBF0FBECDBFDF9134
:103B3000CF911F910F91FF90EF90DF90CF90BF90AA
:103B4000AF909F908F907F906F905F904F903F903D
:103B50000895EF92FF920F931F93CF938C01C62F7E
:103B60007A01BA0187E593E00E94111D682F70E089
:103B700090E080E06F3F71058105910571F0F801DB
:103B80002785233099F4613071058105910571F421
:103B90006FEF70E080E090E009C0C7010E94820EE4
:103BA0006F3FFFEF7F078F079F0761F0F8012785C1
:103BB00021110FC051E0672B682B692B09F450E0ED
:103BC000852FC82F8C2FCF911F910F91FF90EF90D1
:103BD0000895DC01CB018F3F9105A105B10529F0C6
:103BE00024F08FEF90E0A0E0B0E0B7FFEACF80E0F4
:103BF00090E0DC01E6CF5F926F927F928F929F926E
:103C0000AF92BF92CF92DF92EF92FF920F931F93EA
:103C1000CF93DF93CDB7DEB760970FB6F894DEBFD2
:103C20000FBECDBF6C015B01742E188AFC0110829F
:103C3000E12C10E000E09FE0592E2FE0822E912C25
:103C4000652C601A462D50E0B5016E0D711D81E0A6
:103C500090E08C0F9D1F800F911D0E94FC32F12C73
:103C6000E1E0F0E0EC0FFD1FE00FF11D8081882303
:103C7000D1F08C3229F50F3029F50FE0FF2089F0C3
:103C80006F2D70E0A401461B570B81E090E08C0F74
:103C90009D1F680F791FCE0101960E948C36052D5D
:103CA0000F19E60CCDCF0F3041F3171569F08DE5F4
:103CB000C82E83E0D82E18C01F5FFF24F394F00EA7
:103CC0000F5FCECF1711F8CF0F1910E061E070E051
:103CD0006C0F7D1F6F0D711DA801C6010E948C36EF
:103CE000F601E00FF11F1082C60160960FB6F8943E
:103CF000DEBF0FBECDBFDF91CF911F910F91FF901F
:103D0000EF90DF90CF90BF90AF909F908F907F907B
:103D10006F905F9008958F929F92AF92BF92CF92D3
:103D2000DF92EF92FF920F931F93CF93DF93CDB764
:103D3000DEB760970FB6F894DEBF0FBECDBF082F79
:103D4000C62E80911512681718F0CC24CA94C80E9C
:103D50008BE796E00E94150E80911512882309F4D6
:103D6000F6C0E02EF12C2DE2029F800111240F50AD
:103D7000174FD12C97E1B92ECE14DF040CF4E7C015
:103D800089E093E00E943E1A8FEFE81AF80AC70113
:103D90000E94C21A89E796E00E94150EC8010E948F
:103DA0008F1A87E796E00E94150ED8011A96EC91BB
:103DB000F0E0EE0FFF1FEA59FD4F808191810E94D4
:103DC0008F1A85E796E00E94150EAA24AA94AE0CDD
:103DD00080911512A81608F0A8C0F80192859230BB
:103DE00008F4A3C08385973008F09AC09091F0083A
:103DF000891708F09AC08B9DC00111248C5B9B4FE2
:103E00000E948F1A83E796E00E94150ED8011D9636
:103E10004C9162E37CE0CE0101960E94FB1D0E9462
:103E20008F1A81E796E00E94150E80911512A81650
:103E300008F083C0F80184859585953008F078C036
:103E40009091F008891708F078C08B9DC00111246B
:103E50008C5B9B4F0E948F1A8FE696E00E94150E96
:103E6000D8011E966D917D918D919C9151976E3FD9
:103E7000BFEF7B078B07BFE39B0719F46FEF7FEF63
:103E8000CB010E94961A8DE696E00E94150EF8016D
:103E900062897389848995890E94F61A8BE696E077
:103EA0000E94150ED80156966D917D918D919C9131
:103EB00059970E94F61A89E696E00E94150EF801BD
:103EC000628D738D848D958D0E94F61A87E696E03B
:103ED0000E94150E85E696E00E94150ED8015E96AA
:103EE0009C90812CAA24A39480E0992049F1992DDB
:103EF0009A2199F0882321F089E093E00E948F1A9B
:103F0000482D6AE07CE0CE0101960E94FB1D0E94D4
:103F10008F1A8A2D8095982281E08394AA0CE5CF90
:103F20000E94E40F009709F06BCF8DE593E068CF16
:103F30000E94E40F009709F08DCF8DE593E08ACFC2
:103F400081E696E00E94150E035D1F4F15CF609627
:103F50000FB6F894DEBF0FBECDBFDF91CF911F919A
:103F60000F91FF90EF90DF90CF90BF90AF909F9018
:103F70008F900895DF92EF92FF920F931F93CF934C
:103F8000DF93CDB7DEB760970FB6F894DEBF0FBEF4
:103F9000CDBFF82EE62E80E892E00E94150E8091AB
:103FA000F008882309F44CC0E81618F0EE24EA94CF
:103FB000E80E87E1D82EEF1408F442C00F2D10E070
:103FC0008EE792E00E94150EC80101960E94C21A67
:103FD0008BE792E00E94150EFD9C800111240C5B82
:103FE0001B4FC8010E948F1A88E792E00E94150EAD
:103FF000F80182850E94C81A86E792E00E94150E99
:10400000F801438569E275E0CE0101960E94FB1D2F
:104010000E948F1A84E792E00E94150EF8018485B1
:104020000E94C81A82E792E00E94150EF801858569
:104030000E94C81A8FE692E00E94150EF394BBCF3F
:1040400060960FB6F894DEBF0FBECDBFDF91CF9163
:104050001F910F91FF90EF90DF900895EF92FF92E4
:104060000F931F93CF938C017B01C0E0EC2FF0E006
:10407000EE0FFF1FEE0DFF1D60817181611571054F
:1040800039F0C8010E947536892B19F0CF5FEECF49
:10409000CFEF8C2FCF911F910F91FF90EF9008954C
:1040A000BF92CF92DF92EF92FF920F931F93CF9325
:1040B000DF937C018B01B12C6701CB0CD11CF60185
:1040C000C0810C2E000CDD0BCE010E947E34892BAA
:1040D00011F0B394F1CFE0972A97C0F4C6010E9483
:1040E000E10EC62F6F3F09F0C1508C2FF8011995D2
:1040F000892B09F4CFEF8C2FDF91CF911F910F9176
:10410000FF90EF90DF90CF90BF900895C0E08C2F8C
:10411000F8011995009771F3BC01C7010E9475362B
:10412000892B49F3CF5FF3CFCF93611107C00E9472
:10413000CE118AE29FE0CF910C94150E64EE7FE0E1
:10414000FA01808191810E945020C82F8F3F79F31E
:104150000E94C81784E29FE00E94150EFDE2CF9FE7
:10416000C00111248F50974F0E948F1A88E19FE061
:10417000E2CF0F931F93CF93DF93611108C082EBBF
:104180009EE0DF91CF911F910F910C94150EFA01D3
:1041900064EE7FE0808191810E945020C82F8F3F84
:1041A00071F3082F10E0DDE2D09FF001D19FF00DF8
:1041B0001124EF50F74F878D90A1A1A1B2A10296D3
:1041C000A11DB11D0297A105B10558F080EA9EE03E
:1041D0000E94150EC80101960E94C21A87E89EE04F
:1041E000D0CF0E94630CAB01BC018C2F0E949215B2
:1041F00081E89EE00E94150ECD9FC00111248F50D2
:10420000974F0E948F1A85E79EE0BBCFCF93DF9335
:10421000611106C088EE9DE0DF91CF910C94150EE0
:10422000FA0164EE7FE0808191810E9450208F3FEF
:1042300089F3C82FD0E09DE2899FF0011124EF504F
:10424000F74F478D50A161A172A14F3F5F4F6F4F54
:104250007F4F59F081E69EE00E94150ECE01019637
:104260000E94C21A80E59EE0D7CFDF91CF910C94D7
:104270003D100F931F93CF93DF93611108C082E528
:104280009DE0DF91CF911F910F910C94150EFA01D3
:1042900064EE7FE0808191810E945020C82F8F3F83
:1042A00071F3082F10E0DDE2D09FF001D19FF00DF7
:1042B0001124EF50F74F878D90A1A1A1B2A18E3F9D
:1042C0009F4FAF4FBF4F59F087ED9DE00E94150EF5
:1042D000C80101960E94C21A87EC9DE0D2CF8C2FB4
:1042E0000E94641081EC9DE00E94150ECD9FC001DC
:1042F00011248F50974F0E948F1A87EB9DE0C1CFFA
:104300007F928F929F92AF92BF92CF92DF92EF9265
:10431000FF920F931F93CF93DF93762E6A0166234C
:1043200041F0FA0180819181FC0120812F3309F055
:1043300055C08AE095E00E94150E82EE94E00E943E
:10434000150E89EB94E00E94150E89E794E00E9417
:10435000150E87E394E00E94150E84E294E00E941B
:10436000150E84E390E00E94C21A80E294E00E945D
:10437000150E82E094E00E94150E89E090E00E9404
:10438000C21A8EEF93E00E94150E8BEE93E00E940E
:10439000150E85E390E00E94C21A87EE93E00E941A
:1043A000150E8BEB93E00E94150E8FE793E00E94B1
:1043B000150E80E693E00E94150E6FEF80E0DF910E
:1043C000CF911F910F91FF90EF90DF90CF90BF9012
:1043D000AF909F908F907F900C94BA1F2D32B9F5BB
:1043E00081818A32B9F40E9458191092F0088DE444
:1043F00096E00E94150EDF91CF911F910F91FF90D3
:10440000EF90DF90CF90BF90AF909F908F907F9074
:104410000C94C91CE091F008EE2369F3E150E0939D
:10442000F00827E1E29FF0011124EC5BFB4F82854D
:104430000E94880C88E496E00E94150E8091F00896
:1044400090E001960E94C21A8CE396E0D2CF6EE310
:1044500078E10E945020B82E3FEF83136FC0F60121
:10446000808191810E94E10E6F3F49F0BB24BA9494
:10447000B60EFFEFBF1619F021E0271588F08AED80
:1044800095E0DF91CF911F910F91FF90EF90DF901A
:10449000CF90BF90AF909F908F907F900C94150E0F
:1044A0008091F0088B1569F083EB95E00E94150E62
:1044B0008091F00890E001960E94C21A89EA95E086
:1044C000E0CF33E33B1570F080E024E434E08B155B
:1044D00060F4295E3F4FF9013D979081992329F0BF
:1044E0008F5FF5CF8FE595E0CCCF8B1107C087E1CB
:1044F000B89EF0011124EC5BFB4F12860B2D10E0EF
:10450000E7E1BE9EC00111249C012C5B3B4F790169
:10451000F6016281738185E495E00E94111D8F3F51
:1045200091F0C1E0C80FF2E0F71508F037C1C130D3
:1045300009F0F2C0D1E062E0A62E08C091E0971524
:10454000E8F2682F3CCFAA24A394D0E0EA2DF0E053
:10455000EE0FFF1FEC0DFD1D6081718149E050E001
:10456000C7010E948C3687E1809FF001819FF00D8A
:104570001124EC5BFB4F1186D1115BC0C1E0CA0D69
:10458000C71508F4CFC0AA24A394AC0EA71490F5C5
:10459000C0E0EA2DF0E0EE0FFF1FEC0DFD1D608185
:1045A000718189E295E00E94111D833009F052C0AB
:1045B00097E1909FF001919FF00D1124EC5BFB4F70
:1045C00092852EEF290F2C3020F09C52933008F06A
:1045D00080E097E1909FF001919FF00D1124EC5B3A
:1045E000FB4F9285983009F44FC08F3F09F041C0CE
:1045F000C1116AC0A394912CA71408F46DC0A394B0
:10460000A71408F0CBC0EA2DF0E0EE0FFF1FEC0D71
:10461000FD1D4081518187E1809FE001819FD00D88
:104620001124CC5BDB4F6D85C7010E94A91D8D87CE
:10463000B5C0CA2DA71408F016C1CD2FC33009F09C
:1046400044C0C1E0A6CF35E3361708F08CC0AA24D9
:10465000AA9489C0843009F0BCCF97E1909FF00103
:10466000919FF00D1124EC5BFB4F9285913108F086
:10467000128697E1909FF001919FF00D1124EC5B61
:10468000FB4F83878787B4CF82E0F3CFC53009F033
:1046900085C0B9CF70E00E946F0BB1C027E1209FA9
:1046A000C001219F900D11249C012C5B3B4F69019F
:1046B000F9018285C43029F48A5C0E94460CF60117
:1046C000A8C00E94DC0AFBCFC3E0A71408F066C0B4
:1046D000C430E1F699249394EA2DF0E0EE0FFF1F29
:1046E000EC0DFD1D4081518187E1809FE001819F9C
:1046F000D00D1124CC5BDB4F6C85C7010E94A91D36
:104700008C879F85911104C091E0811190E09D8775
:10471000992009F474CF42C082E0A82EC23009F07B
:104720008DCFD1E0EC2FF0E0EE0FFF1FEC0DFD1D63
:10473000808191810E94E10E6F3F71058105910595
:1047400021F018F06FEF7FEFCB01A62E28E0621367
:104750007ACF87E1809FF001819FF00D1124EC5BFF
:10476000FB4F82E0878727E1209FC001219F900DAA
:104770001124FC01EC5BFB4F4F0182858A1539F057
:10478000FFEFAF1621F00E94880CF401A286DD2312
:1047900009F4F9CED2E0C71508F465C08091F0089D
:1047A0008B1104C081E08B0D8093F0080E94C91C1E
:1047B00087E1809FF001819FF00D1124EC5BFB4F9E
:1047C000C385C7878285C43009F48A5CEC2FF0E08A
:1047D000E057FD4FD0816D2F0E94330BD13009F08F
:1047E0005DCF87E1809FF001819FF00D1124EC5B8C
:1047F000FB4F64858285C1114DCF0E94050B87E177
:10480000809FF001819FF00D1124EC5BFB4F8485AC
:1048100090E0918B808BC7010E94A60F0E94630CD1
:1048200027E1209FF001219FF00D1124EC5BFB4F4D
:10483000628B738B848B958B81E0868B6B2D8B2D9C
:104840000E94BA1F6B2D8B2DDF91CF911F910F917D
:10485000FF90EF90DF90CF90BF90AF909F908F90A0
:104860007F900C94CA18AC2ECD2F2FCFBF92CF9231
:10487000DF92EF92FF920F931F93CF93DF93F62E69
:104880008A0161116FC01091F008112309F458C01A
:104890001150C4E4D4E0F12CE12C07E1670181ED73
:1048A00092E00E94150E8FEFE81AF80AC7010E94E5
:1048B000C21A8EEC92E00E94150E0C9DF0010D9D27
:1048C000F00D1124EC5BFB4F6089718990E080E072
:1048D0004AE00E944B1A8BEC92E00E94150EEF8585
:1048E000F0E0EE0FFF1FEE5AFD4F808191810E9494
:1048F0008F1A89E093E00E948F1A8F85823050F1E1
:10490000833069F183EB92E00E94150ECE010E9484
:104910008F1A81EB92E00E94150E8F85823020F471
:1049200085EA92E00E94150E8DE593E00E948F1AB1
:1049300082EA92E00E94150E67961E1508F0AECF2F
:10494000DF91CF911F910F91FF90EF90DF90CF906B
:10495000BF90089581EC92E00E94150ED3CF85EBB5
:1049600092E0FACF6EE378E1FA01808191810E94B2
:1049700050208F3F69F48EE193E0DF91CF911F913A
:104980000F91FF90EF90DF90CF90BF900C94150E99
:10499000C82FD0E0F1E0FF1568F189E193E00E94B3
:1049A000150ECE0101960E94C21A86E193E00E9484
:1049B000150E27E12C9FC0012D9F900D1124EC01B5
:1049C000CC5BDB4F6889798990E080E04AE00E9407
:1049D0004B1A83E193E00E94150EEF85F0E0EE0F95
:1049E000FF1FEE5AFD4F808191810E948F1A80E156
:1049F00093E0C3CFF80182819381FC0120812F33A2
:104A000091F487E18C9FF0018D9FF00D1124EC5BF8
:104A1000FB4F6089718990E080E04AE00E944B1A68
:104A20008DE093E0AACF27E12C9F80012D9F100DF0
:104A300011240C5B1B4FF801B784EB2DF0E0E0571D
:104A4000FD4F2081213019F081EE92E096CF0E9437
:104A5000E10EF8013285B11034C021E0672B682BDC
:104A6000692B09F420E0C22ED12CF12CE12C622F0D
:104A7000832F0E94050B0E94630C27E12C9FF001FD
:104A80002D9FF00D1124EC5BFB4F628B738B848B9D
:104A9000958BD18AC08A81E0868B8CED92E00E9452
:104AA000150ECE0101960E94C21A89ED92E00E9475
:104AB000150E4AE0C701B6010E944B1A86ED92E03E
:104AC0005CCF6B017C01FFEFCF16D104E104F10450
:104AD00029F020F0C12CD12C7601CA94B601832F85
:104AE0000E946F0BC8CFFF920F931F93CF93DF935A
:104AF000662351F06BE073E0DA018D919C910E9486
:104B00007536D1E0892B09F0D0E082E890E10E946F
:104B1000150E83E090E00E94C21A8FE290E10E949D
:104B2000150E82E090E00E94C21A8DE290E10E9490
:104B3000150E86E290E00E94C21A8AE290E10E947D
:104B4000150E8BED9FE00E94150E08EA12E0C0E002
:104B5000F801F280DD2311F0F2FC0DC08C2F0E94D1
:104B60004C1BF5FE08C0D801ED91FC9150E040E0EF
:104B700060E08C2F1995CF5F0D5F1F4FC13141F75A
:104B8000DF91CF911F910F91FF9008958F929F9287
:104B9000AF92BF92CF92DF92EF92FF920F931F934B
:104BA000CF93DF93EC0109900020E9F721978C0166
:104BB0008C179D0789F46FEF7FEFCB01DF91CF91C9
:104BC0001F910F91FF90EF90DF90CF90BF90AF902B
:104BD0009F908F900895E7017E010C171D07D0F478
:104BE000FE0182917F01082E000C990B0E947E34F9
:104BF000892B89F75E017501F50182915F01082E0D
:104C0000000C990B0E946236892B21F00A151B05B6
:104C100090F37501CE19DF09DD27AE016FE073E077
:104C2000C7010E947E36812C47E8942E43E9A42ECA
:104C300043E0B42E892B21F0812C912C54018394D4
:104C4000AE0164E173E0C7010E947E36892B39F41E
:104C500020E4822E22E4922E2FE0A22EB12CAE016F
:104C600063E173E0C7010E947E36892B31F498EE30
:104C7000892E93E0992EA12CB12CAE0166E173E050
:104C8000C7010E947E36892B21F4812C912C54017E
:104C900083946EE270E0C8010E946A36892B89F124
:104CA000C8010E94C8326B017C01C501B4010E9499
:104CB000A434A70196010E9405350E94F6356F3F86
:104CC000FFEF7F078F079F0709F475CF6115710507
:104CD0008105910509F472CF61157105810520E404
:104CE000920720F06FEF7FEF8FEF9FE3643671053F
:104CF0008105910508F062CF64E670E080E090E005
:104D00005DCFC8010E94E10EA50194010E942536E5
:104D1000D6CF4F925F926F927F928F929F92AF9277
:104D2000BF92CF92DF92EF92FF920F931F93CF9398
:104D3000DF93CDB7DEB760970FB6F894DEBF0FBE36
:104D4000CDBFD62E5A01662341F0FA0180819181B0
:104D5000FC0120812F3309F055C087EE9BE00E94B3
:104D6000150E8DEB9BE00E94150E82E99BE00E94E0
:104D7000150E8FE29BE00E94150E80E09BE00E94E2
:104D8000150E8DEE9AE00E94150E84E390E00E94CD
:104D9000C21A89EE9AE00E94150E8AEC9AE00E94EF
:104DA000150E89E090E00E94C21A86EC9AE00E94FB
:104DB000150E85E69AE00E94150E89E09AE00E94A1
:104DC000150E89E999E00E94150E8EE099E00E9487
:104DD000150E88EB98E00E94150E8AE798E00E9475
:104DE000150E8AE398E00E94150E88EF97E00E9466
:104DF000150E80EC97E00E94150E6FEF80E00E9488
:104E00008B1E21C02D32B1F581818A3239F4109286
:104E100015128DE39DE00E94150E15C080911512AC
:104E2000882389F087E39DE00E94150E809115127A
:104E30000E94C81A8BE29DE00E94150E8091151207
:104E400081508093151260960FB6F894DEBF0FBEA6
:104E5000CDBFDF91CF911F910F91FF90EF90DF9029
:104E6000CF90BF90AF909F908F907F906F905F900A
:104E70004F90089564EE7FE00E945020582EFFEF7F
:104E80008F1329C0F501808191810E94E10E6F3F4F
:104E900049F055245A94560EFFEF5F1619F021E0A1
:104EA0002D1518F085EC9CE0B6CF80911512851574
:104EB00069F08CE99CE00E94150E8091F00890E06A
:104EC00001960E94C21A82E99CE0A5CF843340F08B
:104ED00087E69CE0A0CF31E03D1510F0682F8FCF22
:104EE000052D10E06AE772E0F501828193810E944E
:104EF0002E20C82EFFEF8F1791F0EE24E394E80EDA
:104F000022E02D1508F426C322E0F22EFD1408F04D
:104F1000A1C295E0E91218C2EE24E3942CC1FF244B
:104F2000F394912CEF2DF0E0EE0FFF1FEA0DFB1D27
:104F3000608171818DE2E82E5E9CC001112449E000
:104F400050E08F50974F0E948C36E09EF001E19E1A
:104F5000F00D1124EF50F74F118691100DC0EE2483
:104F6000E394EF0CED14A8F0FF24F394FE0CFD1471
:104F700008F0D1C0E12CA5C0E92CFD1408F49CC0B8
:104F8000E92C7EC132E0E2E0FE2EE31295C09924C6
:104F90009394EE2DF0E0EE0FFF1FEA0DFB1D66E689
:104FA00072E0808191810E942E20C82E4FEF8417DD
:104FB00049F08DE2809FF001819FF00D1124EF50A8
:104FC000F74FC286992081F2FE2CED1408F0CAC278
:104FD000F2E0EF2EFD1408F05EC089E0E812A4C2F2
:104FE000EE24E394EF2DF0E0EE0FFF1FEA0DFB1D22
:104FF000808191810E94C6256F3FFFEF7F078F0759
:105000009F0729F12DE2209FF001219FF00D11242F
:10501000EF50F74F2685378540895189232B242B64
:10502000252B49F0643671058105910520F464E66D
:1050300070E080E090E02DE2209FF001219FF00DD4
:105040001124EF50F74F628F738F848F958F8DE20D
:10505000809FF001819FF00D1124EF50F74F86855E
:105060009785A089B189892B8A2B8B2B89F0828D1A
:10507000938DA48DB58D84369105A105B10540F4BD
:1050800084E690E0A0E0B0E0828F938FA48FB58F8C
:10509000EE2009F4F2C180911512851104C081E05F
:1050A000850D80931512652D852D0E948B1E652D13
:1050B000852D0E949118C7CE53E0E51239C0EE2429
:1050C000E3948DE2809FF001819FF00D1124EF5059
:1050D000F74F2285223088F0EF2DF0E0EE0FFF1F12
:1050E000EA0DFB1D808191816EE378E1273010F09D
:1050F00064EE7FE00E945020C82E8FEFC81649F062
:105100008DE2809FF001819FF00D1124EF50F74F49
:10511000C386E11005C0F394FD1440F5E12C0DC0E9
:1051200063E0962EFD1408F02BCF83E0E82E52CFDB
:1051300094E0E912EECEEE24E394EF2DF0E0EE0FD2
:10514000FF1FEA0DFB1D6081718182E39CE00E94DC
:10515000111D8F3F49F09DE2909FF001919FF00D4E
:105160001124EF50F74F8587E11070C0F394FD14C0
:1051700008F066C0E12CEF2DF0E0EE0FFF1FEA0D06
:10518000FB1D808191814DE2409F9001419F300D38
:105190001124F901EF50F74F4F012585253008F014
:1051A00058C06EE378E10E9450208F3F09F456C04A
:1051B00027E1829FF0011124EC5BFB4F9285983030
:1051C00041F49785943029F0F40184858F3F09F4E8
:1051D00045C09DE2909FF001919FF00D1124EF508A
:1051E000F74F84878DE2809FF001819FF00D11249D
:1051F000EF50F74F8585843009F5E48527E1E29F7C
:10520000F0011124EC5BFB4F87858430B9F090915D
:10521000F00824E434E080E0981781F0295E3F4FE5
:10522000F90138974081443039F59DE2909FF001B3
:10523000919FF00D1124EF50F74F8487E1101EC0AD
:10524000F394FD1408F0DAC0E12C83C044E0E42EAE
:105250005DCE64EE7FE00E945020B8CF8DE2809F4B
:10526000F001819FF00D1124EF50F74F85858530B7
:1052700009F0B8CF8FEFB5CF8F5FCECF25E0E22E0C
:10528000FD1408F0A7CE58E0E512A4CEEE24E39476
:10529000EF2DF0E0EE0FFF1FEA0DFB1D80819181E5
:1052A0000E94C6256F3FEFEF7E078E079E0729F10C
:1052B0002DE2209FF001219FF00D1124EF50F74FB8
:1052C0002685378540895189232B242B252B49F0AE
:1052D000643671058105910520F464E670E080E094
:1052E00090E02DE2209FF001219FF00D1124EF505E
:1052F000F74F668B778B808F918F8DE2809FF001C7
:10530000819FF00D1124EF50F74F86859785A08976
:10531000B189892B8A2B8B2B89F086899789A08D5F
:10532000B18D84369105A105B10540F484E690E085
:10533000A0E0B0E0868B978BA08FB18FEE2009F4B0
:1053400097C028E0E22E46CE36E0E31286C0EE2477
:10535000E394EF2DF0E0EE0FFF1FEA0DFB1D8081BF
:1053600091810E94820E97FD6EC0DC01CB018E3FC1
:105370004FEF9407A4074FE3B40724F08DEF9FEF9E
:10538000AFEFBFE32DE2209FF001219FF00D11242C
:10539000EF50F74F86879787A08BB18B892B8A2B8D
:1053A0008B2B51F1828D938DA48DB58D8436910513
:1053B000A105B10540F484E690E0A0E0B0E0828F62
:1053C000938FA48FB58F8DE2809FF001819FF00DA8
:1053D0001124EF50F74F86899789A08DB18D8436BF
:1053E0009105A105B10540F484E690E0A0E0B0E0AD
:1053F000868B978BA08FB18FE1102AC0F394FD1498
:1054000090F5E12CEF2DF0E0EE0FFF1FEA0DFB1DF4
:10541000808191810E94C6256F3F5FEF75078507E8
:10542000950761F02DE2209FF001219FF00D1124DE
:10543000EF50F74F628B738B848B958BEE2099F036
:1054400037E0E32EC7CD8EEF9FEFAFEFBFE39ACFEC
:1054500086E0E82EFD1408F01ECEE7E0EE1213CF32
:10546000EE24E394CFCFF394E12CFD1408F410CF95
:10547000F394E12CFD1408F4B5CDF394FD1408F079
:105480000ACE8F2D90E0880F991FA80EB91EF50146
:10549000A080B180412C66246394712CF501808139
:1054A000882309F449C06501F60181917F018823B1
:1054B00009F442C0082E000C990B0E947E34892BFF
:1054C000B9F55701F70181914F01882339F0082E72
:1054D000000C990B0E947E34892B61F1EC18FD08B9
:1054E000F0E1EF16F1041CF04FE0E42EF12CA701DF
:1054F000B601CE0101960E948C3621E030E02C0FDF
:105500003D1FE20EF31EF7011082B9018AE09CE014
:105510000E94111D8F3F11F2930102C0220F331F11
:105520008A95E2F7422ABACF2AE0E212B4CDA9CF97
:105530006701BACF7401C5CF3FEF431609F4ABCD75
:105540008DE2809FF001819FF00D1124EF50F74F05
:10555000468EA1CD41E0E41215CD9924939492E0BA
:10556000F92EE0CC92E0E92ED1CCCF92DF92EF92EF
:10557000FF920F931F93CF93DF936623C1F0DA015D
:10558000ED91FC9190819F3391F0282F30E0F9014B
:10559000EE0FFF1FE20FF31FE855FD4F128114FDC0
:1055A00006C091E08E3009F490E0992351F0DF912C
:1055B000CF911F910F91FF90EF90DF90CF900C94BF
:1055C0004C1BEA01B8E28B9FC001112486549F4E08
:1055D0000E94150E81EB9FE00E94150E8881998133
:1055E00013FF26C00E94CC3297FF03C060E070E03A
:1055F000CB01161617061806190624F461E070E0B0
:1056000080E090E060931A1270931B1280931C123A
:1056100090931D120E94961A8EEA9FE0DF91CF911F
:105620001F910F91FF90EF90DF90CF900C94150E8B
:10563000EC01C12CD12C7601E991EE23D1F00E2E94
:10564000000CFF0BF097EA30F10598F4AAE0B0E007
:10565000A70196010E94DC358F01FF0F220B330B4F
:10566000060F171F281F391F0C151D052E053F0596
:10567000C8F4C701B601611571058105910521F0D6
:1056800061E070E080E090E060931A1270931B126A
:1056900080931C1290931D124AE00E944B1A8BEAD1
:1056A0009FE0BCCF68017901C7CFAF92BF92CF9284
:1056B000DF92EF92FF920F931F93CF93DF93C62F4A
:1056C0007A01611149C0D0911512DD23D1F101EFAA
:1056D00018E0EE24E394F12C8C2F0E945A18D82E57
:1056E0008AE197E00E94150EC7010E94C21A87E165
:1056F00097E00E94150E8D2D0E94C81AF80183A50F
:1057000080FF04C085E197E00E94150EF80183A593
:1057100081FF04C083E197E00E94150E80E097E0CE
:105720000E94150EC8010E948F1A81EC96E00E941B
:10573000150ECF5FFFEFEF1AFF0A035D1F4FDC135B
:10574000CBCFDF91CF911F910F91FF90EF90DF9022
:10575000CF90BF90AF90089564EE7FE0FA01808112
:1057600091810E945020182F8AE897E01F3FC1F1D5
:10577000A12EB12CC23008F03FC0812F0E945A18D0
:10578000C82F8AE297E00E94150EC50101960E947B
:10579000C21A87E297E00E94150E8C2F0E94C81A49
:1057A0008DE28A9DF0018B9DF00D1124EF50F74F93
:1057B00083A580FF04C085E297E00E94150E8DE26C
:1057C0008A9DF0018B9DF00D1124EF50F74F83A5BA
:1057D00081FF04C083E297E00E94150E80E297E00B
:1057E000DF91CF911F910F91FF90EF90DF90CF90BD
:1057F000BF90AF900C94150EF70182819381FC014C
:105800002081022E000C330B205331092A30310540
:1058100078F50E94CC326B017C018BE597E0FFEFBD
:10582000CF16D104E104F104D9F2D701C6010297E1
:10583000A109B1098F3F2FEF9207A207B20709F420
:1058400066C0FCF48E3F9F4FAF4FBF4F09F443C07B
:1058500083E397E00E94150EF601EE0FFF1FE25A58
:10586000FD4F808191810E948F1A80E397E0B8CF2D
:105870006CE478E10E945020C82ED12CF12CE12C50
:10588000CCCF0097A105B10531F10197A105B10574
:10589000F9F68DE28A9DF0018B9DF00D1124EF50F9
:1058A000F74F878D90A1A1A1B2A18E3F9F4FAF4F1F
:1058B000BF4F70F20E94630CAB01BC01812FDF91DE
:1058C000CF911F910F91FF90EF90DF90CF90BF90FD
:1058D000AF900C9492158DE28A9DE0018B9DD00DC6
:1058E0001124CF50D74F8F8D98A1A9A1BAA18F3F76
:1058F0009F4FAF4FBF4F0CF4ABCF8E8D80688E8F14
:10590000812F0E94C8178E8D8F778E8F1ACF8DE2D0
:105910008A9DF0018B9DF00D1124EF50F74F878D7C
:1059200090A1A1A1B2A18E3F9F4FAF4FBF4F09F0F1
:105930008FCF812FDF91CF911F910F91FF90EF902B
:10594000DF90CF90BF90AF900C9464101F920F9295
:105950000FB60F9211242F933F938F939F93AF9382
:10596000BF938091C4129091C512A091C612B091BC
:10597000C7123091C31223E0230F2D3758F501963B
:10598000A11DB11D2093C3128093C4129093C51220
:10599000A093C612B093C7128091C8129091C912F9
:1059A000A091CA12B091CB120196A11DB11D809396
:1059B000C8129093C912A093CA12B093CB12BF9190
:1059C000AF919F918F913F912F910F900FBE0F90AC
:1059D0001F90189526E8230F0296A11DB11DD2CF66
:1059E0001F920F920FB60F9211240BB60F922F93A6
:1059F0003F934F935F936F937F938F939F93AF9357
:105A0000BF93EF93FF93E0911002F091110219956B
:105A1000FF91EF91BF91AF919F918F917F916F9186
:105A20005F914F913F912F910F900BBE0F900FBE42
:105A30000F901F9018951F920F920FB60F9211247E
:105A40000BB60F922F933F934F935F936F937F9378
:105A50008F939F93AF93BF93EF93FF93E0910E02C9
:105A6000F0910F021995FF91EF91BF91AF919F9126
:105A70008F917F916F915F914F913F912F910F90F7
:105A80000BBE0F900FBE0F901F9018951F920F9294
:105A90000FB60F9211240BB60F922F933F934F9393
:105AA0005F936F937F938F939F93AF93BF93EF9386
:105AB000FF93E0910402F09105021995FF91EF9197
:105AC000BF91AF919F918F917F916F915F914F9116
:105AD0003F912F910F900BBE0F900FBE0F901F9014
