:100000000C94700A0C941E2F0C94F32E0C94C82E92
:100010000C949D2E0C94722E0C94472E0C941C2E36
:100020000C94F12D0C94A10A0C94A10A0C94A10A31
:100030000C94A10A0C94A10A0C94A10A0C94A10A94
:100040000C94A10A0C94A10A0C94A10A0C94A10A84
:100050000C94A92F0C94A10A0C94A10A0C94A72D1E
:100060000C94A10A0C94732F0C94492F0C94A10AA0
:100070000C94A10A0C94D42F0C94A10A0C94A10AFC
:100080000C94A10A0C94A10A0C94A10A0C94A10A44
:100090000C94A10A0C94A10A0C94A10A0C94A10A34
:1000A0000C94A10A0C94A10A0C94A10A0C94A10A24
:1000B0000C94A10A0C94A10A0C94A10A0C94A10A14
:1000C0000C94A10A0C94A10A0C94A10A0C94A10A04
:1000D0000C94A10A0C94A10A0C94A10A0C94A10AF4
:1000E0000C94A10A0C94E20B0C94DD0B0C94562C8E
:1000F0000C9453100C94100C0C94B71B0C942E0CF5
:100100000C94CC0C0C94F60B0C94D30A0C94EA0AC5
:100110000C94CF0A0C94691A0C94250D0C94E50CE0
:100120000C94040D0C946B200C94CE1C0C945E0E5D
:100130000C941F180C94E60A0C949D250C94DB0C6F
:100140000C94510C0C946F0C0C94E10C0C94DD206D
:100150000C94460D0C94C10A0C94A61A0C944A25D2
:100160000C946B170C94240C0C94010B0C94CB0A7C
:100170000C949A1C0C94080C0C9490200C949317DB
:100180000C9483170C94650C0C9457210C94DF0C81
:100190000C9411180C94000C0C9473170C94C70A4F
:1001A0000C94D60A0C94020B0C949C330C94B62B32
:1001B0000C941A0C0C94EB0F0C9410210C94E30C7F
:1001C0000C943D0C0C94F60D0C940C0D0C94B00D8D
:1001D0000C94D50B0C947B170C94EE0A0C948D0D9B
:1001E0000C948B170C94530D0C943A0D0C94180D21
:1001F0000C94E00A0C94DC0A0C948A270C94BE0D33
:100200000C949C0D0C94EC0B0C945B0C0C94F6155C
:100210000C94600D0C94F40A0C94060B0C94AF0E25
:100220000C94F80A0C94D70C0C940D240C94FC0A32
:100230000C94470C0C94D90C4E414E494E495459DC
:10024000494E46CDCCCC3D0AD7233C17B7D13877A1
:10025000CC2B329595E6241FB14F0A0000204100B7
:1002600000C84200401C4620BCBE4CCA1B0E5AAE01
:10027000C59D740D0A00090009000900270900093D
:1002800027002000696E646578096E616D650970EC
:10029000696E096D6F646509696E697409746F67C9
:1002A000676C650D0A000D0A0020286C6F777C686A
:1002B0006967682900270027005B3020746F2032AF
:1002C00035355D20005B3020746F20315D20003AB1
:1002D00020005D3D0070696E5B000D0A005D3D0011
:1002E00070696E5B0070696E206572726F723A2081
:1002F00063616E6E6F7420736574207374617465CE
:10030000206F6620696E7075742070696E2E0D0AFC
:10031000000D0A000D0A003A20005D3D0070696E74
:100320005B0070696E206572726F723A2066697246
:10033000737420617267756D656E742073686F7574
:100340006C642062652070696E20696E6465782037
:100350006F72206E616D652E0D0A006C6F772C68D0
:1003600069676800203C746F67676C653E203A20BF
:100370003C70776D3E205B3020746F203235355DE8
:100380000D0A00203C696E69743E2020203A203C12
:100390006F75747075743E205B3020746F20315D12
:1003A00020286C6F777C6869676829203C70776DBE
:1003B0003E205B3020746F203235355D0D0A002001
:1003C0003C6D6F64653E2020203A20286F75747064
:1003D00075747C696E7075747C70756C6C75707CEE
:1003E00070776D7C616463290D0A005D0D0A002041
:1003F0003C70696E3E202020203A205B3020746FD4
:1004000020005D0D0A00203C6E616D653E202020BD
:100410003A2071756F7465642070696E206E616D2D
:1004200065205B005D0D0A00203C696E6465783EC6
:1004300020203A205B3120746F2000206470696EA8
:10044000203C696E6465783E7C3C6E616D653E2043
:100450003C73657474696E673E205B3D5D203C763D
:10046000616C75653E3A206368616E6765206F6EEA
:10047000652070726F70657274790D0A0020647067
:10048000696E203C696E6465783E203C6E616D65E6
:100490003E203C70696E3E203C6D6F64653E203CA2
:1004A000696E69743E203C746F67676C653E3A20E4
:1004B000646566696E652070696E0D0A002064705F
:1004C000696E202D5B2A5D203A2064656C65746539
:1004D000206C6173742070696E20282A203D206191
:1004E0006C6C290D0A00206470696E203F2020206A
:1004F000203A2073686F7720616C6C2070696E20E1
:10050000646566696E6974696F6E730D0A00436F86
:100510006D6D616E64206470696E3A20436F6E6623
:1005200069677572652050696E730D0A006F757486
:100530007075742C696E7075742C70756C6C757038
:100540002C70776D2C616463006E616D652C706931
:100550006E2C6D6F64652C696E69742C746F67679F
:100560006C65006572726F723A206E6F206D6F72EB
:1005700065206E65772070696E732063616E2062FE
:100580006520646566696E65642E207479706520E7
:100590002770696E2720746F207365652064656617
:1005A000696E65642070696E732E0D0A002066699D
:1005B0007273742E0D0A0070696E20617267756D1A
:1005C000656E74206572726F723A20706C6561732B
:1005D0006520646566696E652070696E20007069CB
:1005E0006E20617267756D656E74206572726F72D0
:1005F0003A20666972737420617267756D656E74F6
:100600002073686F756C642062652070696E206964
:100610006E646578206F72206E616D652E2074792E
:100620007065202770696E2720746F2073656520C0
:10063000646566696E65642070696E732E0D0A00CC
:100640002064656C657465642E0D0A0070696E2007
:1006500000616C6C2070696E732064656C657465F4
:10066000642E0D0A00270D0A002700090009000961
:1006700000090009000900090009000900090069D2
:100680006E646578096E616D650974726967676586
:100690007209736F7572636509616374696F6E09BE
:1006A00074617267657409636F756E740964656C53
:1006B000617909757009646F776E096F7074696F7D
:1006C0006E730D0A0027202869646C657C61726D69
:1006D00065647C66696E69736865647C6669726569
:1006E0006429202A3A7472696767657265642C20F0
:1006F0002B3A7374617274207472696767657265EE
:10070000640D0A003A205B3020746F20335D5B2A51
:100710005D5B2B5D2027002B002A005D3D0074618E
:10072000736B5B000D0A002B002A005D3D007461B5
:10073000736B5B000D0A006572726F723A20746110
:10074000736B2073746174757320636F756C6420B0
:100750006E6F742062652073657420746F2000656D
:1007600072726F723A207365636F6E642061726794
:10077000756D656E742073686F756C64206265209A
:100780007461736B2073746174652E0D0A00657259
:10079000726F723A20666972737420617267756D48
:1007A000656E742073686F756C6420626520746177
:1007B000736B20696E646578206F72206E616D6561
:1007C0002E0D0A00203C6F7074696F6E733E3A20E4
:1007D0002861726D2D6F6E2D66696E697368206178
:1007E000726D2D6F6E2D7374617274757020696EE9
:1007F0007465727275707473290D0A00203C646F01
:10080000776E3E2020203A206E5B737C6D737C7582
:10081000735D20646F776E2074696D653A203020B7
:100820006F72206265747765656E20313030207597
:100830007320616E642031373A35330D0A00203C55
:1008400075703E20202020203A206E5B737C6D73F3
:100850007C75735D2075702074696D653A20302059
:100860006F72206265747765656E20313030207557
:100870007320616E642031373A35330D0A00203C15
:1008800064656C61793E20203A206E5B737C6D73E9
:100890007C75735D2064656C61793A2030206F72DD
:1008A000206265747765656E203130302075732065
:1008B000616E642031373A35330D0A00203C636F96
:1008C000756E743E20203A205B2D3120746F2031EC
:1008D0003037333734313832305D207265706561BE
:1008E0007420636F756E743A202D3120666F72200C
:1008F000636F6E74696E756F75732C203020666F30
:10090000722073696E676C6520616374696F6E0D28
:100910000A00203C7461726765743E203A203C6F87
:1009200075747075742D70696E3E20286F757470C3
:1009300075742070696E2D696E646578206F722001
:1009400070696E2D6E616D6529203C6F75742D7414
:1009500061736B3E20287461736B2D696E646578DA
:10096000206F72207461736B2D6E616D6529203C60
:100970006164633E20286164632070696E2D696E36
:10098000646578206F722070696E2D6E616D6529C7
:10099000203C6E6F6E653E2028290D0A00203C61C8
:1009A0006374696F6E3E203A203C6F757470757485
:1009B0002D70696E3E20286C6F777C686967687C53
:1009C000746F67676C6529203C6F75742D74617353
:1009D0006B3E202861726D7C73746172747C7265E9
:1009E00073746172747C73746F707C6B69636B2950
:1009F000203C6164633E202861646329203C6E6F63
:100A00006E653E20286E6F6E65290D0A00203C73CE
:100A10006F757263653E203A203C696E7075742D67
:100A200070696E3E2028696E7075742070696E2D35
:100A3000696E646578206F722070696E2D6E616DCD
:100A40006529203C696E2D7461736B3E20287461AA
:100A5000736B2D696E646578206F72207461736B9F
:100A60002D6E616D65290D0A00203C7472696767FF
:100A700065723E3A203C736F6674776172653E2002
:100A8000286175746F7C6D616E75616C29203C699D
:100A90006E7075742D70696E3E202875707C646F61
:100AA000776E7C616E797C686967687C6C6F77298A
:100AB000203C696E2D7461736B3E202873746172E3
:100AC000747C73746F70290D0A005D0D0A00203C60
:100AD0006E616D653E2020203A2071756F746564EB
:100AE000207461736B206E616D65205B005D0D0A83
:100AF00000203C696E6465783E20203A205B3120FE
:100B0000746F200020647461736B203C696E6465AF
:100B1000783E7C3C6E616D653E203C70726F706506
:100B20007274793E205B3D5D203C76616C75653E5C
:100B30000D0A0020647461736B203C696E646578F3
:100B40003E203C6E616D653E203C7472696767654E
:100B5000723E203C736F757263653E203C61637426
:100B6000696F6E3E203C7461726765743E203C6321
:100B70006F756E743E203C64656C61793E203C75F7
:100B8000703E203C646F776E3E203C6F7074696FDE
:100B90006E733E0D0A0020647461736B202D5B2A16
:100BA0005D203A2064656C657465206C6173742007
:100BB0007461736B20282A203D20616C6C290D0A1A
:100BC0000020647461736B203F202020203A207342
:100BD000686F7720616C6C207461736B206465664C
:100BE000696E6974696F6E730D0A00436F6D6D6194
:100BF0006E64207461736B3A20646566696E652F5C
:100C000064656C657465207461736B0D0A006172B4
:100C10006D2D6F6E2D66696E6973682C61726D2D16
:100C20006F6E2D737461727475702C696E74657259
:100C30007275707473006E6F6E652C6C6F772C68B4
:100C40006967682C746F67676C652C6164632C73CB
:100C5000746F702C73746172742C7265737461722A
:100C6000742C61726D2C6B69636B006572726F72AC
:100C70003A206E6F206D6F7265206E65772074610B
:100C8000736B732063616E206265206372656174AB
:100C900065642E0D0A002066697273742E0D0A00B9
:100CA0007461736B20617267756D656E7420657217
:100CB000726F723A20706C65617365206465666955
:100CC0006E65207461736B20007461736B206172B8
:100CD00067756D656E74206572726F723A20666911
:100CE00072737420617267756D656E742073686FBE
:100CF000756C64206265207461736B20696E646535
:100D000078206F72206E616D652E20747970652079
:100D1000277461736B2720746F2073656520646589
:100D200066696E6564207461736B732E0D0A002012
:100D300064656C657465642E0D0A007461736B20C4
:100D400000616C6C207461736B732064656C6574F6
:100D500065642E0D0A0061726D20617267756D65A4
:100D60006E74206572726F723A20666972737420B5
:100D7000617267756D656E742073686F756C642041
:100D80006265207461736B20696E646578206F7290
:100D9000206E616D652E20747970652027746173F3
:100DA0006B2720746F2073656520646566696E65C6
:100DB00064207461736B732E0D0A002061726D657F
:100DC000642E0D0A007461736B2000206973206E1D
:100DD0006F742069646C652E0D0A0061726D206568
:100DE00072726F723A207461736B20006469736170
:100DF000726D20617267756D656E74206572726FB9
:100E0000723A20666972737420617267756D656EDF
:100E1000742073686F756C64206265207461736BF5
:100E200020696E646578206F72206E616D652E207A
:100E30007479706520277461736B2720746F207339
:100E4000656520646566696E6564207461736B73A3
:100E50002E0D0A00206973206E6F742061726D651B
:100E6000642E0D0A0064697361726D206572726F81
:100E7000723A207461736B20002073746172746520
:100E8000642E0D0A007461736B2000206973206E5C
:100E90006F742069646C65206F722061726D656487
:100EA0002E0D0A0066697265206572726F723A20B3
:100EB0007461736B20006669726520617267756D7D
:100EC000656E74206572726F723A2066697273740F
:100ED00020617267756D656E742073686F756C64E0
:100EE000206265207461736B20696E646578206F81
:100EF00072206E616D652E207479706520277427CD
:100F000020746F2073656520646566696E65642072
:100F10007461736B732E0D0A000D0A002073746FD9
:100F2000707065642E0D0A007461736B2000616C33
:100F30006C207461736B732073746F707065642EB2
:100F40000D0A000D0A0020007420000D0A00200088
:100F50007020002E0D0A007461736B732077726924
:100F60007474656E2E0D0A00456E746572696E6745
:100F70002073636F70652038206D6F64652E205379
:100F8000656E6420616E7920636861726163746567
:100F90007220746F20656E642E0D0A00456E7465B4
:100FA00072696E672073636F7065203136206D6FD4
:100FB00064652E2053656E6420616E7920636861DC
:100FC00072616374657220746F20656E642E0D0A01
:100FD00000726573657420646F6E652E0D0A000DD6
:100FE0000A000D0A003D000D0A003A20005D2000B5
:100FF00020746F20005B003A20003D005D2000203F
:10100000746F20005B003A20003D003A0D0A00207A
:101010004F757470757473204469676974616C20CE
:101020005369676E616C73206F7074696F6E616C69
:101030006C792073796E6368726F6E697A6564206B
:1010400077697468204469676974616C20496E70BF
:101050007574205369676E616C732E0D0A000D0A5A
:10106000002E002E0075730073006D73007265739F
:10107000657474696E6720666163746F7279206449
:10108000656661756C74732E0D0A00656E74657209
:10109000203F20746F2073656520617661696C6103
:1010A000626C6520636F6D6D616E64730D0A000D77
:1010B0000A002E002E004E695665724469673A2078
:1010C000566572736174696C6520446967697461FF
:1010D0006C2050756C736520436F6E74726F6C6C0E
:1010E000657220616E642053636F7065200000009C
:1010F000000000000000436F6D6D616E64730000BE
:1011000000000000000000000000000000000000DF
:101110000000000000003F000000000000005B67CE
:1011200075695D2053686F772073746174757320DF
:10113000616E6420636F6D6D616E64730000706931
:101140006E000000000053657420616E64205175CC
:101150006572792050696E20537461747573000054
:101160000000000000007461736B00000000536514
:101170007420616E64205175657279205461736BBF
:1011800020537461747573000000000000006172E8
:101190006D00000000003C7461736B3E3A204172A8
:1011A0006D205461736B000000000000000000001F
:1011B00000000000000064697361726D00003C74FF
:1011C00061736B3E3A2044697361726D20546173A0
:1011D0006B7300000000000000000000000073744A
:1011E0006172740000003C7461736B3E3A2053746A
:1011F000617274205461736B0000000000000000F5
:1012000000000000000073746F70000000005B3C81
:101210007461736B3E207C20215D3A2053746F70A3
:10122000205461736B000000000000000000616446
:10123000635F7265730072657475726E204144431A
:10124000205265736F6C7574696F6E00000000004A
:101250000000000000002E000000000000005265A9
:10126000706F7274207374617465206368616E6757
:101270006573000000000000000000000000000096
:10128000000000000000436F6E6669670000000008
:10129000000000000000000000000000000000004E
:1012A0000000000000006470696E000000004465EA
:1012B00066696E652050696E73205B5D00000000FA
:1012C0000000000000000000000000000000647446
:1012D00061736B000000446566696E65205461733C
:1012E0006B73205B5D000000000000000000000048
:1012F000000000000000777269746500000053610F
:101300007665205461736B730000000000000000DC
:1013100000000000000000000000000000007363F7
:101320006F70650000005B31365D205B3C63686177
:101330006E2D6D61736B3E5D3A2053636F70652057
:101340004D6F646500006563686F000000004563D1
:10135000686F20286F66662C6F6E29000000000001
:1013600000000000000000000000000000007265A6
:10137000736574000000466163746F727920526572
:101380007365740000000000000000000000000011
:1013900000000000000068616C74000000004861FB
:1013A0006C7420616C6C205461736B732028302C3A
:1013B00031290000000000000000000000000000D3
:1013C0002100240027002A002D00300033000101F5
:1013D0000000040107010A01000022002500280086
:1013E0002B002E003100340002010000050108012D
:1013F0000B01000020002300260029002C002F00F4
:101400003200000100000301060109010505050580
:10141000070508080808020202020A0A080804046C
:10142000040401010101010101010303030303039A
:101430000303040707070C0C0C0C0C0C0C0C020229
:10144000020206060606060606060B0B0B0B0B0B26
:101450000B0B0102102020080810204010204080B3
:101460000201020108040201010204081020408068
:1014700080402010080402018004020180402010F6
:10148000080402010804020101020408102040803F
:10149000010204081020408000000A0B02090C0D14
:1014A0000E08070304010000000000000000000017
:1014B000000000000000000000000000000000002C
:1014C00000000000121110000000000000000000E9
:1014D00000000000000000000000000000009C333D
:1014E00011241FBECFEFD1E2DEBFCDBF00E00CBFA5
:1014F00023E1A2E4B4E001C01D92A537B207E1F7F1
:1015000014E0A0E0B2E0ECE3FFE600E00BBF02C0B5
:1015100007900D92A234B107D9F71AE0C0E7DAE0DC
:1015200000E006C021970109802FFE010E94583774
:10153000CF36D10780E00807A9F70E941B300C9432
:101540009C370C9400008150823108F05AC0E82F7B
:10155000F0E08827E155F54F8F4F0C945837CF0AAC
:10156000D30AC10AC70ACB0A010BD60ADC0AE00A71
:10157000E60AEA0AEE0AF40AF80A010BFC0A020B70
:10158000060B809180008F77809380000895809172
:1015900080008F7DF9CF80918000877FF5CF84B563
:1015A0008F7784BD089584B58F7DFBCF8091B00087
:1015B0008F778093B00008958091B0008F7DF9CF30
:1015C000809190008F778093900008958091900093
:1015D0008F7DF9CF80919000877FF5CF8091A0001B
:1015E0008F778093A00008958091A0008F7DF9CF20
:1015F0008091A000877FF5CF809120018F77809325
:1016000020010895809120018F7DF9CF80912001E4
:10161000877FF5CFCF93DF93282F30E0F901E8568D
:10162000FB4E8491F901EE5AFB4ED491F901E45F2F
:10163000FB4EC491CC23A1F081110E94A30AEC2F90
:10164000F0E0EE0FFF1FEE50FC4EA591B491EC912F
:10165000ED2381E090E009F480E0DF91CF910895DF
:1016600080E090E0FACF1F93CF93DF93282F30E0F4
:10167000F901E856FB4E8491F901EE5AFB4ED491E4
:10168000F901E45FFB4EC491CC23A9F0162F811120
:101690000E94A30AEC2FF0E0EE0FFF1FE852FC4E71
:1016A000A591B4918FB7F894EC91111108C0D09521
:1016B000DE23DC938FBFDF91CF911F910895DE2B46
:1016C000F8CFCF93DF9390E0FC01EE5AFB4E2491CC
:1016D000845F9B4EFC0184918823C9F090E0880FC1
:1016E000991FFC01E254FC4EA591B491FC01E85213
:1016F000FC4EC591D49161110DC09FB7F8948C91A7
:10170000209582238C938881282328839FBFDF9193
:10171000CF910895623051F49FB7F8943C91822F95
:10172000809583238C93E8812E2BEFCF8FB7F8948D
:10173000EC912E2B2C938FBFEACF1F93CF93DF9387
:10174000182FEB0161E00E94610B209739F460E0F3
:10175000812FDF91CF911F910C94330BCF3FD10597
:1017600011F461E0F5CFE12FF0E0E856FB4EE49193
:10177000E150E23108F0B3C0F0E08827ED53F44FB8
:101780008F4F0C945837D50BDD0BE20BEC0BF60B9F
:101790006F0C000C080C100C1A0C240C2E0C3D0CB9
:1017A000470C6F0C510C5B0C650C84B5806884BDD4
:1017B000C7BDDF91CF911F91089584B5806284BD2C
:1017C000C8BDF7CF80918000806880938000D0935F
:1017D0008900C0938800EDCF809180008062809363
:1017E0008000D0938B00C0938A00E3CF809180006B
:1017F000886080938000D0938D00C0938C00D9CFF7
:101800008091B00080688093B000C093B300D1CFC6
:101810008091B00080628093B000C093B400C9CFC3
:1018200080919000806880939000D0939900C0933D
:101830009800BFCF80919000806280939000D093F9
:101840009B00C0939A00B5CF8091900088608093F0
:101850009000D0939D00C0939C00ABCF8091A000DE
:1018600080688093A0008091A0008F7B8093A0006F
:10187000D093A900C093A8009CCF8091A000806263
:101880008093A000D093AB00C093AA0092CF809128
:10189000A00088608093A000D093AD00C093AC00FE
:1018A00088CF80912001806880932001D093290106
:1018B000C09328017ECF8091200180628093200117
:1018C000D0932B01C0932A0174CF809120018860AE
:1018D00080932001D0932D01C0932C016ACFC03892
:1018E000D1050CF03ECF33CF863308F086532091DC
:1018F0007B00982F9870277F922B90937B008770A6
:10190000806480937C0080917A00806480937A0068
:1019100080917A0086FDFCCF8091780090917900CB
:1019200008953FB7F8948091D2129091D312A0916C
:10193000D412B091D51226B5A89B05C02F3F19F03F
:101940000196A11DB11D3FBFBA2FA92F982F88273F
:10195000BC01CD01620F711D811D911D42E0660F1A
:10196000771F881F991F4A95D1F708958830F0F4A2
:10197000282F30E08150873000F5E82FF0E08827ED
:10198000EB53F34F8F4F0C945837DF0CCC0CD70C24
:10199000D90CDB0CE10CE30CE898220F331FF901A2
:1019A000EE5FFD4F85EE9CE0918380830895E9987A
:1019B000F4CFEA98F2CFEB98F0CFEC98EECFED9819
:1019C000ECCFEE98EACFEF98E8CF0895883008F092
:1019D00076C0E82FF0E0EE0FFF1FEE5FFD4F718342
:1019E00060838150873008F03DC0E82FF0E0882701
:1019F000E350F34F8F4F0C9458373A0D040D0C0DF4
:101A0000180D250D460D530D809169008C7F482BD4
:101A100040936900E89A089580916900837F440F9C
:101A2000551F440F551F482B40936900E99A0895AC
:101A3000809169008F7C74E0440F551F7A95E1F71F
:101A4000482B40936900EA9A0895809169008F734A
:101A500066E0440F551F6A95E1F7482B40936900F3
:101A6000EB9A089580916A008C7F482B40936A001E
:101A7000EC9A089580916A00837F440F551F440FAC
:101A8000551F482B40936A00ED9A089580916A0093
:101A90008F7C24E0440F551F2A95E1F7482B409393
:101AA0006A00EE9A089580916A008F7396E0440F61
:101AB000551F9A95E1F7482B40936A00EF9A0895D5
:101AC000AF92BF92CF92DF92EF92FF920F931F934C
:101AD000CF93DF936C017B018B01040F151FEB018A
:101AE0005E01AE18BF08C017D10759F06991D60141
:101AF000ED91FC910190F081E02DC6011995892BA3
:101B000079F7C501DF91CF911F910F91FF90EF9071
:101B1000DF90CF90BF90AF900895FC01538D448D1E
:101B2000252F30E0842F90E0821B930B541710F088
:101B3000CF96089501970895FC01918D828D981795
:101B400061F0A28DAE0FBF2FB11D5D968C91928D6D
:101B50009F5F9F73928F90E008958FEF9FEF08959E
:101B6000FC01918D828D981731F0828DE80FF11D67
:101B7000858D90E008958FEF9FEF0895FC01918D82
:101B8000228D892F90E0805C9F4F821B91098F737B
:101B90009927089586ED92E10E94BE0D21E0892BE0
:101BA00009F420E0822F0895FC01A48DA80FB92F1D
:101BB000B11DA35ABF4F2C91848D90E001968F7375
:101BC0009927848FA689B7892C93A089B1898C9194
:101BD000837080648C93938D848D981306C00288E3
:101BE000F389E02D80818F7D80830895EF92FF92AD
:101BF0000F931F93CF93DF93EC0181E0888F9B8D30
:101C00008C8D98131AC0E889F989808185FF15C0E9
:101C10009FB7F894EE89FF896083E889F98980810C
:101C20008370806480839FBF81E090E0DF91CF91DB
:101C30001F910F91FF90EF900895F62E0B8D10E0FD
:101C40000F5F1F4F0F731127E02E8C8D8E110CC06C
:101C50000FB607FCFACFE889F989808185FFF5CFB7
:101C6000CE010E94D40DF1CFEB8DEC0FFD2FF11DB5
:101C7000E35AFF4FF0829FB7F8940B8FEA89FB89F4
:101C800080818062CFCF0F931F93CF93DF938C011E
:101C9000D0E0C0E0F801EC0FFD1F6491662341F035
:101CA00086ED92E10E94F60D892B11F02196F2CF7C
:101CB000CE01DF91CF911F910F910895CF93DF93C4
:101CC000EC01888D8823B9F0AA89BB89E889F98954
:101CD0008C9185FD03C0808186FD0DC00FB607FC89
:101CE000F7CF8C9185FFF2CF808185FFEDCFCE01BC
:101CF0000E94D40DE9CFDF91CF91089580E090E06C
:101D0000892B29F00E94CA0D81110E94000080E0F9
:101D100090E0892B49F080E090E0892B29F00E9427
:101D2000000081110E94000080E090E0892B49F0C2
:101D300080E090E0892B29F00E94000081110E9430
:101D4000000080E090E0892B49F080E090E0892B52
:101D500029F00E94000081110C940000089508955C
:101D60008F929F92AF92BF92CF92DF92EF92FF92AB
:101D70000F931F93CF93DF93EC01888110E08D3296
:101D800011F4219611E08881082E000C990BC09760
:101D90000A9710F500E0C12CD12C7601FE01E00F6E
:101DA000F11DE0810E2E000CFF0BF097EA30F105DB
:101DB000C0F4AAE0B0E0A70196010E94DD364F0111
:101DC000FF0FAA08BB08860E971EA81EB91E8C140A
:101DD0009D04AE04BF04B4F4CC24CA94DC2C760178
:101DE00002C0111113C0C701B601DF91CF911F913D
:101DF0000F91FF90EF90DF90CF90BF90AF909F90AA
:101E00008F9008950F5F75016401C8CFF094E0943E
:101E1000D094C094C11CD11CE11CF11CE4CF8F9262
:101E20009F92AF92BF92CF92DF92EF92FF921F9359
:101E3000CF93DF93EC0110E0C12CD12C7601FE0191
:101E4000E10FF11DE0810E2E000CFF0BF097EA3040
:101E5000F105D8F4AAE0B0E0A70196010E94DD36B2
:101E60004F01FF0FAA08BB08860E971EA81EB91EB9
:101E70008C149D04AE04BF0420F01F5F7501640143
:101E8000DECFCC24CA94DC2C7601C701B601DF91E9
:101E9000CF911F91FF90EF90DF90CF90BF90AF90C8
:101EA0009F908F900895CF93C92F682F86ED92E170
:101EB0000E94F60D6C2F86ED92E1CF910C94F60DF9
:101EC0001F93CF93DF93172FD82FC92F86ED92E161
:101ED0000E94F60D612F86ED92E10E94F60D6D2FA6
:101EE00086ED92E10E94F60D6C2F86ED92E1DF9176
:101EF000CF911F910C94F60D0F931F93CF93DF9307
:101F000010E007E18091FA08181728F5019FE00119
:101F10001124C25BDB4F8E89882399F01E8A8F853E
:101F2000612F843081F486ED92E10E94F60D88895C
:101F300099890E94530F6A897B898C899D890E94A7
:101F4000600F1F5FDFCF86ED92E10E94F60D8A855C
:101F50000E940A0BEECFDF91CF911F910F91089550
:101F60000F931F93CF93DF9310E007E18091FA085E
:101F7000181760F5019FE0011124C25BDB4F8E89C9
:101F80008823C9F01E8A8F85612F8430B1F486EDD5
:101F900092E10E94F60D6889798976956795769524
:101FA000679586ED92E10E94F60D6A897B898C899E
:101FB0009D890E94600F1F5FD9CF86ED92E10E943C
:101FC000F60D8A850E940A0B682FEBCFDF91CF9127
:101FD0001F910F91089508951F93CF93DF93EC0104
:101FE000162F8F85882391F08330A1F00E94910CE9
:101FF0006A8B7B8B8C8B9D8B612F70E0798B688BD0
:1020000081E08E8BDF91CF911F9108958A850E9488
:10201000330BECCF662339F01D85612F70E08A8584
:102020000E949D0BE3CF1C85F8CFDC011A969C9192
:102030001A9720E0923051F021E0933039F08EEE83
:10204000890F27E1291B843008F02FEF1F96EC91B0
:102050001F97E43041F0F0E0E057FD4F8081813080
:1020600011F02F3F21F48FEF1E968C93089592303C
:1020700071F0933071F0923171F0933171F09431CD
:1020800071F0953171F495E01E969C93089590E05F
:10209000FBCF91E0F9CF92E0F7CF93E0F5CF94E05A
:1020A000F3CF9FEFF1CF8F3F59F090911F12891717
:1020B00050F42DE2829FC00111248550974F08955E
:1020C0008EED92E0089590E080E00895282F30E0B2
:1020D0009DE2899FF0011124E550F74F13A69285E8
:1020E00092509330C0F540911F12ABEFB8E090E0F2
:1020F0003B96491781F09B965C919B97533041F436
:10210000981731F060811B965C911B97651719F148
:102110009F5F9D96EECF8DE2829FF001839FF00D31
:102120001124E550F74FE38587E18E9FF0011124DC
:10213000E25BFB4F9285923049F0933051F02EEEE6
:10214000290F891B243018F08FEF01C080E00C9418
:10215000B60C81E0FCCF0895CF93DF93C82FD0E079
:102160009DE2899FF0011124E550F74F93A593302C
:1021700011F40E9466108FB7F8949DE29C9FF001C5
:102180009D9FF00D1124E550F74F4EEF5FEF6FEF7D
:102190007FEF478F50A361A372A38FBF81E084A715
:1021A000DF91CF9108951F93CF93DF93182FC82FFE
:1021B000D0E02DE2829FF0011124E550F74F8FEF20
:1021C0009FEFDC01878F90A3A1A3B2A3868D82FB32
:1021D000992790F993A791E094A792859530A9F457
:1021E000E38527E1E29FF0011124E25BFB4F2089A8
:1021F0003189232BB9F00E94910CAB01BC01812FD6
:10220000DF91CF911F910C9401169630D1F5E385A3
:1022100027E1E29FF0011124E25BFB4F2089318925
:10222000232B49F382FF87C08EEF890F833008F09C
:102230006DC08DE28C9FF0018D9FF00D1124E55053
:10224000F74FE38587E18E9FF0011124E25BFB4F9E
:1022500026852F3F09F46FC032853230B1F033301C
:1022600099F14EEE430F831B443080F08DE28C9F3A
:10227000F0018D9FF00D1124E550F74F83E083A707
:102280005AC0992309F4B7CFCDCF80E0E22FF0E018
:10229000EE0FFF1FEE5BFB4F1083918343E050E096
:1022A000923031F041E050E0933011F442E050E0E0
:1022B0002230E9F058F4222399F02130B9F690E267
:1022C0009CBB6BE877E110C081E0E0CF2430C9F01F
:1022D00098F0253059F691E09CBB6BE677E104C09D
:1022E00090E19CBB63E977E10E94E60CBFCF98E0E8
:1022F0009CBB63E877E1F8CF94E09CBB6BE777E1A8
:10230000F3CF92E09CBB63E777E1EECF975092303A
:1023100090F4EDE2EC9FD001ED9FB00D1124A5509B
:10232000B74F1B968C91E89FF0011124E550F74FB1
:10233000868D82FD9BCFDF91CF911F9108954F92A3
:102340005F926F927F928F929F92AF92BF92CF9245
:10235000DF92EF92FF920F931F93CF93DF939090B2
:102360002012911079C08DE2882E9EEF492E5524BF
:102370005A94652C752C80911F12981608F06CC029
:10238000C92CD12C8C9CF0018D9CF00D1124E550B2
:10239000F74F878D90A1A1A1B2A1892B8A2B8B2BFE
:1023A00009F058C0868D80FF43C0892D0E94D3104C
:1023B0000BEF18E0F12CE12C8C9CE0018D9CD00DF2
:1023C0001124C550D74F5E0123E2A20EB11CA7967F
:1023D00080911F128E151F04E9F1E4F1CE14DF0481
:1023E00009F1F801878D90A1A1A1B2A18F3F9F4F64
:1023F000AF4FBF4FB9F4F8018285883099F48385D7
:10240000891110C0F50140815181628173818881F9
:102410009981AA81BB81480F591F6A1F7B1F8E2D8E
:102420000E940116FFEFEF1AFF0A035D1F4FD0CF86
:1024300083A5833019F4892D0E9466108C9CF001CD
:102440008D9CF00D1124E550F74F478E50A261A2EC
:1024500072A2AECF93948FCFDF91CF911F910F9146
:10246000FF90EF90DF90CF90BF90AF909F908F90B4
:102470007F906F905F904F9008954F925F926F9210
:102480007F928F929F92AF92BF92DF92EF92FF92D4
:102490000F931F93CF93DF93DFB6F89440911F12F1
:1024A00050E00BEF18E0F80190E080E0841795070A
:1024B00034F4268D2068268F0196BD96F7CFCBEF9A
:1024C000D8E0F12CE12C812C912C54018394809143
:1024D0001F1290E0E816F906D4F48F8E98A2A9A2F4
:1024E000BAA20E94910C4BA05CA06DA07EA06419C2
:1024F0007509860997096FA378A789A79AA78E2DD2
:102500000E94C3128FEFE81AF80AAD96E0CFEBEF06
:10251000F8E030E020E08217930739F0468D4068FC
:10252000468F2F5F3F4FBD96F6CF0E949F11D0E0A0
:10253000C0E080911F1290E0C817D9072CF48C2FAF
:102540000E94AC102196F5CF30E020E0821793076F
:1025500049F0F801468D4F77468F2F5F3F4F035D5F
:102560001F4FF4CFDFBEDF91CF911F910F91FF90EE
:10257000EF90DF90BF90AF909F908F907F906F9083
:102580005F904F9008958F929F92AF92BF92CF929B
:10259000DF92EF92FF921F93CF93DF93C82FD0E08B
:1025A0002DE2829FF0011124E550F74F878D90A115
:1025B000A1A1B2A1181619061A061B060CF095C0A7
:1025C000682F61704C015D0121E0821A9108A10819
:1025D000B108878E90A2A1A2B2A289288A288B284E
:1025E00099F486849784A088B1882EEF82162FEF05
:1025F0009206A2062FE3B20639F4268D27FD04C009
:10260000878E90A2A1A2B2A22DE22C9FF0012D9F55
:10261000F00D1124E550F74F878C90A0A1A0B2A037
:1026200081149104A104B10469F421E024A7C684B3
:10263000D784E088F188CD28CE28CF2819F080955E
:10264000682F61702DE22C9FF0012D9FF00D112459
:10265000E550F74F9585953008F0C1C024858091ED
:10266000FA08281788F4E22EF12C87E1289FA001B0
:102670001124425B5B4F923009F461C008F041C005
:102680006927913009F45BC08DE28C9FF0018D9F2A
:10269000F00D1124E550F74F478D50A161A172A1B3
:1026A000141615061606170604F587A190A5A1A510
:1026B000B2A540FD15C146895789608D718D840F83
:1026C000951FA61FB71F2DE22C9FF0012D9FF00D27
:1026D0001124E550F74F0097A10520E4B20708F058
:1026E00004C187A390A7A1A7B2A7DF91CF911F91A3
:1026F000FF90EF90DF90CF90BF90AF909F908F9022
:102700000895933001F1943009F0BECF2093010277
:102710008E9DF0018F9DF00D1124E25BFB4F8285B1
:10272000863308F08653982F9770906490937C00BE
:10273000887080937B008FEC80937A00A5CFCA01CC
:102740000E94EC0FA1CF662309F49ECF8E9DF0016D
:102750008F9DF00D1124E25BFB4F87858823B9F034
:10276000833041F10E94910C27E12E9DF0012F9DB5
:10277000F00D1124E25BFB4F628B738B848B958B86
:10278000612F70E0718B608B81E0868B7DCF8089BB
:10279000918911E0892B09F010E087E18E9DF0010D
:1027A0008F9DF00D1124E25BFB4F612F82850E940B
:1027B000330BD8CF8089918914851817190609F42D
:1027C0001585612F70E087E18E9DF0018F9DF00DE2
:1027D0001124E25BFB4F82850E949D0BC3CF6623D1
:1027E00009F452CF868D87FD4FCF848530911F121B
:1027F000831708F06CC0E82EF12C973009F455C00F
:1028000040F5953009F460C0963009F448C08DE277
:102810008E9DD0018F9DB00D1124A550B74F8C9F78
:10282000F0018D9FF00D1124E550F74F43A154A105
:1028300065A176A187A090A4A1A4B2A4480D591DBA
:102840006A1D7B1D93964D935D936D937C93969734
:102850001BCF983009F19930D1F62E9DF0012F9DB4
:10286000F00D1124E550F74F478D50A161A172A1E1
:102870004E3F9FEF59076907790749F2141615066D
:10288000160617060CF19DE29C9FF0019D9FF00D2E
:102890001124E550F74F09C00E94D310B8CF181487
:1028A00019041A041B040CF4B2CF43A154A165A16E
:1028B00076A187A090A4A1A4B2A4480D591D6A1DB9
:1028C0007B1D0E940116A3CF0E949B17A0CF8F3FB4
:1028D00009F0DACE953009F0D7CE0E943D12D4CE61
:1028E000428D538D648D758DEACE8F5F9F4FAF4FB4
:1028F000BF4387A390A7A1A7B2A783A194A1A5A135
:10290000B6A10197A109B04C83A394A3A5A3B6A334
:10291000ECCECF92DF92EF92FF920F931F93CF9363
:10292000DF93CBEFD8E010E000E080911F1280171A
:102930001106F1F0ECF08BA5811116C00E94910CEC
:10294000CBA0DCA0EDA0FEA06C197D098E099F092B
:10295000CFA0D8A4E9A4FAA46C157D058E059F0527
:1029600018F0802F0E94C3120F5F1F4FAD96DDCF6E
:10297000DF91CF911F910F91FF90EF90DF90CF905B
:1029800008952F923F924F925F926F927F928F9213
:102990009F92AF92BF92CF92DF92EF92FF920F93EE
:1029A0001F93CF93DF9300D0CDB7DEB72FB7298326
:1029B000F8948FEF809300020E94910C2B013C0150
:1029C000312CCC24CA94DC2C76012DE2222E80916D
:1029D0001F12381608F079C0032D10E0209EC001A8
:1029E000219E900D11248550974F9B838A83FC0173
:1029F00083A5882309F467C04F01FFE18F0E911C66
:102A0000EA81FB81878D90A1A1A1B2A118161906B8
:102A10001A061B060CF057C083A194A1A5A1B6A16C
:102A200047A150A561A572A5840F951FA61FB71FCA
:102A300084199509A609B709B3965F012A813B81DC
:102A4000295D3F4F3B832A8382339105A105B10560
:102A500004F5832D0E94C312F50180819181A2812A
:102A6000B381EA81FB814081518162817381840F4E
:102A7000951FA61FB71F84199509A609B709F40168
:102A8000408151816281738114161506160617065E
:102A9000DCF2209E9001219E300D11242550374FED
:102AA000F901478D50A161A172A1141615061606F1
:102AB00017064CF48C159D05AE05BF0520F4309229
:102AC00000026C017D01339482CF809100028F3F20
:102AD000D1F1F1E8CF16FFEFDF06FFE7EF06F104D3
:102AE00050F08FEF8093000280E8C82EDD24DA9446
:102AF0008FE7E82EF12CA0EAB0E0A70196010E9432
:102B0000DD366B017C0124E130E040E050E00E94C2
:102B100036372115310581E04807510560F581E020
:102B2000809323123093221220932112809121123C
:102B300090912212909387008093860080912312B7
:102B400080618093810029812FBF0F900F900F909B
:102B5000DF91CF911F910F91FF90EF90DF90CF9079
:102B6000BF90AF909F908F907F906F905F904F90AD
:102B70003F902F9008952115310598E049075105A0
:102B800060F482E080932312C701B60120EA30E0AE
:102B900040E050E00E943637C5CF21153105E0E412
:102BA0004E07510550F483E080932312C701B6010C
:102BB00020E035E040E050E0EDCF21153105410542
:102BC000514050F484E080932312C701B60120E005
:102BD00034E140E050E0DECF85E080932312C7016E
:102BE000B60120E030E540E050E0D4CF80E18093B2
:102BF0008100809100028F3F11F00E94C3120C945B
:102C0000C1148F929F92AF92BF92CF92DF92EF92B8
:102C1000FF920F931F93CF93C82ED12C2DE2829F4A
:102C2000F0011124E550F74F968D97FD56C04A01EB
:102C30005B01C82F1FB7F89483A294A2A5A2B6A2E5
:102C4000428953896489758947A350A761A772A7F0
:102C500086859785A089B189880F991FAA1FBB1FF8
:102C60000196A11DB11D878F90A3A1A3B2A381E0FE
:102C700084A7452B462B472B19F48C2D0E94C31299
:102C800017FD0E94C1141FBF0BEF18E0F12CE12CBF
:102C900080911F128E151F0401F1FCF0CE14DF0489
:102CA000B1F0F801878D90A1A1A1B2A18F3F9F4FF4
:102CB000AF4FBF4F61F4F8018285873041F48385BF
:102CC0008C1305C0B501A4018E2D0E940116FFEFE3
:102CD000EF1AFF0A035D1F4FDBCFCF911F910F91BA
:102CE000FF90EF90DF90CF90BF90AF909F908F902C
:102CF00008957F928F929F92AF92BF92CF92DF9270
:102D0000EF92FF920F931F93CF93DF939EE4C92E10
:102D100094E0D92E10E000E027E1922E88248394DD
:102D20008091FA088017110609F00CF46AC0F601C8
:102D30008785E82FF0E0E057FD4F9081913009F44E
:102D40005AC0843009F457C0F60182850E940A0BEC
:102D50009C013327909EE001919ED00D1124C25B0F
:102D6000DB4F488959892417350709F444C0782E68
:102D7000398B288B0E94910C6A8B7B8B8C8B9D8B63
:102D80008E8A8BEFE82E88E0F82EB12CA12C62966B
:102D900080911F128A151B0471F16CF1F701928565
:102DA000923010F1838580131FC0478D50A161A11F
:102DB00072A14F3F5F4F6F4F7F4FB1F4933079F067
:102DC00050F4923079F0488159816A817B818A2D53
:102DD0000E94011609C0953029F09630A1F777209E
:102DE00091F302C07110EFCF8FEFA81AB80AEDE28D
:102DF000EE0EF11CCDCF0F5F1F4FF7E1CF0ED11CB0
:102E00008FCFDF91CF911F910F91FF90EF90DF90C7
:102E1000CF90BF90AF909F908F907F900895CF9369
:102E2000C82F0E94910CAB01BC01EC2FF0E0EE0F1B
:102E3000FF1FEE5BFB4F808191812DE2829FF001AD
:102E40001124E550F74F238530E0923069F497E183
:102E5000929FF001939FF00D1124E25BFB4FA1E0E4
:102E6000B0E0B18BA08B0CC09330D9F497E1929F66
:102E7000F001939FF00D1124E25BFB4F118A108A41
:102E800097E1929FF001939FF00D1124E25BFB4FBD
:102E9000428B538B648B758B91E0968BCF910C9406
:102EA000011697E1929FF001939FF00D1124E25BD0
:102EB000FB4F0088F189E02DA1E0B0E0EF2B11F08D
:102EC000B0E0A0E097E1929FF001939FF00D1124F4
:102ED000E25BFB4FC6CF82E00E94B60C85E00E9409
:102EE0000F170C94C11483E00E94B60C84E00E947A
:102EF0000F170C94C11484E00E94B60C83E00E946A
:102F00000F170C94C11485E00E94B60C82E00E9459
:102F10000F170C94C11481E00E94B60C81E00E944E
:102F20000F170C94C11480E00E94B60C80E00E9440
:102F30000F170C94C1148F929F92AF92BF92CF92B1
:102F4000DF92FF920F931F93CF93DF93C82ED12C64
:102F50001FB7F8949DE29C9DE0019D9DD00D11242A
:102F6000C550D74F4F8D58A169A17AA14F3F5F4FF0
:102F70006F4F7F4F0CF448C0F82E8E8D80688E8F77
:102F800081E090E0A0E0B0E08F8F98A3A9A3BAA35E
:102F90000E94910C8BA09CA0ADA0BEA068197909DD
:102FA0008A099B096FA378A789A79AA78C2D0E94ED
:102FB000C3128E8D8F778E8F1FBFCBEFD8E010E0BE
:102FC00000E080911F1280171106F9F0F4F0C0168E
:102FD000D106B1F08F8D98A1A9A1BAA18F3F9F4FC3
:102FE000AF4FBF4F69F48A85883051F48B858F11BC
:102FF00007C00E94910CAB01BC01802F0E940116FA
:103000000F5F1F4FAD96DDCF1FBFDF91CF911F9197
:103010000F91FF90DF90CF90BF90AF909F908F90D7
:1030200008959091FA08891738F427E1829FC0012A
:103030001124825B9B4F089590E080E008958430D6
:1030400048F4E82FF0E0EE0FFF1FE25AFD4F8081B9
:103050009181089580EE92E008959DE2899FF001AC
:103060001124E550F74F878D90A1A1A1B2A11816A8
:1030700019061A061B062CF08E5F843018F080E0CB
:10308000089583E008951F93CF93DF93C82FD62F21
:1030900080911F12C817A0F4681710F0DFEFD80F47
:1030A0001DE2DC1768F01C9FF0011124E550F74F7A
:1030B000868D81FF03C08C2F0E94D310CF5FF1CF8C
:1030C000DF91CF911F910895CF92DF92EF92FF92FF
:1030D00090911F12891760F5691710F06FEF690F53
:1030E000982F3DE22EEFC22EDD24DA94ED2CFD2C3C
:1030F000691780F0399FF0011124E550F74FC78E12
:10310000D0A2E1A2F2A2268D22FB222720F923A73A
:103110009F5FEECF9091120291110AC09091201200
:10312000911106C0FF90EF90DF90CF900C94431860
:10313000FF90EF90DF90CF900895DF92EF92FF9293
:103140000F931F93CF93DF939091FA08992309F47B
:1031500049C0691710F06FEF690F082F10E097E171
:10316000899FE0011124C25BDB4FE62EF12C87E141
:10317000D82EE016F106B4F19F858A85E92FF0E09C
:10318000E057FD4F20812130A9F46C8591110EC0CC
:103190000E94330B8C8590E0D09EF001D19EF00D03
:1031A0001124E25BFB4F918B808B15C070E00E9475
:1031B0009D0BF0CF943099F48A5C0E94740CD09EE1
:1031C000F001D19EF00D1124E25BFB4F2089318983
:1031D0002817390741F70F5F1F4F6796CACF0E9424
:1031E0000A0BEDCFDF91CF911F910F91FF90EF90E0
:1031F000DF9008950F931F93CF93DF93CEE4D4E035
:1032000010E000E08091FA0880171106A1F09CF010
:10321000EB85EF878A85E43009F48A5CF0E0E057BB
:10322000FD4F60810E94610BCE010E9415100F5F5F
:103230001F4F6796E7CF80911202811107C06FEF91
:10324000DF91CF911F910F910C949D18DF91CF9139
:103250001F910F9108950F931F93CF93DF93CEE4A7
:10326000D4E010E000E08091FA088017110641F0E8
:103270003CF08A850E94B60C0F5F1F4F6796F3CF14
:10328000DF91CF911F910F910895CF93DF93CDB729
:10329000DEB7CF5CD1090FB6F894DEBF0FBECDBF4D
:1032A0000E942B19FE013D9683ECDF011D928A9549
:1032B000E9F78AE0E8EEF2E0DE01119601900D9266
:1032C0008A95E1F792E09B8781E08C8729E0E6E12F
:1032D000F2E0DE01589601900D922A95E1F719A2CD
:1032E00023E02AA38BA338E0E0E2F2E0DE019F9620
:1032F00001900D923A95E1F718AE1FAA32E139AF6D
:103300008AAF3AE0E2EFF2E0DE01AA5BBF4F019044
:103310000D923A95E1F733E161963FAF619762967E
:103320008FAF629739E0EAE2F2E0DE01A35ABF4FC5
:1033300001900D923A95E1F7A7961FAEA79734E159
:10334000A8963FAFA897A9968FAFA99788E0E4E326
:10335000F2E0DE01AC58BF4F01900D928A95E1F783
:10336000EE961FAE1EAEEE9785E0EF968FAFEF970D
:103370008AE0ECEFF2E0DE01A557BF4F01900D921D
:103380008A95E1F786E0CB56DF4F8883C559D04058
:1033900089E0EEE3F2E0DE01AE55BF4F01900D9201
:1033A0008A95E1F7C555DF4F1882CB5AD04087E0A8
:1033B000C455DF4F8883CC5AD040E8E4F2E0DE0108
:1033C000A754BF4F01900D928A95E1F7E9EBF0E029
:1033D000EC0FFD1F3796DF011D922A95E9F788E073
:1033E000CD53DF4F8883C35CD040CC53DF4F9883ED
:1033F000C45CD04089E08093FA088FECEF5BF10960
:10340000AEE4B4E001900D928A95E1F7C153DF4F2D
:103410000FB6F894DEBF0FBECDBFDF91CF910C94F5
:10342000FA18FC0101900020E9F73197AF01481B21
:10343000590BBC0186ED92E10C94600D8F929F9226
:10344000AF92BF920F931F93CF93DF93CDB7DEB7A9
:10345000A1970FB6F894DEBF0FBECDBF19A24230C0
:1034600008F44AE08E010F5D1F4F842E912CB12C81
:10347000A12CA50194010E943637E62FB901CA019B
:10348000EA30F4F4E05DD801EE938D01232B242B78
:10349000252B79F790E080E0109719F0CD010E947C
:1034A000111AA1960FB6F894DEBF0FBECDBFDF9103
:1034B000CF911F910F91BF90AF909F908F900895E3
:1034C000E95CE1CF009711F00C94111A90E080E0D4
:1034D000089586E093E00C94621ACF92DF92EF9207
:1034E000FF92CF93DF9397FF1BC06B017C016DE2CE
:1034F00086ED92E10E94F60DEC0166277727CB015D
:103500006C197D098E099F094AE00E941E1A8C0FD2
:103510009D1FDF91CF91FF90EF90DF90CF900895A6
:103520004AE0DF91CF91FF90EF90DF90CF900C9425
:103530001E1ABC01990F880B990B0C946D1A682FF9
:1035400070E090E080E04AE00C941E1A662381F05F
:10355000FA01808191810E940F0F6F3F71058105F3
:10356000910521F018F06FEF7FEFCB016F3F61F411
:103570008BE093E00E94621A809120120E949F1AB1
:1035800089E19FE00C94430E6093201261110C942A
:103590003D126FEF80E00C9464184F925F926F922F
:1035A0007F928F929F92AF92BF92CF92DF92EF92D3
:1035B000FF926B017C0188EE482E83E0582E612C2F
:1035C000712CC701A30192010E94363749015A01AB
:1035D000672B682B692BA9F04AE0C701B6010E944E
:1035E0001E1A85E690E1FF90EF90DF90CF90BF909C
:1035F000AF909F908F907F906F905F904F900C94C2
:10360000430ECA01B901A30192010E943637672B0C
:10361000682B692B41F04AE0C501B4010E941E1AD3
:103620008AE690E1E0CFC701B60120E432E44FE042
:1036300050E00E943637CA01B9014AE00E941E1AC2
:1036400088E690E1D0CFEF92FF920F931F93CF9334
:10365000DF93C82F90E0FC01EE0FFF1FE80FF91F6A
:10366000E855FD4FD28188E2C89F7001112487017F
:103670000A501F4ED1FF0DC0C8010E94430E8BE0BF
:1036800090E1DF91CF911F910F91FF90EF900C94FB
:10369000430E81E193E00E94621AC70182519F4E5E
:1036A0000E94430E81E0CF3009F480E081115CC0BC
:1036B000D3FF2FC089E090E10E94430E6091241255
:1036C0007091251280912612909127120E946D1AF6
:1036D00086E090E10E94430E84E090E10E94430E58
:1036E00060E070E0CB010E946D1A8FEF9FE00E94B6
:1036F000430E61E070E080E090E00E946D1A8CEF74
:103700009FE00E94430EC8010E94430E87EE9FE097
:10371000B8CF8AEF9FE00E94430E6091241270910F
:10372000251280912612909127124AE00E941E1ABB
:1037300087EF9FE00E94430E85EF9FE00E94430EBB
:103740004AE060E070E0CB010E941E1A80EF9FE02B
:103750000E94430E4AE061E070E080E090E00E9449
:103760001E1A8DEE9FE0CDCF8AEE9FE0CACFEF927A
:10377000FF920F931F93CF93DF9310E007E18091A7
:10378000FA08181730F5E12EF12C0E9DE0010F9D7F
:10379000D00D1124C25BDB4F8E898823C1F01E8AB5
:1037A00080E59FE00E94430EC70101960E94991A8E
:1037B0008EE49FE00E94430E6889798990E080E062
:1037C0004AE00E941E1A8BE49FE00E94430E1F5F96
:1037D000D6CFC0E0DDE280911F12C81720F50C2F74
:1037E00010E0D09FF001D19FF00D1124E550F74F6C
:1037F00084A58823B1F014A688E49FE00E94430EBC
:10380000C80101960E94991A86E49FE00E94430E27
:103810008C2F0E942D180E949F1A83E49FE00E9423
:10382000430ECF5FD8CF83E59FE0DF91CF911F910B
:103830000F91FF90EF900C94430ECF93DF93EB0129
:103840000E94C7368883CE01DF91CF910895FF9201
:103850000F931F93CF93DF938C01EB01F8800E94AD
:10386000C736F81621F06F2DC8010E94CF36CE0161
:10387000DF91CF911F910F91FF900895BF92CF924A
:10388000DF92EF92FF920F931F93CF93DF937C0110
:10389000EB018B01040F151FB990F701C080D18097
:1038A000C6010E94C736B81621F06B2DC6010E94D2
:1038B000CF36F70180819181019691838083C01773
:1038C000D10751F7DF91CF911F910F91FF90EF90AA
:1038D000DF90CF90BF9008950F931F93CF93DF9306
:1038E0001F921F92CDB7DEB783E493E09A8389835A
:1038F00041E050E06FE172E1CE0101960E943E1C72
:1039000010E00DE280911F12181768F4109FB001AB
:1039100011246550774F4FE150E0CE0101960E948F
:103920003E1C1F5FEFCF0F900F90DF91CF911F9143
:103930000F9108950E946C1C87E59FE00C94430E44
:103940000F931F93CF93DF931F921F92CDB7DEB7D4
:1039500082E090E09A83898341E050E06AEF78E06A
:10396000CE0101960E943E1C10E007E18091FA080A
:10397000181768F4109FB0011124625B7B4F40E17F
:1039800050E0CE0101960E943E1C1F5FEFCF0F90CA
:103990000F90DF91CF911F910F91089510922012F7
:1039A00010922412109225121092261210922712B1
:1039B0000E9445190E94A01C10921F126FEF80E018
:1039C0000E9464180E946C1C81ED9FE00C94430ED1
:1039D0003F924F925F926F927F928F929F92AF929F
:1039E000BF92CF92DF92EF92FF920F931F93CF93EC
:1039F000DF93CDB7DEB760970FB6F894DEBF0FBE8A
:103A0000CDBF5C016B01188AFB0101900020E9F732
:103A10003197E61BF70B612C712C00E08FE0482EEC
:103A20007F01FF249FE0892E912C342C301A432DE6
:103A300050E0B501660D711D81E090E08C0F9D1F77
:103A4000800F911D0E94FD3310E0802F90E0E1E097
:103A5000F0E0EC0FFD1FE80FF91F5080552019F022
:103A60002CE2521230C00F30B1F40FE0112389F074
:103A7000612F70E0A401461B570B81E090E08C0F92
:103A80009D1F680F791FCE0101960E948D37042D6E
:103A9000011B630CCACF612F70E0861B970B8E153C
:103AA0009F0561F481E090E08C0F9D1F680F791FE6
:103AB000A701C6010E947F37892B49F073945520D6
:103AC00021F011E0100F0F5FC0CF77247A94872D7B
:103AD00060960FB6F894DEBF0FBECDBFDF91CF91D9
:103AE0001F910F91FF90EF90DF90CF90BF90AF901C
:103AF0009F908F907F906F905F904F903F90089530
:103B0000EF92FF920F931F93CF938C01C62F7A01F0
:103B1000BA018BE593E00E94E81C682F70E090E00A
:103B200080E06F3F71058105910571F0F8012785EF
:103B3000233099F4613071058105910571F46FEFBF
:103B400070E080E090E009C0C7010E94B00E6F3FB6
:103B5000FFEF7F078F079F0761F0F801278521118D
:103B60000FC051E0672B682B692B09F450E0852FBB
:103B7000C82F8C2FCF911F910F91FF90EF90089538
:103B8000DC01CB018F3F9105A105B10529F024F09F
:103B90008FEF90E0A0E0B0E0B7FFEACF80E090E0E8
:103BA000DC01E6CF5F926F927F928F929F92AF92ED
:103BB000BF92CF92DF92EF92FF920F931F93CF931A
:103BC000DF93CDB7DEB760970FB6F894DEBF0FBEB8
:103BD000CDBF6C015B01742E188AFC011082E12CB0
:103BE00010E000E09FE0592E2FE0822E912C652CF2
:103BF000601A462D50E0B5016E0D711D81E090E018
:103C00008C0F9D1F800F911D0E94FD33F12CE1E070
:103C1000F0E0EC0FFD1FE00FF11D80818823D1F053
:103C20008C3229F50F3029F50FE0FF2089F06F2D38
:103C300070E0A401461B570B81E090E08C0F9D1FA4
:103C4000680F791FCE0101960E948D37052D0F193F
:103C5000E60CCDCF0F3041F3171569F08AE0C82E7E
:103C600083E0D82E18C01F5FFF24F394F00E0F5F7F
:103C7000CECF1711F8CF0F1910E061E070E06C0F94
:103C80007D1F6F0D711DA801C6010E948D37F601C1
:103C9000E00FF11F1082C60160960FB6F894DEBFE8
:103CA0000FBECDBFDF91CF911F910F91FF90EF908D
:103CB000DF90CF90BF90AF909F908F907F906F904C
:103CC0005F9008958F929F92AF92BF92CF92DF92B2
:103CD000EF92FF920F931F93CF93DF93CDB7DEB791
:103CE00060970FB6F894DEBF0FBECDBF082FC62E6B
:103CF00080911F12681718F0CC24CA94C80E8FE761
:103D000096E00E94430E80911F12882309F4F6C0AA
:103D1000E02EF12C2DE2029F800111240550174F57
:103D2000D12C97E1B92ECE14DF040CF4E7C081E169
:103D300093E00E94111A8FEFE81AF80AC7010E9457
:103D4000991A8DE796E00E94430EC8010E94621AFC
:103D50008BE796E00E94430ED8011A96EC91F0E0B2
:103D6000EE0FFF1FEA59FD4F808191810E94621A78
:103D700089E796E00E94430EAA24AA94AE0C809193
:103D80001F12A81608F0A8C0F8019285923008F416
:103D9000A3C08385973008F09AC09091FA088917DC
:103DA00008F09AC08B9DC0011124825B9B4F0E943A
:103DB000621A87E796E00E94430ED8011D964C9147
:103DC00066E37CE0CE0101960E94D21D0E94621A39
:103DD00085E796E00E94430E80911F12A81608F016
:103DE00083C0F80184859585953008F078C090915E
:103DF000FA08891708F078C08B9DC0011124825BF6
:103E00009B4F0E94621A83E796E00E94430ED801FE
:103E10001E966D917D918D919C9151976E3FBFEF54
:103E20007B078B07BFE39B0719F46FEF7FEFCB0195
:103E30000E946D1A81E796E00E94430EF8016289A4
:103E40007389848995890E94CD1A8FE696E00E9435
:103E5000430ED80156966D917D918D919C91599705
:103E60000E94CD1A8DE696E00E94430EF801628D05
:103E7000738D848D958D0E94CD1A8BE696E00E94FD
:103E8000430E89E696E00E94430ED8015E969C9010
:103E9000812CAA24A39480E0992049F1992D9A219C
:103EA00099F0882321F081E193E00E94621A482D65
:103EB0006EE07CE0CE0101960E94D21D0E94621A43
:103EC0008A2D8095982281E08394AA0CE5CF0E94E8
:103ED0005310009709F06BCF8AE093E068CF0E94FF
:103EE0005310009709F08DCF8AE093E08ACF85E6E2
:103EF00096E00E94430E035D1F4F15CF60960FB6EC
:103F0000F894DEBF0FBECDBFDF91CF911F910F910F
:103F1000FF90EF90DF90CF90BF90AF909F908F90E9
:103F20000895DF92EF92FF920F931F93CF93DF9349
:103F3000CDB7DEB760970FB6F894DEBF0FBECDBF2A
:103F4000F82EE62E84E892E00E94430E8091FA0853
:103F5000882309F44CC0E81618F0EE24EA94E80E21
:103F600087E1D82EEF1408F442C00F2D10E082E84C
:103F700092E00E94430EC80101960E94991A8FE7B1
:103F800092E00E94430EFD9C80011124025B1B4FB6
:103F9000C8010E94621A8CE792E00E94430EF80169
:103FA00082850E949F1A8AE792E00E94430EF801E0
:103FB00043856DE275E0CE0101960E94D21D0E94FC
:103FC000621A88E792E00E94430EF80184850E94FD
:103FD0009F1A86E792E00E94430EF80185850E94B1
:103FE0009F1A83E792E00E94430EF394BBCF609642
:103FF0000FB6F894DEBF0FBECDBFDF91CF911F91FA
:104000000F91FF90EF90DF900895EF92FF920F9342
:104010001F93CF938C017B01C0E0EC2FF0E0EE0FFB
:10402000FF1FEE0DFF1D608171816115710539F073
:10403000C8010E947637892B19F0CF5FEECFCFEF02
:104040008C2FCF911F910F91FF90EF900895BF9209
:10405000CF92DF92EF92FF920F931F93CF93DF9354
:104060007C018B01B12C6701CB0CD11CF601C08106
:104070000C2E000CDD0BCE010E947F35892B11F038
:10408000B394F1CFE0972A97C0F4C6010E940F0FB6
:10409000C62F6F3F09F0C1508C2FF8011995892B5D
:1040A00009F4CFEF8C2FDF91CF911F910F91FF90EB
:1040B000EF90DF90CF90BF900895C0E08C2FF80173
:1040C0001995009771F3BC01C7010E947637892BBF
:1040D00049F3CF5FF3CFCF93611107C00E943D1228
:1040E0008EE29FE0CF910C94430E63E570E1FA01FC
:1040F000808191810E942720C82F8F3F79F30E94F1
:104100009B1788E29FE00E94430EFDE2CF9FC00113
:1041100011248550974F0E94621A8CE19FE0E2CFF4
:104120000F931F93CF93DF93611108C086EB9EE03E
:10413000DF91CF911F910F910C94430EFA0163E52B
:1041400070E1808191810E942720C82F8F3F71F3F9
:10415000082F10E0DDE2D09FF001D19FF00D112477
:10416000E550F74F878D90A1A1A1B2A10296A11DA4
:10417000B11D0297A105B10558F084EA9EE00E94A6
:10418000430EC80101960E94991A8BE89EE0D0CF99
:104190000E94910CAB01BC018C2F0E94011685E896
:1041A0009EE00E94430ECD9FC00111248550974F81
:1041B0000E94621A89E79EE0BBCFCF93DF93611123
:1041C00006C08CEE9DE0DF91CF910C94430EFA0176
:1041D00063E570E1808191810E9427208F3F89F300
:1041E000C82FD0E09DE2899FF0011124E550F74FE0
:1041F000478D50A161A172A14F3F5F4F6F4F7F4F1D
:1042000059F085E69EE00E94430ECE0101960E9481
:10421000991A84E59EE0D7CFDF91CF910C94AC1032
:104220000F931F93CF93DF93611108C086E59DE044
:10423000DF91CF911F910F910C94430EFA0163E52A
:1042400070E1808191810E942720C82F8F3F71F3F8
:10425000082F10E0DDE2D09FF001D19FF00D112476
:10426000E550F74F878D90A1A1A1B2A18E3F9F4F3E
:10427000AF4FBF4F59F08BED9DE00E94430EC80138
:1042800001960E94991A8BEC9DE0D2CF8C2F0E9450
:10429000D31085EC9DE00E94430ECD9FC0011124F8
:1042A0008550974F0E94621A8BEB9DE0C1CF7F92A1
:1042B0008F929F92AF92BF92CF92DF92EF92FF9236
:1042C0000F931F93CF93DF93762E6A01662341F0FD
:1042D000FA0180819181FC0120812F3309F055C0C2
:1042E0008EE095E00E94430E86EE94E00E94430E1D
:1042F0008DEB94E00E94430E8DE794E00E94430E04
:104300008BE394E00E94430E88E294E00E94430E07
:1043100084E390E00E94991A84E294E00E94430EA4
:1043200086E094E00E94430E89E090E00E94991A92
:1043300082E094E00E94430E8FEE93E00E94430ED1
:1043400085E390E00E94991A8BEE93E00E94430E61
:104350008FEB93E00E94430E83E893E00E94430EAC
:1043600084E693E00E94430E6FEF80E0DF91CF91EF
:104370001F910F91FF90EF90DF90CF90BF90AF9083
:104380009F908F907F900C94911F2D32B9F5818171
:104390008A32B9F40E942B191092FA0881E596E04E
:1043A0000E94430EDF91CF911F910F91FF90EF90EC
:1043B000DF90CF90BF90AF909F908F907F900C94A4
:1043C000A01CE091FA08EE2369F3E150E093FA08AB
:1043D00027E1E29FF0011124E25BFB4F82850E94FE
:1043E000B60C8CE496E00E94430E8091FA0890E0AF
:1043F00001960E94991A80E496E0D2CF61E178E1BB
:104400000E942720B82E3FEF83136FC0F6018081F2
:1044100091810E940F0F6F3F49F0BB24BA94B60EF2
:10442000FFEFBF1619F021E0271588F08EED95E01B
:10443000DF91CF911F910F91FF90EF90DF90CF9080
:10444000BF90AF909F908F907F900C94430E80917F
:10445000FA088B1569F087EB95E00E94430E809176
:10446000FA0890E001960E94991A8DEA95E0E0CF53
:1044700033E33B1570F080E02EE434E08B1560F4FC
:10448000295E3F4FF9013D979081992329F08F5F75
:10449000F5CF83E695E0CCCF8B1107C087E1B89EBE
:1044A000F0011124E25BFB4F12860B2D10E0E7E1D7
:1044B000BE9EC00111249C01225B3B4F7901F60195
:1044C0006281738189E495E00E94E81C8F3F91F03E
:1044D000C1E0C80FF2E0F71508F037C1C13009F0AC
:1044E000F2C0D1E062E0A62E08C091E09715E8F294
:1044F000682F3CCFAA24A394D0E0EA2DF0E0EE0F81
:10450000FF1FEC0DFD1D6081718149E050E0C70186
:104510000E948D3787E1809FF001819FF00D11246B
:10452000E25BFB4F1186D1115BC0C1E0CA0DC7151C
:1045300008F4CFC0AA24A394AC0EA71490F5C0E051
:10454000EA2DF0E0EE0FFF1FEC0DFD1D6081718183
:104550008DE295E00E94E81C833009F052C097E19B
:10456000909FF001919FF00D1124E25BFB4F92852B
:104570002EEF290F2C3020F09C52933008F080E071
:1045800097E1909FF001919FF00D1124E25BFB4FAA
:104590009285983009F44FC08F3F09F041C0C11196
:1045A0006AC0A394912CA71408F46DC0A394A71417
:1045B00008F0CBC0EA2DF0E0EE0FFF1FEC0DFD1D63
:1045C0004081518187E1809FE001819FD00D1124BE
:1045D000C25BDB4F6D85C7010E94801D8D87B5C012
:1045E000CA2DA71408F016C1CD2FC33009F044C05E
:1045F000C1E0A6CF35E3361708F08CC0AA24AA94F0
:1046000089C0843009F0BCCF97E1909FF001919F61
:10461000F00D1124E25BFB4F9285913108F0128678
:1046200097E1909FF001919FF00D1124E25BFB4F09
:1046300083878787B4CF82E0F3CFC53009F085C088
:10464000B9CF70E00E949D0BB1C027E1209FC0014F
:10465000219F900D11249C01225B3B4F6901F901C0
:104660008285C43029F48A5C0E94740CF601A8C0CB
:104670000E940A0BFBCFC3E0A71408F066C0C43049
:10468000E1F699249394EA2DF0E0EE0FFF1FEC0D74
:10469000FD1D4081518187E1809FE001819FD00D08
:1046A0001124C25BDB4F6C85C7010E94801D8C8783
:1046B0009F85911104C091E0811190E09D87992020
:1046C00009F474CF42C082E0A82EC23009F08DCF29
:1046D000D1E0EC2FF0E0EE0FFF1FEC0DFD1D80810F
:1046E00091810E940F0F6F3F71058105910521F0A7
:1046F00018F06FEF7FEFCB01A62E28E062137ACF80
:1047000087E1809FF001819FF00D1124E25BFB4F58
:1047100082E0878727E1209FC001219F900D11240F
:10472000FC01E25BFB4F4F0182858A1539F0FFEFF8
:10473000AF1621F00E94B60CF401A286DD2309F425
:10474000F9CED2E0C71508F465C08091FA088B1144
:1047500004C081E08B0D8093FA080E94A01C87E1C1
:10476000809FF001819FF00D1124E25BFB4FC38518
:10477000C7878285C43009F48A5CEC2FF0E0E057EB
:10478000FD4FD0816D2F0E94610BD13009F05DCFBC
:1047900087E1809FF001819FF00D1124E25BFB4FC8
:1047A00064858285C1114DCF0E94330B87E1809FC4
:1047B000F001819FF00D1124E25BFB4F848590E0B6
:1047C000918B808BC7010E9415100E94910C27E1EC
:1047D000209FF001219FF00D1124E25BFB4F628BC3
:1047E000738B848B958B81E0868B6B2D8B2D0E9438
:1047F000911F6B2D8B2DDF91CF911F910F91FF900A
:10480000EF90DF90CF90BF90AF909F908F907F9070
:104810000C949D18AC2ECD2F2FCFBF92CF92DF924C
:10482000EF92FF920F931F93CF93DF93F62E8A019F
:1048300061116FC01091FA08112309F458C011508A
:10484000CEE4D4E0F12CE12C07E1670185ED92E0A4
:104850000E94430E8FEFE81AF80AC7010E94991AC6
:1048600082ED92E00E94430E0C9DF0010D9DF00D33
:104870001124E25BFB4F6089718990E080E04AE09F
:104880000E941E1A8FEC92E00E94430EEF85F0E02A
:10489000EE0FFF1FEE5AFD4F808191810E94621A38
:1048A00081E193E00E94621A8F85823050F183305B
:1048B00069F187EB92E00E94430ECE010E94621ADA
:1048C00085EB92E00E94430E8F85823020F489EAC6
:1048D00092E00E94430E8AE093E00E94621A86EA08
:1048E00092E00E94430E67961E1508F0AECFDF914E
:1048F000CF911F910F91FF90EF90DF90CF90BF90DD
:10490000089585EC92E00E94430ED3CF89EB92E0AC
:10491000FACF61E178E1FA01808191810E9427203C
:104920008F3F69F482E293E0DF91CF911F910F9165
:10493000FF90EF90DF90CF90BF900C94430EC82F64
:10494000D0E0F1E0FF1568F18DE193E00E94430EA5
:10495000CE0101960E94991A8AE193E00E94430ECB
:1049600027E12C9FC0012D9F900D1124EC01C25B0B
:10497000DB4F6889798990E080E04AE00E941E1A46
:1049800087E193E00E94430EEF85F0E0EE0FFF1FFA
:10499000EE5AFD4F808191810E94621A84E193E07A
:1049A000C3CFF80182819381FC0120812F3391F4E0
:1049B00087E18C9FF0018D9FF00D1124E25BFB4F8E
:1049C0006089718990E080E04AE00E941E1A81E1CE
:1049D00093E0AACF27E12C9F80012D9F100D112479
:1049E000025B1B4FF801B784EB2DF0E0E057FD4F61
:1049F0002081213019F085EE92E096CF0E940F0FB2
:104A0000F8013285B11034C021E0672B682B692B87
:104A100009F420E0C22ED12CF12CE12C622F832F3F
:104A20000E94330B0E94910C27E12C9FF0012D9FD7
:104A3000F00D1124E25BFB4F628B738B848B958BA3
:104A4000D18AC08A81E0868B80EE92E00E94430E7C
:104A5000CE0101960E94991A8DED92E00E94430EBC
:104A60004AE0C701B6010E941E1A8AED92E05CCFAF
:104A70006B017C01FFEFCF16D104E104F10429F0B2
:104A800020F0C12CD12C7601CA94B601832F0E944C
:104A90009D0BC8CFFF920F931F93CF93DF93662395
:104AA00051F063E173E0DA018D919C910E947637B9
:104AB000D1E0892B09F0D0E086EB90E10E94430E13
:104AC00083E090E00E94991A83E690E10E94430EF1
:104AD00082E090E00E94991A81E690E10E94430EE4
:104AE00087E290E00E94991A8EE590E10E94430EC1
:104AF0008FE090E10E94430E08EA12E0C0E0F80166
:104B0000F280DD2311F0F2FC0DC08C2F0E94231BDC
:104B1000F5FE08C0D801ED91FC9150E040E060E066
:104B20008C2F1995CF5F0D5F1F4FC23141F7DF9179
:104B3000CF911F910F91FF900895CF92DF92EF9246
:104B4000FF920F931F93CF93DF93662351F067E19A
:104B500073E0FA01808191810E947637892B09F4F4
:104B600094C088E69FE00E94430E0E94910C6B0166
:104B70007C016FEF86ED92E10E94F60D6EEF86EDFF
:104B800092E10E94F60DC701B6010E94600F4091AC
:104B9000FA0890E080E037E121E0841770F4389F54
:104BA000F001399FF00D1124E25BFB4FC28AD38ADA
:104BB000E48AF58A268B0196F0CF0E94B00FD7E1E8
:104BC000C0911F12CC2319F10E9479160E948914FA
:104BD0000E949F110E94B00F86ED92E10E94BE0DCF
:104BE000892B71F386ED92E10E949C0D6FEF8F335C
:104BF000B9F586ED92E10E94F60D6EEF86ED92E139
:104C00000E94F60D0E94910C0E94600FD9CF8091F6
:104C1000FA08C81708F7DC9F80011124025B1B4FBC
:104C2000F80182850E940A0B6C017C01FF24F801C7
:104C300080899189E816F90689F06C2F86ED92E15A
:104C40000E94F60D6C2D86ED92E10E94F60D0E94F9
:104C5000910C0E94600FF801F18AE08ACF5FD7CFF4
:104C600086ED92E10E94F60D6FEF86ED92E10E94D3
:104C7000F60D0E94910CDF91CF911F910F91FF9043
:104C8000EF90DF90CF900C94600F8CE99FE00E9432
:104C9000430E0E94910C6B017C016FEF86ED92E157
:104CA0000E94F60D8EEF90E00E94530FC701B601EF
:104CB0000E94600F4091FA0890E080E037E121E027
:104CC000841770F4389FF001399FF00D1124E25BD6
:104CD000FB4FC28AD38AE48AF58A268B0196F0CFED
:104CE0000E947C0FD7E1C0911F12CC2311F10E94CA
:104CF00079160E9489140E949F110E947C0F86EDF4
:104D000092E10E94BE0D892B71F386ED92E10E9423
:104D10009C0D6FEF8F3391F586ED92E10E94F60DB9
:104D20008EEF90E00E94530F0E94910C0E94600F42
:104D3000DACF8091FA08C81710F7DC9F80011124A0
:104D4000025B1B4FF80182850E940A0B7C01F8016F
:104D500080899189E816F90679F06C2F86ED92E149
:104D60000E94F60DC7010E94530F0E94910C0E94F1
:104D7000600FF801F18AE08ACF5FDBCF86ED92E128
:104D80000E94F60D8FEF90E00E94530F72CF8F922A
:104D90009F92AF92BF92CF92DF92EF92FF920F93CA
:104DA0001F93CF93DF93EC0109900020E9F721973F
:104DB0008C018C179D0789F46FEF7FEFCB01DF919A
:104DC000CF911F910F91FF90EF90DF90CF90BF9008
:104DD000AF909F908F900895E7017E010C171D07FB
:104DE000D0F4FE0182917F01082E000C990B0E94E5
:104DF0007F35892B89F75E017501F50182915F018D
:104E0000082E000C990B0E946337892B21F00A159C
:104E10001B0590F37501CE19DF09DD27AE016AE1AC
:104E200073E0C7010E947F37812C47E8942E43E945
:104E3000A42E43E0B42E892B21F0812C912C540117
:104E40008394AE016FE173E0C7010E947F37892B25
:104E500039F420E4822E22E4922E2FE0A22EB12CEF
:104E6000AE016EE173E0C7010E947F37892B31F4F8
:104E700098EE892E93E0992EA12CB12CAE0161E21F
:104E800073E0C7010E947F37892B21F4812C912C7C
:104E9000540183946EE270E0C8010E946B37892B45
:104EA00089F1C8010E94C9336B017C01C501B401BD
:104EB0000E94A535A70196010E9406360E94F7368A
:104EC0006F3FFFEF7F078F079F0709F475CF6115CD
:104ED00071058105910509F472CF61157105810590
:104EE00020E4920720F06FEF7FEF8FEF9FE36436AF
:104EF00071058105910508F062CF64E670E080E0FD
:104F000090E05DCFC8010E940F0FA50194010E949F
:104F10002637D6CF4F925F926F927F928F929F9259
:104F2000AF92BF92CF92DF92EF92FF920F931F93B7
:104F3000CF93DF93CDB7DEB760970FB6F894DEBF9F
:104F40000FBECDBFD62E5A01662341F0FA018081F3
:104F50009181FC0120812F3309F055C08BEE9BE03D
:104F60000E94430E81EC9BE00E94430E86E99BE089
:104F70000E94430E83E39BE00E94430E84E09BE08B
:104F80000E94430E81EF9AE00E94430E84E390E07A
:104F90000E94991A8DEE9AE00E94430E8EEC9AE0E0
:104FA0000E94430E89E090E00E94991A8AEC9AE0F0
:104FB0000E94430E89E69AE00E94430E8DE09AE03B
:104FC0000E94430E8DE999E00E94430E82E199E030
:104FD0000E94430E8CEB98E00E94430E8EE798E00F
:104FE0000E94430E8EE398E00E94430E8CEF97E000
:104FF0000E94430E84EC97E00E94430E6FEF80E026
:105000000E94621E21C02D32B1F581818A3239F4AD
:1050100010921F1281E49DE00E94430E15C0809102
:105020001F12882389F08BE39DE00E94430E80913C
:105030001F120E949F1A8FE29DE00E94430E8091F2
:105040001F12815080931F1260960FB6F894DEBF36
:105050000FBECDBFDF91CF911F910F91FF90EF90C9
:10506000DF90CF90BF90AF909F908F907F906F9088
:105070005F904F90089563E570E10E942720582EBD
:10508000FFEF8F1329C0F501808191810E940F0FDE
:105090006F3F49F055245A94560EFFEF5F1619F0F2
:1050A00021E02D1518F089EC9CE0B6CF80911F12FD
:1050B000851569F080EA9CE00E94430E8091FA0811
:1050C00090E001960E94991A86E99CE0A5CF84336E
:1050D00040F08BE69CE0A0CF31E03D1510F0682F4A
:1050E0008FCF052D10E06AE772E0F5018281938190
:1050F0000E940520C82EFFEF8F1791F0EE24E39455
:10510000E80E22E02D1508F426C322E0F22EFD144D
:1051100008F0A1C295E0E91218C2EE24E3942CC174
:10512000FF24F394912CEF2DF0E0EE0FFF1FEA0D1A
:10513000FB1D608171818DE2E82E5E9CC00111240F
:1051400049E050E08550974F0E948D37E09EF00176
:10515000E19EF00D1124E550F74F118691100DC01E
:10516000EE24E394EF0CED14A8F0FF24F394FE0C6E
:10517000FD1408F0D1C0E12CA5C0E92CFD1408F401
:105180009CC0E92C7EC132E0E2E0FE2EE31295C025
:1051900099249394EE2DF0E0EE0FFF1FEA0DFB1D16
:1051A00066E672E0808191810E940520C82E4FEF53
:1051B000841749F08DE2809FF001819FF00D11244A
:1051C000E550F74FC286992081F2FE2CED1408F0CD
:1051D000CAC2F2E0EF2EFD1408F05EC089E0E812CA
:1051E000A4C2EE24E394EF2DF0E0EE0FFF1FEA0DD2
:1051F000FB1D808191810E94C7266F3FFFEF7F07D3
:105200008F079F0729F12DE2209FF001219FF00DCC
:105210001124E550F74F2685378540895189232B86
:10522000242B252B49F0643671058105910520F466
:1052300064E670E080E090E02DE2209FF001219F85
:10524000F00D1124E550F74F628F738F848F958F87
:105250008DE2809FF001819FF00D1124E550F74F02
:1052600086859785A089B189892B8A2B8B2B89F01C
:10527000828D938DA48DB58D84369105A105B105E0
:1052800040F484E690E0A0E0B0E0828F938FA48F9A
:10529000B58FEE2009F4F2C180911F12851104C070
:1052A00081E0850D80931F12652D852D0E94621E61
:1052B000652D852D0E946418C7CE53E0E51239C0D4
:1052C000EE24E3948DE2809FF001819FF00D112484
:1052D000E550F74F2285223088F0EF2DF0E0EE0FF9
:1052E000FF1FEA0DFB1D8081918161E178E127308C
:1052F00010F063E570E10E942720C82E8FEFC816DA
:1053000049F08DE2809FF001819FF00D1124E5505E
:10531000F74FC386E11005C0F394FD1440F5E12C6E
:105320000DC063E0962EFD1408F02BCF83E0E82E2D
:1053300052CF94E0E912EECEEE24E394EF2DF0E0AC
:10534000EE0FFF1FEA0DFB1D6081718186E39CE07B
:105350000E94E81C8F3F49F09DE2909FF001919FD1
:10536000F00D1124E550F74F8587E11070C0F394DC
:10537000FD1408F066C0E12CEF2DF0E0EE0FFF1FEA
:10538000EA0DFB1D808191814DE2409F9001419F7C
:10539000300D1124F901E550F74F4F0125852530D7
:1053A00008F058C061E178E10E9427208F3F09F49E
:1053B00056C027E1829FF0011124E25BFB4F9285EA
:1053C000983041F49785943029F0F40184858F3F1B
:1053D00009F445C09DE2909FF001919FF00D1124CA
:1053E000E550F74F84878DE2809FF001819FF00D9B
:1053F0001124E550F74F8585843009F5E48527E1D0
:10540000E29FF0011124E25BFB4F87858430B9F005
:105410009091FA082EE434E080E0981781F0295E3C
:105420003F4FF90138974081443039F59DE2909F14
:10543000F001919FF00D1124E550F74F8487E110A2
:105440001EC0F394FD1408F0DAC0E12C83C044E0E0
:10545000E42E5DCE63E570E10E942720B8CF8DE297
:10546000809FF001819FF00D1124E550F74F858555
:10547000853009F0B8CF8FEFB5CF8F5FCECF25E065
:10548000E22EFD1408F0A7CE58E0E512A4CEEE24DB
:10549000E394EF2DF0E0EE0FFF1FEA0DFB1D80817E
:1054A00091810E94C7266F3FEFEF7E078E079E0710
:1054B00029F12DE2209FF001219FF00D1124E550EC
:1054C000F74F2685378540895189232B242B252B9F
:1054D00049F0643671058105910520F464E670E0B9
:1054E00080E090E02DE2209FF001219FF00D11243B
:1054F000E550F74F668B778B808F918F8DE2809F81
:10550000F001819FF00D1124E550F74F86859785B6
:10551000A089B189892B8A2B8B2B89F08689978961
:10552000A08DB18D84369105A105B10540F484E6C6
:1055300090E0A0E0B0E0868B978BA08FB18FEE203B
:1055400009F497C028E0E22E46CE36E0E31286C08A
:10555000EE24E394EF2DF0E0EE0FFF1FEA0DFB1DAC
:10556000808191810E94B00E97FD6EC0DC01CB015D
:105570008E3F4FEF9407A4074FE3B40724F08DEF5D
:105580009FEFAFEFBFE32DE2209FF001219FF00DD1
:105590001124E550F74F86879787A08BB18B892B15
:1055A0008A2B8B2B51F1828D938DA48DB58D8436F2
:1055B0009105A105B10540F484E690E0A0E0B0E0DB
:1055C000828F938FA48FB58F8DE2809FF001819F92
:1055D000F00D1124E550F74F86899789A08DB18D84
:1055E00084369105A105B10540F484E690E0A0E081
:1055F000B0E0868B978BA08FB18FE1102AC0F39417
:10560000FD1490F5E12CEF2DF0E0EE0FFF1FEA0DF9
:10561000FB1D808191810E94C7266F3F5FEF750758
:105620008507950761F02DE2209FF001219FF00D85
:105630001124E550F74F628B738B848B958BEE2092
:1056400099F037E0E32EC7CD8EEF9FEFAFEFBFE3CA
:105650009ACF86E0E82EFD1408F01ECEE7E0EE12A9
:1056600013CFEE24E394CFCFF394E12CFD1408F490
:1056700010CFF394E12CFD1408F4B5CDF394FD1490
:1056800008F00ACE8F2D90E0880F991FA80EB91E42
:10569000F501A080B180412C66246394712CF50142
:1056A0008081882309F449C06501F60181917F0159
:1056B000882309F442C0082E000C990B0E947F3504
:1056C000892BB9F55701F70181914F01882339F0F2
:1056D000082E000C990B0E947F35892B61F1EC1884
:1056E000FD08F0E1EF16F1041CF04FE0E42EF12C80
:1056F000A701B601CE0101960E948D3721E030E06E
:105700002C0F3D1FE20EF31EF7011082B9018EE04F
:105710009CE00E94E81C8F3F11F2930102C0220F0F
:10572000331F8A95E2F7422ABACF2AE0E212B4CDBB
:10573000A9CF6701BACF7401C5CF3FEF431609F473
:10574000ABCD8DE2809FF001819FF00D1124E550DB
:10575000F74F468EA1CD41E0E41215CD99249394E4
:1057600092E0F92EE0CC92E0E92ED1CCCF92DF92FC
:10577000EF92FF920F931F93CF93DF936623C1F0B5
:10578000DA01ED91FC9190819F3391F0282F30E068
:10579000F901EE0FFF1FE20FF31FE855FD4F1281D5
:1057A00014FD06C091E08F3009F490E0992351F088
:1057B000DF91CF911F910F91FF90EF90DF90CF90ED
:1057C0000C94231BEA01B8E28B9FC0011124825183
:1057D0009F4E0E94430E85EE9FE00E94430E8881FB
:1057E000998113FF26C00E94CD3397FF03C060E06C
:1057F00070E0CB01161617061806190624F461E0AE
:1058000070E080E090E06093241270932512809302
:105810002612909327120E946D1A82EE9FE0DF916C
:10582000CF911F910F91FF90EF90DF90CF900C944C
:10583000430EEC01C12CD12C7601E991EE23D1F07D
:105840000E2E000CFF0BF097EA30F10598F4AAE059
:10585000B0E0A70196010E94DD368F01FF0F220BF9
:10586000330B060F171F281F391F0C151D052E059A
:105870003F05C8F4C701B6016115710581059105A1
:1058800021F061E070E080E090E06093241270937A
:10589000251280932612909327124AE00E941E1A26
:1058A0008FED9FE0BCCF68017901C7CFAF92BF9267
:1058B000CF92DF92EF92FF920F931F93CF93DF93DC
:1058C000C62F7A01611149C0D0911F12DD23D1F199
:1058D0000BEF18E0EE24E394F12C8C2F0E942D188E
:1058E000D82E8EE197E00E94430EC7010E94991ABC
:1058F0008BE197E00E94430E8D2D0E949F1AF801C4
:1059000083A580FF04C089E197E00E94430EF8015F
:1059100083A581FF04C087E197E00E94430E84E0E5
:1059200097E00E94430EC8010E94621A85EC96E03F
:105930000E94430ECF5FFFEFEF1AFF0A035D1F4F78
:10594000DC13CBCFDF91CF911F910F91FF90EF90A0
:10595000DF90CF90BF90AF90089563E570E1FA01BA
:10596000808191810E942720182F8EE897E01F3FA9
:10597000C1F1A12EB12CC23008F03FC0812F0E948E
:105980002D18C82F8EE297E00E94430EC5010196A4
:105990000E94991A8BE297E00E94430E8C2F0E947E
:1059A0009F1A8DE28A9DF0018B9DF00D1124E55028
:1059B000F74F83A580FF04C089E297E00E94430E61
:1059C0008DE28A9DF0018B9DF00D1124E550F74F7B
:1059D00083A581FF04C087E297E00E94430E84E222
:1059E00097E0DF91CF911F910F91FF90EF90DF90A3
:1059F000CF90BF90AF900C94430EF70182819381BA
:105A0000FC012081022E000C330B205331092A3077
:105A1000310578F50E94CD336B017C018FE597E06D
:105A2000FFEFCF16D104E104F104D9F2D701C6018A
:105A30000297A109B1098F3F2FEF9207A207B20782
:105A400009F466C0FCF48E3F9F4FAF4FBF4F09F47F
:105A500043C087E397E00E94430EF601EE0FFF1F5D
:105A6000E25AFD4F808191810E94621A84E397E09F
:105A7000B8CF6FE178E10E942720C82ED12CF12CFD
:105A8000E12CCCCF0097A105B10531F10197A1051B
:105A9000B105F9F68DE28A9DF0018B9DF00D112480
:105AA000E550F74F878D90A1A1A1B2A18E3F9F4FE6
:105AB000AF4FBF4F70F20E94910CAB01BC01812F20
:105AC000DF91CF911F910F91FF90EF90DF90CF90DA
:105AD000BF90AF900C9401168DE28A9DE0018B9DE2
