:100000000C9425090C94952A0C946E2A0C944D0995
:100010000C944D090C944D090C944D090C944D0908
:100020000C944D090C944D090C944D090C944D09F8
:100030000C944D090C94142B0C944D090C944D09FF
:100040000C94242A0C944D090C94E22A0C94BC2A9A
:100050000C944D090C943B2B0C944D090C944D09B8
:100060000C944D090C944D094E414E494E4954593A
:10007000494E46CDCCCC3D0AD7233C17B7D1387773
:10008000CC2B329595E6241FB14F0A000020410089
:1000900000C84200401C4620BCBE4CCA1B0E5AAED3
:1000A000C59D740D0A00090009000900270900090F
:1000B00027002000696E646578096E616D650970BE
:1000C000696E096D6F646509696E697409746F679B
:1000D000676C650D0A000D0A0020286C6F777C683C
:1000E0006967682900270027005B3020746F203281
:1000F00035355D20005B3020746F20315D20003A83
:1001000020005D3D0070696E5B000D0A005D3D00E2
:1001100070696E5B0070696E206572726F723A2052
:1001200063616E6E6F74207365742073746174659F
:10013000206F6620696E7075742070696E2E0D0ACE
:10014000000D0A000D0A003A20005D3D0070696E46
:100150005B0070696E206572726F723A2066697218
:10016000737420617267756D656E742073686F7546
:100170006C642062652070696E20696E6465782009
:100180006F72206E616D652E0D0A006C6F772C68A2
:1001900069676800203C746F67676C653E203A2091
:1001A0003C70776D3E205B3020746F203235355DBA
:1001B0000D0A00203C696E69743E2020203A203CE4
:1001C0006F75747075743E205B3020746F20315DE4
:1001D00020286C6F777C6869676829203C70776D90
:1001E0003E205B3020746F203235355D0D0A0020D3
:1001F0003C6D6F64653E2020203A20286F75747036
:1002000075747C696E7075747C70756C6C75707CBF
:1002100070776D7C616463290D0A005D0D0A002012
:100220003C70696E3E202020203A205B3020746FA5
:1002300020005D0D0A00203C6E616D653E2020208F
:100240003A2071756F7465642070696E206E616DFF
:1002500065205B005D0D0A00203C696E6465783E98
:1002600020203A205B3120746F2000206470696E7A
:10027000203C696E6465783E7C3C6E616D653E2015
:100280003C73657474696E673E205B3D5D203C760F
:10029000616C75653E3A206368616E6765206F6EBC
:1002A000652070726F70657274790D0A0020647039
:1002B000696E203C696E6465783E203C6E616D65B8
:1002C0003E203C70696E3E203C6D6F64653E203C74
:1002D000696E69743E203C746F67676C653E3A20B6
:1002E000646566696E652070696E0D0A0020647031
:1002F000696E202D5B2A5D203A2064656C6574650B
:10030000206C6173742070696E20282A203D206162
:100310006C6C290D0A00206470696E203F2020203B
:10032000203A2073686F7720616C6C2070696E20B2
:10033000646566696E6974696F6E730D0A00436F58
:100340006D6D616E64206470696E3A20436F6E66F5
:1003500069677572652050696E730D0A006F757458
:100360007075742C696E7075742C70756C6C75700A
:100370002C70776D2C616463006E616D652C706903
:100380006E2C6D6F64652C696E69742C746F676771
:100390006C65006572726F723A206E6F206D6F72BD
:1003A00065206E65772070696E732063616E2062D0
:1003B0006520646566696E65642E207479706520B9
:1003C0002770696E2720746F2073656520646566E9
:1003D000696E65642070696E732E0D0A002066696F
:1003E0007273742E0D0A0070696E20617267756DEC
:1003F000656E74206572726F723A20706C656173FD
:100400006520646566696E652070696E200070699C
:100410006E20617267756D656E74206572726F72A1
:100420003A20666972737420617267756D656E74C7
:100430002073686F756C642062652070696E206936
:100440006E646578206F72206E616D652E20747900
:100450007065202770696E2720746F207365652092
:10046000646566696E65642070696E732E0D0A009E
:100470002064656C657465642E0D0A0070696E20D9
:1004800000616C6C2070696E732064656C657465C6
:10049000642E0D0A00270D0A002700090009000933
:1004A00000090009000900090009000900090069A4
:1004B0006E646578096E616D650974726967676558
:1004C0007209736F7572636509616374696F6E0990
:1004D00074617267657409636F756E740964656C25
:1004E000617909757009646F776E096F7074696F4F
:1004F0006E730D0A0027202869646C657C61726D3B
:1005000065647C66696E69736865647C666972653A
:100510006429202A3A7472696767657265642C20C1
:100520002B3A7374617274207472696767657265BF
:10053000640D0A003A205B3020746F20335D5B2A23
:100540005D5B2B5D2027002B002A005D3D00746160
:10055000736B5B000D0A002B002A005D3D00746187
:10056000736B5B000D0A006572726F723A207461E2
:10057000736B2073746174757320636F756C642082
:100580006E6F742062652073657420746F2000653F
:1005900072726F723A207365636F6E642061726766
:1005A000756D656E742073686F756C64206265206C
:1005B0007461736B2073746174652E0D0A0065722B
:1005C000726F723A20666972737420617267756D1A
:1005D000656E742073686F756C6420626520746149
:1005E000736B20696E646578206F72206E616D6533
:1005F0002E0D0A00203C6F7074696F6E733E3A20B6
:100600002861726D2D6F6E2D66696E697368206149
:10061000726D2D6F6E2D7374617274757020696EBA
:100620007465727275707473290D0A00203C646FD2
:10063000776E3E2020203A206E5B737C6D737C7554
:10064000735D20646F776E2074696D653A20302089
:100650006F72206265747765656E20313030207569
:100660007320616E642031373A35330D0A00203C27
:1006700075703E20202020203A206E5B737C6D73C5
:100680007C75735D2075702074696D653A2030202B
:100690006F72206265747765656E20313030207529
:1006A0007320616E642031373A35330D0A00203CE7
:1006B00064656C61793E20203A206E5B737C6D73BB
:1006C0007C75735D2064656C61793A2030206F72AF
:1006D000206265747765656E203130302075732037
:1006E000616E642031373A35330D0A00203C636F68
:1006F000756E743E20203A205B2D3120746F2031BE
:100700003037333734313832305D2072657065618F
:100710007420636F756E743A202D3120666F7220DD
:10072000636F6E74696E756F75732C203020666F01
:10073000722073696E676C6520616374696F6E0DFA
:100740000A00203C7461726765743E203A203C6F59
:1007500075747075742D70696E3E20286F75747095
:1007600075742070696E2D696E646578206F7220D3
:1007700070696E2D6E616D6529203C6F75742D74E6
:1007800061736B3E20287461736B2D696E646578AC
:10079000206F72207461736B2D6E616D6529203C32
:1007A0006164633E20286164632070696E2D696E08
:1007B000646578206F722070696E2D6E616D652999
:1007C000203C6E6F6E653E2028290D0A00203C619A
:1007D0006374696F6E3E203A203C6F757470757457
:1007E0002D70696E3E20286C6F777C686967687C25
:1007F000746F67676C6529203C6F75742D74617325
:100800006B3E202861726D7C73746172747C7265BA
:1008100073746172747C73746F707C6B69636B2921
:10082000203C6164633E202861646329203C6E6F34
:100830006E653E20286E6F6E65290D0A00203C73A0
:100840006F757263653E203A203C696E7075742D39
:1008500070696E3E2028696E7075742070696E2D07
:10086000696E646578206F722070696E2D6E616D9F
:100870006529203C696E2D7461736B3E202874617C
:10088000736B2D696E646578206F72207461736B71
:100890002D6E616D65290D0A00203C7472696767D1
:1008A00065723E3A203C736F6674776172653E20D4
:1008B000286175746F7C6D616E75616C29203C696F
:1008C0006E7075742D70696E3E202875707C646F33
:1008D000776E7C616E797C686967687C6C6F77295C
:1008E000203C696E2D7461736B3E202873746172B5
:1008F000747C73746F70290D0A005D0D0A00203C32
:100900006E616D653E2020203A2071756F746564BC
:10091000207461736B206E616D65205B005D0D0A54
:1009200000203C696E6465783E20203A205B3120CF
:10093000746F200020647461736B203C696E646581
:10094000783E7C3C6E616D653E203C70726F7065D8
:100950007274793E205B3D5D203C76616C75653E2E
:100960000D0A0020647461736B203C696E646578C5
:100970003E203C6E616D653E203C74726967676520
:10098000723E203C736F757263653E203C616374F8
:10099000696F6E3E203C7461726765743E203C63F3
:1009A0006F756E743E203C64656C61793E203C75C9
:1009B000703E203C646F776E3E203C6F7074696FB0
:1009C0006E733E0D0A0020647461736B202D5B2AE8
:1009D0005D203A2064656C657465206C61737420D9
:1009E0007461736B20282A203D20616C6C290D0AEC
:1009F0000020647461736B203F202020203A207314
:100A0000686F7720616C6C207461736B206465661D
:100A1000696E6974696F6E730D0A00436F6D6D6165
:100A20006E64207461736B3A20646566696E652F2D
:100A300064656C657465207461736B0D0A00617286
:100A40006D2D6F6E2D66696E6973682C61726D2DE8
:100A50006F6E2D737461727475702C696E7465722B
:100A60007275707473006E6F6E652C6C6F772C6886
:100A70006967682C746F67676C652C6164632C739D
:100A8000746F702C73746172742C726573746172FC
:100A9000742C61726D2C6B69636B006572726F727E
:100AA0003A206E6F206D6F7265206E6577207461DD
:100AB000736B732063616E2062652063726561747D
:100AC00065642E0D0A002066697273742E0D0A008B
:100AD0007461736B20617267756D656E74206572E9
:100AE000726F723A20706C65617365206465666927
:100AF0006E65207461736B20007461736B2061728A
:100B000067756D656E74206572726F723A206669E2
:100B100072737420617267756D656E742073686F8F
:100B2000756C64206265207461736B20696E646506
:100B300078206F72206E616D652E2074797065204B
:100B4000277461736B2720746F207365652064655B
:100B500066696E6564207461736B732E0D0A0020E4
:100B600064656C657465642E0D0A007461736B2096
:100B700000616C6C207461736B732064656C6574C8
:100B800065642E0D0A0061726D20617267756D6576
:100B90006E74206572726F723A2066697273742087
:100BA000617267756D656E742073686F756C642013
:100BB0006265207461736B20696E646578206F7262
:100BC000206E616D652E20747970652027746173C5
:100BD0006B2720746F2073656520646566696E6598
:100BE00064207461736B732E0D0A002061726D6551
:100BF000642E0D0A007461736B2000206973206EEF
:100C00006F742069646C652E0D0A0061726D206539
:100C100072726F723A207461736B20006469736141
:100C2000726D20617267756D656E74206572726F8A
:100C3000723A20666972737420617267756D656EB1
:100C4000742073686F756C64206265207461736BC7
:100C500020696E646578206F72206E616D652E204C
:100C60007479706520277461736B2720746F20730B
:100C7000656520646566696E6564207461736B7375
:100C80002E0D0A00206973206E6F742061726D65ED
:100C9000642E0D0A0064697361726D206572726F53
:100CA000723A207461736B200020737461727465F2
:100CB000642E0D0A007461736B2000206973206E2E
:100CC0006F742069646C65206F722061726D656459
:100CD0002E0D0A0066697265206572726F723A2085
:100CE0007461736B20006669726520617267756D4F
:100CF000656E74206572726F723A206669727374E1
:100D000020617267756D656E742073686F756C64B1
:100D1000206265207461736B20696E646578206F52
:100D200072206E616D652E2074797065202774279E
:100D300020746F2073656520646566696E65642044
:100D40007461736B732E0D0A000D0A002073746FAB
:100D5000707065642E0D0A007461736B2000616C05
:100D60006C207461736B732073746F707065642E84
:100D70000D0A000D0A0020007420000D0A0020005A
:100D80007020002E0D0A007461736B7320777269F6
:100D90007474656E2E0D0A00456E746572696E6717
:100DA0002073636F70652038206D6F64652E20534B
:100DB000656E6420616E7920636861726163746539
:100DC0007220746F20656E642E0D0A00456E746586
:100DD00072696E672073636F7065203136206D6FA6
:100DE00064652E2053656E6420616E7920636861AE
:100DF00072616374657220746F20656E642E0D0AD3
:100E000000726573657420646F6E652E0D0A000DA7
:100E10000A000D0A003D000D0A003A20005D200086
:100E200020746F20005B003A20003D005D20002010
:100E3000746F20005B003A20003D003A0D0A00204C
:100E40004F757470757473204469676974616C20A0
:100E50005369676E616C73206F7074696F6E616C3B
:100E60006C792073796E6368726F6E697A6564203D
:100E700077697468204469676974616C20496E7091
:100E80007574205369676E616C732E0D0A000D0A2C
:100E9000002E002E0075730073006D730072657371
:100EA000657474696E6720666163746F727920641B
:100EB000656661756C74732E0D0A00656E746572DB
:100EC000203F20746F2073656520617661696C61D5
:100ED000626C6520636F6D6D616E64730D0A000D49
:100EE0000A002E002E004E695665724469673A204A
:100EF000566572736174696C6520446967697461D1
:100F00006C2050756C736520436F6E74726F6C6CDF
:100F1000657220616E642053636F7065200000006D
:100F2000000000000000436F6D6D616E647300008F
:100F300000000000000000000000000000000000B1
:100F40000000000000003F000000000000005B67A0
:100F500075695D2053686F772073746174757320B1
:100F6000616E6420636F6D6D616E64730000706903
:100F70006E000000000053657420616E642051759E
:100F80006572792050696E20537461747573000026
:100F90000000000000007461736B000000005365E6
:100FA0007420616E64205175657279205461736B91
:100FB00020537461747573000000000000006172BA
:100FC0006D00000000003C7461736B3E3A2041727A
:100FD0006D205461736B00000000000000000000F1
:100FE00000000000000064697361726D00003C74D1
:100FF00061736B3E3A2044697361726D2054617372
:101000006B7300000000000000000000000073741B
:101010006172740000003C7461736B3E3A2053743B
:10102000617274205461736B0000000000000000C6
:1010300000000000000073746F70000000005B3C53
:101040007461736B3E207C20215D3A2053746F7075
:10105000205461736B000000000000000000616418
:10106000635F7265730072657475726E20414443EC
:10107000205265736F6C7574696F6E00000000001C
:101080000000000000002E0000000000000052657B
:10109000706F7274207374617465206368616E6729
:1010A0006573000000000000000000000000000068
:1010B000000000000000436F6E66696700000000DA
:1010C0000000000000000000000000000000000020
:1010D0000000000000006470696E000000004465BC
:1010E00066696E652050696E73205B5D00000000CC
:1010F0000000000000000000000000000000647418
:1011000061736B000000446566696E65205461730D
:101110006B73205B5D000000000000000000000019
:1011200000000000000077726974650000005361E0
:101130007665205461736B730000000000000000AE
:1011400000000000000000000000000000007363C9
:101150006F70650000005B31365D205B3C63686149
:101160006E2D6D61736B3E5D3A2053636F70652029
:101170004D6F646500006563686F000000004563A3
:10118000686F20286F66662C6F6E290000000000D3
:101190000000000000000000000000000000726578
:1011A000736574000000466163746F727920526544
:1011B00073657400000000000000000000000000E3
:1011C00000000000000068616C74000000004861CD
:1011D0006C7420616C6C205461736B732028302C0C
:1011E00031290000000000000000000000000000A5
:1011F0000000240027002A0000000000250028002D
:101200002B00000000002300260029000404040431
:1012100004040404020202020202030303030303A0
:10122000010204081020408001020408102001027D
:101230000408102000000008000201000003040759
:101240000000000000000000B42E11241FBECFEFEC
:10125000D8E0DEBFCDBF26E0AAEFB2E001C01D920C
:10126000A931B207E1F712E0A0E0B1E0EAEBF5E660
:1012700002C005900D92AA3FB107D9F719E0C5E267
:10128000D9E004C02197FE010E949932C432D107EF
:10129000C9F70E947E2B0C94DB320C940000833043
:1012A00081F028F4813099F08230A9F008958730D8
:1012B000A9F08830C9F08430B1F4809180008F7D2E
:1012C00003C0809180008F7780938000089584B55B
:1012D0008F7784BD089584B58F7DFBCF8091B0005A
:1012E0008F778093B00008958091B0008F7DF9CF03
:1012F000CF93DF93282F30E0F901EC5CFD4E849111
:10130000F901E05EFD4ED491F901E45FFD4EC49118
:10131000CC23A1F081110E944F09EC2FF0E0EE0FD9
:10132000FF1FEE5FFD4EA591B491EC91ED2381E09E
:1013300090E009F480E0DF91CF91089580E090E0A3
:10134000FACF1F93CF93DF93282F30E0F901EC5CA5
:10135000FD4E8491F901E05EFD4ED491F901E45F08
:10136000FD4EC491CC23A9F0162F81110E944F0984
:10137000EC2FF0E0EE0FFF1FE850FE4EA591B49168
:101380008FB7F894EC91111108C0D095DE23DC934F
:101390008FBFDF91CF911F910895DE2BF8CFCF93B0
:1013A000DF9390E0FC01E05EFD4E2491845F9D4E52
:1013B000FC0184918823C9F090E0880F991FFC01FB
:1013C000E251FE4EA591B491FC01E850FE4EC5914C
:1013D000D49161110DC09FB7F8948C912095822310
:1013E0008C938881282328839FBFDF91CF91089514
:1013F000623051F49FB7F8943C91822F80958323FB
:101400008C93E8812E2BEFCF8FB7F894EC912E2B95
:101410002C938FBFEACF1F93CF93DF93182FEB014D
:1014200061E00E94CF09209739F460E0812FDF91BD
:10143000CF911F910C94A109CF3FD10511F461E028
:10144000F5CFE12FF0E0EC5CFD4EE491E33031F1BB
:1014500040F4E130B1F0E230E1F0C038D1057CF782
:10146000E4CFE73029F1E83059F1E430B1F7809169
:101470008000806280938000D0938B00C0938A00AC
:1014800004C084B5806884BDC7BDDF91CF911F9132
:10149000089584B5806284BDC8BDF7CF8091800077
:1014A000806880938000D0938900C0938800EDCF3E
:1014B0008091B00080688093B000C093B300E5CF06
:1014C0008091B00080628093B000C093B400DDCF03
:1014D0008E3008F08E508770806480937C008091FD
:1014E0007A00806480937A0080917A0086FDFCCF38
:1014F000809178009091790008953FB7F894809199
:10150000760590917705A0917805B091790526B57B
:10151000A89B05C02F3F19F00196A11DB11D3FBF2B
:10152000BA2FA92F982F8827BC01CD01620F711DFA
:10153000811D911D42E0660F771F881F991F4A95F4
:10154000D1F70895823068F4E82FF0E0813051F04F
:10155000E898EE0FFF1FEE5FFE4F84EB9AE0918359
:1015600080830895E998F5CF0895E82FF0E0EE0F15
:10157000FF1FEE5FFE4F71836083813041F08091E9
:1015800069008C7F482B40936900E89A0895809108
:101590006900837F440F551F440F551F482B40930C
:1015A0006900E99A0895AF92BF92CF92DF92EF92CD
:1015B000FF920F931F93CF93DF936C017B018B01FD
:1015C000040F151FEB015E01AE18BF08C017D1074D
:1015D00059F06991D601ED91FC910190F081E02DD7
:1015E000C6010995892B79F7C501DF91CF911F912C
:1015F0000F91FF90EF90DF90CF90BF90AF90089544
:10160000FC01538D448D252F30E0842F90E0821B08
:10161000930B541710F0CF96089501970895FC018D
:10162000918D828D981761F0A28DAE0FBF2FB11DE5
:101630005D968C91928D9F5F9F73928F90E008953D
:101640008FEF9FEF0895FC01918D828D981731F0F7
:10165000828DE80FF11D858D90E008958FEF9FEF4B
:101660000895FC01918D228D892F90E0805C9F4F21
:10167000821B91098F73992708958AE795E00E944C
:10168000310B21E0892B09F420E0822F089580E0BE
:1016900090E0892B29F00E943D0B81110C940000F1
:1016A0000895FC01A48DA80FB92FB11DA35ABF4FF7
:1016B0002C91848D90E001968F739927848FA68951
:1016C000B7892C93A089B1898C91837080648C93A5
:1016D000938D848D981306C00288F389E02D808154
:1016E0008F7D80830895EF92FF920F931F93CF9386
:1016F000DF93EC0181E0888F9B8D8C8D98131AC04D
:10170000E889F989808185FF15C09FB7F894EE8933
:10171000FF896083E889F989808183708064808390
:101720009FBF81E090E0DF91CF911F910F91FF90DB
:10173000EF900895F62E0B8D10E00F5F1F4F0F7383
:101740001127E02E8C8D8E110CC00FB607FCFACF3E
:10175000E889F989808185FFF5CFCE010E94510B80
:10176000F1CFEB8DEC0FFD2FF11DE35AFF4FF0820F
:101770009FB7F8940B8FEA89FB8980818062CFCF75
:101780000F931F93CF93DF938C01D0E0C0E0F8015B
:10179000EC0FFD1F6491662341F08AE795E00E94FB
:1017A000730B892B11F02196F2CFCE01DF91CF91EF
:1017B0001F910F910895CF93DF93EC01888D8823BB
:1017C000B9F0AA89BB89E889F9898C9185FD03C0A4
:1017D000808186FD0DC00FB607FCF7CF8C9185FF89
:1017E000F2CF808185FFEDCFCE010E94510BE9CF72
:1017F000DF91CF91089508958F929F92AF92BF92FB
:10180000CF92DF92EF92FF920F931F93CF93DF93CC
:10181000EC01888110E08D3211F4219611E088816D
:10182000082E000C990BC0970A9710F500E0C12C08
:10183000D12C7601FE01E00FF11DE0810E2E000C8F
:10184000FF0BF097EA30F105C0F4AAE0B0E0A70181
:1018500096010E94E7314F01FF0FAA08BB08860ED0
:10186000971EA81EB91E8C149D04AE04BF04B4F4C8
:10187000CC24CA94DC2C760102C0111113C0C7011C
:10188000B601DF91CF911F910F91FF90EF90DF9004
:10189000CF90BF90AF909F908F9008950F5F75018C
:1018A0006401C8CFF094E094D094C094C11CD11CC2
:1018B000E11CF11CE4CF8F929F92AF92BF92CF9226
:1018C000DF92EF92FF921F93CF93DF93EC0110E032
:1018D000C12CD12C7601FE01E10FF11DE0810E2E0D
:1018E000000CFF0BF097EA30F105D8F4AAE0B0E065
:1018F000A70196010E94E7314F01FF0FAA08BB081C
:10190000860E971EA81EB91E8C149D04AE04BF043B
:1019100020F01F5F75016401DECFCC24CA94DC2C5B
:101920007601C701B601DF91CF911F91FF90EF9033
:10193000DF90CF90BF90AF909F908F900895CF93FE
:10194000C92F682F8AE795E00E94730B6C2F8AE7F6
:1019500095E0CF910C94730B1F93CF93DF93172FC8
:10196000D82FC92F8AE795E00E94730B612F8AE771
:1019700095E00E94730B6D2F8AE795E00E94730B30
:101980006C2F8AE795E0DF91CF911F910C94730B38
:101990000F931F93CF93DF9310E007E180915A03D9
:1019A000181728F5019FE0011124C250DD4F8E89E0
:1019B000882399F01E8A8F85612F843081F48AE70D
:1019C00095E00E94730B888999890E949F0C6A890F
:1019D0007B898C899D890E94AC0C1F5FDFCF8AE7D1
:1019E00095E00E94730B8A850E947809EECFDF9103
:1019F000CF911F910F9108950F931F93CF93DF9372
:101A000010E007E180915A03181760F5019FE0018B
:101A10001124C250DD4F8E898823C9F01E8A8F851C
:101A2000612F8430B1F48AE795E00E94730B6889D6
:101A3000798976956795769567958AE795E00E940E
:101A4000730B6A897B898C899D890E94AC0C1F5F0E
:101A5000D9CF8AE795E00E94730B8A850E947809A6
:101A6000682FEBCFDF91CF911F910F9108950895CB
:101A70001F93CF93DF93EC01162F8F85882391F06E
:101A80008330A1F00E947D0A6A8B7B8B8C8B9D8BAF
:101A9000612F70E0798B688B81E08E8BDF91CF9125
:101AA0001F9108958A850E94A109ECCF662339F021
:101AB0001D85612F70E08A850E940B0AE3CF1C858B
:101AC000F8CFDC011A968C911A9790E0823021F0C1
:101AD0009FEF833009F491E01F96EC911F97E4305B
:101AE00091F0F0E0EA59FE4F2081213061F09F3FF4
:101AF00051F090E0823021F09FEF833009F491E0C3
:101B00001E969C9308958FEF1E968C9308958F3F99
:101B100059F09091C304891750F42DE2829FC001BF
:101B20001124855A9C4F089584EB91E0089590E02C
:101B300080E00895282F30E09DE2899FF001112474
:101B4000E55AFC4F13A692859250933098F5409138
:101B5000C304ABE5B3E090E03B96491781F09B9658
:101B60005C919B97533041F4981731F060811B963C
:101B70005C911B976517F1F09F5F9D96EECF8DE20C
:101B8000829FF001839FF00D1124E55AFC4FE385FD
:101B900087E1E89FF0011124E250FD4F82858230F9
:101BA00029F0833029F08FEF0C94A20A80E0FCCF5B
:101BB00081E0FACF0895CF93DF93C82FD0E09DE264
:101BC000899FF0011124E55AFC4F93A5933011F43D
:101BD0000E949A0D8FB7F8949DE29C9FF0019D9F03
:101BE000F00D1124E55AFC4F4EEF5FEF6FEF7FEFE2
:101BF000478F50A361A372A38FBF81E084A7DF91B9
:101C0000CF9108951F93CF93DF93182FC82FD0E063
:101C10002DE2829FF0011124E55AFC4F8FEF9FEFD8
:101C2000DC01878F90A3A1A3B2A3868D82FB9927A5
:101C300090F993A791E094A792859530A9F4E38554
:101C400027E1E29FF0011124E250FD4F2089318904
:101C5000232BC1F00E947D0AAB01BC01812FDF91D3
:101C6000CF911F910C940D13963009F04CC0E38571
:101C700027E1E29FF0011124E250FD4F20893189D4
:101C8000232B41F382FF66C08EEF890F833008F06B
:101C90004CC08DE28C9FF0018D9FF00D1124E55A10
:101CA000FC4FE38587E1E89FF0011124E250FD4FEE
:101CB00026852F3F09F44EC08285823041F1833062
:101CC000B9F481E0E22FF0E0EE0FFF1FE650FD4F88
:101CD0001083918343E050E0923031F041E050E0D6
:101CE000933011F442E050E0222399F02130C1F00A
:101CF0008DE28C9FF0018D9FF00D1124E55AFC4F71
:101D000083E083A727C0992309F4A4CFBBCF80E049
:101D1000D9CF91E09CBB6FE774E10E94B50AE8CF90
:101D200092E09CBB67E774E1F8CF9750923090F453
:101D3000EDE2EC9FD001ED9FB00D1124A55ABC4FF0
:101D40001B968C91E89FF0011124E55AFC4F868D7B
:101D500082FDCECFDF91CF911F9108954F925F9278
:101D60006F927F928F929F92AF92BF92CF92DF92AB
:101D7000EF92FF920F931F93CF93DF939090C40441
:101D8000911079C08DE2882E9EEF492E55245A94E9
:101D9000652C752C8091C304981608F06CC0C92C72
:101DA000D12C8C9CF0018D9CF00D1124E55AFC4F38
:101DB000878D90A1A1A1B2A1892B8A2B8B2B09F031
:101DC00058C0868D80FF43C0892D0E94020E0BE50E
:101DD00013E0F12CE12C8C9CE0018D9CD00D1124A2
:101DE000C55ADC4F5E0123E2A20EB11CA79680917A
:101DF000C3048E151F04E9F1E4F1CE14DF0409F1E8
:101E0000F801878D90A1A1A1B2A18F3F9F4FAF4F45
:101E1000BF4FB9F4F8018285883099F48385891120
:101E200010C0F5014081518162817381888199815F
:101E3000AA81BB81480F591F6A1F7B1F8E2D0E94EC
:101E40000D13FFEFEF1AFF0A035D1F4FD0CF83A5DD
:101E5000833019F4892D0E949A0D8C9CF0018D9C81
:101E6000F00D1124E55AFC4F478E50A261A272A2D8
:101E7000AECF93948FCFDF91CF911F910F91FF90B1
:101E8000EF90DF90CF90BF90AF909F908F907F901A
:101E90006F905F904F9008954F925F926F927F92F4
:101EA0008F929F92AF92BF92DF92EF92FF920F9329
:101EB0001F93CF93DF93DFB6F8944091C30450E0B3
:101EC0000BE513E0F80190E080E08417950734F407
:101ED000268D2068268F0196BD96F7CFCBE5D3E0FF
:101EE000F12CE12C812C912C540183948091C3041A
:101EF00090E0E816F906D4F48F8E98A2A9A2BAA2AF
:101F00000E947D0A4BA05CA06DA07EA0641975099B
:101F1000860997096FA378A789A79AA78E2D0E9493
:101F2000D20F8FEFE81AF80AAD96E0CFEBE5F3E0B9
:101F300030E020E08217930739F0468D4068468FE5
:101F40002F5F3F4FBD96F6CF0E94AE0ED0E0C0E0AF
:101F50008091C30490E0C817D9072CF48C2F0E94FD
:101F6000DB0D2196F5CF30E020E08217930749F092
:101F7000F801468D4F77468F2F5F3F4F035D1F4F10
:101F8000F4CFDFBEDF91CF911F910F91FF90EF90C3
:101F9000DF90BF90AF909F908F907F906F905F90F9
:101FA0004F9008958F929F92AF92BF92CF92DF92FF
:101FB000EF92FF921F93CF93DF93C82FD0E02DE2D3
:101FC000829FF0011124E55AFC4F878D90A1A1A1B9
:101FD000B2A1181619061A061B060CF095C0682F38
:101FE00061704C015D0121E0821A9108A108B108DD
:101FF000878E90A2A1A2B2A289288A288B2899F460
:1020000086849784A088B1882EEF82162FEF9206DF
:10201000A2062FE3B20639F4268D27FD04C0878E71
:1020200090A2A1A2B2A22DE22C9FF0012D9FF00D53
:102030001124E55AFC4F878C90A0A1A0B2A0811476
:102040009104A104B10469F421E024A7C684D784D3
:10205000E088F188CD28CE28CF2819F08095682F08
:1020600061702DE22C9FF0012D9FF00D1124E55A97
:10207000FC4F9585953008F0BDC0248580915A03AA
:10208000281788F4E22EF12C87E1289FA001112463
:1020900042505D4F923009F45DC008F041C069279D
:1020A000913009F457C08DE28C9FF0018D9FF00DA7
:1020B0001124E55AFC4F478D50A161A172A114165D
:1020C00015061606170604F587A190A5A1A5B2A5C9
:1020D00040FD11C146895789608D718D840F951F10
:1020E000A61FB71F2DE22C9FF0012D9FF00D11248C
:1020F000E55AFC4F0097A10520E4B20708F000C1A3
:1021000087A390A7A1A7B2A7DF91CF911F91FF90BE
:10211000EF90DF90CF90BF90AF909F908F900895F9
:102120009330E1F0943009F0BECF209301018E9DF1
:10213000F0018F9DF00D1124E250FD4F82858E300D
:1021400008F08E508770806480937C008FEC8093C1
:102150007A00A9CFCA010E94380DA5CF662309F4E1
:10216000A2CF8E9DF0018F9DF00D1124E250FD4F06
:1021700087858823B9F0833041F10E947D0A27E1E9
:102180002E9DF0012F9DF00D1124E250FD4F628B2A
:10219000738B848B958B612F70E0718B608B81E0EA
:1021A000868B81CF8089918911E0892B09F010E01D
:1021B00087E18E9DF0018F9DF00D1124E250FD4FBF
:1021C000612F82850E94A109D8CF808991891485C9
:1021D0001817190609F41585612F70E087E18E9DA7
:1021E000F0018F9DF00D1124E250FD4F82850E9479
:1021F0000B0AC3CF662309F456CF868D87FD53CFD4
:1022000084853091C304831708F06CC0E82EF12C4C
:10221000973009F455C040F5953009F460C0963008
:1022200009F448C08DE28E9DD0018F9DB00D112420
:10223000A55ABC4F8C9FF0018D9FF00D1124E55ADB
:10224000FC4F43A154A165A176A187A090A4A1A4AD
:10225000B2A4480D591D6A1D7B1D93964D935D9345
:102260006D937C9396971FCF983009F19930D1F6F2
:102270002E9DF0012F9DF00D1124E55AFC4F478D46
:1022800050A161A172A14E3F9FEF590769077907DD
:1022900049F214161506160617060CF19DE29C9FCE
:1022A000F0019D9FF00D1124E55AFC4F09C00E94DA
:1022B000020EB8CF181419041A041B040CF4B2CF80
:1022C00043A154A165A176A187A090A4A1A4B2A422
:1022D000480D591D6A1D7B1D0E940D13A3CF0E943E
:1022E0008714A0CF8F3F09F0DECE953009F0DBCE0A
:1022F0000E944C0FD8CE428D538D648D758DEECEDD
:102300008F5F9F4FAF4FBF4387A390A7A1A7B2A7EF
:1023100083A194A1A5A1B6A10197A109B04C83A363
:1023200094A3A5A3B6A3F0CECF92DF92EF92FF9233
:102330000F931F93CF93DF93CBE5D3E010E000E042
:102340008091C30480171106F1F0ECF08BA5811188
:1023500016C00E947D0ACBA0DCA0EDA0FEA06C19E7
:102360007D098E099F09CFA0D8A4E9A4FAA46C1511
:102370007D058E059F0518F0802F0E94D20F0F5FFC
:102380001F4FAD96DDCFDF91CF911F910F91FF9041
:10239000EF90DF90CF9008952F923F924F925F92EF
:1023A0006F927F928F929F92AF92BF92CF92DF9265
:1023B000EF92FF920F931F93CF93DF9300D01F9262
:1023C000CDB7DEB72FB72983F8948FEF8093000144
:1023D0000E947D0A2B013C01312CCC24CA94DC2CB8
:1023E00076012DE2222E8091C304381608F079C0C0
:1023F000032D10E0209EC001219E900D1124855ACE
:102400009C4F9B838A83FC0183A5882309F467C0C2
:102410004F01FFE18F0E911CEA81FB81878D90A116
:10242000A1A1B2A1181619061A061B060CF057C076
:1024300083A194A1A5A1B6A147A150A561A572A5AC
:10244000840F951FA61FB71F84199509A609B70900
:10245000B3965F012A813B81295D3F4F3B832A83ED
:1024600082339105A105B10504F5832D0E94D20F99
:10247000F50180819181A281B381EA81FB81408154
:10248000518162817381840F951FA61FB71F841924
:102490009509A609B709F4014081518162817381D0
:1024A0001416150616061706DCF2209E9001219ED2
:1024B000300D1124255A3C4FF901478D50A161A1DF
:1024C00072A114161506160617064CF48C159D05F8
:1024D000AE05BF0520F4309200016C017D013394FC
:1024E00082CF809100018F3FD1F1F1E8CF16FFEF4D
:1024F000DF06FFE7EF06F10450F08FEF8093000155
:1025000080E8C82EDD24DA948FE7E82EF12CA0EACB
:10251000B0E0A70196010E94E7316B017C0124E144
:1025200030E040E050E00E9477322115310581E033
:102530004807510560F581E08093C7043093C604D5
:102540002093C5048091C5049091C60490938700A0
:10255000809386008091C7048061809381002981E7
:102560002FBF0F900F900F90DF91CF911F910F9180
:10257000FF90EF90DF90CF90BF90AF909F908F90A3
:102580007F906F905F904F903F902F90089521150E
:10259000310598E04907510560F482E08093C70453
:1025A000C701B60120EA30E040E050E00E947732F7
:1025B000C5CF21153105E0E44E07510550F483E005
:1025C0008093C704C701B60120E035E040E050E049
:1025D000EDCF211531054105514050F484E0809341
:1025E000C704C701B60120E034E140E050E0DECF8F
:1025F00085E08093C704C701B60120E030E540E0E4
:1026000050E0D4CF80E180938100809100018F3F22
:1026100011F00E94D20F0C94CC118F929F92AF9226
:10262000BF92CF92DF92EF92FF920F931F93CF93BF
:10263000C82ED12C2DE2829FF0011124E55AFC4FC7
:10264000968D97FD56C04A015B01C82F1FB7F894BD
:1026500083A294A2A5A2B6A24289538964897589EE
:1026600047A350A761A772A786859785A089B189DE
:10267000880F991FAA1FBB1F0196A11DB11D878F2F
:1026800090A3A1A3B2A381E084A7452B462B472B9F
:1026900019F48C2D0E94D20F17FD0E94CC111FBF80
:1026A0000BE513E0F12CE12C8091C3048E151F047F
:1026B00001F1FCF0CE14DF04B1F0F801878D90A198
:1026C000A1A1B2A18F3F9F4FAF4FBF4F61F4F8015F
:1026D0008285873041F483858C1305C0B501A40140
:1026E0008E2D0E940D13FFEFEF1AFF0A035D1F4F9F
:1026F000DBCFCF911F910F91FF90EF90DF90CF90A4
:10270000BF90AF909F908F9008957F928F929F92ED
:10271000AF92BF92CF92DF92EF92FF920F931F93EF
:10272000CF93DF939EEFC92E92E0D92E10E000E008
:1027300027E1922E8824839480915A0380171106F2
:1027400009F00CF46AC0F6018785E82FF0E0EA5939
:10275000FE4F9081913009F45AC0843009F457C07B
:10276000F60182850E9478099C013327909EE00142
:10277000919ED00D1124C250DD4F488959892417EC
:10278000350709F444C0782E398B288B0E947D0AC6
:102790006A8B7B8B8C8B9D8B8E8A8BE5E82E83E0FE
:1027A000F82EB12CA12C62968091C3048A151B04CB
:1027B00071F16CF1F7019285923010F183858013ED
:1027C0001FC0478D50A161A172A14F3F5F4F6F4F56
:1027D0007F4FB1F4933079F050F4923079F0488122
:1027E00059816A817B818A2D0E940D1309C0953021
:1027F00029F09630A1F7772091F302C07110EFCF46
:102800008FEFA81AB80AEDE2EE0EF11CCDCF0F5FE4
:102810001F4FF7E1CF0ED11C8FCFDF91CF911F91CA
:102820000F91FF90EF90DF90CF90BF90AF909F906F
:102830008F907F900895CF93C82F0E947D0AAB019F
:10284000BC01EC2FF0E0EE0FFF1FE650FD4F808142
:1028500091812DE2829FF0011124E55AFC4F2385DE
:1028600030E0923069F497E1929FF001939FF00D70
:102870001124E250FD4FA1E0B0E0B18BA08B0CC061
:102880009330D9F497E1929FF001939FF00D1124BA
:10289000E250FD4F118A108A97E1929FF001939FB9
:1028A000F00D1124E250FD4F428B538B648B758BDE
:1028B00091E0968BCF910C940D1397E1929FF001CC
:1028C000939FF00D1124E250FD4F0088F189E02D17
:1028D000A1E0B0E0EF2B11F0B0E0A0E097E1929F13
:1028E000F001939FF00D1124E250FD4FC6CF81E01F
:1028F0000E94A20A81E00E941B140C94CC1180E07B
:102900000E94A20A80E00E941B140C94CC118F92AA
:102910009F92AF92BF92CF92DF92FF920F931F933D
:10292000CF93DF93C82ED12C1FB7F8949DE29C9DC6
:10293000E0019D9DD00D1124C55ADC4F4F8D58A14B
:1029400069A17AA14F3F5F4F6F4F7F4F0CF448C092
:10295000F82E8E8D80688E8F81E090E0A0E0B0E050
:102960008F8F98A3A9A3BAA30E947D0A8BA09CA0D5
:10297000ADA0BEA0681979098A099B096FA378A741
:1029800089A79AA78C2D0E94D20F8E8D8F778E8F5C
:102990001FBFCBE5D3E010E000E08091C3048017B7
:1029A0001106F9F0F4F0C016D106B1F08F8D98A1A0
:1029B000A9A1BAA18F3F9F4FAF4FBF4F69F48A853E
:1029C000883051F48B858F1107C00E947D0AAB01BE
:1029D000BC01802F0E940D130F5F1F4FAD96DDCFFE
:1029E0001FBFDF91CF911F910F91FF90DF90CF908C
:1029F000BF90AF909F908F90089590915A03891740
:102A000038F427E1829FC001112482509D4F089520
:102A100090E080E00895843048F4E82FF0E0EE0F75
:102A2000FF1FEC5CFE4F80819181089586EB91E061
:102A300008959DE2899FF0011124E55AFC4F878D8E
:102A400090A1A1A1B2A1181619061A061B062CF016
:102A50008E5F843018F080E0089583E008951F931E
:102A6000CF93DF93C82FD62F8091C304C817A0F44B
:102A7000681710F0DFEFD80F1DE2DC1768F01C9F1D
:102A8000F0011124E55AFC4F868D81FF03C08C2F85
:102A90000E94020ECF5FF1CFDF91CF911F91089579
:102AA000CF92DF92EF92FF929091C304891760F565
:102AB000691710F06FEF690F982F3DE22EEFC22ECD
:102AC000DD24DA94ED2CFD2C691780F0399FF0019C
:102AD0001124E55AFC4FC78ED0A2E1A2F2A2268DA6
:102AE00022FB222720F923A79F5FEECF90910601BA
:102AF00091110AC09091C404911106C0FF90EF900B
:102B0000DF90CF900C942F15FF90EF90DF90CF9037
:102B10000895DF92EF92FF920F931F93CF93DF936D
:102B200090915A03992309F449C0691710F06FEF87
:102B3000690F082F10E097E1899FE0011124C2502E
:102B4000DD4FE62EF12C87E1D82EE016F106B4F128
:102B50009F858A85E92FF0E0EA59FE4F20812130D8
:102B6000A9F46C8591110EC00E94A1098C8590E09A
:102B7000D09EF001D19EF00D1124E250FD4F918BBB
:102B8000808B15C070E00E940B0AF0CF943099F44E
:102B9000825F0E94680AD09EF001D19EF00D112440
:102BA000E250FD4F208931892817390741F70F5F1F
:102BB0001F4F6796CACF0E947809EDCFDF91CF9162
:102BC0001F910F91FF90EF90DF9008950F931F9347
:102BD000CF93DF93CEEFD2E010E000E080915A0374
:102BE00080171106A1F09CF0EB85EF878A85E43011
:102BF00009F4825FF0E0EA59FE4F60810E94CF093C
:102C0000CE010E94610D0F5F1F4F6796E7CF809145
:102C10000601811107C06FEFDF91CF911F910F91D6
:102C20000C948915DF91CF911F910F9108950F9307
:102C30001F93CF93DF93CEEFD2E010E000E08091BE
:102C40005A038017110641F03CF08A850E94A20ABF
:102C50000F5F1F4F6796F3CFDF91CF911F910F91B9
:102C60000895CF93DF93CDB7DEB7C554D1090FB622
:102C7000F894DEBF0FBECDBF0E941716FE013D9631
:102C800089E3DF011D928A95E9F787E0EAE0F1E048
:102C9000DE01119601900D928A95E1F783E0FE0125
:102CA0003896DF01282F1D922A95E9F792E09B873D
:102CB00021E02C8728E0E4E1F1E0DE015896019064
:102CC0000D922A95E1F719A218A28AA327E0EEE156
:102CD000F1E0DE019F9601900D922A95E1F7FE0149
:102CE000F696DF01282F1D922A95E9F728E029AFF3
:102CF0009AAF80935A0385E4F597AEEFB2E0019066
:102D00000D928A95E1F7CB5BDF4F0FB6F894DEBFEB
:102D10000FBECDBFDF91CF910C94E615FC01019061
:102D20000020E9F73197AF01481B590BBC018AE736
:102D300095E00C94D30A8F929F92AF92BF920F931B
:102D40001F93CF93DF93CDB7DEB7A1970FB6F8945B
:102D5000DEBF0FBECDBF19A2423008F44AE08E019B
:102D60000F5D1F4F842E912CB12CA12CA501940135
:102D70000E947732E62FB901CA01EA30F4F4E05D2F
:102D8000D801EE938D01232B242B252B79F790E08E
:102D900080E0109719F0CD010E948E16A1960FB613
:102DA000F894DEBF0FBECDBFDF91CF911F910F9181
:102DB000BF90AF909F908F900895E95CE1CF00970E
:102DC00011F00C948E1690E080E008958EEB91E067
:102DD0000C94DF16CF92DF92EF92FF92CF93DF93A6
:102DE00097FF1BC06B017C016DE28AE795E00E94B2
:102DF000730BEC0166277727CB016C197D098E09CF
:102E00009F094AE00E949B168C0F9D1FDF91CF9176
:102E1000FF90EF90DF90CF9008954AE0DF91CF913F
:102E2000FF90EF90DF90CF900C949B16BC01990F10
:102E3000880B990B0C94EA16682F70E090E080E004
:102E40004AE00C949B16662381F0FA0180819181FF
:102E50000E945B0C6F3F71058105910521F018F010
:102E60006FEF7FEFCB016F3F61F483EC91E00E9445
:102E7000DF168091C4040E941C1789E49DE00C9425
:102E8000C00B6093C40461110C944C0F6FEF80E091
:102E90000C9450154F925F926F927F928F929F92F7
:102EA000AF92BF92CF92DF92EF92FF926B017C01C3
:102EB00088EE482E83E0582E612C712CC701A301A7
:102EC00092010E94773249015A01672B682B692BC6
:102ED000A9F04AE0C701B6010E949B1685E99EE071
:102EE000FF90EF90DF90CF90BF90AF909F908F902A
:102EF0007F906F905F904F900C94C00BCA01B90106
:102F0000A30192010E947732672B682B692B41F055
:102F10004AE0C501B4010E949B168AE99EE0E0CF19
:102F2000C701B60120E432E44FE050E00E9477325E
:102F3000CA01B9014AE00E949B1688E99EE0D0CF01
:102F4000EF92FF920F931F93CF93DF93C82F90E0E0
:102F5000FC01EE0FFF1FE80FF91FE258FE4FD28170
:102F600088E2C89F7001112487010A5D104FD1FFCC
:102F70000DC0C8010E94C00B8BE39EE0DF91CF9192
:102F80001F910F91FF90EF900C94C00B89EC91E092
:102F90000E94DF16C701825E904F0E94C00B81E045
:102FA000CF3009F480E081115CC0D3FF2FC089E3EA
:102FB0009EE00E94C00B6091C8047091C90480918A
:102FC000CA049091CB040E94EA1686E39EE00E9418
:102FD000C00B84E39EE00E94C00B60E070E0CB0178
:102FE0000E94EA168FE29EE00E94C00B61E070E052
:102FF00080E090E00E94EA168CE29EE00E94C00B06
:10300000C8010E94C00B87E19EE0B8CF8AE29EE033
:103010000E94C00B6091C8047091C9048091CA04D9
:103020009091CB044AE00E949B1687E29EE00E94AA
:10303000C00B85E29EE00E94C00B4AE060E070E0B9
:10304000CB010E949B1680E29EE00E94C00B4AE0EA
:1030500061E070E080E090E00E949B168DE19EE0D0
:10306000CDCF8AE19EE0CACFEF92FF920F931F93DC
:10307000CF93DF9310E007E180915A03181730F5E2
:10308000E12EF12C0E9DE0010F9DD00D1124C250B8
:10309000DD4F8E898823C1F01E8A80E89DE00E9462
:1030A000C00BC70101960E9416178EE79DE00E9493
:1030B000C00B6889798990E080E04AE00E949B1605
:1030C0008BE79DE00E94C00B1F5FD6CFC0E0DDE222
:1030D0008091C304C81720F50C2F10E0D09FF00199
:1030E000D19FF00D1124E55AFC4F84A58823B1F03F
:1030F00014A688E79DE00E94C00BC80101960E94BB
:10310000161786E79DE00E94C00B8C2F0E941915B0
:103110000E941C1783E79DE00E94C00BCF5FD8CFB1
:1031200083E89DE0DF91CF911F910F91FF90EF9089
:103130000C94C00BCF93DF93EB010E94D1318883B5
:10314000CE01DF91CF910895FF920F931F93CF93FC
:10315000DF938C01EB01F8800E94D131F81621F049
:103160006F2DC8010E94D931CE01DF91CF911F91FF
:103170000F91FF900895BF92CF92DF92EF92FF924E
:103180000F931F93CF93DF937C01EB018B01040F0F
:10319000151FB990F701C080D180C6010E94D131BE
:1031A000B81621F06B2DC6010E94D931F70180813C
:1031B0009181019691838083C017D10751F7DF91E8
:1031C000CF911F910F91FF90EF90DF90CF90BF9024
:1031D00008950F931F93CF93DF9300D0CDB7DEB741
:1031E00083E490E09A83898341E050E063EC74E0EB
:1031F000CE0101960E94BB1810E00DE28091C3043D
:10320000181768F4109FB0011124655A7C4F4FE1E4
:1032100050E0CE0101960E94BB181F5FEFCF0F90C8
:103220000F90DF91CF911F910F9108950E94E9189F
:1032300087E89DE00C94C00B0F931F93CF93DF930F
:1032400000D0CDB7DEB782E090E09A83898341E079
:1032500050E06AE573E0CE0101960E94BB1810E0D1
:1032600007E180915A03181768F4109FB0011124E8
:1032700062507D4F40E150E0CE0101960E94BB18A4
:103280001F5FEFCF0F900F90DF91CF911F910F91A4
:1032900008951092C4041092C8041092C9041092A8
:1032A000CA041092CB040E9431160E941C1910927D
:1032B000C3046FEF80E00E9450150E94E91881E07E
:1032C0009EE00C94C00B3F924F925F926F927F9260
:1032D0008F929F92AF92BF92CF92DF92EF92FF9226
:1032E0000F931F93CF93DF93CDB7DEB760970FB6E1
:1032F000F894DEBF0FBECDBF5C016B01188AFB01E5
:1033000001900020E9F73197E61BF70B612C712C37
:1033100000E08FE0482E7F01FF249FE0892E912C52
:10332000342C301A432D50E0B501660D711D81E03B
:1033300090E08C0F9D1F800F911D0E94152F10E0B3
:10334000802F90E0E1E0F0E0EC0FFD1FE80FF91FA7
:103350005080552019F02CE2521230C00F30B1F4D9
:103360000FE0112389F0612F70E0A401461B570B79
:1033700081E090E08C0F9D1F680F791FCE010196B0
:103380000E94CC32042D011B630CCACF612F70E068
:10339000861B970B8E159F0561F481E090E08C0FE2
:1033A0009D1F680F791FA701C6010E94BE32892B9D
:1033B00049F07394552021F011E0100F0F5FC0CF3A
:1033C00077247A94872D60960FB6F894DEBF0FBEEF
:1033D000CDBFDF91CF911F910F91FF90EF90DF90C4
:1033E000CF90BF90AF909F908F907F906F905F90A5
:1033F0004F903F900895EF92FF920F931F93CF93BA
:103400008C01C62F7A01BA018BE891E00E94631902
:10341000682F70E090E080E06F3F710581059105B5
:1034200071F0F8012785233099F461307105810529
:10343000910571F46FEF70E080E090E009C0C70182
:103440000E94FC0B6F3FFFEF7F078F079F0761F024
:10345000F801278521110FC051E0672B682B692BDC
:1034600009F450E0852FC82F8C2FCF911F910F9119
:10347000FF90EF900895DC01CB018F3F9105A105EE
:10348000B10529F024F08FEF90E0A0E0B0E0B7FFA5
:10349000EACF80E090E0DC01E6CF5F926F927F920E
:1034A0008F929F92AF92BF92CF92DF92EF92FF9254
:1034B0000F931F93CF93DF93CDB7DEB760970FB60F
:1034C000F894DEBF0FBECDBF6C015B01742E188A6D
:1034D000FC011082E12C10E000E09FE0592E2FE06B
:1034E000822E912C652C601A462D50E0B5016E0D90
:1034F000711D81E090E08C0F9D1F800F911D0E9437
:10350000152FF12CE1E0F0E0EC0FFD1FE00FF11DB5
:1035100080818823D1F08C3229F50F3029F50FE016
:10352000FF2089F06F2D70E0A401461B570B81E04E
:1035300090E08C0F9D1F680F791FCE0101960E94AD
:10354000CC32052D0F19E60CCDCF0F3041F31715F6
:1035500069F082ECC82E81E0D82E18C01F5FFF24CE
:10356000F394F00E0F5FCECF1711F8CF0F1910E0C4
:1035700061E070E06C0F7D1F6F0D711DA801C60129
:103580000E94CC32F601E00FF11F1082C601609656
:103590000FB6F894DEBF0FBECDBFDF91CF911F9164
:1035A0000F91FF90EF90DF90CF90BF90AF909F90E2
:1035B0008F907F906F905F9008958F929F92AF92BF
:1035C000BF92CF92DF92EF92FF920F931F93CF9310
:1035D000DF93CDB7DEB760970FB6F894DEBF0FBEAE
:1035E000CDBF082FC62E8091C304681718F0CC24D5
:1035F000CA94C80E8FEA94E00E94C00B8091C30465
:10360000882309F4F6C0E02EF12C2DE2029F800100
:103610001124055A1C4FD12C97E1B92ECE14DF048A
:103620000CF4E7C089EC91E00E948E168FEFE81A47
:10363000F80AC7010E9416178DEA94E00E94C00B99
:10364000C8010E94DF168BEA94E00E94C00BD801EB
:103650001A96EC91F0E0EE0FFF1FE45CFE4F8081C4
:1036600091810E94DF1689EA94E00E94C00BAA248F
:10367000AA94AE0C8091C304A81608F0A8C0F80163
:103680009285923008F4A3C08385973008F09AC0E1
:1036900090915A03891708F09AC08B9DC00111249C
:1036A00082509D4F0E94DF1687EA94E00E94C00B73
:1036B000D8011D964C9166E67AE0CE0101960E94F3
:1036C0004D1A0E94DF1685EA94E00E94C00B80919B
:1036D000C304A81608F083C0F80184859585953049
:1036E00008F078C090915A03891708F078C08B9D34
:1036F000C001112482509D4F0E94DF1683EA94E09E
:103700000E94C00BD8011E966D917D918D919C9168
:1037100051976E3FBFEF7B078B07BFE39B0719F401
:103720006FEF7FEFCB010E94EA1681EA94E00E94DE
:10373000C00BF80162897389848995890E944A17B0
:103740008FE994E00E94C00BD80156966D917D914F
:103750008D919C9159970E944A178DE994E00E949F
:10376000C00BF801628D738D848D958D0E944A1770
:103770008BE994E00E94C00B89E994E00E94C00BA1
:10378000D8015E969C90812CAA24A39480E0992075
:1037900049F1992D9A2199F0882321F089EC91E043
:1037A0000E94DF16482D6EE37AE0CE0101960E945A
:1037B0004D1A0E94DF168A2D8095982281E083940D
:1037C000AA0CE5CF0E94870D009709F06BCF82EC21
:1037D00091E068CF0E94870D009709F08DCF82ECB1
:1037E00091E08ACF85E994E00E94C00B035D1F4FF2
:1037F00015CF60960FB6F894DEBF0FBECDBFDF9138
:10380000CF911F910F91FF90EF90DF90CF90BF90DD
:10381000AF909F908F900895DF92EF92FF920F9359
:103820001F93CF93DF93CDB7DEB760970FB6F894B1
:10383000DEBF0FBECDBFF82EE62E84EB90E00E94D7
:10384000C00B80915A03882309F44CC0E81618F085
:10385000EE24EA94E80E87E1D82EEF1408F442C073
:103860000F2D10E082EB90E00E94C00BC801019682
:103870000E9416178FEA90E00E94C00BFD9C800109
:10388000112402501D4FC8010E94DF168CEA90E0FF
:103890000E94C00BF80182850E941C178AEA90E002
:1038A0000E94C00BF80143856DE573E0CE010196DF
:1038B0000E944D1A0E94DF1688EA90E00E94C00B19
:1038C000F80184850E941C1786EA90E00E94C00BD4
:1038D000F80185850E941C1783EA90E00E94C00BC6
:1038E000F394BBCF60960FB6F894DEBF0FBECDBF8A
:1038F000DF91CF911F910F91FF90EF90DF9008958E
:10390000EF92FF920F931F93CF938C017B01C0E046
:10391000EC2FF0E0EE0FFF1FEE0DFF1D60817181B7
:103920006115710539F0C8010E94B532892B19F073
:10393000CF5FEECFCFEF8C2FCF911F910F91FF90E4
:10394000EF900895BF92CF92DF92EF92FF920F9384
:103950001F93CF93DF937C018B01B12C6701CB0CBC
:10396000D11CF601C0810C2E000CDD0BCE010E9493
:103970008930892B11F0B394F1CFE0972A97C0F4E6
:10398000C6010E945B0CC62F6F3F09F0C1508C2FFF
:10399000F8010995892B09F4CFEF8C2FDF91CF9196
:1039A0001F910F91FF90EF90DF90CF90BF900895FF
:1039B000C0E08C2FF8010995009771F3BC01C70195
:1039C0000E94B532892B49F3CF5FF3CFCF936111BA
:1039D00007C00E944C0F8EE59DE0CF910C94C00B68
:1039E00067E87DE0FA01808191810E94A21CC82FC6
:1039F0008F3F79F30E94871488E59DE00E94C00BF9
:103A0000FDE2CF9FC0011124855A9C4F0E94DF1612
:103A10008CE49DE0E2CF0F931F93CF93DF9361116E
:103A200008C086EE9CE0DF91CF911F910F910C941E
:103A3000C00BFA0167E87DE0808191810E94A21CA1
:103A4000C82F8F3F71F3082F10E0DDE2D09FF00107
:103A5000D19FF00D1124E55AFC4F878D90A1A1A1B3
:103A6000B2A10296A11DB11D0297A105B10558F0A2
:103A700084ED9CE00E94C00BC80101960E941617BD
:103A80008BEB9CE0D0CF0E947D0AAB01BC018C2F58
:103A90000E940D1385EB9CE00E94C00BCD9FC001DE
:103AA0001124855A9C4F0E94DF1689EA9CE0BBCF07
:103AB000CF93DF93611106C08CE19CE0DF91CF9141
:103AC0000C94C00BFA0167E87DE0808191810E942F
:103AD000A21C8F3F89F3C82FD0E09DE2899FF0019F
:103AE0001124E55AFC4F478D50A161A172A14F3FAF
:103AF0005F4F6F4F7F4F59F085E99CE00E94C00BEC
:103B0000CE0101960E94161784E89CE0D7CFDF9182
:103B1000CF910C94DB0D0F931F93CF93DF93611123
:103B200008C086E89BE0DF91CF911F910F910C9424
:103B3000C00BFA0167E87DE0808191810E94A21CA0
:103B4000C82F8F3F71F3082F10E0DDE2D09FF00106
:103B5000D19FF00D1124E55AFC4F878D90A1A1A1B2
:103B6000B2A18E3F9F4FAF4FBF4F59F08BE09CE00B
:103B70000E94C00BC80101960E9416178BEF9BE0B4
:103B8000D2CF8C2F0E94020E85EF9BE00E94C00BCB
:103B9000CD9FC0011124855A9C4F0E94DF168BEEE9
:103BA0009BE0C1CF7F928F929F92AF92BF92CF92B4
:103BB000DF92EF92FF920F931F93CF93DF93762EB6
:103BC0006A01662341F0FA0180819181FC01208124
:103BD0002F3309F055C08EE393E00E94C00B86E1BD
:103BE00093E00E94C00B8DEE92E00E94C00B8DEA24
:103BF00092E00E94C00B8BE692E00E94C00B88E529
:103C000092E00E94C00B84E090E00E94161784E5C9
:103C100092E00E94C00B86E392E00E94C00B89E014
:103C200090E00E94161782E392E00E94C00B8FE1A1
:103C300092E00E94C00B8DE090E00E9416178BE18D
:103C400092E00E94C00B8FEE91E00E94C00B83EBCC
:103C500091E00E94C00B84E991E00E94C00B6FEFDD
:103C600080E0DF91CF911F910F91FF90EF90DF9057
:103C7000CF90BF90AF909F908F907F900C940C1C32
:103C80002D32B9F581818A32B9F40E94171610924B
:103C90005A0381E894E00E94C00BDF91CF911F91FD
:103CA0000F91FF90EF90DF90CF90BF90AF909F90DB
:103CB0008F907F900C941C19E0915A03EE2369F3C6
:103CC000E150E0935A0327E1E29FF0011124E25012
:103CD000FD4F82850E94A20A8CE794E00E94C00BEF
:103CE00080915A0390E001960E94161780E794E0B5
:103CF000D2CF6DEF74E10E94A21CB82E3FEF831368
:103D00006FC0F601808191810E945B0C6F3F49F08A
:103D1000BB24BA94B60EFFEFBF1619F021E02715A9
:103D200088F08EE094E0DF91CF911F910F91FF908A
:103D3000EF90DF90CF90BF90AF909F908F907F904B
:103D40000C94C00B80915A038B1569F087EE93E0B9
:103D50000E94C00B80915A0390E001960E941617B2
:103D60008DED93E0E0CF33E03B1570F080E02EEF77
:103D700032E08B1560F4295E3F4FF9013D97908149
:103D8000992329F08F5FF5CF83E993E0CCCF8B1196
:103D900007C087E1B89EF0011124E250FD4F128662
:103DA0000B2D10E0E7E1BE9EC00111249C012250C2
:103DB0003D4F7901F6016281738189E793E00E94AA
:103DC00063198F3F91F0C1E0C80FF2E0F71508F0DA
:103DD00039C1C13009F0F4C0D1E062E0A62E08C0BC
:103DE00091E09715E8F2682F3CCFAA24A394D0E085
:103DF000EA2DF0E0EE0FFF1FEC0DFD1D60817181DB
:103E000049E050E0C7010E94CC3287E1809FF00179
:103E1000819FF00D1124E250FD4F1186D1115DC03C
:103E2000C1E0CA0DC71508F4D1C0AA24A394AC0EF2
:103E3000A714A0F5C0E0EA2DF0E0EE0FFF1FEC0D97
:103E4000FD1D608171818DE593E00E9463198330CF
:103E500009F054C097E1909FF001919FF00D11245B
:103E6000E250FD4F9285933041F02BEF290F223025
:103E700020F09950933008F080E097E1909FF00196
:103E8000919FF00D1124E250FD4F9285983009F476
:103E90004FC08F3F09F041C0C1116AC0A394912C5B
:103EA000A71408F46DC0A394A71408F0CBC0EA2DA2
:103EB000F0E0EE0FFF1FEC0DFD1D4081518187E109
:103EC000809FE001819FD00D1124C250DD4F6D8590
:103ED000C7010E94FB198D87B5C0CA2DA71408F031
:103EE00016C1CD2FC33009F044C0C1E0A4CF3DE0DE
:103EF000361708F08CC0AA24AA9489C0843009F02F
:103F0000BCCF97E1909FF001919FF00D1124E250FA
:103F1000FD4F9285973008F0128697E1909FF0014F
:103F2000919FF00D1124E250FD4F83878787B4CF16
:103F300082E0F3CFC53009F085C0B9CF70E00E94B0
:103F40000B0AB1C027E1209FC001219F900D1124D1
:103F50009C0122503D4F6901F9018285C43029F44A
:103F6000825F0E94680AF601A8C00E947809FBCF10
:103F7000C3E0A71408F066C0C430E1F69924939416
:103F8000EA2DF0E0EE0FFF1FEC0DFD1D4081518189
:103F900087E1809FE001819FD00D1124C250DD4F49
:103FA0006C85C7010E94FB198C879F85911104C005
:103FB00091E0811190E09D87992009F474CF42C06F
:103FC00082E0A82EC23009F08DCFD1E0EC2FF0E0D6
:103FD000EE0FFF1FEC0DFD1D808191810E945B0C97
:103FE0006F3F71058105910521F018F06FEF7FEFAC
:103FF000CB01A62E28E062137ACF87E1809FF001E3
:10400000819FF00D1124E250FD4F82E0878727E168
:10401000209FC001219F900D1124FC01E250FD4F13
:104020004F0182858A1539F0FFEFAF1621F00E940B
:10403000A20AF401A286DD2309F4F7CED2E0C71567
:1040400008F465C080915A038B1104C081E08B0D88
:1040500080935A030E941C1987E1809FF001819F81
:10406000F00D1124E250FD4FC385C7878285C4300F
:1040700009F4825FEC2FF0E0EA59FE4FD0816D2FFA
:104080000E94CF09D13009F05DCF87E1809FF00118
:10409000819FF00D1124E250FD4F64858285C1118E
:1040A0004DCF0E94A10987E1809FF001819FF00D13
:1040B0001124E250FD4F848590E0918B808BC701E5
:1040C0000E94610D0E947D0A27E1209FF001219F3F
:1040D000F00D1124E250FD4F628B738B848B958B16
:1040E00081E0868B6B2D8B2D0E940C1C6B2D8B2DF4
:1040F000DF91CF911F910F91FF90EF90DF90CF90C4
:10410000BF90AF909F908F907F900C948915AC2EAC
:10411000CD2F2FCFBF92CF92DF92EF92FF920F93CE
:104120001F93CF93DF93F62E8A0161116FC0109118
:104130005A03112309F458C01150CEEFD2E0F12CEC
:10414000E12C07E1670185E091E00E94C00B8FEF51
:10415000E81AF80AC7010E94161782E091E00E944F
:10416000C00B0C9DF0010D9DF00D1124E250FD4F90
:104170006089718990E080E04AE00E949B168FEF91
:1041800090E00E94C00BEF85F0E0EE0FFF1FE85DAE
:10419000FE4F808191810E94DF1689EC91E00E94A0
:1041A000DF168F85823050F1833069F187EE90E021
:1041B0000E94C00BCE010E94DF1685EE90E00E94A7
:1041C000C00B8F85823020F489ED90E00E94C00BF7
:1041D00082EC91E00E94DF1686ED90E00E94C00B19
:1041E00067961E1508F0AECFDF91CF911F910F910A
:1041F000FF90EF90DF90CF90BF90089585EF90E013
:104200000E94C00BD3CF89EE90E0FACF6DEF74E13E
:10421000FA01808191810E94A21C8F3F69F482E59E
:1042200091E0DF91CF911F910F91FF90EF90DF9080
:10423000CF90BF900C94C00BC82FD0E0F1E0FF15D9
:1042400068F18DE491E00E94C00BCE0101960E94BE
:1042500016178AE491E00E94C00B27E12C9FC00151
:104260002D9F900D1124EC01C250DD4F6889798992
:1042700090E080E04AE00E949B1687E491E00E9473
:10428000C00BEF85F0E0EE0FFF1FE85DFE4F808171
:1042900091810E94DF1684E491E0C3CFF80182810E
:1042A0009381FC0120812F3391F487E18C9FF001F1
:1042B0008D9FF00D1124E250FD4F6089718990E0CF
:1042C00080E04AE00E949B1681E491E0AACF27E1BA
:1042D0002C9F80012D9F100D112402501D4FF801BD
:1042E000B784EB2DF0E0EA59FE4F2081213019F020
:1042F00085E191E096CF0E945B0CF8013285B11008
:1043000034C021E0672B682B692B09F420E0C22E12
:10431000D12CF12CE12C622F832F0E94A1090E9445
:104320007D0A27E12C9FF0012D9FF00D1124E25012
:10433000FD4F628B738B848B958BD18AC08A81E011
:10434000868B80E191E00E94C00BCE0101960E9415
:1043500016178DE091E00E94C00B4AE0C701B6013C
:104360000E949B168AE091E05CCF6B017C01FFEF1D
:10437000CF16D104E104F10429F020F0C12CD12C96
:104380007601CA94B601832F0E940B0AC8CFFF9210
:104390000F931F93CF93DF93662351F06BEC71E083
:1043A000DA018D919C910E94B532D1E0892B09F000
:1043B000D0E086EE9EE00E94C00B83E090E00E9479
:1043C000161783E99EE00E94C00B82E090E00E94F5
:1043D000161781E99EE00E94C00B87E290E00E94E0
:1043E00016178EE89EE00E94C00B8FE39EE00E94AD
:1043F000C00B0EE711E0C0E0F801F280DD2311F000
:10440000F2FC0DC08C2F0E94A017F5FE08C0D80149
:10441000ED91FC9150E040E060E08C2F0995CF5F7A
:104420000D5F1F4FC23141F7DF91CF911F910F9167
:10443000FF900895CF92DF92EF92FF920F931F9318
:10444000CF93DF93662351F06FEC71E0FA01808126
:1044500091810E94B532892B09F494C088E99DE0CE
:104460000E94C00B0E947D0A6B017C016FEF8AE7FE
:1044700095E00E94730B6EEF8AE795E00E94730B44
:10448000C701B6010E94AC0C40915A0390E080E055
:1044900037E121E0841770F4389FF001399FF00D67
:1044A0001124E250FD4FC28AD38AE48AF58A268B12
:1044B0000196F0CF0E94FC0CD7E1C091C304CC233D
:1044C00019F10E9485130E9494110E94AE0E0E9461
:1044D000FC0C8AE795E00E94310B892B71F38AE787
:1044E00095E00E940F0B6FEF8F33B9F58AE795E0E7
:1044F0000E94730B6EEF8AE795E00E94730B0E9497
:104500007D0A0E94AC0CD9CF80915A03C81708F7D6
:10451000DC9F8001112402501D4FF80182850E940A
:1045200078096C017C01FF24F80180899189E816E3
:10453000F90689F06C2F8AE795E00E94730B6C2DC9
:104540008AE795E00E94730B0E947D0A0E94AC0CE2
:10455000F801F18AE08ACF5FD7CF8AE795E00E9421
:10456000730B6FEF8AE795E00E94730B0E947D0A40
:10457000DF91CF911F910F91FF90EF90DF90CF903F
:104580000C94AC0C8CEC9DE00E94C00B0E947D0A48
:104590006B017C016FEF8AE795E00E94730B8EEF51
:1045A00090E00E949F0CC701B6010E94AC0C4091A4
:1045B0005A0390E080E037E121E0841770F4389FDF
:1045C000F001399FF00D1124E250FD4FC28AD38AC9
:1045D000E48AF58A268B0196F0CF0E94C80CD7E1B9
:1045E000C091C304CC2311F10E9485130E94941141
:1045F0000E94AE0E0E94C80C8AE795E00E94310B23
:10460000892B71F38AE795E00E940F0B6FEF8F33D0
:1046100091F58AE795E00E94730B8EEF90E00E947F
:104620009F0C0E947D0A0E94AC0CDACF80915A0345
:10463000C81710F7DC9F8001112402501D4FF801AC
:1046400082850E9478097C01F80180899189E816A9
:10465000F90679F06C2F8AE795E00E94730BC70189
:104660000E949F0C0E947D0A0E94AC0CF801F18A06
:10467000E08ACF5FDBCF8AE795E00E94730B8FEF74
:1046800090E00E949F0C72CF8F929F92AF92BF9248
:10469000CF92DF92EF92FF920F931F93CF93DF930E
:1046A000EC0109900020E9F721978C018C179D07F8
:1046B00089F46FEF7FEFCB01DF91CF911F910F91C5
:1046C000FF90EF90DF90CF90BF90AF909F908F9032
:1046D0000895E7017E010C171D07D0F4FE018291B9
:1046E0007F01082E000C990B0E948930892B89F7D5
:1046F0005E017501F50182915F01082E000C990B96
:104700000E94A232892B21F00A151B0590F3750136
:10471000CE19DF09DD27AE0162ED71E0C7010E940D
:10472000BE32812C47E8942E43E9A42E43E0B42EF8
:10473000892B21F0812C912C54018394AE0167EDDB
:1047400071E0C7010E94BE32892B39F420E4822E29
:1047500022E4922E2FE0A22EB12CAE0166ED71E084
:10476000C7010E94BE32892B31F498EE892E93E066
:10477000992EA12CB12CAE0169ED71E0C7010E9408
:10478000BE32892B21F4812C912C540183946EE24A
:1047900070E0C8010E94AA32892B89F1C8010E94E9
:1047A000E12E6B017C01C501B4010E94AF30A7016D
:1047B00096010E9410310E9438326F3FFFEF7F0751
:1047C0008F079F0709F475CF611571058105910564
:1047D00009F472CF61157105810520E4920720F07C
:1047E0006FEF7FEF8FEF9FE36436710581059105D1
:1047F00008F062CF64E670E080E090E05DCFC80131
:104800000E945B0CA50194010E946732D6CF4F92A3
:104810005F926F927F928F929F92AF92BF92CF9250
:10482000DF92EF92FF920F931F93CF93DF93CDB759
:10483000DEB760970FB6F894DEBF0FBECDBFD62EA1
:104840005A01662341F0FA0180819181FC012081A7
:104850002F3309F055C08BE19AE00E94C00B81EF25
:1048600099E00E94C00B86EC99E00E94C00B83E6A1
:1048700099E00E94C00B84E399E00E94C00B81E2A2
:1048800099E00E94C00B88E090E00E9416178DE12D
:1048900099E00E94C00B8EEF98E00E94C00B89E067
:1048A00090E00E9416178AEF98E00E94C00B89E9F9
:1048B00098E00E94C00B8DE398E00E94C00B8DEC45
:1048C00097E00E94C00B82E497E00E94C00B8CEE40
:1048D00096E00E94C00B8EEA96E00E94C00B8EE626
:1048E00096E00E94C00B8CE296E00E94C00B84EF21
:1048F00095E00E94C00B6FEF80E00E94DD1A21C09E
:104900002D32B1F581818A3239F41092C30481E7E6
:104910009BE00E94C00B15C08091C304882389F0DE
:104920008BE69BE00E94C00B8091C3040E941C1781
:104930008FE59BE00E94C00B8091C304815080935F
:10494000C30460960FB6F894DEBF0FBECDBFDF91F3
:10495000CF911F910F91FF90EF90DF90CF90BF907C
:10496000AF909F908F907F906F905F904F90089541
:1049700067E87DE00E94A21C582EFFEF8F1329C02C
:10498000F501808191810E945B0C6F3F49F05524B5
:104990005A94560EFFEF5F1619F021E02D1518F00E
:1049A00089EF9AE0B6CF8091C304851569F080ED58
:1049B0009AE00E94C00B80915A0390E001960E94F9
:1049C000161786EC9AE0A5CF883040F08BE99AE084
:1049D000A0CF31E03D1510F0682F8FCF052D10E0EE
:1049E00060E571E0F501828193810E94801CC82EF0
:1049F000FFEF8F1791F0EE24E394E80E22E02D15DF
:104A000008F426C322E0F22EFD1408F0A1C295E0BE
:104A1000E91218C2EE24E3942CC1FF24F394912CE4
:104A2000EF2DF0E0EE0FFF1FEA0DFB1D608171819D
:104A30008DE2E82E5E9CC001112449E050E0855AC9
:104A40009C4F0E94CC32E09EF001E19EF00D1124BB
:104A5000E55AFC4F118691100DC0EE24E394EF0C43
:104A6000ED14A8F0FF24F394FE0CFD1408F0D1C05F
:104A7000E12CA5C0E92CFD1408F49CC0E92C7EC1F2
:104A800032E0E2E0FE2EE31295C099249394EE2DDD
:104A9000F0E0EE0FFF1FEA0DFB1D6CE371E080817B
:104AA00091810E94801CC82E4FEF841749F08DE23F
:104AB000809FF001819FF00D1124E55AFC4FC286C2
:104AC000992081F2FE2CED1408F0CAC2F2E0EF2E1C
:104AD000FD1408F05EC089E0E812A4C2EE24E3945D
:104AE000EF2DF0E0EE0FFF1FEA0DFB1D808191819D
:104AF0000E9444236F3FFFEF7F078F079F0729F135
:104B00002DE2209FF001219FF00D1124E55AFC4F6A
:104B10002685378540895189232B242B252B49F065
:104B2000643671058105910520F464E670E080E04B
:104B300090E02DE2209FF001219FF00D1124E55A15
:104B4000FC4F628F738F848F958F8DE2809FF00171
:104B5000819FF00D1124E55AFC4F86859785A08929
:104B6000B189892B8A2B8B2B89F0828D938DA48D13
:104B7000B58D84369105A105B10540F484E690E039
:104B8000A0E0B0E0828F938FA48FB58FEE2009F460
:104B9000F2C18091C304851104C081E0850D80932A
:104BA000C304652D852D0E94DD1A652D852D0E947B
:104BB0005015C7CE53E0E51239C0EE24E3948DE2E0
:104BC000809FF001819FF00D1124E55AFC4F228552
:104BD000223088F0EF2DF0E0EE0FFF1FEA0DFB1DF5
:104BE000808191816DEF74E1273010F067E87DE0FE
:104BF0000E94A21CC82E8FEFC81649F08DE2809F3C
:104C0000F001819FF00D1124E55AFC4FC386E1109D
:104C100005C0F394FD1440F5E12C0DC063E0962E21
:104C2000FD1408F02BCF83E0E82E52CF94E0E91278
:104C3000EECEEE24E394EF2DF0E0EE0FFF1FEA0D31
:104C4000FB1D6081718186E69AE00E9463198F3FA7
:104C500049F09DE2909FF001919FF00D1124E55ADB
:104C6000FC4F8587E11070C0F394FD1408F066C016
:104C7000E12CEF2DF0E0EE0FFF1FEA0DFB1D808110
:104C800091814DE2409F9001419F300D1124F90127
:104C9000E55AFC4F4F012585253008F058C06DEFCF
:104CA00074E10E94A21C8F3F09F456C027E1829F45
:104CB000F0011124E250FD4F9285983041F4978520
:104CC000943029F0F40184858F3F09F445C09DE2BA
:104CD000909FF001919FF00D1124E55AFC4F8487BD
:104CE0008DE2809FF001819FF00D1124E55AFC4F69
:104CF0008585843009F5E48527E1E29FF0011124E0
:104D0000E250FD4F87858430B9F090915A032EEF21
:104D100032E080E0981781F0295E3F4FF901389723
:104D20004081443039F59DE2909FF001919FF00D54
:104D30001124E55AFC4F8487E1101EC0F394FD1442
:104D400008F0DAC0E12C83C044E0E42E5DCE67E8D1
:104D50007DE00E94A21CB8CF8DE2809FF001819F70
:104D6000F00D1124E55AFC4F8585853009F0B8CF48
:104D70008FEFB5CF8F5FCECF25E0E22EFD1408F088
:104D8000A7CE58E0E512A4CEEE24E394EF2DF0E098
:104D9000EE0FFF1FEA0DFB1D808191810E944423CD
:104DA0006F3FEFEF7E078E079E0729F12DE2209FD0
:104DB000F001219FF00D1124E55AFC4F268537851F
:104DC00040895189232B242B252B49F0643671050A
:104DD0008105910520F464E670E080E090E02DE22A
:104DE000209FF001219FF00D1124E55AFC4F668BA6
:104DF000778B808F918F8DE2809FF001819FF00DE6
:104E00001124E55AFC4F86859785A089B189892BA5
:104E10008A2B8B2B89F086899789A08DB18D84365A
:104E20009105A105B10540F484E690E0A0E0B0E072
:104E3000868B978BA08FB18FEE2009F497C028E066
:104E4000E22E46CE36E0E31286C0EE24E394EF2D48
:104E5000F0E0EE0FFF1FEA0DFB1D808191810E94A3
:104E6000FC0B97FD6EC0DC01CB018E3F4FEF94072A
:104E7000A4074FE3B40724F08DEF9FEFAFEFBFE33C
:104E80002DE2209FF001219FF00D1124E55AFC4FE7
:104E900086879787A08BB18B892B8A2B8B2B51F11F
:104EA000828D938DA48DB58D84369105A105B105B4
:104EB00040F484E690E0A0E0B0E0828F938FA48F6E
:104EC000B58F8DE2809FF001819FF00D1124E55A8E
:104ED000FC4F86899789A08DB18D84369105A105F7
:104EE000B10540F484E690E0A0E0B0E0868B978BBB
:104EF000A08FB18FE1102AC0F394FD1490F5E12C3E
:104F0000EF2DF0E0EE0FFF1FEA0DFB1D8081918178
:104F10000E9444236F3F5FEF75078507950761F097
:104F20002DE2209FF001219FF00D1124E55AFC4F46
:104F3000628B738B848B958BEE2099F037E0E32E98
:104F4000C7CD8EEF9FEFAFEFBFE39ACF86E0E82E9D
:104F5000FD1408F01ECEE7E0EE1213CFEE24E3942A
:104F6000CFCFF394E12CFD1408F410CFF394E12C8F
:104F7000FD1408F4B5CDF394FD1408F00ACE8F2D7E
:104F800090E0880F991FA80EB91EF501A080B1808E
:104F9000412C66246394712CF5018081882309F4E7
:104FA00049C06501F60181917F01882309F442C05F
:104FB000082E000C990B0E948930892BB9F55701F6
:104FC000F70181914F01882339F0082E000C990BCD
:104FD0000E948930892B61F1EC18FD08F0E1EF1691
:104FE000F1041CF04FE0E42EF12CA701B601CE0134
:104FF00001960E94CC3221E030E02C0F3D1FE20EE2
:10500000F31EF7011082B9018EE39AE00E94631942
:105010008F3F11F2930102C0220F331F8A95E2F7EE
:10502000422ABACF2AE0E212B4CDA9CF6701BACFA3
:105030007401C5CF3FEF431609F4ABCD8DE2809FDD
:10504000F001819FF00D1124E55AFC4F468EA1CD51
:1050500041E0E41215CD9924939492E0F92EE0CC2E
:1050600092E0E92ED1CCCF92DF92EF92FF920F9394
:105070001F93CF93DF936623C1F0DA01ED91FC918A
:1050800090819F3391F0282F30E0F901EE0FFF1F40
:10509000E20FF31FE258FE4F128114FD06C091E0AB
:1050A0008F3009F490E0992351F0DF91CF911F9157
:1050B0000F91FF90EF90DF90CF900C94A017EA0132
:1050C000B8E28B9FC0011124825E904F0E94C00BFA
:1050D00085E19EE00E94C00B8881998113FF26C064
:1050E0000E94E52E97FF03C060E070E0CB0116162A
:1050F00017061806190624F461E070E080E090E0DD
:105100006093C8047093C9048093CA049093CB043D
:105110000E94EA1682E19EE0DF91CF911F910F91EC
:10512000FF90EF90DF90CF900C94C00BEC01C12C5E
:10513000D12C7601E991EE23D1F00E2E000CFF0B5D
:10514000F097EA30F10598F4AAE0B0E0A7019601E3
:105150000E94E7318F01FF0F220B330B060F171F41
:10516000281F391F0C151D052E053F05C8F4C70162
:10517000B601611571058105910521F061E070E0CE
:1051800080E090E06093C8047093C9048093CA04DF
:105190009093CB044AE00E949B168FE09EE0BCCF28
:1051A00068017901C7CFAF92BF92CF92DF92EF92A1
:1051B000FF920F931F93CF93DF93C62F7A01611154
:1051C00049C0D091C304DD23D1F10BE513E0EE24F7
:1051D000E394F12C8C2F0E941915D82E8EE495E0C3
:1051E0000E94C00BC7010E9416178BE495E00E9435
:1051F000C00B8D2D0E941C17F80183A580FF04C0F1
:1052000089E495E00E94C00BF80183A581FF04C0EA
:1052100087E495E00E94C00B84E395E00E94C00BF8
:10522000C8010E94DF1685EF94E00E94C00BCF5F9B
:10523000FFEFEF1AFF0A035D1F4FDC13CBCFDF91A7
:10524000CF911F910F91FF90EF90DF90CF90BF9083
:10525000AF90089567E87DE0FA01808191810E9416
:10526000A21C182F8EEB95E01F3FC1F1A12EB12C8F
:10527000C23008F03FC0812F0E941915C82F8EE55B
:1052800095E00E94C00BC50101960E9416178BE5A0
:1052900095E00E94C00B8C2F0E941C178DE28A9D06
:1052A000F0018B9DF00D1124E55AFC4F83A580FF82
:1052B00004C089E595E00E94C00B8DE28A9DF00153
:1052C0008B9DF00D1124E55AFC4F83A581FF04C08E
:1052D00087E595E00E94C00B84E595E0DF91CF91D2
:1052E0001F910F91FF90EF90DF90CF90BF90AF9004
:1052F0000C94C00BF70182819381FC012081022E66
:10530000000C330B205331092A30310578F50E9407
:10531000E52E6B017C018FE895E0FFEFCF16D104FD
:10532000E104F104D9F2D701C6010297A109B1093C
:105330008F3F2FEF9207A207B20709F466C0FCF473
:105340008E3F9F4FAF4FBF4F09F443C087E695E0B4
:105350000E94C00BF601EE0FFF1FEC5CFE4F808138
:1053600091810E94DF1684E695E0B8CF6BE075E18D
:105370000E94A21CC82ED12CF12CE12CCCCF00977E
:10538000A105B10531F10197A105B105F9F68DE24D
:105390008A9DF0018B9DF00D1124E55AFC4F878DFD
:1053A00090A1A1A1B2A18E3F9F4FAF4FBF4F70F20E
:1053B0000E947D0AAB01BC01812FDF91CF911F912B
:1053C0000F91FF90EF90DF90CF90BF90AF900C9433
:1053D0000D138DE28A9DE0018B9DD00D1124C55ADD
:1053E000DC4F8F8D98A1A9A1BAA18F3F9F4FAF4FDE
:1053F000BF4F0CF4ABCF8E8D80688E8F812F0E94B3
:1054000087148E8D8F778E8F1ACF8DE28A9DF00153
:105410008B9DF00D1124E55AFC4F878D90A1A1A121
:10542000B2A18E3F9F4FAF4FBF4F09F08FCF812F5B
:10543000DF91CF911F910F91FF90EF90DF90CF9070
:10544000BF90AF900C94020E1F920F920FB60F9266
:1054500011242F933F938F939F93AF93BF9380918A
:10546000720590917305A0917405B0917505309106
:10547000710523E0230F2D3758F50196A11DB11DAD
:10548000209371058093720590937305A093740522
:10549000B09375058091760590917705A091780578
:1054A000B09179050196A11DB11D80937605909369
:1054B0007705A0937805B0937905BF91AF919F913F
:1054C0008F913F912F910F900FBE0F901F901895C5
:1054D00026E8230F0296A11DB11DD2CF1F920F9275
:1054E0000FB60F9211242F933F934F935F936F93B7
:1054F0007F938F939F93AF93BF93EF93FF93E0912D
:105500000401F09105010995FF91EF91BF91AF91D1
:105510009F918F917F916F915F914F913F912F91CB
:105520000F900FBE0F901F9018951F920F920FB6FD
:105530000F9211242F933F934F935F936F937F9319
:105540008F939F93AF93BF93EF93FF93E0910201EB
:10555000F09103010995FF91EF91BF91AF919F9158
:105560008F917F916F915F914F913F912F910F900C
:105570000FBE0F901F9018951F920F920FB60F92AB
:1055800011242F933F934F935F936F937F938F9348
:105590009F93AF93BF93EF93FF938AE795E00E94A9
:1055A000510BFF91EF91BF91AF919F918F917F919F
:1055B0006F915F914F913F912F910F900FBE0F9080
:1055C0001F9018951F920F920FB60F9211242F93D0
:1055D0008F939F93EF93FF93E0918A05F0918B0552
:1055E0008081E0919005F091910582FD1BC0908132
:1055F000809193058F5F8F7320919405821741F0FE
:10560000E0919305F0E0E658FA4F958F809393056B
:10561000FF91EF919F918F912F910F900FBE0F905F
:105620001F9018958081F4CF1F920F920FB60F92A2
:1056300011242F933F934F935F936F937F938F9397
:105640009F93AF93BF93EF93FF93E0910701F09186
:1056500008010995FF91EF91BF91AF919F918F91B3
:105660007F916F915F914F913F912F910F900FBE5E
:105670000F901F9018951F920F920FB60F92112442
:105680002F933F934F935F936F937F938F939F934A
:10569000AF93BF93CF93DF93EF93FF93C09101013B
:1056A00080915A03C817B8F49091780080917900DE
:1056B00089279827892727E1C29FE0011124C2503A
:1056C000DD4F998B888B0E947D0A6A8B7B8B8C8B3C
:1056D0009D8B81E08E8BFF91EF91DF91CF91BF91F8
:1056E000AF919F918F917F916F915F914F913F917A
:1056F0002F910F900FBE0F901F901895CF93DF93AF
:1057000000D01F92CDB7DEB7789484B5826084BD97
:1057100084B5816084BD85B5826085BD85B58160B5
:1057200085BD80916E00816080936E001092810033
:1057300080918100826080938100809181008160EE
:1057400080938100809180008160809380008091AF
:10575000B10084608093B1008091B000816080933B
:10576000B00080917A00846080937A0080917A0002
:10577000826080937A0080917A00816080937A00C1
:1057800080917A00806880937A001092C100E09145
:105790008A05F0918B0582E08083E0918605F09187
:1057A00087051082E0918805F091890513E0108348
:1057B00010929205E0918E05F0918F0586E080832E
:1057C000E0918C05F0918D05808180618083E0916E
:1057D0008C05F0918D05808188608083E0918C0537
:1057E000F0918D05808180688083E0918C05F09137
:1057F0008D0580818F7D808386EE9EE00E94C00BA8
:1058000083E090E00E94161784EE9EE00E94C00B99
:1058100082E090E00E94161782EE9EE00E94C00B8C
:1058200087E290E00E9416178FED9EE00E94C00B69
:105830008BEB9EE00E94C00B90E190938100109250
:10584000800084E08093C70422E13AE73093C604E5
:105850002093C504309387002093860084E18093D1
:10586000810022E033E1309308012093070181E0B9
:1058700080936F0090938100809306011092C4047E
:105880001092C8041092C9041092CA041092CB045A
:105890000E9431161092C3046FEF80E00E945015F1
:1058A000BE016D5F7F4F90E080E00E949A188B816F
:1058B000833041F01983BE016F5F7F4F90E080E03D
:1058C0000E94A418BE016E5F7F4F81E090E00E94AD
:1058D0009A188A81823049F082E08983BE016F5F25
:1058E0007F4F81E090E00E94A4188B81833091F576
:1058F0008A81823079F582E090E00E94D131D82E01
:1059000024E0281710F414E0D12ED0925A03BEEFF1
:10591000EB2EB2E0FB2E03E010E00E5F1240C12C34
:10592000CD1409F4C3C05701470130E1830E911C27
:10593000C501800F911F0E94D131D5018D935D016A
:10594000A815B905A9F7C394B7E1EB0EF11C0750F0
:105950001109E6CF8DE99EE00E94C00B0E941C1940
:105960000E94E9181092060162E088E00E94CF09C7
:1059700088E00E94780921E0009709F020E0209358
:10598000C404892B81F58FB7F894C0907205D0902C
:105990007305E0907405F09075058FBF88E00E9454
:1059A0007809892B01F52FB7F894809172059091B1
:1059B0007305A0917405B09175052FBF8C199D09D1
:1059C000AE09BF0989389341A105B10538F381E2D9
:1059D00092E00E94DF1650E040E060E080E00E942C
:1059E00049191092C4046FEF80E00E9489158091DC
:1059F000C404811195C06FEF0E942F15F0E06F2E47
:105A0000F0E07F2E8AE795E00E94310B892B09F4A4
:105A100064C18AE795E00E94310B892B09F45DC1CE
:105A20008AE795E00E940F0B182F8091C80490918F
:105A3000C904A091CA04B091CB04892B8A2B8B2B6B
:105A400029F0612F8AE795E00E94730B1A3009F064
:105A50006CC080910901109309018D30D1F280E270
:105A6000F0E0E0E0AEE4B5E001900D928A95E1F758
:105A700010926E05E0904C05F0904D05ECECCE2EAA
:105A8000E4E0DE2E10E000E0D6018D916D010E15F0
:105A90001F050CF065C0082E000C990B0E94893080
:105AA000892B09F45DC00F5F1F4FEECF0E94E615F2
:105AB00083E490E00E94D131982EE7E0E81708F4E3
:105AC00051CF8093C30404E410E00B551340F12C34
:105AD000E12CADE28A2EE914F0F48E9CC0018F9C7B
