:100000000C9400090C94A42A0C947D2A0C942809C1
:100010000C9428090C9428090C9428090C9428099C
:100020000C9428090C9428090C9428090C9428098C
:100030000C9428090C94CB2A0C9428090C942809B8
:100040000C94332A0C9428090C94012A0C94DB2973
:100050000C9428090C940D2C0C9428090C94280954
:100060000C94F22A0C9428094E414E494E49545999
:10007000494E46CDCCCC3D0AD7233C17B7D1387773
:10008000CC2B329595E6241FB14F0A000020410089
:1000900000C84200401C4620BCBE4CCA1B0E5AAED3
:1000A000C59D740D0A00090009000900270900090F
:1000B00027002000696E646578096E616D650970BE
:1000C000696E096D6F646509696E697409746F679B
:1000D000676C650D0A000D0A0020286C6F777C683C
:1000E0006967682900270027005B3020746F203281
:1000F00035355D20005B3020746F20313032335D48
:1001000020005B3020746F20315D20003A20005DBC
:100110003D0070696E5B000D0A005D3D0070696E08
:100120005B0070696E206572726F723A2063616E57
:100130006E6F7420736574207374617465206F66CC
:1001400020696E7075742070696E2E0D0A000D0A9C
:10015000000D0A003A20005D3D0070696E5B007082
:10016000696E206572726F723A20666972737420CC
:10017000617267756D656E742073686F756C64204D
:1001800062652070696E20696E646578206F7220E8
:100190006E616D652E0D0A006C6F772C686967685B
:1001A00000203C746F67676C653E203A203C707796
:1001B0006D3E205B3020746F203235355D0D0A00B6
:1001C000203C696E69743E2020203A203C6F757493
:1001D0007075743E205B3020746F20315D20286C78
:1001E0006F777C6869676829203C70776D3E205B7B
:1001F0003020746F203235355D0D0A00203C6D6F64
:1002000064653E2020203A20286F75747075747CD8
:10021000696E7075747C70756C6C75707C70776DC0
:100220007C616463290D0A005D0D0A00203C706941
:100230006E3E202020203A205B3020746F20005D2D
:100240000D0A00203C6E616D653E2020203A207131
:10025000756F7465642070696E206E616D65205BDA
:10026000005D0D0A00203C696E6465783E20203AEE
:10027000205B3120746F2000206470696E203C691F
:100280006E6465783E7C3C6E616D653E203C7365B6
:100290007474696E673E205B3D5D203C76616C75D1
:1002A000653E3A206368616E6765206F6E652070F9
:1002B000726F70657274790D0A00206470696E2027
:1002C0003C696E6465783E203C6E616D653E203C05
:1002D00070696E3E203C6D6F64653E203C696E69BE
:1002E000743E203C746F67676C653E3A20646566B7
:1002F000696E652070696E0D0A00206470696E2059
:100300002D5B2A5D203A2064656C657465206C6104
:1003100073742070696E20282A203D20616C6C293E
:100320000D0A00206470696E203F202020203A20B2
:1003300073686F7720616C6C2070696E20646566ED
:10034000696E6974696F6E730D0A00436F6D6D613C
:100350006E64206470696E3A20436F6E66696775DB
:1003600072652050696E730D0A006F757470757434
:100370002C696E7075742C70756C6C75702C707740
:100380006D2C616463006E616D652C70696E2C6DFF
:100390006F64652C696E69742C746F67676C650097
:1003A0006572726F723A206E6F206D6F7265206E8B
:1003B00065772070696E732063616E2062652064CA
:1003C0006566696E65642E20747970652027706992
:1003D0006E2720746F2073656520646566696E659D
:1003E000642070696E732E0D0A0020666972737442
:1003F0002E0D0A0070696E20617267756D656E74EE
:10040000206572726F723A20706C6561736520644A
:100410006566696E652070696E200070696E206186
:100420007267756D656E74206572726F723A2066C0
:100430006972737420617267756D656E742073687C
:100440006F756C642062652070696E20696E6465EA
:1004500078206F72206E616D652E20747970652032
:100460002770696E2720746F207365652064656648
:10047000696E65642070696E732E0D0A00206465D4
:100480006C657465642E0D0A0070696E2000616CE5
:100490006C2070696E732064656C657465642E0DE4
:1004A0000A00270D0A0027000900090009000900B9
:1004B000090009000900090009000900696E646566
:1004C00078096E616D650974726967676572097391
:1004D0006F7572636509616374696F6E0974617227
:1004E00067657409636F756E740964656C61790979
:1004F000757009646F776E096F7074696F6E730D34
:100500000A0027202869646C657C61726D65647CD3
:1005100066696E69736865647C66697265642920C2
:100520002A3A7472696767657265642C202B3A7386
:1005300074617274207472696767657265640D0A0C
:10054000003A205B3020746F20335D5B2A5D5B2BAB
:100550005D2027002B002A005D3D007461736B5BFA
:10056000000D0A002B002A005D3D007461736B5B77
:10057000000D0A006572726F723A207461736B200D
:1005800073746174757320636F756C64206E6F741F
:100590002062652073657420746F20006572726F2D
:1005A000723A207365636F6E6420617267756D6562
:1005B0006E742073686F756C64206265207461735B
:1005C0006B2073746174652E0D0A006572726F7210
:1005D0003A20666972737420617267756D656E7416
:1005E0002073686F756C64206265207461736B2082
:1005F000696E646578206F72206E616D652E0D0ADC
:1006000000203C6F7074696F6E733E3A20286172EF
:100610006D2D6F6E2D66696E6973682061726D2D28
:100620006F6E2D7374617274757020696E7465726B
:100630007275707473290D0A00203C646F776E3EEA
:100640002020203A206E5B737C6D737C75735D2077
:10065000646F776E2074696D653A2030206F722068
:100660006265747765656E20313030207573206166
:100670006E642031373A35330D0A00203C75703EE8
:1006800020202020203A206E5B737C6D737C757374
:100690005D2075702074696D653A2030206F72207E
:1006A0006265747765656E20313030207573206126
:1006B0006E642031373A35330D0A00203C64656C96
:1006C00061793E20203A206E5B737C6D737C75737C
:1006D0005D2064656C61793A2030206F722062651C
:1006E000747765656E2031303020757320616E64DB
:1006F0002031373A35330D0A00203C636F756E7434
:100700003E20203A205B2D3120746F20313037336A
:100710003734313832305D20726570656174206322
:100720006F756E743A202D3120666F7220636F6E84
:1007300074696E756F75732C203020666F7220732C
:10074000696E676C6520616374696F6E0D0A0020C5
:100750003C7461726765743E203A203C6F7574701A
:1007600075742D70696E3E20286F757470757420D5
:1007700070696E2D696E646578206F722070696E85
:100780002D6E616D6529203C6F75742D7461736BDE
:100790003E20287461736B2D696E646578206F72DA
:1007A000207461736B2D6E616D6529203C616463FB
:1007B0003E20286164632070696E2D696E646578DF
:1007C000206F722070696E2D6E616D6529203C6E00
:1007D0006F6E653E2028290D0A00203C6163746914
:1007E0006F6E3E203A203C6F75747075742D706981
:1007F0006E3E20286C6F777C686967687C746F67D1
:10080000676C6529203C6F75742D7461736B3E2095
:100810002861726D7C73746172747C72657374612B
:1008200072747C73746F707C6B69636B29203C619C
:1008300064633E202861646329203C6E6F6E653ED0
:1008400020286E6F6E65290D0A00203C736F75724B
:1008500063653E203A203C696E7075742D70696E38
:100860003E2028696E7075742070696E2D696E6403
:100870006578206F722070696E2D6E616D6529201C
:100880003C696E2D7461736B3E20287461736B2D0F
:10089000696E646578206F72207461736B2D6E6170
:1008A0006D65290D0A00203C747269676765723EA8
:1008B0003A203C736F6674776172653E20286175DB
:1008C000746F7C6D616E75616C29203C696E70750A
:1008D000742D70696E3E202875707C646F776E7C15
:1008E000616E797C686967687C6C6F7729203C69E8
:1008F0006E2D7461736B3E202873746172747C7307
:10090000746F70290D0A005D0D0A00203C6E616D48
:10091000653E2020203A2071756F746564207461F3
:10092000736B206E616D65205B005D0D0A00203CDD
:10093000696E6465783E20203A205B3120746F2018
:100940000020647461736B203C696E6465783E7C42
:100950003C6E616D653E203C70726F70657274799B
:100960003E205B3D5D203C76616C75653E0D0A0066
:1009700020647461736B203C696E6465783E203C32
:100980006E616D653E203C747269676765723E20DA
:100990003C736F757263653E203C616374696F6E72
:1009A0003E203C7461726765743E203C636F756ED7
:1009B000743E203C64656C61793E203C75703E203D
:1009C0003C646F776E3E203C6F7074696F6E733E4F
:1009D0000D0A0020647461736B202D5B2A5D203A40
:1009E0002064656C657465206C6173742074617338
:1009F0006B20282A203D20616C6C290D0A002064A0
:100A00007461736B203F202020203A2073686F7739
:100A100020616C6C207461736B20646566696E691B
:100A200074696F6E730D0A00436F6D6D616E6420A3
:100A30007461736B3A20646566696E652F64656CDA
:100A4000657465207461736B0D0A0061726D2D6FA2
:100A50006E2D66696E6973682C61726D2D6F6E2DD7
:100A6000737461727475702C696E746572727570CE
:100A70007473006E6F6E652C6C6F772C6869676895
:100A80002C746F67676C652C6164632C73746F7072
:100A90002C73746172742C726573746172742C613E
:100AA000726D2C6B69636B006572726F723A206EA7
:100AB0006F206D6F7265206E6577207461736B7344
:100AC0002063616E20626520637265617465642EC7
:100AD0000D0A002066697273742E0D0A007461732A
:100AE0006B20617267756D656E74206572726F72CE
:100AF0003A20706C6561736520646566696E652077
:100B00007461736B20007461736B20617267756D23
:100B1000656E74206572726F723A206669727374C2
:100B200020617267756D656E742073686F756C6493
:100B3000206265207461736B20696E646578206F34
:100B400072206E616D652E20747970652027746146
:100B5000736B2720746F2073656520646566696E0A
:100B60006564207461736B732E0D0A002064656CDC
:100B7000657465642E0D0A007461736B2000616CEE
:100B80006C207461736B732064656C657465642E8E
:100B90000D0A0061726D20617267756D656E74205B
:100BA0006572726F723A206669727374206172673F
:100BB000756D656E742073686F756C642062652056
:100BC0007461736B20696E646578206F72206E614A
:100BD0006D652E207479706520277461736B2720F2
:100BE000746F2073656520646566696E6564207442
:100BF00061736B732E0D0A002061726D65642E0D9A
:100C00000A007461736B2000206973206E6F74207A
:100C100069646C652E0D0A0061726D206572726FD9
:100C2000723A207461736B200064697361726D2085
:100C3000617267756D656E74206572726F723A20AD
:100C4000666972737420617267756D656E74207366
:100C5000686F756C64206265207461736B20696EC7
:100C6000646578206F72206E616D652E20747970D6
:100C70006520277461736B2720746F20736565206E
:100C8000646566696E6564207461736B732E0D0A0A
:100C900000206973206E6F742061726D65642E0D83
:100CA0000A0064697361726D206572726F723A2016
:100CB0007461736B200020737461727465642E0D0F
:100CC0000A007461736B2000206973206E6F7420BA
:100CD00069646C65206F722061726D65642E0D0A07
:100CE0000066697265206572726F723A2074617372
:100CF0006B20006669726520617267756D656E7440
:100D0000206572726F723A20666972737420617224
:100D100067756D656E742073686F756C64206265AD
:100D2000207461736B20696E646578206F72206E29
:100D3000616D652E20747970652027742720746F8B
:100D40002073656520646566696E656420746173EF
:100D50006B732E0D0A000D0A002073746F7070659E
:100D6000642E0D0A007461736B2000616C6C20743A
:100D700061736B732073746F707065642E0D0A005D
:100D80000D0A0020007420000D0A002000702000D1
:100D90002E0D0A007461736B732077726974746529
:100DA0006E2E0D0A00456E746572696E67206F7352
:100DB00063696C6C6F73636F7065206D6F64652E13
:100DC0002053656E6420616E79206368617261638F
:100DD00074657220746F20656E642E0D0A00726552
:100DE00073657420646F6E652E0D0A000D0A000D88
:100DF0000A003D000D0A003A20005D200020746FBB
:100E000020005B003A20003D005D200020746F2030
:100E1000005B003A20003D003A0D0A00204F757437
:100E200070757473204469676974616C20536967D5
:100E30006E616C73206F7074696F6E616C6C792079
:100E400073796E6368726F6E697A6564207769740E
:100E500068204469676974616C20496E70757420FC
:100E60005369676E616C732E0D0A000D0A002E0027
:100E70002E0075730073006D7300000000002400E5
:100E800027002A0000000000250028002B00000099
:100E900000002300260029000404040404040404C0
:100EA0000202020202020303030303030102040815
:100EB00010204080010204081020010204081020C4
:100EC0000000000800020100000304070000000009
:100ED00000000000726573657474696E6720666156
:100EE00063746F72792064656661756C74732E0D1E
:100EF0000A00656E746572203F20746F207365650B
:100F000020617661696C61626C6520636F6D6D61F3
:100F10006E64730D0A000D0A002E002E004E6956F5
:100F200065724469673A20566572736174696C65CD
:100F3000204469676974616C2050756C7365204347
:100F40006F6E74726F6C6C657220616E6420536397
:100F50006F706520000000000000000000436F6D0E
:100F60006D616E647300000000000000000000006E
:100F7000000000000000000000000000003F000032
:100F800000000000005B6775695D2053686F772083
:100F900073746174757320616E6420636F6D6D612D
:100FA0006E6473000070696E000000000053657489
:100FB00020616E642051756572792050696E2053EE
:100FC00074617475730000000000000000746173A8
:100FD0006B0000000053657420616E6420517565DC
:100FE0007279205461736B205374617475730000BF
:100FF000000000000061726D00000000003C7461A0
:10100000736B3E3A2041726D205461736B00000097
:101010000000000000000000000000000064697390
:1010200061726D00003C7461736B3E3A20446973D9
:1010300061726D205461736B73000000000000004A
:10104000000000000073746172740000003C746161
:10105000736B3E3A205374617274205461736B0059
:101060000000000000000000000000000073746F2A
:1010700070000000005B3C7461736B3E207C20219B
:101080005D3A2053746F70205461736B0000000050
:1010900000000000002E00000000000000526570FB
:1010A0006F7274207374617465206368616E676524
:1010B00073000000000000000000000000000000BD
:1010C0000000000000436F6E6669670000000000CA
:1010D0000000000000000000000000000000000010
:1010E00000000000006470696E0000000044656646
:1010F000696E652050696E73205B5D000000000022
:1011000000000000000000000000000000647461A6
:10111000736B000000446566696E65205461736BF3
:1011200073205B5D00000000000000000000000074
:10113000000000000077726974650000005361765A
:1011400065205461736B7300000000000000000014
:101150000000000000000000000000000073636F4A
:1011600070650000004F7363696C6C6F73636F7020
:1011700065204D6F64650000000000000000000065
:1011800000000000006563686F00000000456368B0
:101190006F20286F66662C6F6E290000000000002B
:1011A00000000000000000000000000000726573F5
:1011B0006574000000466163746F72792052657334
:1011C0006574000000000000000000000000000046
:1011D000000000000068616C740000000048616C51
:1011E0007420616C6C205461736B732028302C3137
:1011F0002900000000000000000000000000502C4A
:1012000011241FBECFEFD8E0DEBFCDBF26E0AAEE8F
:10121000B2E001C01D92AC37B207E1F712E0A0E0E6
:10122000B1E0EEE5F7E602C005900D92AA3EB107E7
:10123000D9F718E0C0E0D9E004C02197FE010E9470
:101240006B33CF3FD107C9F70E947D2C0C94AD338F
:101250000C940000AF92BF92CF92DF92EF92FF9278
:101260000F931F93CF93DF936C017B018B01040FCE
:10127000151FEB015E01AE18BF08C017D10759F06A
:101280006991D601ED91FC910190F081E02DC601AC
:101290000995892B79F7C501DF91CF911F910F91A6
:1012A000FF90EF90DF90CF90BF90AF900895FC013A
:1012B000538D448D252F30E0842F90E0821B930BBB
:1012C000541710F0CF96089501970895FC01918D61
:1012D000828D981761F0A28DAE0FBF2FB11D5D9664
:1012E0008C91928D9F5F9F73928F90E008958FEF06
:1012F0009FEF0895FC01918D828D981731F0828DBA
:10130000E80FF11D858D90E008958FEF9FEF089510
:10131000FC01918D228D892F90E0805C9F4F821B74
:1013200091098F73992708958DED95E00E948809A2
:1013300021E0892B09F420E0822F089580E090E0DD
:10134000892B29F00E94940981110C9400000895C2
:10135000FC01A48DA80FB92FB11DA35ABF4F2C912A
:10136000848D90E001968F739927848FA689B78921
:101370002C93A089B1898C91837080648C93938D18
:10138000848D981306C00288F389E02D80818F7DBB
:1013900080830895EF92FF920F931F93CF93DF9373
:1013A000EC0181E0888F9B8D8C8D98131AC0E889A1
:1013B000F989808185FF15C09FB7F894EE89FF8970
:1013C0006083E889F98980818370806480839FBF0E
:1013D00081E090E0DF91CF911F910F91FF90EF900E
:1013E0000895F62E0B8D10E00F5F1F4F0F7311271E
:1013F000E02E8C8D8E110CC00FB607FCFACFE88959
:10140000F989808185FFF5CFCE010E94A809F1CF2F
:10141000EB8DEC0FFD2FF11DE35AFF4FF0829FB7CC
:10142000F8940B8FEA89FB8980818062CFCF0F937C
:101430001F93CF93DF938C01D0E0C0E0F801EC0F55
:10144000FD1F6491662341F08DED95E00E94CA096D
:10145000892B11F02196F2CFCE01DF91CF911F9110
:101460000F910895CF93DF93EC01888D8823B9F015
:10147000AA89BB89E889F9898C9185FD03C080819F
:1014800086FD0DC00FB607FCF7CF8C9185FFF2CF1C
:10149000808185FFEDCFCE010E94A809E9CFDF91C1
:1014A000CF910895833081F028F4813099F0823013
:1014B000A9F008958730A9F08830C9F08430B1F4DC
:1014C000809180008F7D03C0809180008F77809312
:1014D0008000089584B58F7784BD089584B58F7D8D
:1014E000FBCF8091B0008F778093B00008958091FA
:1014F000B0008F7DF9CFCF93DF93282F30E0F90133
:10150000E054F14F8491F901E455F14FD491F90180
:10151000E856F14FC491CC23A1F081110E94520AE8
:10152000EC2FF0E0EE0FFF1FE257F14FA591B491C1
:10153000EC91ED2381E090E009F480E0DF91CF9120
:10154000089580E090E0FACF1F93CF93DF93282F88
:1015500030E0F901E054F14F8491F901E455F14F85
:10156000D491F901E856F14FC491CC23A9F0162F7C
:1015700081110E94520AEC2FF0E0EE0FFF1FEC5792
:10158000F14FA591B4918FB7F894EC91111108C067
:10159000D095DE23DC938FBFDF91CF911F9108950B
:1015A000DE2BF8CFCF93DF9390E0FC01E455F14FB1
:1015B00024918856914FFC0184918823C9F090E0D2
:1015C000880F991FFC01E658F14FA591B491FC01D9
:1015D000EC57F14FC591D49161110DC09FB7F894AC
:1015E0008C91209582238C938881282328839FBF08
:1015F000DF91CF910895623051F49FB7F8943C91F8
:10160000822F809583238C93E8812E2BEFCF8FB789
:10161000F894EC912E2B2C938FBFEACF1F93CF938E
:10162000DF93182FEB0161E00E94D20A209739F472
:1016300060E0812FDF91CF911F910C94A40ACF3FDE
:10164000D10511F461E0F5CFE12FF0E0E054F14F66
:10165000E491E33031F140F4E130B1F0E230E1F017
:10166000C038D1057CF7E4CFE73029F1E83059F1F3
:10167000E430B1F780918000806280938000D09345
:101680008B00C0938A0004C084B5806884BDC7BD48
:10169000DF91CF911F91089584B5806284BDC8BD4C
:1016A000F7CF80918000806880938000D09389007C
:1016B000C0938800EDCF8091B00080688093B00027
:1016C000C093B300E5CF8091B00080628093B000FA
:1016D000C093B400DDCF8E3008F08E5087708064E8
:1016E00080937C0080917A00806480937A0080915E
:1016F0007A0086FDFCCF8091780090917900089562
:101700003FB7F8948091600390916103A0916203C8
:10171000B091630326B5A89B05C02F3F19F0019631
:10172000A11DB11D3FBFBA2FA92F982F8827BC013B
:10173000CD01620F711D811D911D42E0660F771F63
:10174000881F991F4A95D1F70895E82FF0E0882364
:1017500059F0813059F0EE0FFF1FE45DFE4F88EB2A
:101760009BE0918380830895E898F5CFE998F3CFC3
:101770000895E82FF0E0EE0FFF1FE45DFE4F718348
:101780006083813041F0809169008C7F482B4093C9
:101790006900E89A089580916900837F440F551F7E
:1017A000440F551F482B40936900E99A08952091F2
:1017B0001503260F3327331F21323105ECF4209116
:1017C0003903FC0190E080E0243069F082E0089564
:1017D000A09115032191AC014B505D4FA40FB52F83
:1017E000B11D2C930196861798F380911503680F0D
:1017F0006093150380E0089581E0089508958FEFC8
:101800009FEF08958FEF9FEF08958091EE0290E093
:101810009195819591090895CF93DF93CB01EA01CA
:10182000642F0E94D70BCE01DF91CF910895CF9303
:10183000DF931F92CDB7DEB7698361E0CE010196D9
:101840000E94D70B81E090E00F90DF91CF91089537
:1018500090E080E008958F929F92AF92BF92CF92D6
:10186000DF92EF92FF920F931F93CF93DF93EC01E0
:10187000888110E08D3211F4219611E08881082EC4
:10188000000C990BC0970A9710F500E0C12CD12CE1
:101890007601FE01E00FF11DE0810E2E000CFF0B22
:1018A000F097EA30F105C0F4AAE0B0E0A701960194
:1018B0000E94B9324F01FF0FAA08BB08860E971E7F
:1018C000A81EB91E8C149D04AE04BF04B4F4CC242D
:1018D000CA94DC2C760102C0111113C0C701B601F5
:1018E000DF91CF911F910F91FF90EF90DF90CF90FC
:1018F000BF90AF909F908F9008950F5F7501640126
:10190000C8CFF094E094D094C094C11CD11CE11CC9
:10191000F11CE4CF8F929F92AF92BF92CF92DF9251
:10192000EF92FF921F93CF93DF93EC0110E0C12C55
:10193000D12C7601FE01E10FF11DE0810E2E000C8D
:10194000FF0BF097EA30F105D8F4AAE0B0E0A70168
:1019500096010E94B9324F01FF0FAA08BB08860EFC
:10196000971EA81EB91E8C149D04AE04BF0420F05F
:101970001F5F75016401DECFCC24CA94DC2C760194
:10198000C701B601DF91CF911F91FF90EF90DF90DB
:10199000CF90BF90AF909F908F9008951F93CF935B
:1019A000DF93172FD82FC92F8DED95E00E94CA091C
:1019B000612F8DED95E00E94CA096D2F8DED95E0A8
:1019C0000E94CA096C2F8DED95E0DF91CF911F9198
:1019D0000C94CA090F931F93CF93DF9310E007E194
:1019E0008091C003181760F5019FE0011124CC59C4
:1019F000DC4F8A898823C9F01A8A8F85612F843049
:101A0000B1F48DED95E00E94CA09688979897695CF
:101A10006795769567958DED95E00E94CA096B896B
:101A20007C898D899E890E94CE0C1F5FD9CF8DED58
:101A300095E00E94CA098A850E947B0A682FEBCF35
:101A4000DF91CF911F910F91089508951F93CF9328
:101A5000DF93EC01162F8F85882391F08330A1F05E
:101A60000E94800B6B8B7C8B8D8B9E8B612F70E02B
:101A7000798B688B81E08A8BDF91CF911F910895DC
:101A80008A850E94A40AECCF662339F01D85612F58
:101A900070E08A850E940E0BE3CF1C85F8CFDC0135
:101AA0001A968C911A9790E0823021F09FEF833044
:101AB00009F491E01F96EC911F97E43091F0F0E06B
:101AC000EE59FE4F2081213061F09F3F51F090E0B0
:101AD000823021F09FEF833009F491E01E969C93B1
:101AE00008958FEF1E968C9308958F3F59F0909133
:101AF0002905891750F42DE2829FC00111248F53CC
:101B00009C4F08958CEA91E0089590E080E008955C
:101B1000282F30E09DE2899FF0011124EF53FC4F04
:101B200013A692859250933088F540912905A1EC37
:101B3000B3E090E03B96491781F09B965C919B97B0
:101B4000533041F4981731F060811B965C911B97DC
:101B50006517E1F09F5F9D96EECF8DE2829FF001C9
:101B6000839FF00D1124EF53FC4FE38587E1E89F3D
:101B7000F0011124EC59FC4F8285823029F083302A
:101B800029F481E00C94A50B80E0FCCF0895FC01C2
:101B9000808187FD8FBF0895FC019FB7908397FFD9
:101BA00001C0F8940895EF92FF920F931F93CF9383
:101BB000DF931F92CDB7DEB7E82EF12C9DE2899F0F
:101BC000F0011124EF53FC4F93A5933011F40E94C0
:101BD000880DCE0101960E94CC0D8DE28E9D800174
:101BE0008F9D100D11240F531C4F8EEF9FEFAFEF01
:101BF000BFEFF801878F90A3A1A3B2A3CE010196F6
:101C00000E94C70D81E0F80184A70F90DF91CF916A
:101C10001F910F91FF90EF9008951F93CF93DF9343
:101C2000182FC82FD0E02DE2829FF0011124EF532E
:101C3000FC4F8FEF9FEFDC01878F90A3A1A3B2A38E
:101C4000868D82FB992790F993A791E094A79285BE
:101C50009530A9F4E38527E1E29FF0011124EC59C6
:101C6000FC4F20893189232BC1F00E94800BAB01EE
:101C7000BC01812FDF91CF911F910C941D139630E1
:101C800009F04CC0E38527E1E29FF0011124EC59F3
:101C9000FC4F20893189232B41F382FF66C08EEFF0
:101CA000890F833008F04CC08DE28C9FF0018D9F2E
:101CB000F00D1124EF53FC4FE38587E1E89FF0011D
:101CC0001124EC59FC4F26852F3F09F44EC0828524
:101CD000823041F18330B9F481E0E22FF0E0EE0F81
:101CE000FF1FE651FD4F1083918343E050E0923097
:101CF00031F041E050E0933011F442E050E0222313
:101D000099F02130C1F08DE28C9FF0018D9FF00D94
:101D10001124EF53FC4F83E083A727C0992309F4D4
:101D2000A4CFBBCF80E0D9CF91E09CBB6BE375E142
:101D30000E94B90BE8CF92E09CBB63E375E1F8CF5A
:101D40009750923090F4EDE2EC9FD001ED9FB00DF2
:101D50001124AF53BC4F1B968C91E89FF0011124C6
:101D6000EF53FC4F868D82FDCECFDF91CF911F9137
:101D700008954F925F926F927F928F929F92AF924F
:101D8000BF92CF92DF92EF92FF920F931F93CF9368
:101D9000DF9390902E05911079C08DE2882E9EEFF2
:101DA000492E55245A94652C752C80912905981636
:101DB00008F06CC0C92CD12C8C9CF0018D9CF00DCE
:101DC0001124EF53FC4F878D90A1A1A1B2A1892BC3
:101DD0008A2B8B2B09F058C0868D80FF43C0892D3C
:101DE0000E940D0E01EC13E0F12CE12C8C9CE00123
:101DF0008D9CD00D1124CF53DC4F5E0123E2A20E47
:101E0000B11CA796809129058E151F04E9F1E4F114
:101E1000CE14DF0409F1F801878D90A1A1A1B2A130
:101E20008F3F9F4FAF4FBF4FB9F4F8018285883085
:101E300099F48385891110C0F50140815181628137
:101E4000738188819981AA81BB81480F591F6A1FBC
:101E50007B1F8E2D0E941D13FFEFEF1AFF0A035DFB
:101E60001F4FD0CF83A5833019F4892D0E94880D90
:101E70008C9CF0018D9CF00D1124EF53FC4F478E8C
:101E800050A261A272A2AECF93948FCFDF91CF9177
:101E90001F910F91FF90EF90DF90CF90BF90AF9088
:101EA0009F908F907F906F905F904F9008954F928A
:101EB0005F926F927F928F929F92AF92BF92CF92DA
:101EC000DF92EF92FF920F931F93CF93DF931F92B6
:101ED000CDB7DEB7CE0101960E94CC0D4091290509
:101EE00050E091ECE92E93E0F92EF70190E080E0CC
:101EF0008417950734F4268D2068268F0196BD96A9
:101F0000F7CF01EC13E0D12CC12C812C912C540182
:101F100083948091290590E0C816D906ECF4F80165
:101F2000878E90A2A1A2B2A20E94800BF80143A0CA
:101F300054A065A076A0641975098609970967A35E
:101F400070A781A792A78C2D0E94EF0FFFEFCF1AE9
:101F5000DF0A035D1F4FDDCFE1ECF3E030E020E06E
:101F60008217930739F0468D4068468F2F5F3F4FA9
:101F7000BD96F6CF0E94B90E10E000E080912905D1
:101F800090E00817190734F4802F0E94D30D0F5FDB
:101F90001F4FF4CF30E020E08217930751F0F70194
:101FA000468D4F77468F2F5F3F4FFDE2EF0EF11CBE
:101FB000F3CFCE0101960E94C70D0F90DF91CF9114
:101FC0001F910F91FF90EF90DF90CF90BF90AF9057
:101FD0009F908F907F906F905F904F9008958F9219
:101FE0009F92AF92BF92CF92DF92EF92FF921F9398
:101FF000CF93DF93C82FD0E02DE2829FF001112410
:10200000EF53FC4F878D90A1A1A1B2A1181619061C
:102010001A061B060CF095C0682F61704C015D011B
:1020200021E0821A9108A108B108878E90A2A1A28E
:10203000B2A289288A288B2899F486849784A0885C
:10204000B1882EEF82162FEF9206A2062FE3B2067A
:1020500039F4268D27FD04C0878E90A2A1A2B2A2DA
:102060002DE22C9FF0012D9FF00D1124EF53FC4F1A
:10207000878C90A0A1A0B2A081149104A104B10406
:1020800069F421E024A7C684D784E088F188CD28AC
:10209000CE28CF2819F08095682F61702DE22C9FF3
:1020A000F0012D9FF00D1124EF53FC4F95859530D5
:1020B00008F0BDC024858091C003281788F4E22E63
:1020C000F12C87E1289FA00111244C595C4F9230DC
:1020D00009F45DC008F041C06927913009F457C088
:1020E0008DE28C9FF0018D9FF00D1124EF53FC4F7A
:1020F000478D50A161A172A1141615061606170688
:1021000004F587A190A5A1A5B2A540FD11C14689FE
:102110005789608D718D840F951FA61FB71F2DE203
:102120002C9FF0012D9FF00D1124EF53FC4F0097D1
:10213000A10520E4B20708F000C187A390A7A1A7DA
:10214000B2A7DF91CF911F91FF90EF90DF90CF90DA
:10215000BF90AF909F908F9008959330E1F09430AE
:1021600009F0BECF20932B018E9DF0018F9DF00DC5
:102170001124EC59FC4F82858E3008F08E50877008
:10218000806480937C008FEC80937A00A9CFCA0191
:102190000E94260DA5CF662309F4A2CF8E9DF001E3
:1021A0008F9DF00D1124EC59FC4F87858823B9F0E1
:1021B000833041F10E94800B27E12E9DF0012F9D7D
:1021C000F00D1124EC59FC4F638B748B858B968B2F
:1021D000612F70E0718B608B81E0828B81CF808971
:1021E000918911E0892B09F010E087E18E9DF001C3
:1021F0008F9DF00D1124EC59FC4F612F82850E94B8
:10220000A40AD8CF8089918914851817190609F472
:102210001585612F70E087E18E9DF0018F9DF00D97
:102220001124EC59FC4F82850E940E0BC3CF66230C
:1022300009F456CF868D87FD53CF848530912905CB
:10224000831708F06CC0E82EF12C973009F455C0C4
:1022500040F5953009F460C0963009F448C08DE22D
:102260008E9DD0018F9DB00D1124AF53BC4F8C9F1C
:10227000F0018D9FF00D1124EF53FC4F43A154A1A9
:1022800065A176A187A090A4A1A4B2A4480D591D70
:102290006A1D7B1D93964D935D936D937C939697EA
:1022A0001FCF983009F19930D1F62E9DF0012F9D66
:1022B000F00D1124EF53FC4F478D50A161A172A185
:1022C0004E3F9FEF59076907790749F21416150623
:1022D000160617060CF19DE29C9FF0019D9FF00DE4
:1022E0001124EF53FC4F09C00E940D0EB8CF1814F3
:1022F00019041A041B040CF4B2CF43A154A165A124
:1023000076A187A090A4A1A4B2A4480D591D6A1D6E
:102310007B1D0E941D13A3CF0E944315A0CF8F3FAA
:1023200009F0DECE953009F0DBCE0E94570FD8CEF3
:10233000428D538D648D758DEECE8F5F9F4FAF4F65
:10234000BF4387A390A7A1A7B2A783A194A1A5A1EA
:10235000B6A10197A109B04C83A394A3A5A3B6A3EA
:10236000F0CECF92DF92EF92FF920F931F93CF9315
:10237000DF93C1ECD3E010E000E0809129058017E5
:102380001106F1F0ECF08BA5811116C00E94800BB4
:10239000CBA0DCA0EDA0FEA06C197D098E099F09E1
:1023A000CFA0D8A4E9A4FAA46C157D058E059F05DD
:1023B00018F0802F0E94EF0F0F5F1F4FAD96DDCFFB
:1023C000DF91CF911F910F91FF90EF90DF90CF9011
:1023D00008952F923F924F925F926F927F928F92C9
:1023E0009F92AF92BF92CF92DF92EF92FF920F93A4
:1023F0001F93CF93DF9300D01F92CDB7DEB7CE01EE
:1024000001960E94CC0D8FEF80932A010E94800BD1
:102410001B012C01712CCC24CA94DC2C7601EDE23A
:102420006E2E80912905781608F074C0872C912CA7
:10243000689CF001699CF00D1124EF53FC4F83A5BB
:10244000882309F465C05F012FE1A20EB11C478DFE
:1024500050A161A172A114161506160617060CF0FC
:1024600057C043A154A165A176A107A110A521A53C
:1024700032A5400F511F621F731F4219530964098F
:102480007509CF0183969B838A838F01095D1F4F56
:10249000423351056105710514F5872D0E94EF0F38
:1024A000EA81FB814081518162817381F8018081E1
:1024B0009181A281B381840F951FA61FB71FAC0124
:1024C000BD014219530964097509F50180819181A3
:1024D000A281B381181619061A061B06CCF2689C55
:1024E000F001699CF00D1124EF53FC4F878D90A1F2
:1024F000A1A1B2A1181619061A061B064CF44C1518
:102500005D056E057F0520F470922A016A017B014A
:10251000739487CF80912A018F3F09F441C0F1E87D
:10252000CF16FFEFDF06FFE7EF06F10450F08FEF65
:1025300080932A0160E8C62EDD24DA946FE7E62E48
:10254000F12CD701C60153E0880F991FAA1FBB1FAA
:102550005A95D1F7009721E0A207B10540F421E098
:102560002093330590933205809331050CC000977A
:10257000E8E0AE07B10570F582E080933305D092B4
:102580003205C092310580913105909132059093CA
:10259000870080938600809133058061809381005D
:1025A000CE0101960E94C70D0F900F900F90DF9102
:1025B000CF911F910F91FF90EF90DF90CF90BF9040
:1025C000AF909F908F907F906F905F904F903F90D3
:1025D0002F9008950097F0E4AF07B10558F423E079
:1025E0002093330546E0B695A795979587954A952C
:1025F000D1F7B8CF0097A10521E0B20740F424E05D
:1026000020933305892F9A2FAB2FBB27ABCF25E023
:10261000209333052AE0B695A795979587952A9537
:10262000D1F7A0CF80E18093810080912A018F3F74
:1026300011F00E94EF0F0C94E9114F925F926F928C
:102640007F92AF92BF92CF92DF92FF920F931F9330
:10265000CF93DF931F92CDB7DEB7A82EB12C2DE21A
:10266000829F800111240F531C4FF801968D97FD16
:102670005DC02A013B01F82ECE0101960E94CC0DCF
:10268000F80143A254A265A276A2428953896489C3
:10269000758947A350A761A772A786859785A089EA
:1026A000B189880F991FAA1FBB1F0196A11DB11DDB
:1026B000878F90A3A1A3B2A381E084A7452B462BCB
:1026C000472B19F48A2D0E94EF0F898187FD0E9404
:1026D000E911CE0101960E94C70D01EC13E0D12C47
:1026E000C12C809129058C151D0401F1FCF0AC145E
:1026F000BD04B1F0F801878D90A1A1A1B2A18F3FD7
:102700009F4FAF4FBF4F61F4F8018285873041F48E
:1027100083858F1105C0B301A2018C2D0E941D136A
:10272000FFEFCF1ADF0A035D1F4FDBCF0F90DF9162
:10273000CF911F910F91FF90DF90CF90BF90AF90FE
:102740007F906F905F904F9008957F928F929F92AD
:10275000AF92BF92CF92DF92EF92FF920F931F93AF
:10276000CF93DF9394E6C92E93E0D92E10E000E0DA
:1027700027E1922E882483948091C003801711064C
:1027800009F00CF46AC0F6018785E82FF0E0EE59F5
:10279000FE4F9081913009F45AC0843009F457C03B
:1027A000F60182850E947B0A9C013327909EE001FE
:1027B000919ED00D1124CC59DC4F4889598924179A
:1027C000350709F444C0782E398B288B0E94800B82
:1027D0006B8B7C8B8D8B9E8B8A8A81ECE82E83E0C1
:1027E000F82EB12CA12C6396809129058A151B0423
:1027F00071F16CF1F7019285923010F183858013AD
:102800001FC0478D50A161A172A14F3F5F4F6F4F15
:102810007F4FB1F4933079F050F4923079F04881E1
:1028200059816A817B818A2D0E941D1309C09530D0
:1028300029F09630A1F7772091F302C07110EFCF05
:102840008FEFA81AB80AEDE2EE0EF11CCDCF0F5FA4
:102850001F4FF7E1CF0ED11C8FCFDF91CF911F918A
:102860000F91FF90EF90DF90CF90BF90AF909F902F
:102870008F907F900895CF92DF92EF92FF920F9307
:102880001F93CF93DF9385EA9DE00E94170A0E9471
:10289000800B6B017C016FEF8DED95E00E94CA0902
:1028A0006EEF8DED95E00E94CA09C701B6010E9446
:1028B000CE0C4091C00390E080E037E121E0841726
:1028C00070F4389FF001399FF00D1124EC59FC4F42
:1028D000C38AD48AE58AF68A228B0196F0CF0E94B9
:1028E000EA0CD7E1C0912905CC2319F10E94A51368
:1028F0000E94B1110E94B90E0E94EA0C8DED95E084
:102900000E948809892B71F38DED95E00E9466097C
:102910006FEF8F33B9F58DED95E00E94CA096EEF28
:102920008DED95E00E94CA090E94800B0E94CE0C9A
:10293000D9CF8091C003C81708F7DC9F800111240C
:102940000C591C4FF80182850E947B0A6C017C01A6
:10295000FF24F80180899189E816F90689F06C2F27
:102960008DED95E00E94CA096C2D8DED95E00E94D9
:10297000CA090E94800B0E94CE0CF801F18AE08AFD
:10298000CF5FD7CF8DED95E00E94CA096FEF8DED37
:1029900095E00E94CA090E94800BDF91CF911F91A0
:1029A0000F91FF90EF90DF90CF900C94CE0CCF93CF
:1029B000C82F0E94800BAB01BC01EC2FF0E0EE0FA2
:1029C000FF1FE651FD4F808191812DE2829FF00132
:1029D0001124EF53FC4F238530E0923069F497E1E6
:1029E000929FF001939FF00D1124EC59FC4FA1E050
:1029F000B0E0B18BA08B0CC09330D9F497E1929FDB
:102A0000F001939FF00D1124EC59FC4F118A108AAC
:102A100097E1929FF001939FF00D1124EC59FC4F28
:102A2000438B548B658B768B91E0928BCF910C947A
:102A30001D1397E1929FF001939FF00D1124EC5923
:102A4000FC4F0088F189E02DA1E0B0E0EF2B11F000
:102A5000B0E0A0E097E1929FF001939FF00D112468
:102A6000EC59FC4FC6CF81E00E94A50B81E00E948B
:102A7000D7140C94E91180E00E94A50B80E00E941D
:102A8000D7140C94E9114F925F926F927F92AF929C
:102A9000BF92DF92EF92FF920F931F93CF93DF933A
:102AA0001F92CDB7DEB7D82EA82EB12CCE0101963D
:102AB0000E94CC0D8DE28A9D80018B9D100D11240A
:102AC0000F531C4FF801878D90A1A1A1B2A18F3F98
:102AD0009F4FAF4FBF4F0CF451C0F801868D8068F7
:102AE000868F81E090E0A0E0B0E0878F90A3A1A363
:102AF000B2A30E94800BF80143A054A065A076A069
:102B0000641975098609970967A370A781A792A719
:102B10008D2D0E94EF0FF801868D8F77868FCE0165
:102B200001960E94C70D01EC13E0F12CE12C80917D
:102B300029058E151F0431F12CF1AE14BF04C1F02C
:102B4000F801878D90A1A1A1B2A18F3F9F4FAF4FF8
:102B5000BF4F71F4F8018285883051F483858D115F
:102B600007C00E94800BAB01BC018E2D0E941D137B
:102B7000FFEFEF1AFF0A035D1F4FD9CFCE01019679
:102B80000E94C70D0F90DF91CF911F910F91FF9081
:102B9000EF90DF90BF90AF907F906F905F904F90DD
:102BA00008959091C003891738F427E1829FC001EE
:102BB00011248C599C4F089590E080E00895843052
:102BC00048F4E82FF0E0EE0FFF1FE65AFE4F808139
:102BD000918108958EEA91E008959DE2899FF00128
:102BE0001124EF53FC4F878D90A1A1A1B2A118161B
:102BF00019061A061B062CF08E5F843018F080E050
:102C0000089583E008951F93CF93DF93C82FD62FA5
:102C100080912905C817A0F4681710F0DFEFD80FCE
:102C20001DE2DC1768F01C9FF0011124EF53FC4FEC
:102C3000868D81FF03C08C2F0E940D0ECF5FF1CFD8
:102C4000DF91CF911F910895CF92DF92EF92FF9283
:102C500090912905891760F5691710F06FEF690FDA
:102C6000982F3DE22EEFC22EDD24DA94ED2CFD2CC0
:102C7000691780F0399FF0011124EF53FC4FC78E84
:102C8000D0A2E1A2F2A2268D22FB222720F923A7BF
:102C90009F5FEECF9091300191110AC090912E0567
:102CA000911106C0FF90EF90DF90CF900C94031627
:102CB000FF90EF90DF90CF900895DF92EF92FF9218
:102CC0000F931F93CF93DF939091C003992309F43F
:102CD00048C0691710F06FEF690F082F10E097E1F7
:102CE000899FE0011124CC59DC4FE62EF12C87E1BD
:102CF000D82EE016F106ACF19F858A85E92FF0E029
:102D0000EE59FE4F20812130A9F46C8591110EC03F
:102D10000E94A40A8C8590E0D09EF001D19EF00D17
:102D20001124EC59FC4F918B808B14C070E00E94F1
:102D30000E0BF0CF943091F40E946B0BD09EF001FB
:102D4000D19EF00D1124EC59FC4F208931892817B0
:102D5000390749F70F5F1F4F6796CBCF0E947B0A59
:102D6000EDCFDF91CF911F910F91FF90EF90DF900A
:102D700008950F931F93CF93DF93C4E6D3E010E041
:102D800000E08091C0038017110689F084F0EB8584
:102D9000EF87F0E0EE59FE4F60818A850E94D20AEB
:102DA000CE010E944F0D0F5F1F4F6796EACF8091B3
:102DB0003001811107C06FEFDF91CF911F910F910B
:102DC0000C945D16DF91CF911F910F910895CF93D1
:102DD000DF93CDB7DEB7C554D1090FB6F894DEBF87
:102DE0000FBECDBFFE013D9689E3DF011D928A959E
:102DF000E9F787E0E2E3F1E0DE01119601900D9240
:102E00008A95E1F783E0FE013896DF01282F1D92B5
:102E10002A95E9F792E09B8721E02C8728E0ECE3F4
:102E2000F1E0DE01589601900D922A95E1F719A282
:102E300018A28AA327E0E6E4F1E0DE019F96019064
:102E40000D922A95E1F7FE01F696DF01282F1D92DB
:102E50002A95E9F728E029AF9AAF8093C00385E46B
:102E6000F597A4E6B3E001900D928A95E1F7CB5B6C
:102E7000DF4F0FB6F894DEBF0FBECDBFDF91CF910D
:102E80000C94B916FC0101900020E9F73197AF01CD
:102E9000481B590BBC018DED95E00C942A098F92CB
:102EA0009F92AF92BF920F931F93CF93DF93CDB7B3
:102EB000DEB7A1970FB6F894DEBF0FBECDBF19A243
:102EC000423008F44AE08E010F5D1F4F842E912C92
:102ED000B12CA12CA50194010E944933E62FB90120
:102EE000CA01EA30F4F4E05DD801EE938D01232BA2
:102EF000242B252B79F790E080E0109719F0CD0175
:102F00000E944217A1960FB6F894DEBF0FBECDBF48
:102F1000DF91CF911F910F91BF90AF909F908F90B5
:102F20000895E95CE1CF009711F00C94421790E00E
:102F300080E00895CF92DF92EF92FF92CF93DF93DC
:102F400097FF1BC06B017C016DE28DED95E00E9447
:102F5000CA09EC0166277727CB016C197D098E0918
:102F60009F094AE00E944F178C0F9D1FDF91CF9160
:102F7000FF90EF90DF90CF9008954AE0DF91CF91DE
:102F8000FF90EF90DF90CF900C944F17BC01990FFA
:102F9000880B990B0C949A17682F70E090E080E0F2
:102FA0004AE00C944F17662381F0FA0180819181E9
:102FB0000E948A0C6F3F71058105910521F018F080
:102FC0006FEF7FEFCB016F3F61F486EB91E00E94E2
:102FD000931780912E050E94CC1786E59DE00C94F6
:102FE000170A60932E0561110C94570F6FEF80E064
:102FF0000C9424164F925F926F927F928F929F92C1
:10300000AF92BF92CF92DF92EF92FF926B017C0161
:1030100088EE482E83E0582E612C712CC701A30145
:1030200092010E94493349015A01672B682B692B91
:10303000A9F04AE0C701B6010E944F1782E79EE05F
:10304000FF90EF90DF90CF90BF90AF909F908F90C8
:103050007F906F905F904F900C94170ACA01B9014E
:10306000A30192010E944933672B682B692B41F021
:103070004AE0C501B4010E944F1787E79EE0E0CF08
:10308000C701B60120E432E44FE050E00E9449332A
:10309000CA01B9014AE00E944F1785E79EE0D0CFF0
:1030A000EF92FF920F931F93CF93DF93C82F90E07F
:1030B000FC01EE0FFF1FE80FF91FE959FE4FD28107
:1030C00088E2C89F700111248701035A104FD1FF75
:1030D0000DC0C8010E94170A88E19EE0DF91CF91E0
:1030E0001F910F91FF90EF900C94170A8CEB91E0D9
:1030F0000E949317C7018B5A904F0E94170A81E0D4
:10310000CE3009F480E081115CC0D3FF2FC086E18E
:103110009EE00E94170A60913405709135058091F8
:103120003605909137050E949A1783E19EE00E9430
:10313000170A81E19EE00E94170A60E070E0CB016F
:103140000E949A178CE09EE00E94170A61E070E0EE
:1031500080E090E00E949A1789E09EE00E94170AA2
:10316000C8010E94170A84EF9DE0B8CF87E09EE077
:103170000E94170A609134057091350580913605DB
:10318000909137054AE00E944F1784E09EE00E942C
:10319000170A82E09EE00E94170A4AE060E070E0B1
:1031A000CB010E944F178DEF9DE00E94170A4AE065
:1031B00061E070E080E090E00E944F178AEF9DE0B0
:1031C000CDCF87EF9DE0CACFEF92FF920F931F9371
:1031D000CF93DF9310E007E18091C003181730F51B
:1031E000E12EF12C0E9DE0010F9DD00D1124CC5944
:1031F000DC4F8A898823C1F01A8A8DE89DE00E94FD
:10320000170AC70101960E94C6178BE89DE00E942D
:10321000170A6889798990E080E04AE00E944F1798
:1032200088E89DE00E94170A1F5FD6CFC0E0DDE26C
:1032300080912905C81720F50C2F10E0D09FF001D0
:10324000D19FF00D1124EF53FC4F84A58823B1F0DA
:1032500014A685E89DE00E94170AC80101960E9405
:10326000C61783E89DE00E94170A8C2F0E94ED1577
:103270000E94CC1780E89DE00E94170ACF5FD8CF4C
:1032800080E99DE0DF91CF911F910F91FF90EF902A
:103290000C94170ACF93DF93EB010E94A33288832B
:1032A000CE01DF91CF9108951F93CF93DF9385EDEA
:1032B0008093BC008091F1029091F202A091F30200
:1032C000B091F4020796A11DB11D23E0B695A79514
:1032D000979587952A95D1F72091BC0024FD03C0CE
:1032E0001092390352C04091F1025091F202609164
:1032F000F3027091F402452B462B472B69F300979C
:10330000A105B10541F02AE22A95F1F700C0019725
:10331000A109B109E1CF8091F002C1E0C093EF02B1
:10332000882399F1D091B8001091BA008091BC0027
:103330008A7B8093BC0060E082E10E94A40A60E086
:1033400083E10E94A40A10923903C0933B031092B8
:103350003A0361E082E10E94A40A61E083E10E94F5
:10336000A40A8091B9008E7F8093B9008091B90042
:103370008D7F8093B90088E48093B80085E48093C2
:10338000BC001093BA00D093B800DF91CF911F9189
:103390000895FF920F931F93CF93DF938C01EB015E
:1033A000F8800E94A332F81621F06F2DC8010E9408
:1033B000AB32CE01DF91CF911F910F91FF90089515
:1033C000BF92CF92DF92EF92FF920F931F93CF9312
:1033D000DF937C01EB018B01040F151FB990F701FE
:1033E000C080D180C6010E94A332B81621F06B2D97
:1033F000C6010E94AB32F7018081918101969183D1
:103400008083C017D10751F7DF91CF911F910F91A2
:10341000FF90EF90DF90CF90BF9008950F931F9390
:10342000CF93DF9300D0CDB7DEB783E490E09A83EB
:10343000898341E050E069E275E0CE0101960E9487
:10344000E01910E00DE280912905181768F4109F2B
:10345000B00111246F537C4F4FE150E0CE01019633
:103460000E94E0191F5FEFCF0F900F90DF91CF9177
:103470001F910F9108950E940E1A84E99DE00C940B
:10348000170A0F931F93CF93DF9300D0CDB7DEB70A
:1034900082E090E09A83898341E050E060EC73E041
:1034A000CE0101960E94E01910E007E18091C0036F
:1034B000181768F4109FB00111246C597C4F40E13B
:1034C00050E0CE0101960E94E0191F5FEFCF0F90F0
:1034D0000F90DF91CF911F910F91089510922E05BB
:1034E000109234051092350510923605109237056A
:1034F0000E94E7160E94411A109229056FEF80E0A2
:103500000E9424160E940E1A8EED9DE00C94170A5C
:103510003F924F925F926F927F928F929F92AF9263
:10352000BF92CF92DF92EF92FF920F931F93CF93B0
:10353000DF93CDB7DEB760970FB6F894DEBF0FBE4E
:10354000CDBF5C016B01188AFB0101900020E9F7F7
:103550003197E61BF70B612C712C00E08FE0482EB1
:103560007F01FF249FE0892E912C342C301A432DAB
:1035700050E0B501660D711D81E090E08C0F9D1F3C
:10358000800F911D0E94E72F10E0802F90E0E1E076
:10359000F0E0EC0FFD1FE80FF91F5080552019F0E7
:1035A0002CE2521230C00F30B1F40FE0112389F039
:1035B000612F70E0A401461B570B81E090E08C0F57
:1035C0009D1F680F791FCE0101960E949E33042D26
:1035D000011B630CCACF612F70E0861B970B8E1501
:1035E0009F0561F481E090E08C0F9D1F680F791FAB
:1035F000A701C6010E949033892B49F0739455208E
:1036000021F011E0100F0F5FC0CF77247A94872D3F
:1036100060960FB6F894DEBF0FBECDBFDF91CF919D
:103620001F910F91FF90EF90DF90CF90BF90AF90E0
:103630009F908F907F906F905F904F903F900895F4
:10364000EF92FF920F931F93CF938C01C62F7A01B5
:10365000BA0188E991E00E94881A682F70E090E032
:1036600080E06F3F71058105910571F0F8012785B4
:10367000233099F4613071058105910571F46FEF84
:1036800070E080E090E009C0C7010E942B0C6F3F02
:10369000FFEF7F078F079F0761F0F8012785211152
:1036A0000FC051E0672B682B692B09F450E0852F80
:1036B000C82F8C2FCF911F910F91FF90EF900895FD
:1036C000DC01CB018F3F9105A105B10529F024F064
:1036D0008FEF90E0A0E0B0E0B7FFEACF80E090E0AD
:1036E000DC01E6CF5F926F927F928F929F92AF92B2
:1036F000BF92CF92DF92EF92FF920F931F93CF93DF
:10370000DF93CDB7DEB760970FB6F894DEBF0FBE7C
:10371000CDBF6C015B01742E188AFC011082E12C74
:1037200010E000E09FE0592E2FE0822E912C652CB6
:10373000601A462D50E0B5016E0D711D81E090E0DC
:103740008C0F9D1F800F911D0E94E72FF12CE1E04F
:10375000F0E0EC0FFD1FE00FF11D80818823D1F018
:103760008C3229F50F3029F50FE0FF2089F06F2DFD
:1037700070E0A401461B570B81E090E08C0F9D1F69
:10378000680F791FCE0101960E949E33052D0F19F7
:10379000E60CCDCF0F3041F3171569F080E1C82E4C
:1037A00082E0D82E18C01F5FFF24F394F00E0F5F45
:1037B000CECF1711F8CF0F1910E061E070E06C0F59
:1037C0007D1F6F0D711DA801C6010E949E33F60179
:1037D000E00FF11F1082C60160960FB6F894DEBFAD
:1037E0000FBECDBFDF91CF911F910F91FF90EF9052
:1037F000DF90CF90BF90AF909F908F907F906F9011
:103800005F9008958F929F92AF92BF92CF92DF9276
:10381000EF92FF920F931F93CF93DF93CDB7DEB755
:1038200060970FB6F894DEBF0FBECDBF082FC62E2F
:1038300080912905681718F0CC24CA94C80E8CEB27
:1038400094E00E94170A80912905882309F4F6C0A4
:10385000E02EF12C2DE2029F800111240F531C4F0A
:10386000D12C97E1B92ECE14DF040CF4E7C08CEB19
:1038700091E00E9442178FEFE81AF80AC7010E94F0
:10388000C6178AEB94E00E94170AC8010E9493179A
:1038900088EB94E00E94170AD8011A96EC91F0E0A8
:1038A000EE0FFF1FE050FF4F808191810E94931720
:1038B00086EB94E00E94170AAA24AA94AE0C809189
:1038C0002905A81608F0A8C0F8019285923008F4DE
:1038D000A3C08385973008F09AC09091C0038917E0
:1038E00008F09AC08B9DC00111248C599C4F0E94F6
:1038F000931784EB94E00E94170AD8011D964C910F
:1039000063E77AE0CE0101960E94721B0E94931732
:1039100082EB94E00E94170A80912905A81608F00E
:1039200083C0F80184859585953008F078C0909122
:10393000C003891708F078C08B9DC00111248C59F1
:103940009C4F0E94931780EB94E00E94170AD801C5
:103950001E966D917D918D919C9151976E3FBFEF19
:103960007B078B07BFE39B0719F46FEF7FEFCB015A
:103970000E949A178EEA94E00E94170AF801628961
:103980007389848995890E94FA178CEA94E00E94D1
:10399000170AD80156966D917D918D919C915997FA
:1039A0000E94FA178AEA94E00E94170AF801628DD1
:1039B000738D848D958D0E94FA1788EA94E00E9499
:1039C000170A86EA94E00E94170AD8015E969C9036
:1039D000812CAA24A39480E0992049F1992D9A2161
:1039E00099F0882321F08CEB91E00E949317482DE9
:1039F0006BE47AE0CE0101960E94721B0E9493173D
:103A00008A2D8095982281E08394AA0CE5CF0E94AC
:103A1000750D009709F06BCF80E192E068CF0E94AE
:103A2000750D009709F08DCF80E192E08ACF82EA90
:103A300094E00E94170A035D1F4F15CF60960FB6E2
:103A4000F894DEBF0FBECDBFDF91CF911F910F91D4
:103A5000FF90EF90DF90CF90BF90AF909F908F90AE
:103A60000895DF92EF92FF920F931F93CF93DF930E
:103A7000CDB7DEB760970FB6F894DEBF0FBECDBFEF
:103A8000F82EE62E84EB90E00E94170A8091C00386
:103A9000882309F44CC0E81618F0EE24EA94E80EE6
:103AA00087E1D82EEF1408F442C00F2D10E082EB0E
:103AB00090E00E94170AC80101960E94C6178FEA7B
:103AC00090E00E94170AFD9C800111240C591C4FA4
:103AD000C8010E9493178CEA90E00E94170AF8012F
:103AE00082850E94CC178AEA90E00E94170AF801AA
:103AF00043856AE673E0CE0101960E94721B0E9424
:103B0000931788EA90E00E94170AF80184850E94C2
:103B1000CC1786EA90E00E94170AF80185850E947A
:103B2000CC1783EA90E00E94170AF394BBCF60960B
:103B30000FB6F894DEBF0FBECDBFDF91CF911F91BE
:103B40000F91FF90EF90DF900895EF92FF920F9307
:103B50001F93CF938C017B01C0E0EC2FF0E0EE0FC0
:103B6000FF1FEE0DFF1D608171816115710539F038
:103B7000C8010E948733892B19F0CF5FEECFCFEFBA
:103B80008C2FCF911F910F91FF90EF900895BF92CE
:103B9000CF92DF92EF92FF920F931F93CF93DF9319
:103BA0007C018B01B12C6701CB0CD11CF601C081CB
:103BB0000C2E000CDD0BCE010E945B31892B11F025
:103BC000B394F1CFE0972A97C0F4C6010E948A0C03
:103BD000C62F6F3F09F0C1508C2FF8010995892B32
:103BE00009F4CFEF8C2FDF91CF911F910F91FF90B0
:103BF000EF90DF90CF90BF900895C0E08C2FF80138
:103C00000995009771F3BC01C7010E948733892B86
:103C100049F3CF5FF3CFCF93611107C00E94570FD5
:103C20008BE69DE0CF910C94170A65E77DE0FA01E1
:103C3000808191810E94C71DC82F8F3F79F30E9418
:103C4000431585E69DE00E94170AFDE2CF9FC00163
:103C500011248F539C4F0E94931789E59DE0E2CF7A
:103C60000F931F93CF93DF93611108C083EF9CE004
:103C7000DF91CF911F910F910C94170AFA0165E71C
:103C80007DE0808191810E94C71DC82F8F3F71F315
:103C9000082F10E0DDE2D09FF001D19FF00D11243C
:103CA000EF53FC4F878D90A1A1A1B2A10296A11D57
:103CB000B11D0297A105B10558F081EE9CE00E946C
:103CC000170AC80101960E94C61788EC9CE0D0CF65
:103CD0000E94800BAB01BC018C2F0E941D1382EC53
:103CE0009CE00E94170ACD9FC00111248F539C4F66
:103CF0000E94931786EB9CE0BBCFCF93DF936111BB
:103D000006C089E29CE0DF91CF910C94170AFA017A
:103D100065E77DE0808191810E94C71D8F3F89F317
:103D2000C82FD0E09DE2899FF0011124EF53FC4F92
:103D3000478D50A161A172A14F3F5F4F6F4F7F4FE1
:103D400059F082EA9CE00E94170ACE0101960E9477
:103D5000C61781E99CE0D7CFDF91CF910C94D30DAA
:103D60000F931F93CF93DF93611108C083E99BE00A
:103D7000DF91CF911F910F910C94170AFA0165E71B
:103D80007DE0808191810E94C71DC82F8F3F71F314
:103D9000082F10E0DDE2D09FF001D19FF00D11243B
:103DA000EF53FC4F878D90A1A1A1B2A18E3F9F4FF1
:103DB000AF4FBF4F59F088E19CE00E94170AC8013D
:103DC00001960E94C61788E09CE0D2CF8C2F0E94FB
:103DD0000D0E82E09CE00E94170ACD9FC0011124C5
:103DE0008F539C4F0E94931788EF9BE0C1CF8F9217
:103DF0009F92AF92BF92CF92DF92EF92FF920F937A
:103E00001F93CF93DF93862E7A01662341F0FA0148
:103E100080819181FC0120812F3309F054C08BE413
:103E200093E00E94170A83E293E00E94170A8AEF48
:103E300092E00E94170A8AEB92E00E94170A88E734
:103E400092E00E94170A85E692E00E94170A84E039
:103E500090E00E94C61781E692E00E94170A83E470
:103E600092E00E94170A89E090E00E94C6178FE353
:103E700092E00E94170A8CE292E00E94170A8DE0FD
:103E800090E00E94C61788E292E00E94170A8CEF29
:103E900091E00E94170A80EC91E00E94170A81EAE3
:103EA00091E00E94170A6FEF80E0DF91CF911F91A0
:103EB0000F91FF90EF90DF90CF90BF90AF909F90C9
:103EC0008F900C94311D2D3259F581818A32A1F4E5
:103ED0001092C0038EE894E00E94170ADF91CF9100
:103EE0001F910F91FF90EF90DF90CF90BF90AF9018
:103EF0009F908F900C94411A8091C003882371F396
:103F000081508093C00389E894E00E94170A809151
:103F1000C00390E001960E94C6178DE794E0DCCFC5
:103F200061ED75E10E94C71DC82F8F3F09F06BC07E
:103F3000F701808191810E948A0C6F3F31F0C60F9A
:103F4000CF3F19F0F1E0F81580F08BE194E0DF91BC
:103F5000CF911F910F91FF90EF90DF90CF90BF9086
:103F6000AF909F908F900C94170A8091C0038C178C
:103F700069F084EF93E00E94170A8091C00390E0FB
:103F800001960E94C6178AEE93E0E1CF80E024E616
:103F900033E0C43018F080EA93E0D9CF8C1748F4AE
:103FA000295E3F4FF9013D979081992311F08F5F72
:103FB000F5CF8C1307C027E1C29FF0011124EC5903
:103FC000FC4F12860C2F10E0E7E1CE9FC0011124B8
:103FD0009C012C593C4F6901F7016281738186E88D
:103FE00093E00E94881A8F3F99F0D1E0D80FF2E059
:103FF000F81508F06EC0D13009F033C1BB24B3947A
:1040000072E0972E08C031E03815E0F2682F4DCFEE
:1040100099249394B12CE92DF0E0EE0FFF1FEE0DE3
:10402000FF1D6081718149E050E0C6010E949E330E
:1040300087E1809FF001819FF00D1124EC59FC4F26
:104040001186B11032C0D1E0D90DD81508F410C1D5
:10405000992493949D0E981408F0A1C0D0E0E92D06
:10406000F0E0EE0FFF1FEE0DFF1D608171818AE60B
:1040700093E00E94881A97E1909FF001919FF00DC4
:104080001124EC59FC4F9285843009F081C097309F
:1040900008F0128697E1909FF001919FF00D112496
:1040A000EC59FC4F8387878778C0D92D981408F086
:1040B00009C1DB2DD33009F0A9C0D1E0D0CF6E30DB
:1040C00008F4F6C0BB2021F282E0B82ED81508F41F
:1040D000F9C08091C0038C1304C081E08C0F8093E1
:1040E000C0030E94411A27E1209FC001219F900D2B
:1040F00011249C012C593C4F7901F901D385D787B4
:10410000ED2FF0E0EE59FE4FB0806B2DF901828566
:104110000E94D20AF7018285F1E0BF126DC0F7015B
:104120006485D11165C00E94A40A87E1809FF001D7
:10413000819FF00D1124EC59FC4F848590E0918B08
:10414000808BC6010E944F0D0E94800B27E1209FAB
:10415000F001219FF00D1124EC59FC4F638B748BFF
:10416000858B968B81E0828B6C2F8C2F0E94311D6A
:104170006C2F8C2FDF91CF911F910F91FF90EF90BB
:10418000DF90CF90BF90AF909F908F900C945D1672
:10419000983041F18F3F09F07DCFD11136C0939413
:1041A000D0E09814C8F19394981408F092CF892D18
:1041B00090E0880F991FE80EF91EF70140815181A8
:1041C00027E1209FC001219F900D11249C012C59B3
:1041D0003C4F7901F9016585C6010E94201BF7015A
:1041E000858777CF82E056CFD53009F072CFDFCF09
:1041F00070E00E940E0B99CFD43021F40E946B0B1B
:10420000F7019DCF0E947B0AFBCFD3E0981408F002
:1042100060CFD43049F7D1E0E92DF0E0EE0FFF1F79
:10422000EE0DFF1D4081518127E1209FC001219F9C
:10423000900D11249C012C593C4F5901F9016485C2
:10424000C6010E94201BF50184879785911105C046
:1042500091E0811190E0F5019587DD2309F4A3CF6A
:1042600038CF92E0992ED23009F024CFBB24B394FA
:10427000ED2FF0E0EE0FFF1FEE0DFF1D808191810D
:104280000E948A0C6F3F71058105910521F018F09D
:104290006FEF7FEFCB01683009F011CF87E1809F8E
:1042A000F001819FF00D1124EC59FC4F82E08787CB
:1042B00087E1809FF001819FF00D1124EC59FC4FA4
:1042C000628700CF9D2EDB2DA1CFBF92CF92DF92D0
:1042D000EF92FF920F931F93CF93DF93F62E8A01F5
:1042E000611175C01091C003112309F459C0115018
:1042F000C4E6D3E0F12CE12C07E1670182E191E013
:104300000E94170A8FEFE81AF80AC7010E94C61721
:104310008FE091E00E94170A0C9DF0010D9DF00DB9
:104320001124EC59FC4F6089718990E080E04AE0EB
:104330000E944F178CE091E00E94170AEF85F0E091
:10434000EE0FFF1FE05BFE4F808191810E9493176B
:104350008CEB91E00E9493178F858330A9F150F583
:10436000823068F187EE90E00E94170ACE010E9429
:10437000931785EE90E00E94170A8F85823020F413
:1043800089ED90E00E94170A80E192E00E94931765
:1043900086ED90E00E94170A67961E1508F0ADCFD3
:1043A000DF91CF911F910F91FF90EF90DF90CF9011
:1043B000BF9008958430B1F685EF90E002C082E0AE
:1043C00091E00E94170ACECF89EE90E0FACF61ED1E
:1043D00075E1FA01808191810E94C71D8F3F69F4C8
:1043E0008FE591E0DF91CF911F910F91FF90EF90BA
:1043F000DF90CF90BF900C94170AC82FD0E0F1E067
:10440000FF1568F18AE591E00E94170ACE01019636
:104410000E94C61787E591E00E94170A27E12C9FAA
:10442000C0012D9F900D1124EC01CC59DC4F6889FF
:10443000798990E080E04AE00E944F1784E591E09E
:104440000E94170AEF85F0E0EE0FFF1FE05BFE4FC2
:10445000808191810E94931781E591E0C3CFF8019B
:1044600082819381FC0120812F3391F487E18C9F1D
:10447000F0018D9FF00D1124EC59FC4F608971897A
:1044800090E080E04AE00E944F178EE491E0AACFCE
:1044900027E12C9F80012D9F100D11240C591C4FDA
:1044A000F801B784EB2DF0E0EE59FE4F208121306A
:1044B00019F082E291E096CF0E948A0CF8013285D1
:1044C000B11034C021E0672B682B692B09F420E080
:1044D000C22ED12CF12CE12C622F832F0E94A40A32
:1044E0000E94800B27E12C9FF0012D9FF00D1124DD
:1044F000EC59FC4F638B748B858B968BD18AC08A69
:1045000081E0828B8DE191E00E94170ACE01019635
:104510000E94C6178AE191E00E94170A4AE0C7018B
:10452000B6010E944F1787E191E05CCF6B017C01DF
:10453000FFEFCF16D104E104F10429F020F0C12CE3
:10454000D12C7601CA94B601832F0E940E0BC8CFDE
:10455000FF920F931F93CF93DF93662351F06EEB7F
:1045600071E0DA018D919C910E948733D1E0892B13
:1045700009F0D0E08DE19FE00E94170A83E090E00F
:104580000E94C61780E79EE00E94170A82E090E032
:104590000E94C6178EE69EE00E94170A84E290E011
:1045A0000E94C6178BE69EE00E94170A8CE19EE0EF
:1045B0000E94170A07E611E0C0E0F801F280DD234F
:1045C00011F0F2FC0DC08C2F0E945018F5FE08C0AF
:1045D000D801ED91FC9150E040E060E08C2F09950E
:1045E000CF5F0D5F1F4FC13141F7DF91CF911F9119
:1045F0000F91FF9008958F929F92AF92BF92CF92AA
:10460000DF92EF92FF920F931F93CF93DF93EC0112
:1046100009900020E9F721978C018C179D0789F4F8
:104620006FEF7FEFCB01DF91CF911F910F91FF9043
:10463000EF90DF90CF90BF90AF909F908F900895B4
:10464000E7017E010C171D07D0F4FE0182917F0166
:10465000082E000C990B0E945B31892B89F75E01B3
:104660007501F50182915F01082E000C990B0E94E3
:104670007433892B21F00A151B0590F37501CE19AF
:10468000DF09DD27AE0162EC71E0C7010E949033C3
:10469000812C47E8942E43E9A42E43E0B42E892BC5
:1046A00021F0812C912C54018394AE0167EC71E0D0
:1046B000C7010E949033892B39F420E4822E22E432
:1046C000922E2FE0A22EB12CAE0166EC71E0C70154
:1046D0000E949033892B31F498EE892E93E0992E25
:1046E000A12CB12CAE0169EC71E0C7010E9490339E
:1046F000892B21F4812C912C540183946EE270E07B
:10470000C8010E947C33892B89F1C8010E94B32F14
:104710006B017C01C501B4010E948131A7019601A2
:104720000E94E2310E940A336F3FFFEF7F078F073D
:104730009F0709F475CF611571058105910509F48D
:1047400072CF61157105810520E4920720F06FEFAB
:104750007FEF8FEF9FE3643671058105910508F0C7
:1047600062CF64E670E080E090E05DCFC8010E9417
:104770008A0CA50194010E943933D6CF4F925F92E3
:104780006F927F928F929F92AF92BF92CF92DF9261
:10479000EF92FF920F931F93CF93DF93CDB7DEB7C6
:1047A00060970FB6F894DEBF0FBECDBFD62E5A016C
:1047B000662341F0FA0180819181FC0120812F3331
:1047C00009F055C088E29AE00E94170A8EEF99E03E
:1047D0000E94170A83ED99E00E94170A80E799E08A
:1047E0000E94170A81E499E00E94170A8EE299E07C
:1047F0000E94170A88E090E00E94C6178AE299E0BA
:104800000E94170A8BE099E00E94170A89E090E065
:104810000E94C61787E099E00E94170A86EA98E08E
:104820000E94170A8AE498E00E94170A8AED97E02E
:104830000E94170A8FE497E00E94170A89EF96E01A
:104840000E94170A8BEB96E00E94170A8BE796E00E
:104850000E94170A89E396E00E94170A81E096E019
:104860000E94170A6FEF80E00E94021C21C02D32C7
:10487000B1F581818A3239F4109229058EE79BE0E7
:104880000E94170A15C080912905882389F088E7BE
:104890009BE00E94170A809129050E94CC178CE6A4
:1048A0009BE00E94170A8091290581508093290579
:1048B00060960FB6F894DEBF0FBECDBFDF91CF91EB
:1048C0001F910F91FF90EF90DF90CF90BF90AF902E
:1048D0009F908F907F906F905F904F90089565E7C5
:1048E0007DE00E94C71D582EFFEF8F1329C0F501F0
:1048F000808191810E948A0C6F3F49F055245A941F
:10490000560EFFEF5F1619F021E02D1518F086E026
:104910009BE0B6CF80912905851569F08DED9AE071
:104920000E94170A8091C00390E001960E94C6176A
:1049300083ED9AE0A5CF883040F088EA9AE0A0CFD6
:1049400031E03D1510F0682F8FCF052D10E064E1A8
:1049500071E0F501828193810E94A51DC82EFFEFB1
:104960008F1791F0EE24E394E80E22E02D1508F461
:1049700026C322E0F22EFD1408F0A1C295E0E91250
:1049800018C2EE24E3942CC1FF24F394912CEF2D54
:10499000F0E0EE0FFF1FEA0DFB1D608171818DE2DB
:1049A000E82E5E9CC001112449E050E08F539C4FDB
:1049B0000E949E33E09EF001E19EF00D1124EF5322
:1049C000FC4F118691100DC0EE24E394EF0CED1412
:1049D000A8F0FF24F394FE0CFD1408F0D1C0E12CE4
:1049E000A5C0E92CFD1408F49CC0E92C7EC132E07E
:1049F000E2E0FE2EE31295C099249394EE2DF0E0B0
:104A0000EE0FFF1FEA0DFB1D60E071E080819181D8
:104A10000E94A51DC82E4FEF841749F08DE2809F9C
:104A2000F001819FF00D1124EF53FC4FC2869920B5
:104A300081F2FE2CED1408F0CAC2F2E0EF2EFD1454
:104A400008F05EC089E0E812A4C2EE24E394EF2DE2
:104A5000F0E0EE0FFF1FEA0DFB1D808191810E94A7
:104A6000FB226F3FFFEF7F078F079F0729F12DE2A2
:104A7000209FF001219FF00D1124EF53FC4F26855C
:104A8000378540895189232B242B252B49F0643607
:104A900071058105910520F464E670E080E090E006
:104AA0002DE2209FF001219FF00D1124EF53FC4FC8
:104AB000628F738F848F958F8DE2809FF001819F2D
:104AC000F00D1124EF53FC4F86859785A089B1899D
:104AD000892B8A2B8B2B89F0828D938DA48DB58D9C
:104AE00084369105A105B10540F484E690E0A0E08C
:104AF000B0E0828F938FA48FB58FEE2009F4F2C1BE
:104B000080912905851104C081E0850D80932905D8
:104B1000652D852D0E94021C652D852D0E94241671
:104B2000C7CE53E0E51239C0EE24E3948DE2809FB6
:104B3000F001819FF00D1124EF53FC4F22852230AC
:104B400088F0EF2DF0E0EE0FFF1FEA0DFB1D8081D6
:104B5000918161ED75E1273010F065E77DE00E94FD
:104B6000C71DC82E8FEFC81649F08DE2809FF00157
:104B7000819FF00D1124EF53FC4FC386E11005C057
:104B8000F394FD1440F5E12C0DC063E0962EFD1466
:104B900008F02BCF83E0E82E52CF94E0E912EECE5E
:104BA000EE24E394EF2DF0E0EE0FFF1FEA0DFB1D66
:104BB0006081718183E79AE00E94881A8F3F49F0F3
:104BC0009DE2909FF001919FF00D1124EF53FC4F57
:104BD0008587E11070C0F394FD1408F066C0E12CE5
:104BE000EF2DF0E0EE0FFF1FEA0DFB1D808191819C
:104BF0004DE2409F9001419F300D1124F901EF5388
:104C0000FC4F4F012585253008F058C061ED75E156
:104C10000E94C71D8F3F09F456C027E1829FF00113
:104C20001124EC59FC4F9285983041F497859430CB
:104C300029F0F40184858F3F09F445C09DE2909FDF
:104C4000F001919FF00D1124EF53FC4F84878DE20A
:104C5000809FF001819FF00D1124EF53FC4F85855B
:104C6000843009F5E48527E1E29FF0011124EC5935
:104C7000FC4F87858430B9F09091C00324E633E07F
:104C800080E0981781F0295E3F4FF9013897408105
:104C9000443039F59DE2909FF001919FF00D112471
:104CA000EF53FC4F8487E1101EC0F394FD1408F00D
:104CB000DAC0E12C83C044E0E42E5DCE65E77DE000
:104CC0000E94C71DB8CF8DE2809FF001819FF00D3B
:104CD0001124EF53FC4F8585853009F0B8CF8FEF55
:104CE000B5CF8F5FCECF25E0E22EFD1408F0A7CE22
:104CF00058E0E512A4CEEE24E394EF2DF0E0EE0FA1
:104D0000FF1FEA0DFB1D808191810E94FB226F3FF6
:104D1000EFEF7E078E079E0729F12DE2209FF0011D
:104D2000219FF00D1124EF53FC4F268537854089D4
:104D30005189232B242B252B49F0643671058105DD
:104D4000910520F464E670E080E090E02DE2209F81
:104D5000F001219FF00D1124EF53FC4F668B778BF0
:104D6000808F918F8DE2809FF001819FF00D112443
:104D7000EF53FC4F86859785A089B189892B8A2BB3
:104D80008B2B89F086899789A08DB18D843691050A
:104D9000A105B10540F484E690E0A0E0B0E0868B88
:104DA000978BA08FB18FEE2009F497C028E0E22EF8
:104DB00046CE36E0E31286C0EE24E394EF2DF0E019
:104DC000EE0FFF1FEA0DFB1D808191810E942B0CCD
:104DD00097FD6EC0DC01CB018E3F4FEF9407A40717
:104DE0004FE3B40724F08DEF9FEFAFEFBFE32DE269
:104DF000209FF001219FF00D1124EF53FC4F868777
:104E00009787A08BB18B892B8A2B8B2B51F1828DAD
:104E1000938DA48DB58D84369105A105B10540F41F
:104E200084E690E0A0E0B0E0828F938FA48FB58FEE
:104E30008DE2809FF001819FF00D1124EF53FC4F14
:104E400086899789A08DB18D84369105A105B1051C
:104E500040F484E690E0A0E0B0E0868B978BA08FD2
:104E6000B18FE1102AC0F394FD1490F5E12CEF2DE1
:104E7000F0E0EE0FFF1FEA0DFB1D808191810E9483
:104E8000FB226F3F5FEF75078507950761F02DE205
:104E9000209FF001219FF00D1124EF53FC4F628BF6
:104EA000738B848B958BEE2099F037E0E32EC7CD82
:104EB0008EEF9FEFAFEFBFE39ACF86E0E82EFD14B1
:104EC00008F01ECEE7E0EE1213CFEE24E394CFCF2E
:104ED000F394E12CFD1408F410CFF394E12CFD14AD
:104EE00008F4B5CDF394FD1408F00ACE8F2D90E0B0
:104EF000880F991FA80EB91EF501A080B180412C22
:104F000066246394712CF5018081882309F449C0DB
:104F10006501F60181917F01882309F442C0082EC2
:104F2000000C990B0E945B31892BB9F55701F701F1
:104F300081914F01882339F0082E000C990B0E94B3
:104F40005B31892B61F1EC18FD08F0E1EF16F104FB
:104F50001CF04FE0E42EF12CA701B601CE01019622
:104F60000E949E3321E030E02C0F3D1FE20EF31E25
:104F7000F7011082B9018BE49AE00E94881A8F3FF2
:104F800011F2930102C0220F331F8A95E2F7422AE1
:104F9000BACF2AE0E212B4CDA9CF6701BACF74012B
:104FA000C5CF3FEF431609F4ABCD8DE2809FF001F2
:104FB000819FF00D1124EF53FC4F468EA1CD41E0AF
:104FC000E41215CD9924939492E0F92EE0CC92E06E
:104FD000E92ED1CCCF92DF92EF92FF920F931F93E5
:104FE000CF93DF936623C1F0DA01ED91FC919081BC
:104FF0009F3391F0282F30E0F901EE0FFF1FE20FF1
:10500000F31FE959FE4F128114FD06C091E08E3066
:1050100009F490E0992351F0DF91CF911F910F9106
:10502000FF90EF90DF90CF900C945018EA01B8E217
:105030008B9FC00111248B5A904F0E94170A82EF58
:105040009DE00E94170A8881998113FF26C00E9463
:10505000B72F97FF03C060E070E0CB01161617066C
:105060001806190624F461E070E080E090E0609397
:1050700034057093350580933605909337050E946B
:105080009A178FEE9DE0DF91CF911F910F91FF90C6
:10509000EF90DF90CF900C94170AEC01C12CD12C2B
:1050A0007601E991EE23D1F00E2E000CFF0BF09764
:1050B000EA30F10598F4AAE0B0E0A70196010E9459
:1050C000B9328F01FF0F220B330B060F171F281F5A
:1050D000391F0C151D052E053F05C8F4C701B60183
:1050E000611571058105910521F061E070E080E0B6
:1050F00090E0609334057093350580933605909366
:1051000037054AE00E944F178CEE9DE0BCCF680146
:105110007901C7CFAF92BF92CF92DF92EF92FF9209
:105120000F931F93CF93DF93C62F7A01611149C06C
:10513000D0912905DD23D1F101EC13E0EE24E394B5
:10514000F12C8C2F0E94ED15D82E8BE595E00E9456
:10515000170AC7010E94C61788E595E00E94170A42
:105160008D2D0E94CC17F80183A580FF04C086E531
:1051700095E00E94170AF80183A581FF04C084E529
:1051800095E00E94170A81E495E00E94170AC80181
:105190000E94931782E095E00E94170ACF5FFFEF0D
:1051A000EF1AFF0A035D1F4FDC13CBCFDF91CF91C6
:1051B0001F910F91FF90EF90DF90CF90BF90AF9035
:1051C000089565E77DE0FA01808191810E94C71D05
:1051D000182F8BEC95E01F3FC1F1A12EB12CC230EE
:1051E00008F03FC0812F0E94ED15C82F8BE695E097
:1051F0000E94170AC50101960E94C61788E695E02D
:105200000E94170A8C2F0E94CC178DE28A9DF00114
:105210008B9DF00D1124EF53FC4F83A580FF04C03C
:1052200086E695E00E94170A8DE28A9DF0018B9D2B
:10523000F00D1124EF53FC4F83A581FF04C084E6D9
:1052400095E00E94170A81E695E0DF91CF911F91CA
:105250000F91FF90EF90DF90CF90BF90AF900C94A4
:10526000170AF70182819381FC012081022E000C34
:10527000330B205331092A30310578F50E94B72FBE
:105280006B017C018CE995E0FFEFCF16D104E104BE
:10529000F104D9F2D701C6010297A109B1098F3FE4
:1052A0002FEF9207A207B20709F466C0FCF48E3F05
:1052B0009F4FAF4FBF4F09F443C084E795E00E9472
:1052C000170AF601EE0FFF1FE65AFE4F808191810B
:1052D0000E94931781E795E0B8CF6FED75E10E94CA
:1052E000C71DC82ED12CF12CE12CCCCF0097A105E5
:1052F000B10531F10197A105B105F9F68DE28A9D5D
:10530000F0018B9DF00D1124EF53FC4F878D90A180
:10531000A1A1B2A18E3F9F4FAF4FBF4F70F20E942D
:10532000800BAB01BC01812FDF91CF911F910F91B9
:10533000FF90EF90DF90CF90BF90AF900C941D1333
:105340008DE28A9DE0018B9DD00D1124CF53DC4F5F
:105350008F8D98A1A9A1BAA18F3F9F4FAF4FBF4F8B
:105360000CF4ABCF8E8D80688E8F812F0E944315F9
:105370008E8D8F778E8F1ACF8DE28A9DF0018B9D57
:10538000F00D1124EF53FC4F878D90A1A1A1B2A184
:105390008E3F9F4FAF4FBF4F09F08FCF812FDF91CF
:1053A000CF911F910F91FF90EF90DF90CF90BF9022
:1053B000AF900C940D0E1F920F920FB60F92112406
:1053C0002F933F934F935F936F937F938F939F930D
:1053D000AF93BF93EF93FF938DED95E00E94A809E3
:1053E000FF91EF91BF91AF919F918F917F916F91BD
:1053F0005F914F913F912F910F900FBE0F901F9093
:1054000018951F920F920FB60F9211242F938F931E
:105410009F93EF93FF93E091ED05F091EE0580816E
:10542000E091F305F091F40582FD1BC0908180911D
:10543000F6058F5F8F732091F705821741F0E09199
:10544000F605F0E0E352FA4F958F8093F605FF9151
:10545000EF919F918F912F910F900FBE0F901F9002
:1054600018958081F4CF1F920F920FB60F921124DE
:105470002F933F938F939F93AF93BF9380912A0570
:1054800090912B05A0912C05B0912D0530915F03D3
:1054900023E0230F2D3758F50196A11DB11D209350
:1054A0005F0380932A0590932B05A0932C05B0935E
:1054B0002D058091600390916103A0916203B091EA
:1054C00063030196A11DB11D809360039093610356
:1054D000A0936203B0936303BF91AF919F918F91AB
:1054E0003F912F910F900FBE0F901F90189526E8B7
:1054F000230F0296A11DB11DD2CF1F920F920FB69E
:105500000F9211242F933F934F935F936F937F9349
:105510008F939F93AF93BF93EF93FF93E0912E01EF
:10552000F0912F010995FF91EF91BF91AF919F915C
:105530008F917F916F915F914F913F912F910F903C
:105540000FBE0F901F9018951F920F920FB60F92DB
:1055500011242F933F934F935F936F937F938F9378
:105560009F93AF93BF93EF93FF93E0912C01F09142
:105570002D010995FF91EF91BF91AF919F918F916F
:105580007F916F915F914F913F912F910F900FBE3F
:105590000F901F9018951F920F920FB60F92112423
:1055A0002F933F934F935F936F937F938F939F932B
:1055B000AF93BF93EF93FF93E0912F05F0913005E8
:1055C0000995FF91EF91BF91AF919F918F917F913D
:1055D0006F915F914F913F912F910F900FBE0F9060
:1055E0001F9018951F920F920FB60F9211242F93B0
:1055F0003F934F935F936F937F938F939F93AF935B
:10560000BF93EF93FF938091B900887F803609F4B0
:105610004AC0F0F5883209F4A5C018F5803109F4C4
:1056200099C0B8F4882309F4F5C0883009F492C011
:10563000FF91EF91BF91AF919F918F917F916F916A
:105640005F914F913F912F910F900FBE0F901F9040
:105650001895883109F486C0803251F78093380359
:1056600014C0803409F49BC040F48033B9F388330C
:10567000F9F68093380385ECAEC0803509F483C019
:10568000883509F494C0883499F60E945419D0CF13
:10569000883909F48AC038F5883729F050F48836FB
:1056A00011F0803729F683E0809339031092370395
:1056B00055C0883809F479C0803919F0803809F06C
:1056C000B7CF80913703803208F06FC0E091370385
:1056D00081E08E0F809337038091BB00F0E0E95E9C
:1056E000FC4F80833BC0803B39F0D0F4803A09F412
:1056F00077C0883A09F09CCF84E0809339031092F8
:10570000160310921503F0E0E0E00995809115036F
:1057100081110FC081E0809315031092F50209C03A
:10572000803C09F4A8CF883C09F4A5CF883B09F058
:105730007FCFE091160381E08E0F80931603F0E097
:10574000EB50FD4F80818093BB00909116038091B8
:10575000150329C080915E038093BB0085EC809384
:10576000BC0066CF90915D0380915C03981758F55B
:10577000E0915D0381E08E0F80935D03F0E0E45CD7
:10578000FC4F8081E9CFE0915D0381E08E0F809333
:105790005D038091BB00F0E0E45CFC4F808390915E
:1057A0005D0380915C039817C8F285E8D8CFE0913B
:1057B0005D0381E08E0F80935D038091BB00F0E07C
:1057C000E45CFC4F808380913B0381115ECF81E0DC
:1057D00080933A0384EA8093BC001092390328CF67
:1057E00085EC8093BC00109239038091370380329E
:1057F00030F4E0913703F0E0E95EFC4F10826091F5
:10580000370370E087E193E0F0E0E0E00995109263
:1058100037030ECF1092380338CF1F920F920FB676
:105820000F9211242F933F934F935F936F937F9326
:105830008F939F93AF93BF93CF93DF93EF93FF9398
:10584000C0912B018091C003C817B8F490917800E3
:105850008091790089279827892727E1C29FE00155
:105860001124CC59DC4F998B888B0E94800B6B8B59
:105870007C8B8D8B9E8B81E08A8BFF91EF91DF91EA
:10588000CF91BF91AF919F918F917F916F915F91D8
:105890004F913F912F910F900FBE0F901F90189531
:1058A000EDEDF5E01382128288EE93E0A0E0B0E027
:1058B00084839583A683B7838EE991E09183808367
:1058C00085EC90E09587848784EC90E097878687C5
:1058D00080EC90E0918B808B81EC90E0938B828BBD
:1058E00082EC90E0958B848B86EC90E0978B868B96
:1058F000118E128E138E148E0895CF93DF9300D0E5
:105900001F92CDB7DEB7789484B5826084BD84B52C
:10591000816084BD85B5826085BD85B5816085BDAA
:1059200080916E00816080936E0010928100809162
:1059300081008260809381008091810081608093EA
:105940008100809180008160809380008091B1000F
:1059500084608093B1008091B00081608093B0003A
:1059600080917A00846080937A0080917A008260CE
:1059700080937A0080917A00816080937A00809190
:105980007A00806880937A001092C100E091ED0562
:10599000F091EE0582E08083E091E905F091EA055F
:1059A0001082E091EB05F091EC0513E0108310926A
:1059B000F505E091F105F091F20586E08083E09134
:1059C000EF05F091F005808180618083E091EF0523
:1059D000F091F005808188608083E091EF05F0917F
:1059E000F005808180688083E091EF05F091F005FB
:1059F00080818F7D80838DE19FE00E94170A83E084
:105A000090E00E94C6178BE19FE00E94170A82E097
:105A100090E00E94C61789E19FE00E94170A84E285
:105A200090E00E94C61786E19FE00E94170A82EF6D
:105A30009EE00E94170A80E180938100109280000E
:105A400094E09093330522E13AE7309332052093B6
:105A50003105309387002093860094E19093810074
:105A60008093810082E193E19093300580932F052C
:105A700081E080936F008093300110922E05109288
:105A800034051092350510923605109237050E94A4
:105A9000E716109229056FEF80E00E942416BE01E0
:105AA0006D5F7F4F90E080E00E944A198B818330C8
:105AB00041F01983BE016F5F7F4F90E080E00E944C
:105AC000C919BE016E5F7F4F81E090E00E944A19C4
:105AD0008A81823049F082E08983BE016F5F7F4F07
