:100000000C9408090C94DB290C94B4290C94300945
:100010000C9430090C9430090C9430090C9430097C
:100020000C9430090C9430090C9430090C9430096C
:100030000C9430090C945A2A0C9430090C94300911
:100040000C946A290C9430090C94282A0C94022AE6
:100050000C9430090C9430090C9430090C9430093C
:100060000C9430090C9430094E414E494E49545974
:10007000494E46CDCCCC3D0AD7233C17B7D1387773
:10008000CC2B329595E6241FB14F0A000020410089
:1000900000C84200401C4620BCBE4CCA1B0E5AAED3
:1000A000C59D740D0A00090009000900270900090F
:1000B00027002000696E646578096E616D650970BE
:1000C000696E096D6F646509696E697409746F679B
:1000D000676C650D0A000D0A0020286C6F777C683C
:1000E0006967682900270027005B3020746F203281
:1000F00035355D20005B3020746F20315D20003A83
:1001000020005D3D0070696E5B000D0A005D3D00E2
:1001100070696E5B0070696E206572726F723A2052
:1001200063616E6E6F74207365742073746174659F
:10013000206F6620696E7075742070696E2E0D0ACE
:10014000000D0A000D0A003A20005D3D0070696E46
:100150005B0070696E206572726F723A2066697218
:10016000737420617267756D656E742073686F7546
:100170006C642062652070696E20696E6465782009
:100180006F72206E616D652E0D0A006C6F772C68A2
:1001900069676800203C746F67676C653E203A2091
:1001A0003C70776D3E205B3020746F203235355DBA
:1001B0000D0A00203C696E69743E2020203A203CE4
:1001C0006F75747075743E205B3020746F20315DE4
:1001D00020286C6F777C6869676829203C70776D90
:1001E0003E205B3020746F203235355D0D0A0020D3
:1001F0003C6D6F64653E2020203A20286F75747036
:1002000075747C696E7075747C70756C6C75707CBF
:1002100070776D290D0A005D0D0A00203C70696E33
:100220003E202020203A205B3020746F20005D0D9E
:100230000A00203C6E616D653E2020203A207175D9
:100240006F7465642070696E206E616D65205B005F
:100250005D0D0A00203C696E6465783E20203A20DE
:100260005B3120746F2000206470696E203C696EE1
:100270006465783E7C3C6E616D653E203C736574C0
:1002800074696E673E205B3D5D203C76616C7565F0
:100290003E3A206368616E6765206F6E65207072FC
:1002A0006F70657274790D0A00206470696E203C6D
:1002B000696E6465783E203C6E616D653E203C70E1
:1002C000696E3E203C6D6F64653E203C696E6974CA
:1002D0003E203C746F67676C653E3A2064656669D2
:1002E0006E652070696E0D0A00206470696E202DA5
:1002F0005B2A5D203A2064656C657465206C6173CF
:10030000742070696E20282A203D20616C6C290DB4
:100310000A00206470696E203F202020203A20735C
:10032000686F7720616C6C2070696E206465666907
:100330006E6974696F6E730D0A00436F6D6D616E47
:1003400064206470696E3A20436F6E6669677572E7
:10035000652050696E730D0A006F75747075742C8A
:10036000696E7075742C70756C6C75702C70776D0F
:10037000006E616D652C70696E2C6D6F64652C6903
:100380006E69742C746F67676C65006572726F724A
:100390003A206E6F206D6F7265206E6577207069F0
:1003A0006E732063616E20626520646566696E65A8
:1003B000642E2074797065202770696E2720746F11
:1003C0002073656520646566696E65642070696E7A
:1003D000732E0D0A002066697273742E0D0A007068
:1003E000696E20617267756D656E74206572726FDB
:1003F000723A20706C6561736520646566696E652C
:100400002070696E200070696E20617267756D657D
:100410006E74206572726F723A206669727374200E
:10042000617267756D656E742073686F756C64209A
:1004300062652070696E20696E646578206F722035
:100440006E616D652E2074797065202770696E2746
:1004500020746F2073656520646566696E6564202D
:1004600070696E732E0D0A002064656C6574656496
:100470002E0D0A0070696E2000616C6C2070696E30
:10048000732064656C657465642E0D0A00270D0A7F
:1004900000270009000900090009000900090009F6
:1004A00000090009000900696E646578096E616DD4
:1004B00065097472696767657209736F7572636540
:1004C00009616374696F6E097461726765740963A9
:1004D0006F756E740964656C617909757009646F74
:1004E000776E096F7074696F6E730D0A002720288C
:1004F00069646C657C61726D65647C66696E697344
:100500006865647C666972656429202A3A74726938
:100510006767657265642C202B3A7374617274206E
:100520007472696767657265640D0A003A205B3012
:1005300020746F20335D5B2A5D5B2B5D2027002BD1
:10054000002A005D3D007461736B5B000D0A002B97
:10055000002A005D3D007461736B5B000D0A00654D
:1005600072726F723A207461736B20737461747568
:100570007320636F756C64206E6F742062652073E6
:10058000657420746F20006572726F723A20736513
:10059000636F6E6420617267756D656E7420736839
:1005A0006F756C64206265207461736B2073746175
:1005B00074652E0D0A006572726F723A2066697258
:1005C000737420617267756D656E742073686F75E2
:1005D0006C64206265207461736B20696E64657859
:1005E000206F72206E616D652E0D0A00203C6F70C9
:1005F00074696F6E733E3A202861726D2D6F6E2D97
:1006000066696E6973682061726D2D6F6E2D7374EB
:10061000617274757020696E74657272757074732E
:10062000290D0A00203C646F776E3E2020203A207E
:100630006E5B737C6D737C75735D20646F776E2069
:1006400074696D653A2030206F7220626574776539
:10065000656E2031303020757320616E6420313733
:100660003A35330D0A00203C75703E2020202020B2
:100670003A206E5B737C6D737C75735D20757020A2
:1006800074696D653A2030206F72206265747765F9
:10069000656E2031303020757320616E64203137F3
:1006A0003A35330D0A00203C64656C61793E2020A8
:1006B0003A206E5B737C6D737C75735D2064656C32
:1006C00061793A2030206F72206265747765656EBB
:1006D0002031303020757320616E642031373A3517
:1006E000330D0A00203C636F756E743E20203A2063
:1006F0005B2D3120746F203130373337343138324D
:10070000305D2072657065617420636F756E743A38
:10071000202D3120666F7220636F6E74696E756F65
:1007200075732C203020666F722073696E676C655C
:1007300020616374696F6E0D0A00203C74617267FA
:1007400065743E203A203C6F75747075742D706925
:100750006E3E20286F75747075742070696E2D69F7
:100760006E646578206F722070696E2D6E616D65A4
:1007700029203C6F75742D7461736B3E2028746161
:10078000736B2D696E646578206F72207461736B72
:100790002D6E616D6529203C6E6F6E653E202829A7
:1007A0000D0A00203C616374696F6E3E203A203C64
:1007B0006F75747075742D70696E3E20286C6F773C
:1007C0007C686967687C746F67676C6529203C6F1B
:1007D00075742D7461736B3E202861726D7C737427
:1007E0006172747C726573746172747C73746F70FF
:1007F0007C6B69636B29203C6E6F6E653E20286EB2
:100800006F6E65290D0A00203C736F757263653E3B
:10081000203A203C696E7075742D70696E3E2028F8
:10082000696E7075742070696E2D696E64657820CC
:100830006F722070696E2D6E616D6529203C696E46
:100840002D7461736B3E20287461736B2D696E6427
:100850006578206F72207461736B2D6E616D6529F0
:100860000D0A00203C747269676765723E3A203C4D
:10087000736F6674776172653E20286175746F7C52
:100880006D616E75616C29203C696E7075742D7098
:10089000696E3E202875707C646F776E7C616E791E
:1008A0007C686967687C6C6F7729203C696E2D7461
:1008B00061736B3E202873746172747C73746F7003
:1008C000290D0A005D0D0A00203C6E616D653E2019
:1008D00020203A2071756F746564207461736B20F9
:1008E0006E616D65205B005D0D0A00203C696E64E1
:1008F00065783E20203A205B3120746F2000206410
:100900007461736B203C696E6465783E7C3C6E61FB
:100910006D653E203C70726F70657274793E205B2D
:100920003D5D203C76616C75653E0D0A0020647467
:1009300061736B203C696E6465783E203C6E616D2E
:10094000653E203C747269676765723E203C736F38
:10095000757263653E203C616374696F6E3E203C36
:100960007461726765743E203C636F756E743E20DF
:100970003C64656C61793E203C75703E203C646F40
:10098000776E3E203C6F7074696F6E733E0D0A0087
:1009900020647461736B202D5B2A5D203A206465AE
:1009A0006C657465206C617374207461736B2028AE
:1009B0002A203D20616C6C290D0A0020647461734B
:1009C0006B203F202020203A2073686F7720616CD5
:1009D0006C207461736B20646566696E6974696FFD
:1009E0006E730D0A00436F6D6D616E6420746173E8
:1009F0006B3A20646566696E652F64656C65746525
:100A0000207461736B0D0A0061726D2D6F6E2D661F
:100A1000696E6973682C61726D2D6F6E2D737461D0
:100A2000727475702C696E7465727275707473006F
:100A30006E6F6E652C6C6F772C686967682C746FAD
:100A400067676C652C73746F702C73746172742C8F
:100A5000726573746172742C61726D2C6B69636B57
:100A6000006572726F723A206E6F206D6F72652032
:100A70006E6577207461736B732063616E206265AD
:100A800020637265617465642E0D0A0020666972C8
:100A900073742E0D0A007461736B20617267756D3B
:100AA000656E74206572726F723A20706C65617346
:100AB0006520646566696E65207461736B200074DF
:100AC00061736B20617267756D656E7420657272FB
:100AD0006F723A20666972737420617267756D6512
:100AE0006E742073686F756C642062652074617326
:100AF0006B20696E646578206F72206E616D652E63
:100B0000207479706520277461736B2720746F20BF
:100B100073656520646566696E6564207461736BD6
:100B2000732E0D0A002064656C657465642E0D0AD1
:100B3000007461736B2000616C6C207461736B7363
:100B40002064656C657465642E0D0A0061726D2009
:100B5000617267756D656E74206572726F723A208E
:100B6000666972737420617267756D656E74207347
:100B7000686F756C64206265207461736B20696EA8
:100B8000646578206F72206E616D652E20747970B7
:100B90006520277461736B2720746F20736565204F
:100BA000646566696E6564207461736B732E0D0AEB
:100BB000002061726D65642E0D0A007461736B20F4
:100BC00000206973206E6F742069646C652E0D0AB5
:100BD0000061726D206572726F723A207461736B7E
:100BE000200064697361726D20617267756D656E56
:100BF00074206572726F723A206669727374206134
:100C00007267756D656E742073686F756C642062B1
:100C100065207461736B20696E646578206F722043
:100C20006E616D652E207479706520277461736B19
:100C30002720746F2073656520646566696E65643E
:100C4000207461736B732E0D0A00206973206E6F20
:100C5000742061726D65642E0D0A0064697361729F
:100C60006D206572726F723A207461736B20002080
:100C7000737461727465642E0D0A007461736B2065
:100C800000206973206E6F742069646C65206F7238
:100C90002061726D65642E0D0A00666972652065BB
:100CA00072726F723A207461736B200066697265AC
:100CB00020617267756D656E74206572726F723A2D
:100CC00020666972737420617267756D656E742039
:100CD00073686F756C64206265207461736B206942
:100CE0006E646578206F72206E616D652E20747958
:100CF00070652027742720746F20736565206465F4
:100D000066696E6564207461736B732E0D0A000D45
:100D10000A002073746F707065642E0D0A00746190
:100D2000736B2000616C6C207461736B732073743F
:100D30006F707065642E0D0A000D0A00200074208B
:100D4000000D0A0020007020002E0D0A007461734F
:100D50006B73207772697474656E2E0D0A00456E90
:100D6000746572696E672073636F70652038206DDB
:100D70006F64652E2053656E6420616E7920636810
:100D80006172616374657220746F20656E642E0DEC
:100D90000A00456E746572696E672073636F7065D3
:100DA000203136206D6F64652E2053656E6420619E
:100DB0006E792063686172616374657220746F205C
:100DC000656E642E0D0A00726573657420646F6E23
:100DD000652E0D0A000D0A000D0A003D000D0A00E7
:100DE0003A20005D200020746F20005B003A200054
:100DF0003D005D200020746F20005B003A20003D24
:100E0000003A0D0A00204F757470757473204469A0
:100E1000676974616C205369676E616C73206F70D1
:100E200074696F6E616C6C792073796E6368726F30
:100E30006E697A65642077697468204469676974AB
:100E4000616C20496E707574205369676E616C73B4
:100E50002E0D0A000D0A002E002E0075730073007F
:100E60006D7300726573657474696E672066616383
:100E7000746F72792064656661756C74732E0D0AE7
:100E800000656E746572203F20746F207365652065
:100E9000617661696C61626C6520636F6D6D616E16
:100EA00064730D0A000D0A002E002E004E6956656F
:100EB000724469673A20566572736174696C652083
:100EC0004469676974616C2050756C736520436F69
:100ED0006E74726F6C6C657220616E642053636F08
:100EE000706520000000000000000000436F6D6D81
:100EF000616E64730000000000000000000000004C
:100F00000000000000000000000000003F000000A2
:100F1000000000005B6775695D2053686F77207380
:100F2000746174757320616E6420636F6D6D616EA2
:100F30006473000070696E00000000005365742047
:100F4000616E642051756572792050696E2053740A
:100F50006174757300000000000000007461736B21
:100F60000000000053657420616E64205175657245
:100F700079205461736B20537461747573000000A1
:100F80000000000061726D00000000003C7461739D
:100F90006B3E3A2041726D205461736B000000007B
:100FA00000000000000000000000000064697361A0
:100FB000726D00003C7461736B3E3A20446973614A
:100FC000726D205461736B7300000000000000001C
:100FD0000000000073746172740000003C7461735F
:100FE0006B3E3A205374617274205461736B00003D
:100FF00000000000000000000000000073746F702B
:10100000000000005B3C7461736B3E207C20215D1E
:101010003A2053746F70205461736B00000000001D
:10102000000000006164635F72657300726574752F
:10103000726E20414443205265736F6C7574696F02
:101040006E00000000000000000000002E00000004
:10105000000000005265706F7274207374617465D3
:10106000206368616E676573000000000000000087
:10107000000000000000000000000000436F6E66EA
:101080006967000000000000000000000000000090
:101090000000000000000000000000006470696EA5
:1010A00000000000446566696E652050696E73201B
:1010B0005B5D000000000000000000000000000078
:1010C00000000000647461736B0000004465666991
:1010D0006E65205461736B73205B5D00000000003F
:1010E000000000000000000000000000777269743A
:1010F0006500000053617665205461736B730000D6
:1011000000000000000000000000000000000000DF
:101110000000000073636F70650000005B31365D96
:10112000205B3C6368616E2D6D61736B3E5D3A20A0
:1011300053636F7065204D6F646500006563686F71
:10114000000000004563686F20286F66662C6F6E94
:101150002900000000000000000000000000000066
:1011600000000000726573657400000046616374DE
:101170006F727920526573657400000000000000F2
:1011800000000000000000000000000068616C74B6
:101190000000000048616C7420616C6C2054617325
:1011A0006B732028302C3129000000000000000063
:1011B0000000000000000000240027002A000000BA
:1011C0000000250028002B0000000000230026005E
:1011D00029000404040404040404020202020202BA
:1011E00003030303030301020408102040800102EB
:1011F000040810200102040810200000000800026A
:101200000100000304070000000000000000E32DBF
:1012100011241FBECFEFD8E0DEBFCDBF25E0AEEF7B
:10122000B2E001C01D92A936B207E1F712E0A0E0DA
:10123000B1E0E8E1F4E602C005900D92AE3FB107DF
:10124000D9F719E0C8E0D9E004C02197FE010E9457
:10125000C831C730D107C9F70E94812A0C940A32DD
:101260000C940000833081F028F4813099F08230B2
:10127000A9F008958730A9F08830C9F08430B1F41E
:10128000809180008F7D03C0809180008F77809354
:101290008000089584B58F7784BD089584B58F7DCF
:1012A000FBCF8091B0008F778093B000089580913C
:1012B000B0008F7DF9CFCF93DF93282F30E0F90175
:1012C000E650FE4E8491F901EA51FE4ED491F901A7
:1012D000EE52FE4EC491CC23A1F081110E9432093E
:1012E000EC2FF0E0EE0FFF1FE853FE4EA591B491F6
:1012F000EC91ED2381E090E009F480E0DF91CF9163
:10130000089580E090E0FACF1F93CF93DF93282FCA
:1013100030E0F901E650FE4E8491F901EA51FE4EAB
:10132000D491F901EE52FE4EC491CC23A9F0162FB0
:1013300081110E943209EC2FF0E0EE0FFF1FE25402
:10134000FE4EA591B4918FB7F894EC91111108C09D
:10135000D095DE23DC938FBFDF91CF911F9108954D
:10136000DE2BF8CFCF93DF9390E0FC01EA51FE4EE5
:1013700024918E529E4EFC0184918823C9F090E006
:10138000880F991FFC01EC54FE4EA591B491FC010D
:10139000E254FE4EC591D49161110DC09FB7F894EF
:1013A0008C91209582238C938881282328839FBF4A
:1013B000DF91CF910895623051F49FB7F8943C913A
:1013C000822F809583238C93E8812E2BEFCF8FB7CC
:1013D000F894EC912E2B2C938FBFEACF1F93CF93D1
:1013E000DF93182FEB0161E00E94B209209739F4D6
:1013F00060E0812FDF91CF911F910C948409CF3F42
:10140000D10511F461E0F5CFE12FF0E0E650FE4E9A
:10141000E491E33031F140F4E130B1F0E230E1F059
:10142000C038D1057CF7E4CFE73029F1E83059F135
:10143000E430B1F780918000806280938000D09387
:101440008B00C0938A0004C084B5806884BDC7BD8A
:10145000DF91CF911F91089584B5806284BDC8BD8E
:10146000F7CF80918000806880938000D0938900BE
:10147000C0938800EDCF8091B00080688093B00069
:10148000C093B300E5CF8091B00080628093B0003C
:10149000C093B400DDCF3FB7F8948091C60490911B
:1014A000C704A091C804B091C90426B5A89B05C083
:1014B0002F3F19F00196A11DB11D3FBFBA2FA92FD3
:1014C000982F8827BC01CD01620F711D811D911DD0
:1014D00042E0660F771F881F991F4A95D1F708953C
:1014E000823068F4E82FF0E0813051F0E898EE0F98
:1014F000FF1FEF5FFE4F82E89AE09183808308959B
:10150000E998F5CF0895E82FF0E0EE0FFF1FEF5FA9
:10151000FE4F71836083813041F0809169008C7F40
:10152000482B40936900E89A089580916900837F71
:10153000440F551F440F551F482B40936900E99AEB
:101540000895AF92BF92CF92DF92EF92FF920F93E6
:101550001F93CF93DF936C017B018B01040F151F49
:10156000EB015E01AE18BF08C017D10759F06991B1
:10157000D601ED91FC910190F081E02DC601099515
:10158000892B79F7C501DF91CF911F910F91FF90C2
:10159000EF90DF90CF90BF90AF900895FC01538DF6
:1015A000448D252F30E0842F90E0821B930B54173D
:1015B00010F0CF96089501970895FC01918D828DCA
:1015C000981761F0A28DAE0FBF2FB11D5D968C9163
:1015D000928D9F5F9F73928F90E008958FEF9FEFA2
:1015E0000895FC01918D828D981731F0828DE80F5E
:1015F000F11D858D90E008958FEF9FEF0895FC0118
:10160000918D228D892F90E0805C9F4F821B9109E4
:101610008F73992708958AEC94E00E94FF0A21E0D5
:10162000892B09F420E0822F089580E090E0892B37
:1016300029F00E940B0B81110C9400000895FC010D
:10164000A48DA80FB92FB11DA35ABF4F2C91848D23
:1016500090E001968F739927848FA689B7892C9380
:10166000A089B1898C91837080648C93938D848DD3
:10167000981306C00288F389E02D80818F7D8083D6
:101680000895EF92FF920F931F93CF93DF93EC0196
:1016900081E0888F9B8D8C8D98131AC0E889F98919
:1016A000808185FF15C09FB7F894EE89FF8960831C
:1016B000E889F98980818370806480839FBF81E09D
:1016C00090E0DF91CF911F910F91FF90EF900895DF
:1016D000F62E0B8D10E00F5F1F4F0F731127E02EBA
:1016E0008C8D8E110CC00FB607FCFACFE889F989F2
:1016F000808185FFF5CFCE010E941F0BF1CFEB8DCE
:10170000EC0FFD2FF11DE35AFF4FF0829FB7F894C5
:101710000B8FEA89FB8980818062CFCF0F931F9363
:10172000CF93DF938C01D0E0C0E0F801EC0FFD1FF8
:101730006491662341F08AEC94E00E94410B892B6E
:1017400011F02196F2CFCE01DF91CF911F910F9131
:101750000895CF93DF93EC01888D8823B9F0AA898F
:10176000BB89E889F9898C9185FD03C0808186FD5C
:101770000DC00FB607FCF7CF8C9185FFF2CF8081AB
:1017800085FFEDCFCE010E941F0BE9CFDF91CF91F6
:10179000089508958F929F92AF92BF92CF92DF9259
:1017A000EF92FF920F931F93CF93DF93EC01888109
:1017B00010E08D3211F4219611E08881082E000C82
:1017C000990BC0970A9710F500E0C12CD12C760137
:1017D000FE01E00FF11DE0810E2E000CFF0BF097D3
:1017E000EA30F105C0F4AAE0B0E0A70196010E943A
:1017F00016314F01FF0FAA08BB08860E971EA81EC0
:10180000B91E8C149D04AE04BF04B4F4CC24CA9455
:10181000DC2C760102C0111113C0C701B601DF91A3
:10182000CF911F910F91FF90EF90DF90CF90BF90DD
:10183000AF909F908F9008950F5F75016401C8CF9E
:10184000F094E094D094C094C11CD11CE11CF11C14
:10185000E4CF8F929F92AF92BF92CF92DF92EF929E
:10186000FF921F93CF93DF93EC0110E0C12CD12C9A
:101870007601FE01E10FF11DE0810E2E000CFF0B41
:10188000F097EA30F105D8F4AAE0B0E0A70196019C
:101890000E9416314F01FF0FAA08BB08860E971E43
:1018A000A81EB91E8C149D04AE04BF0420F01F5F57
:1018B00075016401DECFCC24CA94DC2C7601C7010B
:1018C000B601DF91CF911F91FF90EF90DF90CF9005
:1018D000BF90AF909F908F900895CF93C92F682F9E
:1018E0008AEC94E00E94410B6C2F8AEC94E0CF913B
:1018F0000C94410B1F93CF93DF93172FD82FC92F31
:101900008AEC94E00E94410B612F8AEC94E00E94E3
:10191000410B6D2F8AEC94E00E94410B6C2F8AECF6
:1019200094E0DF91CF911F910C94410B0F931F9383
:10193000CF93DF9310E007E180915E031817D8F48E
:10194000019FE0011124CE5FDC4F8E89882389F04E
:101950001E8A612F8AEC94E00E94410B8A850E94C6
:101960005B090E946D0C6A897B898C899D890E9424
:101970007A0C1F5FE1CFDF91CF911F910F910895F6
:101980000F931F93CF93DF9310E007E180915E03E5
:101990001817F0F4019FE0011124CE5FDC4F8E890F
:1019A0008823A1F01E8A612F8AEC94E00E94410BEB
:1019B0008A850E945B09682F8AEC94E00E94410BA3
:1019C0006A897B898C899D890E947A0C1F5FDECF92
:1019D000DF91CF911F910F91089508951F93CF9399
:1019E000DF93EC01162F8F85882391F08330A1F0CF
:1019F0000E944B0A6A8B7B8B8C8B9D8B612F70E0D6
:101A0000798B688B81E08E8BDF91CF911F91089548
:101A10008A850E948409ECCF662339F01D85612FE9
:101A200070E08A850E94EE09E3CF1C85F8CFDC01C7
:101A30001A968C911A9790E0823021F09FEF8330B4
:101A400009F491E01F96EC911F97F0E0E359FE4FE7
:101A50002081213061F09F3F51F090E0823021F0F1
:101A60009FEF833009F491E01E969C9308958FEFC9
:101A70001E968C9308958F3F59F090911304891707
:101A800050F42DE2829FC0011124815A9C4F089589
:101A90008AEB91E0089590E080E00895282F30E0EF
:101AA0009DE2899FF0011124E15AFC4F13A6928513
:101AB0009250933098F540911304AFE5B3E090E075
:101AC0003B96491781F09B965C919B97533041F46C
:101AD000981731F060811B965C911B976517F1F0A8
:101AE0009F5F9D96EECF8DE2829FF001839FF00D68
:101AF0001124E15AFC4FE38587E1E89FF0011124AE
:101B0000EE5FFC4F8285823029F0833029F08FEF21
:101B10000C94700A80E0FCCF81E0FACF0895CF9357
:101B2000DF93C82FD0E09DE2899FF0011124E15A94
:101B3000FC4F93A5933011F40E944E0D8FB7F8948B
:101B40009DE29C9FF0019D9FF00D1124E15AFC4FF6
:101B50004EEF5FEF6FEF7FEF478F50A361A372A34C
:101B60008FBF81E084A7DF91CF9108951F93CF931A
:101B7000DF93182FC82FD0E02DE2829FF0011124AF
:101B8000E15AFC4F8FEF9FEFDC01878F90A3A1A359
:101B9000B2A3868D82FB992790F993A791E094A731
:101BA00092859530A9F4E38527E1E29FF0011124A5
:101BB000EE5FFC4F20893189232BC1F00E944B0A34
:101BC000AB01BC01812FDF91CF911F910C94A0122A
:101BD000963009F04CC0E38527E1E29FF001112423
:101BE000EE5FFC4F20893189232B41F382FF62C0D5
:101BF0008EEF890F833008F048C08DE28C9FF00192
:101C00008D9FF00D1124E15AFC4FE38587E1E89F99
:101C1000F0011124EE5FFC4F26852F3F09F44AC0E6
:101C20008285823041F18330B9F481E0E22FF0E027
:101C3000EE0FFF1FE250FD4F1083918343E050E011
:101C4000923031F041E050E0933011F442E050E046
:101C5000222399F02130B1F08DE28C9FF0018D9F0D
:101C6000F00D1124E15AFC4F83E083A723C0992390
:101C700009F4A4CFBBCF80E0D9CF60E174E10E942A
:101C8000830AEACF68E074E1FACF9750923090F47B
:101C9000EDE2EC9FD001ED9FB00D1124A15ABC4F95
:101CA0001B968C91E89FF0011124E15AFC4F868D20
:101CB00082FDD2CFDF91CF911F9108954F925F9215
:101CC0006F927F928F929F92AF92BF92CF92DF924C
:101CD000EF92FF920F931F93CF93DF939090140492
:101CE000911079C08DE2882E9EEF492E55245A948A
:101CF000652C752C80911304981608F06CC0C92CC3
:101D0000D12C8C9CF0018D9CF00D1124E15AFC4FDC
:101D1000878D90A1A1A1B2A1892B8A2B8B2B09F0D1
:101D200058C0868D80FF43C0892D0E94B60D0FE5F7
:101D300013E0F12CE12C8C9CE0018D9CD00D112442
:101D4000C15ADC4F5E0123E2A20EB11CA79680911E
:101D500013048E151F04E9F1E4F1CE14DF0409F138
:101D6000F801878D90A1A1A1B2A18F3F9F4FAF4FE6
:101D7000BF4FB9F4F8018285883099F483858911C1
:101D800010C0F50140815181628173818881998100
:101D9000AA81BB81480F591F6A1F7B1F8E2D0E948D
:101DA000A012FFEFEF1AFF0A035D1F4FD0CF83A5EC
:101DB000833019F4892D0E944E0D8C9CF0018D9C6E
:101DC000F00D1124E15AFC4F478E50A261A272A27D
:101DD000AECF93948FCFDF91CF911F910F91FF9052
:101DE000EF90DF90CF90BF90AF909F908F907F90BB
:101DF0006F905F904F9008954F925F926F927F9295
:101E00008F929F92AF92BF92DF92EF92FF920F93C9
:101E10001F93CF93DF93DFB6F8944091130450E003
:101E20000FE513E0F80190E080E08417950734F4A3
:101E3000268D2068268F0196BD96F7CFCFE5D3E09B
:101E4000F12CE12C812C912C54018394809113046A
:101E500090E0E816F906D4F48F8E98A2A9A2BAA24F
:101E60000E944B0A4BA05CA06DA07EA0641975096E
:101E7000860997096FA378A789A79AA78E2D0E9434
:101E8000820F8FEFE81AF80AAD96E0CFEFE5F3E0A6
:101E900030E020E08217930739F0468D4068468F86
:101EA0002F5F3F4FBD96F6CF0E945E0ED0E0C0E0A0
:101EB0008091130490E0C817D9072CF48C2F0E944E
:101EC0008F0D2196F5CF30E020E08217930749F07F
:101ED000F801468D4F77468F2F5F3F4F035D1F4FB1
:101EE000F4CFDFBEDF91CF911F910F91FF90EF9064
:101EF000DF90BF90AF909F908F907F906F905F909A
:101F00004F9008958F929F92AF92BF92CF92DF929F
:101F1000EF92FF921F93CF93DF93C82FD0E02DE273
:101F2000829FF0011124E15AFC4F878D90A1A1A15D
:101F3000B2A1181619061A061B060CF097C0682FD6
:101F400061704C015D0121E0821A9108A108B1087D
:101F5000878E90A2A1A2B2A289288A288B2899F400
:101F600086849784A088B1882EEF82162FEF920680
:101F7000A2062FE3B20639F4268D27FD04C0878E12
:101F800090A2A1A2B2A22DE22C9FF0012D9FF00DF4
:101F90001124E15AFC4F878C90A0A1A0B2A081141B
:101FA0009104A104B10469F421E024A7C684D78474
:101FB000E088F188CD28CE28CF2819F08095682FA9
:101FC00061702DE22C9FF0012D9FF00D1124E15A3C
:101FD000FC4F9585943008F0A0C0248580915E0365
:101FE000281798F4E22EF12C87E1289F9001112404
:101FF0002E5F3C4F923031F0933009F443C0913062
:1020000021F46927C9010E94EE0C8DE28C9FF0013A
:102010008D9FF00D1124E15AFC4F478D50A161A115
:1020200072A1141615061606170604F587A190A5C9
:10203000A1A5B2A540FDF2C046895789608D718D7A
:10204000840F951FA61FB71F2DE22C9FF0012D9F17
:10205000F00D1124E15AFC4F0097A10520E4B207CE
:1020600008F0E1C087A390A7A1A7B2A7DF91CF9105
:102070001F91FF90EF90DF90CF90BF90AF909F9017
:102080008F900895662309F28E9DF0018F9DF00DCB
:102090001124EE5FFC4F87858823B9F0833041F12E
:1020A0000E944B0A27E12E9DF0012F9DF00D112477
:1020B000EE5FFC4F628B738B848B958B612F70E08E
:1020C000718B608B81E0868BA0CF8089918911E034
:1020D000892B09F010E087E18E9DF0018F9DF00DB6
:1020E0001124EE5FFC4F612F82850E948409D8CFB6
:1020F0008089918914851817190609F41585612FAF
:1021000070E087E18E9DF0018F9DF00D1124EE5F50
:10211000FC4F82850E94EE09C3CF662309F475CF78
:10212000868D87FD72CF848530911304831708F064
:102130006CC0E82EF12C963009F455C040F594306F
:1021400009F460C0953009F448C08DE28E9DD0013D
:102150008F9DB00D1124A15ABC4F8C9FF0018D9F13
:10216000F00D1124E15AFC4F43A154A165A176A1C1
:1021700087A090A4A1A4B2A4480D591D6A1D7B1D7F
:1021800093964D935D936D937C9396973ECF973046
:1021900009F19830D1F62E9DF0012F9DF00D1124FC
:1021A000E15AFC4F478D50A161A172A14E3F9FEFB4
:1021B00059076907790749F2141615061606170616
:1021C0000CF19DE29C9FF0019D9FF00D1124E15ABE
:1021D000FC4F09C00E94B60DB8CF181419041A0498
:1021E0001B040CF4B2CF43A154A165A176A187A032
:1021F00090A4A1A4B2A4480D591D6A1D7B1D0E9484
:10220000A012A3CF0E941814A0CF8F3F09F0FDCEDB
:10221000943009F0FACE0E94FC0EF7CE428D538D19
:10222000648D758D0DCF8F5F9F4FAF4FBF4387A3D9
:1022300090A7A1A7B2A783A194A1A5A1B6A1019738
:10224000A109B04C83A394A3A5A3B6A30FCFCF92AB
:10225000DF92EF92FF920F931F93CF93DF93CFE51F
:10226000D3E010E000E08091130480171106F1F034
:10227000ECF08BA5811116C00E944B0ACBA0DCA00C
:10228000EDA0FEA06C197D098E099F09CFA0D8A4EE
:10229000E9A4FAA46C157D058E059F0518F0802F22
:1022A0000E94820F0F5F1F4FAD96DDCFDF91CF9160
:1022B0001F910F91FF90EF90DF90CF9008952F9294
:1022C0003F924F925F926F927F928F929F92AF92C6
:1022D000BF92CF92DF92EF92FF920F931F93CF9313
:1022E000DF9300D01F92CDB7DEB72FB72983F894C4
:1022F0008FEF809300010E944B0A2B013C01312C8F
:10230000CC24CA94DC2C76012DE2222E8091130479
:10231000381608F079C0032D10E0209EC001219EE0
:10232000900D1124815A9C4F9B838A83FC0183A5C5
:10233000882309F467C04F01FFE18F0E911CEA81E9
:10234000FB81878D90A1A1A1B2A1181619061A06CA
:102350001B060CF057C083A194A1A5A1B6A147A16B
:1023600050A561A572A5840F951FA61FB71F8419DC
:102370009509A609B709B3965F012A813B81295DBA
:102380003F4F3B832A8382339105A105B10504F5B4
:10239000832D0E94820FF50180819181A281B381FA
:1023A000EA81FB814081518162817381840F951F95
:1023B000A61FB71F84199509A609B709F401408122
:1023C0005181628173811416150616061706DCF218
:1023D000209E9001219E300D1124215A3C4FF9017D
:1023E000478D50A161A172A1141615061606170695
:1023F0004CF48C159D05AE05BF0520F4309200010C
:102400006C017D01339482CF809100018F3FD1F127
:10241000F1E8CF16FFEFDF06FFE7EF06F10450F01B
:102420008FEF8093000180E8C82EDD24DA948FE7D7
:10243000E82EF12CA0EAB0E0A70196010E94163127
:102440006B017C0124E130E040E050E00E94A631C5
:102450002115310581E04807510560F581E0809341
:10246000170430931604209315048091150490915D
:1024700016049093870080938600809117048061F2
:102480008093810029812FBF0F900F900F90DF91D3
:10249000CF911F910F91FF90EF90DF90CF90BF9061
:1024A000AF909F908F907F906F905F904F903F90F4
:1024B0002F9008952115310598E04907510560F4E2
:1024C00082E080931704C701B60120EA30E040E0C3
:1024D00050E00E94A631C5CF21153105E0E44E073A
:1024E000510550F483E080931704C701B60120E042
:1024F00035E040E050E0EDCF211531054105514078
:1025000050F484E080931704C701B60120E034E161
:1025100040E050E0DECF85E080931704C701B601AC
:1025200020E030E540E050E0D4CF80E180938100AE
:10253000809100018F3F11F00E94820F0C945F1177
:102540008F929F92AF92BF92CF92DF92EF92FF92C3
:102550000F931F93CF93C82ED12C2DE2829FF001B1
:102560001124E15AFC4F968D97FD56C04A015B013C
:10257000C82F1FB7F89483A294A2A5A2B6A242893D
:1025800053896489758947A350A761A772A7868577
:102590009785A089B189880F991FAA1FBB1F019633
:1025A000A11DB11D878F90A3A1A3B2A381E084A731
:1025B000452B462B472B19F48C2D0E94820F17FDBB
:1025C0000E945F111FBF0FE513E0F12CE12C8091F9
:1025D00013048E151F0401F1FCF0CE14DF04B1F0DA
:1025E000F801878D90A1A1A1B2A18F3F9F4FAF4F5E
:1025F000BF4F61F4F8018285873041F483858C13E5
:1026000005C0B501A4018E2D0E94A012FFEFEF1AA4
:10261000FF0A035D1F4FDBCFCF911F910F91FF90FA
:10262000EF90DF90CF90BF90AF909F908F900895E4
:102630007F928F929F92AF92BF92CF92DF92EF9252
:10264000FF920F931F93CF93DF9392E0C92E93E0F5
:10265000D92E10E000E027E1922E88248394809107
:102660005E038017110609F00CF468C0D6011F96AE
:10267000EC911F97F0E0E359FE4F8081813009F41F
:1026800057C01A968C910E945B099C013327909E3B
:10269000E001919ED00D1124CE5FDC4F488959890D
:1026A0002417350709F444C0782E398B288B0E94F3
:1026B0004B0A6A8B7B8B8C8B9D8B8E8A8FE5E82EE9
:1026C00083E0F82EB12CA12C6296809113048A1518
:1026D0001B0471F16CF1F7019285923010F1838542
:1026E00080131FC0478D50A161A172A14F3F5F4F62
:1026F0006F4F7F4FB1F4933079F050F4923079F00E
:10270000488159816A817B818A2D0E94A01209C06B
:10271000953029F09630A1F7772091F302C071101F
:10272000EFCF8FEFA81AB80AADE2EA0EF11CCDCFB9
:102730000F5F1F4FB7E1CB0ED11C91CFDF91CF912F
:102740001F910F91FF90EF90DF90CF90BF90AF90CF
:102750009F908F907F900895CF93C82F0E944B0A2F
:10276000AB01BC01EC2FF0E0EE0FFF1FE250FD4F7C
:10277000808191812DE2829FF0011124E15AFC4F6A
:10278000238530E0923069F497E1929FF001939FA6
:10279000F00D1124EE5FFC4FA1E0B0E0B18BA08BF7
:1027A0000CC09330D9F497E1929FF001939FF00D04
:1027B0001124EE5FFC4F118A108A97E1929FF0017D
:1027C000939FF00D1124EE5FFC4F428B538B648B73
:1027D000758B91E0968BCF910C94A01297E1929F0C
:1027E000F001939FF00D1124EE5FFC4F0088F189FA
:1027F000E02DA1E0B0E0EF2B11F0B0E0A0E097E118
:10280000929FF001939FF00D1124EE5FFC4FC6CF15
:1028100081E00E94700A81E00E94AC130C945F1169
:1028200080E00E94700A80E00E94AC130C945F115B
:102830008F929F92AF92BF92CF92DF92FF920F93AF
:102840001F93CF93DF93C82ED12C1FB7F8949DE22E
:102850009C9DE0019D9DD00D1124C15ADC4F4F8DF0
:1028600058A169A17AA14F3F5F4F6F4F7F4F0CF482
:1028700048C0F82E8E8D80688E8F81E090E0A0E0B9
:10288000B0E08F8F98A3A9A3BAA30E944B0A8BA094
:102890009CA0ADA0BEA0681979098A099B096FA305
:1028A00078A789A79AA78C2D0E94820F8E8D8F778B
:1028B0008E8F1FBFCFE5D3E010E000E080911304BE
:1028C00080171106F9F0F4F0C016D106B1F08F8D23
:1028D00098A1A9A1BAA18F3F9F4FAF4FBF4F69F4F5
:1028E0008A85883051F48B858F1107C00E944B0A6E
:1028F000AB01BC01802F0E94A0120F5F1F4FAD964D
:10290000DDCF1FBFDF91CF911F910F91FF90DF901F
:10291000CF90BF90AF909F908F90089590915E035D
:10292000891738F427E1829FC00111248E5F9C4FE4
:10293000089590E080E00895843048F4E82FF0E0B6
:10294000EE0FFF1FE55CFE4F8081918108958CEBB7
:1029500091E008959DE2899FF0011124E15AFC4F16
:10296000878D90A1A1A1B2A1181619061A061B06FF
:102970002CF08E5F843018F080E0089583E0089595
:102980001F93CF93DF93C82FD62F80911304C817BE
:10299000A0F4681710F0DFEFD80F1DE2DC1768F025
:1029A0001C9FF0011124E15AFC4F868D81FF03C06A
:1029B0008C2F0E94B60DCF5FF1CFDF91CF911F9189
:1029C0000895CF92DF92EF92FF92909113048917AE
:1029D00060F5691710F06FEF690F982F3DE22EEF49
:1029E000C22EDD24DA94ED2CFD2C691780F0399F7E
:1029F000F0011124E15AFC4FC78ED0A2E1A2F2A24D
:102A0000268D22FB222720F923A79F5FEECF9091EE
:102A1000050191110AC090911404911106C0FF9014
:102A2000EF90DF90CF900C94C014FF90EF90DF9068
:102A3000CF900895DF92EF92FF920F931F93CF9361
:102A4000DF9390915E03992309F443C0691710F056
:102A50006FEF690F082F10E097E1899FE0011124C3
:102A6000CE5FDC4FE62EF12C87E1D82EE016F10682
:102A700084F19F858A85E92FF0E0E359FE4F20819C
:102A80002130A9F46C8591110EC00E9484098C85B7
:102A900090E0D09EF001D19EF00D1124EE5FFC4F2E
:102AA000918B808B12C070E00E94EE09F0CF0E94E3
:102AB0005B09D09EF001D19EF00D1124EE5FFC4F1A
:102AC000208931892817390759F70F5F1F4F6796FB
:102AD000CDCFDF91CF911F910F91FF90EF90DF90BD
:102AE00008950F931F93CF93DF93C2E0D3E010E0DC
:102AF00000E080915E038017110689F084F0EB8579
:102B0000EF87F0E0E359FE4F60818A850E94B209A9
:102B1000CE010E94170D0F5F1F4F6796EACF80917D
:102B20000501811107C06FEFDF91CF911F910F91C8
:102B30000C941A15DF91CF911F910F9108950F9367
:102B40001F93CF93DF93C2E0D3E010E000E08091C9
:102B50005E038017110641F03CF08A850E94700ADE
:102B60000F5F1F4F6796F3CFDF91CF911F910F91AA
:102B70000895CF93DF93CDB7DEB7CC55D1090FB60B
:102B8000F894DEBF0FBECDBF0E949F15FE013D969B
:102B900080E5DF011D928A95E9F787E0E9E0F1E041
:102BA000DE01119601900D928A95E1F783E0FE0116
:102BB0003896DF01982F1D929A95E9F792E09B874E
:102BC00021E02C8728E0E3E1F1E0DE015896019056
:102BD0000D922A95E1F719A218A28AA324E0EDE14B
:102BE000F1E0DE019F9601900D922A95E1F7FE013A
:102BF000F39626E0DF011D922A95E9F725E029AF3B
:102C000027E0E7E2F1E0DE01AA5BBF4F01900D9201
:102C10002A95E1F7E6E4F0E0EC0FFD1F3796DF01BF
:102C20001D928A95E9F788E061968FAF6197629669
:102C30009FAF629784E080935E038CE5EC54F109CA
:102C4000A2E0B3E001900D928A95E1F7C45ADF4FFC
:102C50000FB6F894DEBF0FBECDBFDF91CF910C94BD
:102C60007115FC0101900020E9F73197AF01481B75
:102C7000590BBC018AEC94E00C94A10A009711F066
:102C80000C94311690E080E0089584EC91E00C946F
:102C90003E168F929F92AF92BF920F931F93CF9346
:102CA000DF93CDB7DEB7A1970FB6F894DEBF0FBEA6
:102CB000CDBF19A2423008F44AE08E010F5D1F4FCC
:102CC000842E912CB12CA12CA50194010E94A63137
:102CD000E62FB901CA01EA30F4F4E05DD801EE93C1
:102CE0008D01232B242B252B79F790E080E0109782
:102CF00019F0CD010E943116A1960FB6F894DEBFEF
:102D00000FBECDBFDF91CF911F910F91BF90AF90BC
:102D10009F908F900895E95CE1CFCF92DF92EF9280
:102D2000FF92CF93DF9397FF1BC06B017C016DE295
:102D30008AEC94E00E94410BEC0166277727CB01D7
:102D40006C197D098E099F094AE00E9449168C0F73
:102D50009D1FDF91CF91FF90EF90DF90CF9008956E
:102D60004AE0DF91CF91FF90EF90DF90CF900C94ED
:102D70004916BC01990F880B990B0C948D16682F7E
:102D800070E090E080E04AE00C944916662381F000
:102D9000FA01808191810E94290C6F3F71058105A4
:102DA000910521F018F06FEF7FEFCB016F3F61F4D9
:102DB00089EC91E00E943E16809114040E94BF1697
:102DC0008FE09DE00C948E0B6093140461110C94C1
:102DD000FC0E6FEF80E00C94E1144F925F926F92C3
:102DE0007F928F929F92AF92BF92CF92DF92EF929B
:102DF000FF926B017C0188EE482E83E0582E612CF7
:102E0000712CC701A30192010E94A63149015A0108
:102E1000672B682B692BA9F04AE0C701B6010E9415
:102E200049168BE59EE0FF90EF90DF90CF90BF902A
:102E3000AF909F908F907F906F905F904F900C9489
:102E40008E0BCA01B901A30192010E94A631672B22
:102E5000682B692B41F04AE0C501B4010E94491674
:102E600080E69EE0E0CFC701B60120E432E44FE007
:102E700050E00E94A631CA01B9014AE00E944916F9
:102E80008EE59EE0D0CFEF92FF920F931F93CF93EA
:102E9000DF93C82F90E0FC01EE0FFF1FE80FF91F32
:102EA000EC57FE4FD28188E2C89F70011124870140
:102EB0000451114FD1FF0DC0C8010E948E0B81E05B
:102EC0009EE0DF91CF911F910F91FF90EF900C94B6
:102ED0008E0B8FEC91E00E943E16C7018C51914FF2
:102EE0000E948E0B81E0CF3009F480E081115CC03C
:102EF000D3FF2FC08FEF9DE00E948E0B60911804CE
:102F00007091190480911A0490911B040E948D16EF
:102F10008CEF9DE00E948E0B8AEF9DE00E948E0B4D
:102F200060E070E0CB010E948D1685EF9DE00E946D
:102F30008E0B61E070E080E090E00E948D1682EFE1
:102F40009DE00E948E0BC8010E948E0B8DED9DE0CE
:102F5000B8CF80EF9DE00E948E0B609118047091B5
:102F6000190480911A0490911B044AE00E944916AA
:102F70008DEE9DE00E948E0B8BEE9DE00E948E0BED
:102F80004AE060E070E0CB010E94491686EE9DE0C9
:102F90000E948E0B4AE061E070E080E090E00E94C9
:102FA000491683EE9DE0CDCF80EE9DE0CACFEF9233
:102FB000FF920F931F93CF93DF9310E007E180916F
:102FC0005E03181730F5E12EF12C0E9DE0010F9DE8
:102FD000D00D1124CE5FDC4F8E898823C1F01E8A6C
:102FE00086E49DE00E948E0BC70101960E94B916EF
:102FF00084E49DE00E948E0B6889798990E080E0EE
:103000004AE00E94491681E49DE00E948E0B1F5FFA
:10301000D6CFC0E0DDE280911304C81720F50C2F55
:1030200010E0D09FF001D19FF00D1124E15AFC4F28
:1030300084A58823B1F014A68EE39DE00E948E0B38
:10304000C80101960E94B9168CE39DE00E948E0B88
:103050008C2F0E94AA140E94BF1689E39DE00E9453
:103060008E0BCF5FD8CF89E49DE0DF91CF911F9188
:103070000F91FF90EF900C948E0BCF93DF93EB01A9
:103080000E9400318883CE01DF91CF910895FF9295
:103090000F931F93CF93DF938C01EB01F8800E9475
:1030A0000031F81621F06F2DC8010E940831CE01C1
:1030B000DF91CF911F910F91FF900895BF92CF9212
:1030C000DF92EF92FF920F931F93CF93DF937C01D8
:1030D000EB018B01040F151FB990F701C080D1805F
:1030E000C6010E940031B81621F06B2DC6010E9466
:1030F0000831F70180819181019691838083C01707
:10310000D10751F7DF91CF911F910F91FF90EF9071
:10311000DF90CF90BF9008950F931F93CF93DF93CD
:1031200000D0CDB7DEB783E490E09A83898341E095
:1031300050E063E174E0CE0101960E945E1810E059
:103140000DE280911304181768F4109FB001112448
:10315000615A7C4F4FE150E0CE0101960E945E180B
:103160001F5FEFCF0F900F90DF91CF911F910F91C5
:1031700008950E948C188DE49DE00C948E0B0F93A3
:103180001F93CF93DF9300D0CDB7DEB782E090E0FE
:103190009A83898341E050E06EE573E0CE010196A9
:1031A0000E945E1810E007E180915E03181768F432
:1031B000109FB00111246E5F7C4F40E150E0CE01C2
:1031C00001960E945E181F5FEFCF0F900F90DF9166
:1031D000CF911F910F91089510921404109218042A
:1031E0001092190410921A0410921B040E94B9152F
:1031F0000E94BF18109213046FEF80E00E94E11448
:103200000E948C1887EC9DE00C948E0B3F924F929D
:103210005F926F927F928F929F92AF92BF92CF9266
:10322000DF92EF92FF920F931F93CF93DF93CDB76F
:10323000DEB760970FB6F894DEBF0FBECDBF5C015E
:103240006B01188AFB0101900020E9F73197E61B1A
:10325000F70B612C712C00E08FE0482E7F01FF24DA
:103260009FE0892E912C342C301A432D50E0B5016B
:10327000660D711D81E090E08C0F9D1F800F911DE8
:103280000E94442E10E0802F90E0E1E0F0E0EC0F8F
:10329000FD1FE80FF91F5080552019F02CE2521243
:1032A00030C00F30B1F40FE0112389F0612F70E0CE
:1032B000A401461B570B81E090E08C0F9D1F680F07
:1032C000791FCE0101960E94FB31042D011B630C76
:1032D000CACF612F70E0861B970B8E159F0561F496
:1032E00081E090E08C0F9D1F680F791FA701C60138
:1032F0000E94ED31892B49F07394552021F011E0A3
:10330000100F0F5FC0CF77247A94872D60960FB689
:10331000F894DEBF0FBECDBFDF91CF911F910F910B
:10332000FF90EF90DF90CF90BF90AF909F908F90E5
:103330007F906F905F904F903F900895EF92FF9233
:103340000F931F93CF938C01C62F7A01BA018BE89C
:1033500091E00E940619682F70E090E080E06F3FD6
:1033600071058105910571F0F8012785233099F4E5
:10337000613071058105910571F46FEF70E080E0B7
:1033800090E009C0C7010E94CA0B6F3FFFEF7F07A3
:103390008F079F0761F0F801278521110FC051E0C9
:1033A000672B682B692B09F450E0852FC82F8C2FD1
:1033B000CF911F910F91FF90EF900895DC01CB0109
:1033C0008F3F9105A105B10529F024F08FEF90E022
:1033D000A0E0B0E0B7FFEACF80E090E0DC01E6CF0C
:1033E0005F926F927F928F929F92AF92BF92CF9295
:1033F000DF92EF92FF920F931F93CF93DF93CDB79E
:10340000DEB760970FB6F894DEBF0FBECDBF6C017C
:103410005B01742E188AFC011082E12C10E000E0A0
:103420009FE0592E2FE0822E912C652C601A462D9C
:1034300050E0B5016E0D711D81E090E08C0F9D1F75
:10344000800F911D0E94442EF12CE1E0F0E0EC0F82
:10345000FD1FE00FF11D80818823D1F08C3229F50A
:103460000F3029F50FE0FF2089F06F2D70E0A401E7
:10347000461B570B81E090E08C0F9D1F680F791F52
:10348000CE0101960E94FB31052D0F19E60CCDCF20
:103490000F3041F3171569F088ECC82E81E0D82E63
:1034A00018C01F5FFF24F394F00E0F5FCECF1711EB
:1034B000F8CF0F1910E061E070E06C0F7D1F6F0D09
:1034C000711DA801C6010E94FB31F601E00FF11F3A
:1034D0001082C60160960FB6F894DEBF0FBECDBF56
:1034E000DF91CF911F910F91FF90EF90DF90CF90E0
:1034F000BF90AF909F908F907F906F905F90089556
:103500008F929F92AF92BF92CF92DF92EF92FF92F3
:103510000F931F93CF93DF93CDB7DEB760970FB6AE
:10352000F894DEBF0FBECDBF082FC62E80911304C6
:10353000681718F0CC24CA94C80E87EA94E00E9459
:103540008E0B80911304882309F4F6C0E02EF12C31
:103550002DE2029F80011124015A1C4FD12C97E1CA
:10356000B92ECE14DF040CF4E7C08FEC91E00E947A
:1035700031168FEFE81AF80AC7010E94B91685EADA
:1035800094E00E948E0BC8010E943E1683EA94E0EC
:103590000E948E0BD8011A96EC91F0E0EE0FFF1FFF
:1035A000ED5BFE4F808191810E943E1681EA94E09E
:1035B0000E948E0BAA24AA94AE0C80911304A81624
:1035C00008F0A8C0F8019285923008F4A3C0838562
:1035D000973008F09AC090915E03891708F09AC05E
:1035E0008B9DC00111248E5F9C4F0E943E168FE977
:1035F00094E00E948E0BD8011D964C9160E37AE016
:10360000CE0101960E94F0190E943E168DE994E0C9
:103610000E948E0B80911304A81608F083C0F80155
:1036200084859585943008F078C090915E03891761
:1036300008F078C08B9DC00111248E5F9C4F0E94C2
:103640003E168BE994E00E948E0BD8011E966D9178
:103650007D918D919C9151976E3FBFEF7B078B07BA
:10366000BFE39B0719F46FEF7FEFCB010E948D162C
:1036700089E994E00E948E0BF8016289738984893C
:1036800095890E94ED1687E994E00E948E0BD8017F
:1036900056966D917D918D919C9159970E94ED1652
:1036A00085E994E00E948E0BF801628D738D848D04
:1036B000958D0E94ED1683E994E00E948E0B81E9BE
:1036C00094E00E948E0BD8015E969C90812CAA24D7
:1036D000A39480E0992049F1992D9A2199F08823AB
:1036E00021F08FEC91E00E943E16482D68E07AE0D0
:1036F000CE0101960E94F0190E943E168A2D8095F7
:10370000982281E08394AA0CE5CF0E943B0D00979C
:1037100009F06BCF88EC91E068CF0E943B0D0097D9
:1037200009F08DCF88EC91E08ACF8DE894E00E947B
:103730008E0B035D1F4F15CF60960FB6F894DEBF5A
:103740000FBECDBFDF91CF911F910F91FF90EF90F2
:10375000DF90CF90BF90AF909F908F900895DF92B1
:10376000EF92FF920F931F93CF93DF93CDB7DEB706
:1037700060970FB6F894DEBF0FBECDBFF82EE62ED1
:1037800084EB90E00E948E0B80915E03882309F405
:103790004CC0E81618F0EE24EA94E80E87E1D82E23
:1037A000EF1408F442C00F2D10E082EB90E00E946D
:1037B0008E0BC80101960E94B9168FEA90E00E9414
:1037C0008E0BFD9C800111240E5F1C4FC8010E94CE
:1037D0003E168CEA90E00E948E0BF80182850E94D2
:1037E000BF168AEA90E00E948E0BF801438569E5D6
:1037F00073E0CE0101960E94F0190E943E1688EAFD
:1038000090E00E948E0BF80184850E94BF1686EA24
:1038100090E00E948E0BF80185850E94BF1683EA16
:1038200090E00E948E0BF394BBCF60960FB6F89495
:10383000DEBF0FBECDBFDF91CF911F910F91FF90E3
:10384000EF90DF900895EF92FF920F931F93CF9325
:103850008C017B01C0E0EC2FF0E0EE0FFF1FEE0DBE
:10386000FF1D608171816115710539F0C8010E94E9
:10387000E431892B19F0CF5FEECFCFEF8C2FCF91B2
:103880001F910F91FF90EF900895BF92CF92DF921A
:10389000EF92FF920F931F93CF93DF937C018B01E5
:1038A000B12C6701CB0CD11CF601C0810C2E000C91
:1038B000DD0BCE010E94B82F892B11F0B394F1CF0C
:1038C000E0972A97C0F4C6010E94290CC62F6F3FCB
:1038D00009F0C1508C2FF8010995892B09F4CFEF1D
:1038E0008C2FDF91CF911F910F91FF90EF90DF9080
:1038F000CF90BF900895C0E08C2FF80109950097F4
:1039000071F3BC01C7010E94E431892B49F3CF5FF9
:10391000F3CFCF93611107C00E94FC0E84E29DE0BB
:10392000CF910C948E0B6BE37DE0FA018081918145
:103930000E94451CC82F8F3F79F30E9418148EE116
:103940009DE00E948E0BFDE2CF9FC0011124815AA1
:103950009C4F0E943E1682E19DE0E2CF0F931F93A1
:10396000CF93DF93611108C08CEA9CE0DF91CF9187
:103970001F910F910C948E0BFA016BE37DE0808117
:1039800091810E94451CC82F8F3F71F3082F10E0D2
:10399000DDE2D09FF001D19FF00D1124E15AFC4FE0
:1039A000878D90A1A1A1B2A10296A11DB11D029780
:1039B000A105B10558F08AE99CE00E948E0BC80170
:1039C00001960E94B91681E89CE0D0CF0E944B0A74
:1039D000AB01BC018C2F0E94A0128BE79CE00E94DF
:1039E0008E0BCD9FC0011124815A9C4F0E943E1620
:1039F0008FE69CE0BBCFCF93DF93611106C082EED0
:103A00009BE0DF91CF910C948E0BFA016BE37DE08C
:103A1000808191810E94451C8F3F89F3C82FD0E09F
:103A20009DE2899FF0011124E15AFC4F478D50A17E
:103A300061A172A14F3F5F4F6F4F7F4F59F08BE5F0
:103A40009CE00E948E0BCE0101960E94B9168AE47A
:103A50009CE0D7CFDF91CF910C948F0D0F931F93E4
:103A6000CF93DF93611108C08CE49BE0DF91CF918D
:103A70001F910F910C948E0BFA016BE37DE0808116
:103A800091810E94451CC82F8F3F71F3082F10E0D1
:103A9000DDE2D09FF001D19FF00D1124E15AFC4FDF
:103AA000878D90A1A1A1B2A18E3F9F4FAF4FBF4F75
:103AB00059F081ED9BE00E948E0BC80101960E9497
:103AC000B91681EC9BE0D2CF8C2F0E94B60D8BEB08
:103AD0009BE00E948E0BCD9FC0011124815A9C4F08
:103AE0000E943E1681EB9BE0C1CF7F928F929F9206
:103AF000AF92BF92CF92DF92EF92FF920F931F93FC
:103B0000CF93DF93762E6A01662341F0FA0180811C
:103B10009181FC0120812F3309F055C08AE393E0A5
:103B20000E948E0B82E193E00E948E0B89EE92E060
:103B30000E948E0B89EA92E00E948E0B87E692E04B
:103B40000E948E0B84E592E00E948E0B84E090E050
:103B50000E94B91680E592E00E948E0B82E392E00B
:103B60000E948E0B89E090E00E94B9168EE292E0EE
:103B70000E948E0B8BE192E00E948E0B8DE090E014
:103B80000E94B91687E192E00E948E0B8FEE91E0C1
:103B90000E948E0B83EB91E00E948E0B84E991E0F2
:103BA0000E948E0B6FEF80E0DF91CF911F910F91FC
:103BB000FF90EF90DF90CF90BF90AF909F908F904D
:103BC0007F900C94AF1B2D32B9F581818A32B9F404
:103BD0000E949F1510925E0389E794E00E948E0B6D
:103BE000DF91CF911F910F91FF90EF90DF90CF90D9
:103BF000BF90AF909F908F907F900C94BF18E091F2
:103C00005E03EE2369F3E150E0935E0327E1E29F58
:103C1000F0011124EE5FFC4F82850E94700A84E758
:103C200094E00E948E0B80915E0390E001960E94CA
:103C3000B91688E694E0D2CF6EE874E10E94451C84
:103C4000B82E3FEF83136FC0F601808191810E94EF
:103C5000290C6F3F49F0BB24BA94B60EFFEFBF1694
:103C600019F021E0271588F086E094E0DF91CF91EC
:103C70001F910F91FF90EF90DF90CF90BF90AF908A
:103C80009F908F907F900C948E0B80915E038B158C
:103C900069F08FED93E00E948E0B80915E0390E0BF
:103CA00001960E94B91685ED93E0E0CF33E03B1515
:103CB00070F080E022E033E08B1560F4295E3F4F26
:103CC000F9013D979081992329F08F5FF5CF8BE81B
:103CD00093E0CCCF8B1107C087E1B89EF00111248F
:103CE000EE5FFC4F12860B2D10E0E7E1BE9EC00197
:103CF00011249C012E5F3C4F7901F6016281738192
:103D000081E793E00E9406198F3F91F0C1E0C80F50
:103D1000F2E0F71508F01DC1C13009F0D6C0D1E0BE
:103D200062E0A62E08C091E09715E8F2682F3CCF1C
:103D3000AA24A394D0E0EA2DF0E0EE0FFF1FEC0DD3
:103D4000FD1D6081718149E050E0C7010E94FB3197
:103D500087E1809FF001819FF00D1124EE5FFC4F01
:103D60001186D1115AC0C1E0CA0DC71508F4B3C0FD
:103D7000AA24A394AC0EA71488F5C0E0EA2DF0E0C5
:103D8000EE0FFF1FEC0DFD1D6081718189E593E051
:103D90000E940619833099F497E1909FF001919F5A
:103DA000F00D1124EE5FFC4F9285933041F02BEF24
:103DB000290F223020F09950923008F080E097E1EE
:103DC000909FF001919FF00D1124EE5FFC4F9285C2
:103DD000983099F18F3F91F5C11175C0A394912C42
:103DE000A71408F450C0A394A71408F0B2C0EA2D99
:103DF000F0E0EE0FFF1FEC0DFD1D4081518187E1CA
:103E0000809FE001819FD00D1124CE5FDC4F6D8536
:103E1000C7010E949E198D879CC0CA2DA71408F067
:103E2000F2C0CD2FC33041F5C1E0A8CF3DE0361739
:103E300008F072C0AA24AA946FC082E097E1909F14
:103E4000F001919FF00D1124EE5FFC4F838787876F
:103E5000C3CFC53009F07DC0CACF70E00E94EE0923
:103E60009EC08A850E945B09998B888BA4C0DD2344
:103E700009F47ECFAC2EC2E0A71408F06AC0C430AB
:103E800041F799249394EA2DF0E0EE0FFF1FEC0D1B
:103E9000FD1D4081518187E1809FE001819FD00D10
:103EA0001124CE5FDC4F6C85C7010E949E198C8760
:103EB0009F85911104C091E0811190E09D87992028
:103EC00009F491CF46C0C3E0D7CF82E0A82EC2301C
:103ED00009F0A8CFD1E0EC2FF0E0EE0FFF1FEC0DC2
:103EE000FD1D808191810E94290C6F3F7105810524
:103EF000910521F018F06FEF7FEFCB01A62E28E09F
:103F0000621394CF87E1809FF001819FF00D11240F
:103F1000EE5FFC4F82E0878727E1209FC001219F51
:103F2000900D1124FC01EE5FFC4F4F0182858A1534
:103F300009F49DCFFFEFAF1609F499CF0E94700AE4
:103F4000F401A286DD2309F413CFD2E0C71508F4EB
:103F50005AC080915E038B1104C081E08B0D809369
:103F60005E030E94BF1887E1809FE001819FD00D12
:103F70001124CE5FDC4FDB84DF86ED2DF0E0E359CA
:103F8000FE4FC0806C2D8A850E94B209F1E0CF12ED
:103F900068CF6C858A85D11060CF0E94840987E143
:103FA000809FF001819FF00D1124EE5FFC4F84850E
:103FB00090E0918B808BC7010E94170D0E944B0AE5
:103FC00027E1209FF001219FF00D1124EE5FFC4FAF
:103FD000628B738B848B958B81E0868B6B2D8B2D05
:103FE0000E94AF1B6B2D8B2DDF91CF911F910F91F5
:103FF000FF90EF90DF90CF90BF90AF909F908F9009
:104000007F900C941A15AC2ECD2F36CFBF92CF9245
:10401000DF92EF92FF920F931F93CF93DF93F62ED1
:104020008A0161116FC010915E03112309F458C019
:104030001150C2E0D3E0F12CE12C07E1670185E0EB
:1040400091E00E948E0B8FEFE81AF80AC7010E94D8
:10405000B91682E091E00E948E0B0C9DF0010D9D3F
:10406000F00D1124EE5FFC4F6089718990E080E0D3
:104070004AE00E9449168FEF90E00E948E0BEF8578
:10408000F0E0EE0FFF1FEF5CFE4F808191810E94F8
:104090003E168FEC91E00E943E168F85823050F1E3
:1040A000833069F187EE90E00E948E0BCE010E9472
:1040B0003E1685EE90E00E948E0B8F85823020F4B4
:1040C00089ED90E00E948E0B88EC91E00E943E16F4
:1040D00086ED90E00E948E0B67961E1508F0AECF1D
:1040E000DF91CF911F910F91FF90EF90DF90CF90D4
:1040F000BF90089585EF90E00E948E0BD3CF89EE9C
:1041000090E0FACF6EE874E1FA01808191810E941B
:10411000451C8F3F69F482E591E0DF91CF911F91BB
:104120000F91FF90EF90DF90CF90BF900C948E0B8B
:10413000C82FD0E0F1E0FF1568F18DE491E00E9416
:104140008E0BCE0101960E94B9168AE491E00E947E
:104150008E0B27E12C9FC0012D9F900D1124EC01A7
:10416000CE5FDC4F6889798990E080E04AE00E9468
:10417000491687E491E00E948E0BEF85F0E0EE0F88
:10418000FF1FEF5CFE4F808191810E943E1684E408
:1041900091E0C3CFF80182819381FC0120812F330C
:1041A00091F487E18C9FF0018D9FF00D1124EE5F5B
:1041B000FC4F6089718990E080E04AE00E944916D6
:1041C00081E491E0AACF27E12C9F80012D9F100D63
:1041D00011240E5F1C4FF801B784EB2DF0E0E3597A
:1041E000FE4F2081213019F085E191E096CF0E94A9
:1041F000290CF8013285B11034C021E0672B682BFF
:10420000692B09F420E0C22ED12CF12CE12C622F75
:10421000832F0E9484090E944B0A27E12C9FF00102
:104220002D9FF00D1124EE5FFC4F628B738B848BFE
:10423000958BD18AC08A81E0868B80E191E00E94D3
:104240008E0BCE0101960E94B9168DE091E00E947E
:104250008E0B4AE0C701B6010E9449168AE091E040
:104260005CCF6B017C01FFEFCF16D104E104F104B8
:1042700029F020F0C12CD12C7601CA94B601832FED
:104280000E94EE09C8CFFF920F931F93CF93DF9345
:10429000662351F061ED71E0DA018D919C910E94ED
:1042A000E431D1E0892B09F0D0E08CEA9EE00E9455
:1042B0008E0B83E090E00E94B91689E59EE00E9493
:1042C0008E0B82E090E00E94B91687E59EE00E9486
:1042D0008E0B87E290E00E94B91684E59EE00E9472
:1042E0008E0B85E09EE00E948E0B04E811E0C0E09A
:1042F000F801F280DD2311F0F2FC0DC08C2F0E943A
:104300004317F5FE08C0D801ED91FC9150E040E064
:1043100060E08C2F0995CF5F0D5F1F4FC23141F7D1
:10432000DF91CF911F910F91FF900895CF92DF926F
:10433000EF92FF920F931F93CF93DF93662351F079
:1043400065ED71E0FA01808191810E94E431892B51
:1043500009F494C08EE59DE00E948E0B0E944B0AEA
:104360006B017C016FEF8AEC94E00E94410B6EEFD1
:104370008AEC94E00E94410BC701B6010E947A0CBE
:1043800040915E0390E080E037E121E0841770F413
:10439000389FF001399FF00D1124EE5FFC4FC28A67
:1043A000D38AE48AF58A268B0196F0CF0E94C00C4E
:1043B000D7E1C0911304CC2319F10E9418130E9475
:1043C00027110E945E0E0E94C00C8AEC94E00E94AD
:1043D000FF0A892B71F38AEC94E00E94DD0A6FEFEB
:1043E0008F33B9F58AEC94E00E94410B6EEF8AECB2
:1043F00094E00E94410B0E944B0A0E947A0CD9CF94
:1044000080915E03C81708F7DC9F800111240E5FBE
:104410001C4FF80182850E945B096C017C01FF241E
:10442000F80180899189E816F90689F06C2F8AECE9
:1044300094E00E94410B6C2D8AEC94E00E94410BA9
:104440000E944B0A0E947A0CF801F18AE08ACF5F41
:10445000D7CF8AEC94E00E94410B6FEF8AEC94E096
:104460000E94410B0E944B0ADF91CF911F910F9147
:10447000FF90EF90DF90CF900C947A0C82E99DE052
:104480000E948E0B0E944B0A6B017C016FEF8AEC3D
:1044900094E00E94410B8EEF90E00E946D0CC701EA
:1044A000B6010E947A0C40915E0390E080E037E113
:1044B00021E0841770F4389FF001399FF00D11242A
:1044C000EE5FFC4FC28AD38AE48AF58A268B019676
:1044D000F0CF0E94960CD7E1C0911304CC2311F1C8
:1044E0000E9418130E9427110E945E0E0E94960CD3
:1044F0008AEC94E00E94FF0A892B71F38AEC94E025
:104500000E94DD0A6FEF8F3391F58AEC94E00E94F0
:10451000410B8EEF90E00E946D0C0E944B0A0E94AE
:104520007A0CDACF80915E03C81710F7DC9F800108
:1045300011240E5F1C4FF80182850E945B097C01EB
:10454000F80180899189E816F90679F06C2F8AECD8
:1045500094E00E94410BC7010E946D0C0E944B0A1F
:104560000E947A0CF801F18AE08ACF5FDBCF8AECF7
:1045700094E00E94410B8FEF90E00E946D0C72CF8F
:104580008F929F92AF92BF92CF92DF92EF92FF9263
:104590000F931F93CF93DF93EC0109900020E9F76D
:1045A00021978C018C179D0789F46FEF7FEFCB016A
:1045B000DF91CF911F910F91FF90EF90DF90CF90FF
:1045C000BF90AF909F908F900895E7017E010C17E8
:1045D0001D07D0F4FE0182917F01082E000C990B7B
:1045E0000E94B82F892B89F75E017501F501829130
:1045F0005F01082E000C990B0E94D131892B21F00C
:104600000A151B0590F37501CE19DF09DD27AE01F0
:1046100068ED71E0C7010E94ED31812C47E8942ECE
:1046200043E9A42E43E0B42E892B21F0812C912C58
:1046300054018394AE016DED71E0C7010E94ED312C
:10464000892B39F420E4822E22E4922E2FE0A22E30
:10465000B12CAE016CED71E0C7010E94ED31892BE8
:1046600031F498EE892E93E0992EA12CB12CAE0155
:104670006FED71E0C7010E94ED31892B21F4812C8F
:10468000912C540183946EE270E0C8010E94D931EC
:10469000892B89F1C8010E94102E6B017C01C50194
:1046A000B4010E94DE2FA70196010E943F300E94B4
:1046B00067316F3FFFEF7F078F079F0709F475CFC3
:1046C000611571058105910509F472CF61157105B8
:1046D000810520E4920720F06FEF7FEF8FEF9FE3DB
:1046E000643671058105910508F062CF64E670E0DB
:1046F00080E090E05DCFC8010E94290CA5019401E3
:104700000E949631D6CF4F925F926F927F928F9296
:104710009F92AF92BF92CF92DF92EF92FF920F9350
:104720001F93CF93DF93CDB7DEB760970FB6F894A2
:10473000DEBF0FBECDBFD62E5A01662341F0FA016F
:1047400080819181FC0120812F3309F055C085EED5
:1047500099E00E948E0B8BEB99E00E948E0B80E912
:1047600099E00E948E0B8DE299E00E948E0B8EEFF5
:1047700098E00E948E0B8BEE98E00E948E0B84E0F6
:1047800090E00E94B91687EE98E00E948E0B88ECAC
:1047900098E00E948E0B89E090E00E94B91684ECAC
:1047A00098E00E948E0B83E698E00E948E0B87E0D3
:1047B00098E00E948E0B83EA97E00E948E0B8AE3BA
:1047C00097E00E948E0B84EE96E00E948E0B86EAA4
:1047D00096E00E948E0B86E696E00E948E0B84E2A5
:1047E00096E00E948E0B8CEE95E00E948E0B6FEF90
:1047F00080E00E94801A21C02D32B1F581818A3279
:1048000039F41092130487E39BE00E948E0B15C0CD
:1048100080911304882389F081E39BE00E948E0B32
:10482000809113040E94BF1685E29BE00E948E0BCC
:104830008091130481508093130460960FB6F8940E
:10484000DEBF0FBECDBFDF91CF911F910F91FF90C3
:10485000EF90DF90CF90BF90AF909F908F907F9020
:104860006F905F904F9008956BE37DE00E94451C30
:10487000582EFFEF8F1329C0F501808191810E948E
:10488000290C6F3F49F055245A94560EFFEF5F16DE
:1048900019F021E02D1518F08FEB9AE0B6CF80913A
:1048A0001304851569F086E99AE00E948E0B8091C9
:1048B0005E0390E001960E94B9168CE89AE0A5CFBD
:1048C000843040F081E69AE0A0CF31E03D1510F051
:1048D000682F8FCF052D10E067E571E0F50182812B
:1048E00093810E94231CC82EFFEF8F1791F0EE24B6
:1048F000E394E80E22E02D1508F4F0C222E0F22E37
:10490000FD1408F06BC295E0E912E2C1EE24E394D5
:104910002BC1FF24F394912CEF2DF0E0EE0FFF1F3D
:10492000EA0DFB1D608171818DE2E82E5E9CC00165
:10493000112449E050E0815A9C4F0E94FB31E09ED7
:10494000F001E19EF00D1124E15AFC4F1186911007
:104950000DC0EE24E394EF0CED14A8F0FF24F394C3
:10496000FE0CFD1408F0D1C0E12CA5C0E92CFD140B
:1049700008F49CC0E92C48C132E0E2E0FE2EE312CC
:1049800095C099249394EE2DF0E0EE0FFF1FEA0DF1
:10499000FB1D63E471E0808191810E94231CC82E7D
:1049A0004FEF841749F08DE2809FF001819FF00D59
:1049B0001124E15AFC4FC286992081F2FE2CED149D
:1049C00008F094C2F2E0EF2EFD1408F05EC089E01A
:1049D000E8126EC2EE24E394EF2DF0E0EE0FFF1F1D
:1049E000EA0DFB1D808191810E94C0226F3F5FEF25
:1049F00075078507950729F12DE2209FF001219F7A
:104A0000F00D1124E15AFC4F2685378540895189E4
:104A1000232B242B252B49F0643671058105910544
:104A200020F464E670E080E090E02DE2209FF00149
:104A3000219FF00D1124E15AFC4F628F738F848FF8
:104A4000958F8DE2809FF001819FF00D1124E15A36
:104A5000FC4F86859785A089B189892B8A2B8B2B62
:104A600089F0828D938DA48DB58D84369105A10535
:104A7000B10540F484E690E0A0E0B0E0828F938F2F
:104A8000A48FB58FEE2009F4BCC180911304851169
:104A900004C081E0850D80931304652D852D0E944F
:104AA000801A652D852D0E94E114C7CE53E0E512D2
:104AB00039C0EE24E3948DE2809FF001819FF00DD8
:104AC0001124E15AFC4F2285223088F0EF2DF0E0CE
:104AD000EE0FFF1FEA0DFB1D808191816EE874E1EE
:104AE000273010F06BE37DE00E94451CC82E8FEF4D
:104AF000C81649F08DE2809FF001819FF00D1124CE
:104B0000E15AFC4FC386E11005C0F394FD1440F553
:104B1000E12C0DC063E0962EFD1408F02BCF83E04E
:104B2000E82E52CF94E0E912EECEEE24E394EF2D7E
:104B3000F0E0EE0FFF1FEA0DFB1D6081718180E345
:104B40009AE00E9406198F3F49F09DE2909FF00184
:104B5000919FF00D1124E15AFC4F8587E1103DC073
:104B6000F394FD14A0F5E12CEF2DF0E0EE0FFF1F04
:104B7000EA0DFB1D808191814DE2409F9001419F94
:104B8000300D1124F901E15AFC4F4F0125852430E5
:104B900038F56EE874E10E94451C8F3F31F127E142
:104BA000829FF0011124EE5FFC4F9285983021F432
:104BB000F40184858F3FC9F09DE2909FF001919FA1
:104BC000F00D1124E15AFC4F8487E1101BC0F394CF
:104BD000FD1408F0D7C0E12C80C044E0E42E90CE54
:104BE0006BE37DE00E94451CE5CF8DE2809FF001E4
:104BF000819FF00D1124E15AFC4F8585843029F7FF
:104C00008FEFE2CF25E0E22EFD1408F0DDCE58E074
:104C1000E512DACEEE24E394EF2DF0E0EE0FFF1F65
:104C2000EA0DFB1D808191810E94C0226F3F4FEFF2
:104C300074078407940729F12DE2209FF001219F3A
:104C4000F00D1124E15AFC4F2685378540895189A2
:104C5000232B242B252B49F0643671058105910502
:104C600020F464E670E080E090E02DE2209FF00107
:104C7000219FF00D1124E15AFC4F668B778B808FBA
:104C8000918F8DE2809FF001819FF00D1124E15AF8
:104C9000FC4F86859785A089B189892B8A2B8B2B20
:104CA00089F086899789A08DB18D84369105A105FB
:104CB000B10540F484E690E0A0E0B0E0868B978BED
:104CC000A08FB18FEE2009F497C028E0E22E7CCEB1
:104CD000F6E0EF1286C0EE24E394EF2DF0E0EE0F45
:104CE000FF1FEA0DFB1D808191810E94CA0B97FD79
:104CF0006EC0DC01CB018E3F2FEF9207A2072FE39E
:104D0000B20724F08DEF9FEFAFEFBFE32DE2209FBE
:104D1000F001219FF00D1124E15AFC4F86879787FF
:104D2000A08BB18B892B8A2B8B2B51F1828D938D8C
:104D3000A48DB58D84369105A105B10540F484E6B6
:104D400090E0A0E0B0E0828F938FA48FB58F8DE2CA
:104D5000809FF001819FF00D1124E15AFC4F86895C
:104D60009789A08DB18D84369105A105B10540F4D8
:104D700084E690E0A0E0B0E0868B978BA08FB18FA7
:104D8000E1102AC0F394FD1490F5E12CEF2DF0E032
:104D9000EE0FFF1FEA0DFB1D808191810E94C02252
:104DA0006F3F3FEF73078307930761F02DE2209F6A
:104DB000F001219FF00D1124E15AFC4F628B738B9F
:104DC000848B958BEE2099F037E0E32EFDCD8EEFAE
:104DD0009FEFAFEFBFE39ACF86E0E82EFD1408F017
:104DE00054CEE7E0EE1213CFEE24E394CFCFF3944A
:104DF000E12CFD1408F410CFF394E12CFD1408F419
:104E0000EBCDF394FD1408F040CE8F2D90E0880F89
:104E1000991FA80EB91EF501A080B180412C66240F
:104E20006394712CF5018081882309F449C06501E0
:104E3000F60181917F01882309F442C0082E000CFD
:104E4000990B0E94B82F892BB9F55701F701819171
:104E50004F01882339F0082E000C990B0E94B82FBF
:104E6000892B61F1EC18FD08F0E1EF16F1041CF05C
:104E70004FE0E42EF12CA701B601CE0101960E946D
:104E8000FB3121E030E02C0F3D1FE20EF31EF70155
:104E90001082B90188E09AE00E9406198F3F11F252
:104EA000930102C0220F331F8A95E2F7422ABACF3C
:104EB0008AE0E812EACDA9CF6701BACF7401C5CF65
:104EC0003FEF431609F4E1CD8DE2809FF001819F11
:104ED000F00D1124E15AFC4F468ED7CD41E0E4128B
:104EE0004BCD9924939492E0F92E16CD92E0E92EC1
:104EF00007CDCF92DF92EF92FF920F931F93CF9344
:104F0000DF936623C1F0DA01ED91FC9190819F332C
:104F100091F0282F30E0F901EE0FFF1FE20FF31F91
:104F2000EC57FE4F128114FD06C091E08F3009F45A
:104F300090E0992351F0DF91CF911F910F91FF9055
:104F4000EF90DF90CF900C944317EA01B8E28B9F6B
:104F5000C00111248C51914F0E948E0B8BED9DE06E
:104F60000E948E0B8881998113FF26C00E94142E07
:104F700097FF03C060E070E0CB0116161706180615
:104F8000190624F461E070E080E090E0609318047A
:104F90007093190480931A0490931B040E948D1639
:104FA00088ED9DE0DF91CF911F910F91FF90EF90E1
:104FB000DF90CF900C948E0BEC01C12CD12C76019C
:104FC000E991EE23D1F00E2E000CFF0BF097EA30A2
:104FD000F10598F4AAE0B0E0A70196010E9416310D
:104FE0008F01FF0F220B330B060F171F281F391FCE
:104FF0000C151D052E053F05C8F4C701B601611546
:1050000071058105910521F061E070E080E090E09C
:10501000609318047093190480931A0490931B04EE
:105020004AE00E94491685ED9DE0BCCF68017901F8
:10503000C7CFAF92BF92CF92DF92EF92FF920F93C2
:105040001F93CF93DF93C62F7A01611149C0D0918E
:105050001304DD23D1F10FE513E0EE24E394F12CEA
:105060008C2F0E94AA14D82E86E495E00E948E0B05
:10507000C7010E94B91683E495E00E948E0B8D2D26
:105080000E94BF16F80183A580FF04C081E495E06B
:105090000E948E0BF80183A581FF04C08FE395E089
:1050A0000E948E0B8CE295E00E948E0BC8010E943C
:1050B0003E168DEE94E00E948E0BCF5FFFEFEF1A4D
:1050C000FF0A035D1F4FDC13CBCFDF91CF911F9100
:1050D0000F91FF90EF90DF90CF90BF90AF90089529
:1050E0006BE37DE0FA01808191810E94451C182FBD
:1050F00086EB95E01F3FC1F1A12EB12CC23008F024
:105100003FC0812F0E94AA14C82F86E595E00E9417
:105110008E0BC50101960E94B91683E595E00E94A9
:105120008E0B8C2F0E94BF168DE28A9DF0018B9D05
:10513000F00D1124E15AFC4F83A580FF04C081E5E6
:1051400095E00E948E0B8DE28A9DF0018B9DF00D03
:105150001124E15AFC4F83A581FF04C08FE495E040
:105160000E948E0B8CE495E0DF91CF911F910F91FF
:10517000FF90EF90DF90CF90BF90AF900C948E0B8C
:10518000F70182819381FC012081022E000C330BF8
:10519000205331092A30310578F50E94142E6B0115
:1051A0007C0187E895E0FFEFCF16D104E104F1041C
:1051B000D9F2D701C6010297A109B1098F3F2FEF9C
:1051C0009207A207B20709F466C0FCF48E3F9F4F16
:1051D000AF4FBF4F09F443C08FE595E00E948E0B9F
:1051E000F601EE0FFF1FE55CFE4F808191810E946A
:1051F0003E168CE595E0B8CF6CE974E10E94451C41
:10520000C82ED12CF12CE12CCCCF0097A105B105F3
:1052100031F10197A105B105F9F68DE28A9DF00102
:105220008B9DF00D1124E15AFC4F878D90A1A1A117
:10523000B2A18E3F9F4FAF4FBF4F70F20E944B0AFB
:10524000AB01BC01812FDF91CF911F910F91FF9096
:10525000EF90DF90CF90BF90AF900C94A0128DE2B2
:105260008A9DE0018B9DD00D1124C15ADC4F8F8D9A
:1052700098A1A9A1BAA18F3F9F4FAF4FBF4F0CF488
:10528000ABCF8E8D80688E8F812F0E9418148E8DEB
:105290008F778E8F1ACF8DE28A9DF0018B9DF00D56
:1052A0001124E15AFC4F878D90A1A1A1B2A18E3F9C
:1052B0009F4FAF4FBF4F09F08FCF812FDF91CF911D
:1052C0001F910F91FF90EF90DF90CF90BF90AF9024
:1052D0000C94B60D1F920F920FB60F9211242F93BC
:1052E0003F938F939F93AF93BF938091C20490910C
:1052F000C304A091C404B091C5043091C10423E05B
:10530000230F2D3758F50196A11DB11D2093C1041F
:105310008093C2049093C304A093C404B093C504C3
:105320008091C6049091C704A091C804B091C904AB
:105330000196A11DB11D8093C6049093C704A0934C
:10534000C804B093C904BF91AF919F918F913F91D1
:105350002F910F900FBE0F901F90189526E8230FE6
:105360000296A11DB11DD2CF1F920F920FB60F92C0
:1053700011242F933F934F935F936F937F938F935A
:105380009F93AF93BF93EF93FF93E0910301F0914D
:1053900004010995FF91EF91BF91AF919F918F917A
:1053A0007F916F915F914F913F912F910F900FBE21
:1053B0000F901F9018951F920F920FB60F92112405
:1053C0002F933F934F935F936F937F938F939F930D
:1053D000AF93BF93EF93FF93E0910101F09102012E
:1053E0000995FF91EF91BF91AF919F918F917F911F
:1053F0006F915F914F913F912F910F900FBE0F9042
:105400001F9018951F920F920FB60F9211242F9391
:105410003F934F935F936F937F938F939F93AF933C
:10542000BF93EF93FF938AEC94E00E941F0BFF91D0
:10543000EF91BF91AF919F918F917F916F915F910C
:105440004F913F912F910F900FBE0F901F90189585
:105450001F920F920FB60F9211242F938F939F9349
:10546000EF93FF93E091DA04F091DB048081E09107
:10547000E004F091E10482FD1BC090818091E3047F
:105480008F5F8F732091E404821741F0E091E30471
:10549000F0E0E653FB4F958F8093E304FF91EF918B
:1054A0009F918F912F910F900FBE0F901F90189585
:1054B0008081F4CF1F920F920FB60F9211242F9379
:1054C0003F934F935F936F937F938F939F93AF938C
:1054D000BF93EF93FF93E0910601F09107010995C7
:1054E000FF91EF91BF91AF919F918F917F916F91BC
:1054F0005F914F913F912F910F900FBE0F901F9092
:105500001895CF93DF9300D01F92CDB7DEB7789474
:1055100084B5826084BD84B5816084BD85B58260B8
:1055200085BD85B5816085BD80916E008160809369
:105530006E001092810080918100826080938100D2
:1055400080918100816080938100809180008160E2
:10555000809380008091B10084608093B10080913D
:10556000B00081608093B00080917A008460809365
:105570007A0080917A00826080937A0080917A002C
:10558000816080937A0080917A00806880937A00AD
:105590001092C100E091DA04F091DB0482E0808394
:1055A000E091D604F091D7041082E091D804F091F4
:1055B000D90413E010831092E204E091DE04F0912C
:1055C000DF0486E08083E091DC04F091DD048081DB
:1055D00080618083E091DC04F091DD04808188604B
:1055E0008083E091DC04F091DD0480818068808319
:1055F000E091DC04F091DD0480818F7D80838CEA72
:105600009EE00E948E0B83E090E00E94B9168AEA29
:105610009EE00E948E0B82E090E00E94B91688EA1C
:105620009EE00E948E0B87E290E00E94B91685EA08
:105630009EE00E948E0B81E89EE00E948E0B90E11E
:10564000909381001092800084E08093170422E1FF
:105650003AE7309316042093150430938700209383
:10566000860084E18093810025E932E130930701CF
:105670002093060181E080936F00909381008093D6
:10568000050110921404109218041092190410923B
:105690001A0410921B040E94B915109213046FEFA4
:1056A00080E00E94E114BE016D5F7F4F90E080E0DA
:1056B0000E943D188B81833041F01983BE016F5FDA
:1056C0007F4F90E080E00E944718BE016E5F7F4FE1
:1056D00081E090E00E943D188A81823049F082E0AA
:1056E0008983BE016F5F7F4F81E090E00E94471881
:1056F0008B81833091F58A81823079F582E090E068
:105700000E940031D82E24E0281710F404E0D02E97
:10571000D0925E0312E0E12E13E0F12E03E010E0E0
:1057200002501340C12CCD1409F480C05701470129
:1057300030E1830E911CC501800F911F0E94003142
:10574000D5018D935D01A815B905A9F7C394B7E1FB
:10575000EB0EF11C07501109E6CF83E69EE00E9494
:105760008E0B0E94BF180E948C181092050162E0F7
:1057700088E00E94B20988E00E945B0921E000975E
:1057800009F020E020931404892B09F0B9C18FB7E8
:10579000F8948090C2049090C304A090C404B09088
:1057A000C5048FBFA4EF4A2E55245394612C712C4D
:1057B00088E00E945B09892B09F0A2C12FB7F894F9
:1057C0006091C2047091C3048091C4049091C50497
:1057D0002FBF681979098A099B09693823E1720783
:1057E0008105910508F080C1A30192010E94A631B4
:1057F00069017A01672B682B692BD1F631E0C3165A
:10580000D104E104F10421F461E085E00E94B209D1
:10581000C094D094E094F094C701B60161707727EA
:105820008827992785E00E948409C2CF0E947115BC
:1058300083E490E00E940031982EE3E0E81708F43A
:1058400094CF8093130404E410E00F551340F12C1F
:10585000E12CBDE28B2EE914F0F48E9CC0018F9CEC
:10586000900D11249C01215A3C4F5901DC01A25892
:10587000BC4F6D01C501800F911F0E940031F501E1
:1058800081935F01EC15FD05A9F7FFEFEF1AFF0A01
:105890000E501109E0CF6FEF80E00E94E11465CF58
:1058A00082EE91E00E943E1636C11093080180916D
:1058B0009C0490919D041D3009F45EC1FC01E45EDE
:1058C000FB4F1083019690939D0480939C04FC01F0
:1058D000E45EFB4F10828F3791050CF427C14CC159
:1058E000F801E45EFB4F6F01F093C004E093BF0446
:1058F0005F01D5019D905D010E151F058CF4892D6A
:10590000092C000C990B0E94B82F892B49F4BDE398
:105910009B1649F0EBE59E1631F00F5F1F4FE9CF64
:10592000992009F471C0F801E45EFB4F10820F5F0B
:105930001F4FF9E09F1228C080E020911C04E82F3F
:10594000F0E0EE0FFF1FE256FB4F803110F4211103
:1059500003C08093BE0458C0D801A45EBB4FA1937E
:10596000B1938F5F9D910E151F052CF4993029F08E
:105970000F5F1F4FF7CF993041F7F801E45EFB4FFF
:1059800010820F5F1F4FD9CF2BE59216E1F0C801AF
:10599000845E9B4F5C010E151F0564F4DC018C9145
:1059A000082E000C990B0E94B82F892B19F00F5F5D
:1059B0001F4FEDCFBDE39B1631F0F50180818D3394
:1059C00011F40F5F1F4F6EE9A62E64E0B62E412C36
:1059D0009801245E3B4F4901D4015D904D010E15A5
:1059E0001F0574F4852D052C000C990B0E94B82F0F
:1059F000892B19F4BDE35B1203C00F5F1F4FECCF7F
:105A000051103DC04092BE0434EEE32E3EE0F32E32
:105A100010E0B701C6010E943B2E892B39F01F5FB1
:105A2000E8E2EE0EF11C1231A1F710E0812F90E0B8
:105A3000FC01EE0FFF1FE80FF91FEC57FE4F01901E
:105A4000F081E02D4EE954E06091BE04099510927A
:105A50009D0410929C0410921C040E9418130E9432
:105A600027110E945E0E6114710409F458C00E944F
:105A70000B0B882309F453C00E94000050C0E7E2DA
:105A80005E1222C00F5F1F4FF801E45EFB4F808162
:105A90008B3521F40F5F1F4F4DE5542EF801E45E66
:105AA000FB4FD501ED93FD935D01439481910E155C
:105AB0001F056CF4882309F4A5CF581659F08D33CF
:105AC00049F00F5F1F4FF2CF50E2552EDDCF8823F4
:105AD00009F498CFF801E45EFB4F10820F5F1F4F6F
