:100000000C94F9080C9496290C946F290C942109EE
:100010000C9421090C9421090C9421090C942109B8
:100020000C9421090C9421090C9421090C942109A8
:100030000C9421090C94152A0C9421090C94210983
:100040000C9425290C9421090C94E3290C94BD29C6
:100050000C9421090C943C2A0C9421090C9421093C
:100060000C9421090C9421094E414E494E49545992
:10007000494E46CDCCCC3D0AD7233C17B7D1387773
:10008000CC2B329595E6241FB14F0A000020410089
:1000900000C84200401C4620BCBE4CCA1B0E5AAED3
:1000A000C59D740D0A00090009000900270900090F
:1000B00027002000696E646578096E616D650970BE
:1000C000696E096D6F646509696E697409746F679B
:1000D000676C650D0A000D0A0020286C6F777C683C
:1000E0006967682900270027005B3020746F203281
:1000F00035355D20005B3020746F20315D20003A83
:1001000020005D3D0070696E5B000D0A005D3D00E2
:1001100070696E5B0070696E206572726F723A2052
:1001200063616E6E6F74207365742073746174659F
:10013000206F6620696E7075742070696E2E0D0ACE
:10014000000D0A000D0A003A20005D3D0070696E46
:100150005B0070696E206572726F723A2066697218
:10016000737420617267756D656E742073686F7546
:100170006C642062652070696E20696E6465782009
:100180006F72206E616D652E0D0A006C6F772C68A2
:1001900069676800203C746F67676C653E203A2091
:1001A0003C70776D3E205B3020746F203235355DBA
:1001B0000D0A00203C696E69743E2020203A203CE4
:1001C0006F75747075743E205B3020746F20315DE4
:1001D00020286C6F777C6869676829203C70776D90
:1001E0003E205B3020746F203235355D0D0A0020D3
:1001F0003C6D6F64653E2020203A20286F75747036
:1002000075747C696E7075747C70756C6C75707CBF
:1002100070776D7C616463290D0A005D0D0A002012
:100220003C70696E3E202020203A205B3020746FA5
:1002300020005D0D0A00203C6E616D653E2020208F
:100240003A2071756F7465642070696E206E616DFF
:1002500065205B005D0D0A00203C696E6465783E98
:1002600020203A205B3120746F2000206470696E7A
:10027000203C696E6465783E7C3C6E616D653E2015
:100280003C73657474696E673E205B3D5D203C760F
:10029000616C75653E3A206368616E6765206F6EBC
:1002A000652070726F70657274790D0A0020647039
:1002B000696E203C696E6465783E203C6E616D65B8
:1002C0003E203C70696E3E203C6D6F64653E203C74
:1002D000696E69743E203C746F67676C653E3A20B6
:1002E000646566696E652070696E0D0A0020647031
:1002F000696E202D5B2A5D203A2064656C6574650B
:10030000206C6173742070696E20282A203D206162
:100310006C6C290D0A00206470696E203F2020203B
:10032000203A2073686F7720616C6C2070696E20B2
:10033000646566696E6974696F6E730D0A00436F58
:100340006D6D616E64206470696E3A20436F6E66F5
:1003500069677572652050696E730D0A006F757458
:100360007075742C696E7075742C70756C6C75700A
:100370002C70776D2C616463006E616D652C706903
:100380006E2C6D6F64652C696E69742C746F676771
:100390006C65006572726F723A206E6F206D6F72BD
:1003A00065206E65772070696E732063616E2062D0
:1003B0006520646566696E65642E207479706520B9
:1003C0002770696E2720746F2073656520646566E9
:1003D000696E65642070696E732E0D0A002066696F
:1003E0007273742E0D0A0070696E20617267756DEC
:1003F000656E74206572726F723A20706C656173FD
:100400006520646566696E652070696E200070699C
:100410006E20617267756D656E74206572726F72A1
:100420003A20666972737420617267756D656E74C7
:100430002073686F756C642062652070696E206936
:100440006E646578206F72206E616D652E20747900
:100450007065202770696E2720746F207365652092
:10046000646566696E65642070696E732E0D0A009E
:100470002064656C657465642E0D0A0070696E20D9
:1004800000616C6C2070696E732064656C657465C6
:10049000642E0D0A00270D0A002700090009000933
:1004A00000090009000900090009000900090069A4
:1004B0006E646578096E616D650974726967676558
:1004C0007209736F7572636509616374696F6E0990
:1004D00074617267657409636F756E740964656C25
:1004E000617909757009646F776E096F7074696F4F
:1004F0006E730D0A0027202869646C657C61726D3B
:1005000065647C66696E69736865647C666972653A
:100510006429202A3A7472696767657265642C20C1
:100520002B3A7374617274207472696767657265BF
:10053000640D0A003A205B3020746F20335D5B2A23
:100540005D5B2B5D2027002B002A005D3D00746160
:10055000736B5B000D0A002B002A005D3D00746187
:10056000736B5B000D0A006572726F723A207461E2
:10057000736B2073746174757320636F756C642082
:100580006E6F742062652073657420746F2000653F
:1005900072726F723A207365636F6E642061726766
:1005A000756D656E742073686F756C64206265206C
:1005B0007461736B2073746174652E0D0A0065722B
:1005C000726F723A20666972737420617267756D1A
:1005D000656E742073686F756C6420626520746149
:1005E000736B20696E646578206F72206E616D6533
:1005F0002E0D0A00203C6F7074696F6E733E3A20B6
:100600002861726D2D6F6E2D66696E697368206149
:10061000726D2D6F6E2D7374617274757020696EBA
:100620007465727275707473290D0A00203C646FD2
:10063000776E3E2020203A206E5B737C6D737C7554
:10064000735D20646F776E2074696D653A20302089
:100650006F72206265747765656E20313030207569
:100660007320616E642031373A35330D0A00203C27
:1006700075703E20202020203A206E5B737C6D73C5
:100680007C75735D2075702074696D653A2030202B
:100690006F72206265747765656E20313030207529
:1006A0007320616E642031373A35330D0A00203CE7
:1006B00064656C61793E20203A206E5B737C6D73BB
:1006C0007C75735D2064656C61793A2030206F72AF
:1006D000206265747765656E203130302075732037
:1006E000616E642031373A35330D0A00203C636F68
:1006F000756E743E20203A205B2D3120746F2031BE
:100700003037333734313832305D2072657065618F
:100710007420636F756E743A202D3120666F7220DD
:10072000636F6E74696E756F75732C203020666F01
:10073000722073696E676C6520616374696F6E0DFA
:100740000A00203C7461726765743E203A203C6F59
:1007500075747075742D70696E3E20286F75747095
:1007600075742070696E2D696E646578206F7220D3
:1007700070696E2D6E616D6529203C6F75742D74E6
:1007800061736B3E20287461736B2D696E646578AC
:10079000206F72207461736B2D6E616D6529203C32
:1007A0006164633E20286164632070696E2D696E08
:1007B000646578206F722070696E2D6E616D652999
:1007C000203C6E6F6E653E2028290D0A00203C619A
:1007D0006374696F6E3E203A203C6F757470757457
:1007E0002D70696E3E20286C6F777C686967687C25
:1007F000746F67676C6529203C6F75742D74617325
:100800006B3E202861726D7C73746172747C7265BA
:1008100073746172747C73746F707C6B69636B2921
:10082000203C6164633E202861646329203C6E6F34
:100830006E653E20286E6F6E65290D0A00203C73A0
:100840006F757263653E203A203C696E7075742D39
:1008500070696E3E2028696E7075742070696E2D07
:10086000696E646578206F722070696E2D6E616D9F
:100870006529203C696E2D7461736B3E202874617C
:10088000736B2D696E646578206F72207461736B71
:100890002D6E616D65290D0A00203C7472696767D1
:1008A00065723E3A203C736F6674776172653E20D4
:1008B000286175746F7C6D616E75616C29203C696F
:1008C0006E7075742D70696E3E202875707C646F33
:1008D000776E7C616E797C686967687C6C6F77295C
:1008E000203C696E2D7461736B3E202873746172B5
:1008F000747C73746F70290D0A005D0D0A00203C32
:100900006E616D653E2020203A2071756F746564BC
:10091000207461736B206E616D65205B005D0D0A54
:1009200000203C696E6465783E20203A205B3120CF
:10093000746F200020647461736B203C696E646581
:10094000783E7C3C6E616D653E203C70726F7065D8
:100950007274793E205B3D5D203C76616C75653E2E
:100960000D0A0020647461736B203C696E646578C5
:100970003E203C6E616D653E203C74726967676520
:10098000723E203C736F757263653E203C616374F8
:10099000696F6E3E203C7461726765743E203C63F3
:1009A0006F756E743E203C64656C61793E203C75C9
:1009B000703E203C646F776E3E203C6F7074696FB0
:1009C0006E733E0D0A0020647461736B202D5B2AE8
:1009D0005D203A2064656C657465206C61737420D9
:1009E0007461736B20282A203D20616C6C290D0AEC
:1009F0000020647461736B203F202020203A207314
:100A0000686F7720616C6C207461736B206465661D
:100A1000696E6974696F6E730D0A00436F6D6D6165
:100A20006E64207461736B3A20646566696E652F2D
:100A300064656C657465207461736B0D0A00617286
:100A40006D2D6F6E2D66696E6973682C61726D2DE8
:100A50006F6E2D737461727475702C696E7465722B
:100A60007275707473006E6F6E652C6C6F772C6886
:100A70006967682C746F67676C652C6164632C739D
:100A8000746F702C73746172742C726573746172FC
:100A9000742C61726D2C6B69636B006572726F727E
:100AA0003A206E6F206D6F7265206E6577207461DD
:100AB000736B732063616E2062652063726561747D
:100AC00065642E0D0A002066697273742E0D0A008B
:100AD0007461736B20617267756D656E74206572E9
:100AE000726F723A20706C65617365206465666927
:100AF0006E65207461736B20007461736B2061728A
:100B000067756D656E74206572726F723A206669E2
:100B100072737420617267756D656E742073686F8F
:100B2000756C64206265207461736B20696E646506
:100B300078206F72206E616D652E2074797065204B
:100B4000277461736B2720746F207365652064655B
:100B500066696E6564207461736B732E0D0A0020E4
:100B600064656C657465642E0D0A007461736B2096
:100B700000616C6C207461736B732064656C6574C8
:100B800065642E0D0A0061726D20617267756D6576
:100B90006E74206572726F723A2066697273742087
:100BA000617267756D656E742073686F756C642013
:100BB0006265207461736B20696E646578206F7262
:100BC000206E616D652E20747970652027746173C5
:100BD0006B2720746F2073656520646566696E6598
:100BE00064207461736B732E0D0A002061726D6551
:100BF000642E0D0A007461736B2000206973206EEF
:100C00006F742069646C652E0D0A0061726D206539
:100C100072726F723A207461736B20006469736141
:100C2000726D20617267756D656E74206572726F8A
:100C3000723A20666972737420617267756D656EB1
:100C4000742073686F756C64206265207461736BC7
:100C500020696E646578206F72206E616D652E204C
:100C60007479706520277461736B2720746F20730B
:100C7000656520646566696E6564207461736B7375
:100C80002E0D0A00206973206E6F742061726D65ED
:100C9000642E0D0A0064697361726D206572726F53
:100CA000723A207461736B200020737461727465F2
:100CB000642E0D0A007461736B2000206973206E2E
:100CC0006F742069646C65206F722061726D656459
:100CD0002E0D0A0066697265206572726F723A2085
:100CE0007461736B20006669726520617267756D4F
:100CF000656E74206572726F723A206669727374E1
:100D000020617267756D656E742073686F756C64B1
:100D1000206265207461736B20696E646578206F52
:100D200072206E616D652E2074797065202774279E
:100D300020746F2073656520646566696E65642044
:100D40007461736B732E0D0A000D0A002073746FAB
:100D5000707065642E0D0A007461736B2000616C05
:100D60006C207461736B732073746F707065642E84
:100D70000D0A000D0A0020007420000D0A0020005A
:100D80007020002E0D0A007461736B7320777269F6
:100D90007474656E2E0D0A00456E746572696E6717
:100DA000206F7363696C6C6F73636F7065206D6F18
:100DB00064652E2053656E6420616E7920636861DE
:100DC00072616374657220746F20656E642E0D0A03
:100DD00000726573657420646F6E652E0D0A000DD8
:100DE0000A000D0A003D000D0A003A20005D2000B7
:100DF00020746F20005B003A20003D005D20002041
:100E0000746F20005B003A20003D003A0D0A00207C
:100E10004F757470757473204469676974616C20D0
:100E20005369676E616C73206F7074696F6E616C6B
:100E30006C792073796E6368726F6E697A6564206D
:100E400077697468204469676974616C20496E70C1
:100E50007574205369676E616C732E0D0A000D0A5C
:100E6000002E002E0075730073006D7300726573A1
:100E7000657474696E6720666163746F727920644B
:100E8000656661756C74732E0D0A00656E7465720B
:100E9000203F20746F2073656520617661696C6105
:100EA000626C6520636F6D6D616E64730D0A000D79
:100EB0000A002E002E004E695665724469673A207A
:100EC000566572736174696C652044696769746101
:100ED0006C2050756C736520436F6E74726F6C6C10
:100EE000657220616E642053636F7065200000009E
:100EF000000000000000436F6D6D616E64730000C0
:100F000000000000000000000000000000000000E1
:100F10000000000000003F000000000000005B67D0
:100F200075695D2053686F772073746174757320E1
:100F3000616E6420636F6D6D616E64730000706933
:100F40006E000000000053657420616E64205175CE
:100F50006572792050696E20537461747573000056
:100F60000000000000007461736B00000000536516
:100F70007420616E64205175657279205461736BC1
:100F800020537461747573000000000000006172EA
:100F90006D00000000003C7461736B3E3A204172AA
:100FA0006D205461736B0000000000000000000021
:100FB00000000000000064697361726D00003C7401
:100FC00061736B3E3A2044697361726D20546173A2
:100FD0006B7300000000000000000000000073744C
:100FE0006172740000003C7461736B3E3A2053746C
:100FF000617274205461736B0000000000000000F7
:1010000000000000000073746F70000000005B3C83
:101010007461736B3E207C20215D3A2053746F70A5
:10102000205461736B0000000000000000002E00DF
:101030000000000000005265706F727420737461CC
:101040007465206368616E676573000000000000CE
:101050000000000000000000000000000000436FDE
:101060006E666967000000000000000000000000DC
:10107000000000000000000000000000000064709C
:10108000696E00000000446566696E652050696EF7
:1010900073205B5D00000000000000000000000005
:1010A000000000000000647461736B000000446580
:1010B00066696E65205461736B73205B5D00000090
:1010C0000000000000000000000000000000777237
:1010D00069746500000053617665205461736B7319
:1010E0000000000000000000000000000000000000
:1010F00000000000000073636F70650000004F7314
:1011000063696C6C6F73636F7065204D6F6465000D
:101110000000000000000000000000000000656307
:10112000686F000000004563686F20286F66662CBA
:101130006F6E2900000000000000000000000000A9
:1011400000000000000072657365740000004661D5
:1011500063746F727920526573657400000000003B
:1011600000000000000000000000000000006861B6
:101170006C740000000048616C7420616C6C205439
:1011800061736B732028302C3129000000000000AF
:1011900000000000000000000000240027002A00DA
:1011A00000000000250028002B00000000002300A4
:1011B00026002900040404040404040402020202B8
:1011C000020203030303030301020408102040800A
:1011D0000102040810200102040810200000000889
:1011E00000020100000304070000000000000000EE
:1011F000B52D11241FBECFEFD8E0DEBFCDBF26E056
:10120000A0EFB2E001C01D92AF30B207E1F712E0EB
:10121000A0E0B1E0ECEBF3E602C005900D92A03F38
:10122000B107D9F718E0C9EFD8E004C02197FE0153
:101230000E949A31C83FD107C9F70E947F2A0C94B7
:10124000DC310C940000833081F028F4813099F077
:101250008230A9F008958730A9F08830C9F0843031
:10126000B1F4809180008F7D03C0809180008F77E2
:1012700080938000089584B58F7784BD089584B5E8
:101280008F7DFBCF8091B0008F778093B000089561
:101290008091B0008F7DF9CFCF93DF93282F30E07E
:1012A000F901E452FE4E8491F901E853FE4ED491C7
:1012B000F901EC54FE4EC491CC23A1F081110E949F
:1012C0002309EC2FF0E0EE0FFF1FE655FE4EA5912F
:1012D000B491EC91ED2381E090E009F480E0DF919E
:1012E000CF91089580E090E0FACF1F93CF93DF93E2
:1012F000282F30E0F901E452FE4E8491F901E853C1
:10130000FE4ED491F901EC54FE4EC491CC23A9F0C9
:10131000162F81110E942309EC2FF0E0EE0FFF1F22
:10132000E056FE4EA591B4918FB7F894EC9111114F
:1013300008C0D095DE23DC938FBFDF91CF911F9142
:101340000895DE2BF8CFCF93DF9390E0FC01E853B4
:10135000FE4E24918C549E4EFC0184918823C9F04A
:1013600090E0880F991FFC01EA56FE4EA591B491BA
:10137000FC01E056FE4EC591D49161110DC09FB79E
:10138000F8948C91209582238C938881282328833C
:101390009FBFDF91CF910895623051F49FB7F894C9
:1013A0003C91822F809583238C93E8812E2BEFCF65
:1013B0008FB7F894EC912E2B2C938FBFEACF1F930D
:1013C000CF93DF93182FEB0161E00E94A3092097D0
:1013D00039F460E0812FDF91CF911F910C94750952
:1013E000CF3FD10511F461E0F5CFE12FF0E0E452F9
:1013F000FE4EE491E33031F140F4E130B1F0E230FF
:10140000E1F0C038D1057CF7E4CFE73029F1E830CE
:1014100059F1E430B1F780918000806280938000C0
:10142000D0938B00C0938A0004C084B5806884BDCB
:10143000C7BDDF91CF911F91089584B5806284BDAF
:10144000C8BDF7CF80918000806880938000D093E2
:101450008900C0938800EDCF8091B00080688093B0
:10146000B000C093B300E5CF8091B000806280935C
:10147000B000C093B400DDCF8E3008F08E5087707E
:10148000806480937C0080917A00806480937A00ED
:1014900080917A0086FDFCCF809178009091790050
:1014A00008953FB7F89480916C0590916D05A091D7
:1014B0006E05B0916F0526B5A89B05C02F3F19F0AA
:1014C0000196A11DB11D3FBFBA2FA92F982F8827C4
:1014D000BC01CD01620F711D811D911D42E0660F9F
:1014E000771F881F991F4A95D1F70895823068F4B5
:1014F000E82FF0E0813051F0E898EE0FFF1FEE5F2B
:10150000FE4F88E89AE0918380830895E998F5CFAB
:101510000895E82FF0E0EE0FFF1FEE5FFE4F71839E
:101520006083813041F0809169008C7F482B40932B
:101530006900E89A089580916900837F440F551FE0
:10154000440F551F482B40936900E99A0895AF92C4
:10155000BF92CF92DF92EF92FF920F931F93CF93A0
:10156000DF936C017B018B01040F151FEB015E0102
:10157000AE18BF08C017D10759F06991D601ED9197
:10158000FC910190F081E02DC6010995892B79F736
:10159000C501DF91CF911F910F91FF90EF90DF90E8
:1015A000CF90BF90AF900895FC01538D448D252FAF
:1015B00030E0842F90E0821B930B541710F0CF96ED
:1015C000089501970895FC01918D828D981761F01F
:1015D000A28DAE0FBF2FB11D5D968C91928D9F5F36
:1015E0009F73928F90E008958FEF9FEF0895FC0115
:1015F000918D828D981731F0828DE80FF11D858DC8
:1016000090E008958FEF9FEF0895FC01918D228D5A
:10161000892F90E0805C9F4F821B91098F739927DF
:10162000089580E795E00E94050B21E0892B09F4DD
:1016300020E0822F089580E090E0892B29F00E941D
:10164000110B81110C9400000895FC01A48DA80FCA
:10165000B92FB11DA35ABF4F2C91848D90E00196F4
:101660008F739927848FA689B7892C93A089B18914
:101670008C91837080648C93938D848D981306C0B5
:101680000288F389E02D80818F7D80830895EF9219
:10169000FF920F931F93CF93DF93EC0181E0888F2C
:1016A0009B8D8C8D98131AC0E889F989808185FFFC
:1016B00015C09FB7F894EE89FF896083E889F9899E
:1016C00080818370806480839FBF81E090E0DF91A0
:1016D000CF911F910F91FF90EF900895F62E0B8DF3
:1016E00010E00F5F1F4F0F731127E02E8C8D8E11AE
:1016F0000CC00FB607FCFACFE889F989808185FF15
:10170000F5CFCE010E94250BF1CFEB8DEC0FFD2F15
:10171000F11DE35AFF4FF0829FB7F8940B8FEA89CF
:10172000FB8980818062CFCF0F931F93CF93DF938C
:101730008C01D0E0C0E0F801EC0FFD1F649166233E
:1017400041F080E795E00E94470B892B11F021962C
:10175000F2CFCE01DF91CF911F910F910895CF93DA
:10176000DF93EC01888D8823B9F0AA89BB89E889C9
:10177000F9898C9185FD03C0808186FD0DC00FB66F
:1017800007FCF7CF8C9185FFF2CF808185FFEDCFED
:10179000CE010E94250BE9CFDF91CF9108950895E6
:1017A0008F929F92AF92BF92CF92DF92EF92FF9271
:1017B0000F931F93CF93DF93EC01888110E08D325C
:1017C00011F4219611E08881082E000C990BC09726
:1017D0000A9710F500E0C12CD12C7601FE01E00F34
:1017E000F11DE0810E2E000CFF0BF097EA30F105A1
:1017F000C0F4AAE0B0E0A70196010E94E8304F01D2
:10180000FF0FAA08BB08860E971EA81EB91E8C14CF
:101810009D04AE04BF04B4F4CC24CA94DC2C76013D
:1018200002C0111113C0C701B601DF91CF911F9102
:101830000F91FF90EF90DF90CF90BF90AF909F906F
:101840008F9008950F5F75016401C8CFF094E09404
:10185000D094C094C11CD11CE11CF11CE4CF8F9228
:101860009F92AF92BF92CF92DF92EF92FF921F931F
:10187000CF93DF93EC0110E0C12CD12C7601FE0157
:10188000E10FF11DE0810E2E000CFF0BF097EA3006
:10189000F105D8F4AAE0B0E0A70196010E94E83073
:1018A0004F01FF0FAA08BB08860E971EA81EB91E7F
:1018B0008C149D04AE04BF0420F01F5F7501640109
:1018C000DECFCC24CA94DC2C7601C701B601DF91AF
:1018D000CF911F91FF90EF90DF90CF90BF90AF908E
:1018E0009F908F9008951F93CF93DF93172FD82F3A
:1018F000C92F80E795E00E94470B612F80E795E0B4
:101900000E94470B6D2F80E795E00E94470B6C2FDC
:1019100080E795E0DF91CF911F910C94470B0F93D7
:101920001F93CF93DF9310E007E1809150031817C6
:1019300060F5019FE0011124CC50DD4F8E89882392
:10194000C9F01E8A8F85612F8430B1F480E795E05D
:101950000E94470B68897989769567957695679592
:1019600080E795E00E94470B6A897B898C899D8975
:101970000E94730C1F5FD9CF80E795E00E94470B50
:101980008A850E944C09682FEBCFDF91CF911F9180
:101990000F91089508951F93CF93DF93EC01162FB5
:1019A0008F85882391F08330A1F00E94510A6A8BC1
:1019B0007B8B8C8B9D8B612F70E0798B688B81E0AA
:1019C0008E8BDF91CF911F9108958A850E947509B2
:1019D000ECCF662339F01D85612F70E08A850E9467
:1019E000DF09E3CF1C85F8CFDC011A968C911A979A
:1019F00090E0823021F09FEF833009F491E01F9650
:101A0000EC911F97E43091F0F0E0EA59FE4F20810D
:101A1000213061F09F3F51F090E0823021F09FEF44
:101A2000833009F491E01E969C9308958FEF1E96E3
:101A30008C9308958F3F59F09091B904891750F411
:101A40002DE2829FC00111248F5A9C4F089581EB93
:101A500091E0089590E080E00895282F30E09DE225
:101A6000899FF0011124EF5AFC4F13A692859250E2
:101A7000933098F54091B904A1E5B3E090E03B962E
:101A8000491781F09B965C919B97533041F49817CE
:101A900031F060811B965C911B976517F1F09F5F99
:101AA0009D96EECF8DE2829FF001839FF00D112471
:101AB000EF5AFC4FE38587E1E89FF0011124EC50D9
:101AC000FD4F8285823029F0833029F08FEF0C940E
:101AD000760A80E0FCCF81E0FACF0895CF93DF93C0
:101AE000C82FD0E09DE2899FF0011124EF5AFC4FEE
:101AF00093A5933011F40E942D0D8FB7F8949DE2B9
:101B00009C9FF0019D9FF00D1124EF5AFC4F4EEF6A
:101B10005FEF6FEF7FEF478F50A361A372A38FBF7B
:101B200081E084A7DF91CF9108951F93CF93DF9336
:101B3000182FC82FD0E02DE2829FF0011124EF5A18
:101B4000FC4F8FEF9FEFDC01878F90A3A1A3B2A37F
:101B5000868D82FB992790F993A791E094A79285AF
:101B60009530A9F4E38527E1E29FF0011124EC50C0
:101B7000FD4F20893189232BC1F00E94510AAB010E
:101B8000BC01812FDF91CF911F910C94A012963050
:101B900009F04CC0E38527E1E29FF0011124EC50ED
:101BA000FD4F20893189232B41F382FF66C08EEFE0
:101BB000890F833008F04CC08DE28C9FF0018D9F1F
:101BC000F00D1124EF5AFC4FE38587E1E89FF00107
:101BD0001124EC50FD4F26852F3F09F44EC082851D
:101BE000823041F18330B9F481E0E22FF0E0EE0F72
:101BF000FF1FE051FD4F1083918343E050E092308E
:101C000031F041E050E0933011F442E050E0222303
:101C100099F02130C1F08DE28C9FF0018D9FF00D85
:101C20001124EF5AFC4F83E083A727C0992309F4BE
:101C3000A4CFBBCF80E0D9CF91E09CBB6EEA74E12A
:101C40000E94890AE8CF92E09CBB66EA74E1F8CF73
:101C50009750923090F4EDE2EC9FD001ED9FB00DE3
:101C60001124AF5ABC4F1B968C91E89FF0011124B0
:101C7000EF5AFC4F868D82FDCECFDF91CF911F9121
:101C800008954F925F926F927F928F929F92AF9240
:101C9000BF92CF92DF92EF92FF920F931F93CF9359
:101CA000DF939090BA04911079C08DE2882E9EEF58
:101CB000492E55245A94652C752C8091B904981698
:101CC00008F06CC0C92CD12C8C9CF0018D9CF00DBF
:101CD0001124EF5AFC4F878D90A1A1A1B2A1892BAD
:101CE0008A2B8B2B09F058C0868D80FF43C0892D2D
:101CF0000E94950D01E513E0F12CE12C8C9CE00194
:101D00008D9CD00D1124CF5ADC4F5E0123E2A20E30
:101D1000B11CA7968091B9048E151F04E9F1E4F176
:101D2000CE14DF0409F1F801878D90A1A1A1B2A121
:101D30008F3F9F4FAF4FBF4FB9F4F8018285883076
:101D400099F48385891110C0F50140815181628128
:101D5000738188819981AA81BB81480F591F6A1FAD
:101D60007B1F8E2D0E94A012FFEFEF1AFF0A035D6A
:101D70001F4FD0CF83A5833019F4892D0E942D0DDC
:101D80008C9CF0018D9CF00D1124EF5AFC4F478E76
:101D900050A261A272A2AECF93948FCFDF91CF9168
:101DA0001F910F91FF90EF90DF90CF90BF90AF9079
:101DB0009F908F907F906F905F904F9008954F927B
:101DC0005F926F927F928F929F92AF92BF92DF92BB
:101DD000EF92FF920F931F93CF93DF93DFB6F894A8
:101DE0004091B90450E001E513E0F80190E080E093
:101DF0008417950734F4268D2068268F0196BD96AA
:101E0000F7CFC1E5D3E0F12CE12C812C912C5401CA
:101E100083948091B90490E0E816F906D4F48F8E8B
:101E200098A2A9A2BAA20E94510A4BA05CA06DA0E0
:101E30007EA064197509860997096FA378A789A7F9
:101E40009AA78E2D0E94650F8FEFE81AF80AAD96BB
:101E5000E0CFE1E5F3E030E020E08217930739F0CE
:101E6000468D4068468F2F5F3F4FBD96F6CF0E944C
:101E7000410ED0E0C0E08091B90490E0C817D907C6
:101E80002CF48C2F0E946E0D2196F5CF30E020E0CF
:101E90008217930749F0F801468D4F77468F2F5FE1
:101EA0003F4F035D1F4FF4CFDFBEDF91CF911F91F6
:101EB0000F91FF90EF90DF90BF90AF909F908F9029
:101EC0007F906F905F904F9008958F929F92AF9206
:101ED000BF92CF92DF92EF92FF921F93CF93DF9347
:101EE000C82FD0E02DE2829FF0011124EF5AFC4F61
:101EF000878D90A1A1A1B2A1181619061A061B067A
:101F00000CF095C0682F61704C015D0121E0821AD0
:101F10009108A108B108878E90A2A1A2B2A2892837
:101F20008A288B2899F486849784A088B1882EEF1C
:101F300082162FEF9206A2062FE3B20639F4268D01
:101F400027FD04C0878E90A2A1A2B2A22DE22C9FF1
:101F5000F0012D9FF00D1124EF5AFC4F878C90A0BB
:101F6000A1A0B2A081149104A104B10469F421E0FC
:101F700024A7C684D784E088F188CD28CE28CF282E
:101F800019F08095682F61702DE22C9FF0012D9F34
:101F9000F00D1124EF5AFC4F9585953008F0BDC027
:101FA000248580915003281788F4E22EF12C87E1D4
:101FB000289FA00111244C505D4F923009F45DC060
:101FC00008F041C06927913009F457C08DE28C9F19
:101FD000F0018D9FF00D1124EF5AFC4F478D50A159
:101FE00061A172A1141615061606170604F587A13D
:101FF00090A5A1A5B2A540FD11C146895789608D64
:10200000718D840F951FA61FB71F2DE22C9FF00125
:102010002D9FF00D1124EF5AFC4F0097A10520E4ED
:10202000B20708F000C187A390A7A1A7B2A7DF91CC
:10203000CF911F91FF90EF90DF90CF90BF90AF9026
:102040009F908F9008959330E1F0943009F0BECFC7
:10205000209301018E9DF0018F9DF00D1124EC5015
:10206000FD4F82858E3008F08E508770806480939B
:102070007C008FEC80937A00A9CFCA010E94CB0C20
:10208000A5CF662309F4A2CF8E9DF0018F9DF00DA0
:102090001124EC50FD4F87858823B9F0833041F13E
:1020A0000E94510A27E12E9DF0012F9DF00D112471
:1020B000EC50FD4F628B738B848B958B612F70E09E
:1020C000718B608B81E0868B81CF8089918911E053
:1020D000892B09F010E087E18E9DF0018F9DF00DB6
:1020E0001124EC50FD4F612F82850E947509D8CFD5
:1020F0008089918914851817190609F41585612FAF
:1021000070E087E18E9DF0018F9DF00D1124EC5061
:10211000FD4F82850E94DF09C3CF662309F456CFA5
:10212000868D87FD53CF84853091B904831708F0DD
:102130006CC0E82EF12C973009F455C040F595306D
:1021400009F460C0963009F448C08DE28E9DD0013C
:102150008F9DB00D1124AF5ABC4F8C9FF0018D9F05
:10216000F00D1124EF5AFC4F43A154A165A176A1B3
:1021700087A090A4A1A4B2A4480D591D6A1D7B1D7F
:1021800093964D935D936D937C9396971FCF983064
:1021900009F19930D1F62E9DF0012F9DF00D1124FB
:1021A000EF5AFC4F478D50A161A172A14E3F9FEFA6
:1021B00059076907790749F2141615061606170616
:1021C0000CF19DE29C9FF0019D9FF00D1124EF5AB0
:1021D000FC4F09C00E94950DB8CF181419041A04B9
:1021E0001B040CF4B2CF43A154A165A176A187A032
:1021F00090A4A1A4B2A4480D591D6A1D7B1D0E9484
:10220000A012A3CF0E94B614A0CF8F3F09F0DECE5C
:10221000953009F0DBCE0E94DF0ED8CE428D538D73
:10222000648D758DEECE8F5F9F4FAF4FBF4387A3F9
:1022300090A7A1A7B2A783A194A1A5A1B6A1019738
:10224000A109B04C83A394A3A5A3B6A3F0CECF92CB
:10225000DF92EF92FF920F931F93CF93DF93C1E52D
:10226000D3E010E000E08091B90480171106F1F08E
:10227000ECF08BA5811116C00E94510ACBA0DCA006
:10228000EDA0FEA06C197D098E099F09CFA0D8A4EE
:10229000E9A4FAA46C157D058E059F0518F0802F22
:1022A0000E94650F0F5F1F4FAD96DDCFDF91CF917D
:1022B0001F910F91FF90EF90DF90CF9008952F9294
:1022C0003F924F925F926F927F928F929F92AF92C6
:1022D000BF92CF92DF92EF92FF920F931F93CF9313
:1022E000DF9300D01F92CDB7DEB72FB72983F894C4
:1022F0008FEF809300010E94510A2B013C01312C89
:10230000CC24CA94DC2C76012DE2222E8091B904D3
:10231000381608F079C0032D10E0209EC001219EE0
:10232000900D11248F5A9C4F9B838A83FC0183A5B7
:10233000882309F467C04F01FFE18F0E911CEA81E9
:10234000FB81878D90A1A1A1B2A1181619061A06CA
:102350001B060CF057C083A194A1A5A1B6A147A16B
:1023600050A561A572A5840F951FA61FB71F8419DC
:102370009509A609B709B3965F012A813B81295DBA
:102380003F4F3B832A8382339105A105B10504F5B4
:10239000832D0E94650FF50180819181A281B38117
:1023A000EA81FB814081518162817381840F951F95
:1023B000A61FB71F84199509A609B709F401408122
:1023C0005181628173811416150616061706DCF218
:1023D000209E9001219E300D11242F5A3C4FF9016F
:1023E000478D50A161A172A1141615061606170695
:1023F0004CF48C159D05AE05BF0520F4309200010C
:102400006C017D01339482CF809100018F3FD1F127
:10241000F1E8CF16FFEFDF06FFE7EF06F10450F01B
:102420008FEF8093000180E8C82EDD24DA948FE7D7
:10243000E82EF12CA0EAB0E0A70196010E94E83056
:102440006B017C0124E130E040E050E00E947831F3
:102450002115310581E04807510560F581E0809341
:10246000BD043093BC042093BB048091BB049091C5
:10247000BC0490938700809386008091BD048061A6
:102480008093810029812FBF0F900F900F90DF91D3
:10249000CF911F910F91FF90EF90DF90CF90BF9061
:1024A000AF909F908F907F906F905F904F903F90F4
:1024B0002F9008952115310598E04907510560F4E2
:1024C00082E08093BD04C701B60120EA30E040E01D
:1024D00050E00E947831C5CF21153105E0E44E0768
:1024E000510550F483E08093BD04C701B60120E09C
:1024F00035E040E050E0EDCF211531054105514078
:1025000050F484E08093BD04C701B60120E034E1BB
:1025100040E050E0DECF85E08093BD04C701B60106
:1025200020E030E540E050E0D4CF80E180938100AE
:10253000809100018F3F11F00E94650F0C945F1194
:102540008F929F92AF92BF92CF92DF92EF92FF92C3
:102550000F931F93CF93C82ED12C2DE2829FF001B1
:102560001124EF5AFC4F968D97FD56C04A015B012E
:10257000C82F1FB7F89483A294A2A5A2B6A242893D
:1025800053896489758947A350A761A772A7868577
:102590009785A089B189880F991FAA1FBB1F019633
:1025A000A11DB11D878F90A3A1A3B2A381E084A731
:1025B000452B462B472B19F48C2D0E94650F17FDD8
:1025C0000E945F111FBF01E513E0F12CE12C809107
:1025D000B9048E151F0401F1FCF0CE14DF04B1F034
:1025E000F801878D90A1A1A1B2A18F3F9F4FAF4F5E
:1025F000BF4F61F4F8018285873041F483858C13E5
:1026000005C0B501A4018E2D0E94A012FFEFEF1AA4
:10261000FF0A035D1F4FDBCFCF911F910F91FF90FA
:10262000EF90DF90CF90BF90AF909F908F900895E4
:102630007F928F929F92AF92BF92CF92DF92EF9252
:10264000FF920F931F93CF93DF9394EFC92E92E0E5
:10265000D92E10E000E027E1922E88248394809107
:1026600050038017110609F00CF46AC0F601878543
:10267000E82FF0E0EA59FE4F9081913009F45AC0FA
:10268000843009F457C0F60182850E944C099C01F0
:102690003327909EE001919ED00D1124CC50DD4F48
:1026A000488959892417350709F444C0782E398B95
:1026B000288B0E94510A6A8B7B8B8C8B9D8B8E8A18
:1026C00081E5E82E83E0F82EB12CA12C6296809152
:1026D000B9048A151B0471F16CF1F70192859230EF
:1026E00010F1838580131FC0478D50A161A172A195
:1026F0004F3F5F4F6F4F7F4FB1F4933079F050F4FD
:10270000923079F0488159816A817B818A2D0E94BB
:10271000A01209C0953029F09630A1F7772091F3E7
:1027200002C07110EFCF8FEFA81AB80AEDE2EE0EDB
:10273000F11CCDCF0F5F1F4FF7E1CF0ED11C8FCF14
:10274000DF91CF911F910F91FF90EF90DF90CF908D
:10275000BF90AF909F908F907F900895CF92DF921F
:10276000EF92FF920F931F93CF93DF9388E99DE041
:102770000E94940B0E94510A6B017C016FEF80E76D
:1027800095E00E94470B6EEF80E795E00E94470BB3
:10279000C701B6010E94730C4091500390E080E0A5
:1027A00037E121E0841770F4389FF001399FF00D74
:1027B0001124EC50FD4FC28AD38AE48AF58A268B15
:1027C0000196F0CF0E948F0CD7E1C091B904CC23C1
:1027D00019F10E9418130E9427110E94410E0E94B5
:1027E0008F0C80E795E00E94050B892B71F380E741
:1027F00095E00E94E30A6FEF8F33B9F580E795E02B
:102800000E94470B6EEF80E795E00E94470B0E9405
:10281000510A0E94730CD9CF80915003C81708F752
:10282000DC9F800111240C501D4FF80182850E940D
:102830004C096C017C01FF24F80180899189E8161C
:10284000F90689F06C2F80E795E00E94470B6C2D0C
:1028500080E795E00E94470B0E94510A0E94730C8A
:10286000F801F18AE08ACF5FD7CF80E795E00E9438
:10287000470B6FEF80E795E00E94470B0E94510ADB
:10288000DF91CF911F910F91FF90EF90DF90CF904C
:102890000C94730CCF93C82F0E94510AAB01BC015A
:1028A000EC2FF0E0EE0FFF1FE051FD4F8081918192
:1028B0002DE2829FF0011124EF5AFC4F238530E076
:1028C000923069F497E1929FF001939FF00D1124EB
:1028D000EC50FD4FA1E0B0E0B18BA08B0CC0933069
:1028E000D9F497E1929FF001939FF00D1124EC50E1
:1028F000FD4F118A108A97E1929FF001939FF00D8E
:102900001124EC50FD4F428B538B648B758B91E0FF
:10291000968BCF910C94A01297E1929FF001939F18
:10292000F00D1124EC50FD4F0088F189E02DA1E05D
:10293000B0E0EF2B11F0B0E0A0E097E1929FF00142
:10294000939FF00D1124EC50FD4FC6CF81E00E9403
:10295000760A81E00E944A140C945F1180E00E9484
:10296000760A80E00E944A140C945F118F929F9225
:10297000AF92BF92CF92DF92FF920F931F93CF93AC
:10298000DF93C82ED12C1FB7F8949DE29C9DE001E7
:102990009D9DD00D1124CF5ADC4F4F8D58A169A1B8
:1029A0007AA14F3F5F4F6F4F7F4F0CF448C0F82E16
:1029B0008E8D80688E8F81E090E0A0E0B0E08F8FF8
:1029C00098A3A9A3BAA30E94510A8BA09CA0ADA072
:1029D000BEA0681979098A099B096FA378A789A7FE
:1029E0009AA78C2D0E94650F8E8D8F778E8F1FBFBB
:1029F000C1E5D3E010E000E08091B9048017110632
:102A0000F9F0F4F0C016D106B1F08F8D98A1A9A10C
:102A1000BAA18F3F9F4FAF4FBF4F69F48A8588306F
:102A200051F48B858F1107C00E94510AAB01BC0184
:102A3000802F0E94A0120F5F1F4FAD96DDCF1FBFEA
:102A4000DF91CF911F910F91FF90DF90CF90BF90BA
:102A5000AF909F908F90089590915003891738F40C
:102A600027E1829FC00111248C509D4F089590E072
:102A700080E00895843048F4E82FF0E0EE0FFF1F67
:102A8000EC5CFE4F80819181089583EB91E0089585
:102A90009DE2899FF0011124EF5AFC4F878D90A190
:102AA000A1A1B2A1181619061A061B062CF08E5FFA
:102AB000843018F080E0089583E008951F93CF9349
:102AC000DF93C82FD62F8091B904C817A0F46817D8
:102AD00010F0DFEFD80F1DE2DC1768F01C9FF0014B
:102AE0001124EF5AFC4F868D81FF03C08C2F0E946A
:102AF000950DCF5FF1CFDF91CF911F910895CF92C8
:102B0000DF92EF92FF929091B904891760F56917EF
:102B100010F06FEF690F982F3DE22EEFC22EDD24EB
:102B2000DA94ED2CFD2C691780F0399FF001112407
:102B3000EF5AFC4FC78ED0A2E1A2F2A2268D22FB53
:102B4000222720F923A79F5FEECF909106019111D4
:102B50000AC09091BA04911106C0FF90EF90DF90E7
:102B6000CF900C945E15FF90EF90DF90CF9008957A
:102B7000DF92EF92FF920F931F93CF93DF93909189
:102B80005003992309F449C0691710F06FEF690FDA
:102B9000082F10E097E1899FE0011124CC50DD4F10
:102BA000E62EF12C87E1D82EE016F106B4F19F85D0
:102BB0008A85E92FF0E0EA59FE4F20812130A9F4FF
:102BC0006C8591110EC00E9475098C8590E0D09E95
:102BD000F001D19EF00D1124EC50FD4F918B808BB4
:102BE00015C070E00E94DF09F0CF943099F4825F45
:102BF0000E943C0AD09EF001D19EF00D1124EC50B1
:102C0000FD4F208931892817390741F70F5F1F4F82
:102C10006796CACF0E944C09EDCFDF91CF911F91EB
:102C20000F91FF90EF90DF9008950F931F93CF9334
:102C3000DF93C4EFD2E010E000E0809150038017F2
:102C40001106A1F09CF0EB85EF878A85E43009F44A
:102C5000825FF0E0EA59FE4F60810E94A309CE0135
:102C60000E94F40C0F5F1F4F6796E7CF809106011B
:102C7000811107C06FEFDF91CF911F910F910C94DD
:102C8000B815DF91CF911F910F9108950F931F9366
:102C9000CF93DF93C4EFD2E010E000E080915003C7
:102CA0008017110641F03CF08A850E94760A0F5F7A
:102CB0001F4F6796F3CFDF91CF911F910F9108952A
:102CC000CF93DF93CDB7DEB7C554D1090FB6F894D3
:102CD000DEBF0FBECDBF0E944616FE013D9689E3C2
:102CE000DF011D928A95E9F787E0EAE0F1E0DE0175
:102CF000119601900D928A95E1F783E0FE013896D6
:102D0000DF01282F1D922A95E9F792E09B8721E0A9
:102D10002C8728E0E4E1F1E0DE01589601900D9265
:102D20002A95E1F719A218A28AA327E0EEE1F1E0C3
:102D3000DE019F9601900D922A95E1F7FE01F6962D
:102D4000DF01282F1D922A95E9F728E029AF9AAFD5
:102D50008093500385E4F597A4EFB2E001900D92C3
:102D60008A95E1F7CB5BDF4F0FB6F894DEBF0FBE5D
:102D7000CDBFDF91CF910C941516FC01019000207E
:102D8000E9F73197AF01481B590BBC0180E795E08B
:102D90000C94A70A8F929F92AF92BF920F931F93AA
:102DA000CF93DF93CDB7DEB7A1970FB6F894DEBF10
:102DB0000FBECDBF19A2423008F44AE08E010F5D6C
:102DC0001F4F842E912CB12CA12CA50194010E949F
:102DD0007831E62FB901CA01EA30F4F4E05DD80198
:102DE000EE938D01232B242B252B79F790E080E0A7
:102DF000109719F0CD010E94BD16A1960FB6F89458
:102E0000DEBF0FBECDBFDF91CF911F910F91BF905D
:102E1000AF909F908F900895E95CE1CF009711F0FB
:102E20000C94BD1690E080E00895CF92DF92EF926F
:102E3000FF92CF93DF9397FF1BC06B017C016DE284
:102E400080E795E00E94470BEC0166277727CB01CE
:102E50006C197D098E099F094AE00E94CA168C0FE1
:102E60009D1FDF91CF91FF90EF90DF90CF9008955D
:102E70004AE0DF91CF91FF90EF90DF90CF900C94DC
:102E8000CA16BC01990F880B990B0C941517682F63
:102E900070E090E080E04AE00C94CA16662381F06E
:102EA000FA01808191810E942F0C6F3F710581058D
:102EB000910521F018F06FEF7FEFCB016F3F61F4C8
:102EC0008BEB91E00E940E178091BA040E94471785
:102ED00089E49DE00C94940B6093BA0461110C9406
:102EE000DF0E6FEF80E00C947F154F925F926F9230
:102EF0007F928F929F92AF92BF92CF92DF92EF928A
:102F0000FF926B017C0188EE482E83E0582E612CE5
:102F1000712CC701A30192010E94783149015A0125
:102F2000672B682B692BA9F04AE0C701B6010E9404
:102F3000CA1685E69EE0FF90EF90DF90CF90BF909D
:102F4000AF909F908F907F906F905F904F900C9478
:102F5000940BCA01B901A30192010E947831672B39
:102F6000682B692B41F04AE0C501B4010E94CA16E2
:102F70008AE69EE0E0CFC701B60120E432E44FE0EC
:102F800050E00E947831CA01B9014AE00E94CA1695
:102F900088E69EE0D0CFEF92FF920F931F93CF93DE
:102FA000DF93C82F90E0FC01EE0FFF1FE80FF91F21
:102FB000E258FE4FD28188E2C89F70011124870138
:102FC0000A50114FD1FF0DC0C8010E94940B8BE035
:102FD0009EE0DF91CF911F910F91FF90EF900C94A5
:102FE000940B81EC91E00E940E17C7018251914F22
:102FF0000E94940B81E0CE3009F480E081115CC026
:10300000D3FF2FC089E09EE00E94940B6091BE0424
:103010007091BF048091C0049091C1040E94151763
:1030200086E09EE00E94940B84E09EE00E94940B58
:1030300060E070E0CB010E9415178FEF9DE00E94C9
:10304000940B61E070E080E090E00E9415178CEF37
:103050009DE00E94940BC8010E94940B87EE9DE0B6
:10306000B8CF8AEF9DE00E94940B6091BE047091EE
:10307000BF048091C0049091C1044AE00E94CA1626
:1030800087EF9DE00E94940B85EF9DE00E94940BDA
:103090004AE060E070E0CB010E94CA1680EF9DE03C
:1030A0000E94940B4AE061E070E080E090E00E94B2
:1030B000CA168DEE9DE0CDCF8AEE9DE0CACFEF928D
:1030C000FF920F931F93CF93DF9310E007E180915E
:1030D0005003181730F5E12EF12C0E9DE0010F9DE5
:1030E000D00D1124CC50DD4F8E898823C1F01E8A6B
:1030F00080E89DE00E94940BC70101960E94411751
:103100008EE79DE00E94940B6889798990E080E0C9
:103110004AE00E94CA168BE79DE00E94940B1F5F55
:10312000D6CFC0E0DDE28091B904C81720F50C2F9E
:1031300010E0D09FF001D19FF00D1124EF5AFC4F09
:1031400084A58823B1F014A688E79DE00E94940B23
:10315000C80101960E94411786E79DE00E94940BEA
:103160008C2F0E9448150E94471783E79DE00E941C
:10317000940BCF5FD8CF83E89DE0DF91CF911F9173
:103180000F91FF90EF900C94940BCF93DF93EB0192
:103190000E94D2308883CE01DF91CF910895FF92B3
:1031A0000F931F93CF93DF938C01EB01F8800E9464
:1031B000D230F81621F06F2DC8010E94DA30CE010E
:1031C000DF91CF911F910F91FF900895BF92CF9201
:1031D000DF92EF92FF920F931F93CF93DF937C01C7
:1031E000EB018B01040F151FB990F701C080D1804E
:1031F000C6010E94D230B81621F06B2DC6010E9484
:10320000DA30F70180819181019691838083C01724
:10321000D10751F7DF91CF911F910F91FF90EF9060
:10322000DF90CF90BF9008950F931F93CF93DF93BC
:1032300000D0CDB7DEB783E490E09A83898341E084
:1032400050E069EB74E0CE0101960E94E61810E0B0
:103250000DE28091B904181768F4109FB001112491
:103260006F5A7C4F4FE150E0CE0101960E94E61864
:103270001F5FEFCF0F900F90DF91CF911F910F91B4
:1032800008950E94141987E89DE00C94940B0F9305
:103290001F93CF93DF9300D0CDB7DEB782E090E0ED
:1032A0009A83898341E050E060E573E0CE010196A6
:1032B0000E94E61810E007E180915003181768F4A7
:1032C000109FB00111246C507D4F40E150E0CE01C1
:1032D00001960E94E6181F5FEFCF0F900F90DF91CD
:1032E000CF911F910F9108951092BA041092BE04CD
:1032F0001092BF041092C0041092C1040E94601684
:103300000E9447191092B9046FEF80E00E947F1568
:103310000E94141981ED9DE00C94940B3F924F9202
:103320005F926F927F928F929F92AF92BF92CF9255
:10333000DF92EF92FF920F931F93CF93DF93CDB75E
:10334000DEB760970FB6F894DEBF0FBECDBF5C014D
:103350006B01188AFB0101900020E9F73197E61B09
:10336000F70B612C712C00E08FE0482E7F01FF24C9
:103370009FE0892E912C342C301A432D50E0B5015A
:10338000660D711D81E090E08C0F9D1F800F911DD7
:103390000E94162E10E0802F90E0E1E0F0E0EC0FAC
:1033A000FD1FE80FF91F5080552019F02CE2521232
:1033B00030C00F30B1F40FE0112389F0612F70E0BD
:1033C000A401461B570B81E090E08C0F9D1F680FF6
:1033D000791FCE0101960E94CD31042D011B630C93
:1033E000CACF612F70E0861B970B8E159F0561F485
:1033F00081E090E08C0F9D1F680F791FA701C60127
:103400000E94BF31892B49F07394552021F011E0BF
:10341000100F0F5FC0CF77247A94872D60960FB678
:10342000F894DEBF0FBECDBFDF91CF911F910F91FA
:10343000FF90EF90DF90CF90BF90AF909F908F90D4
:103440007F906F905F904F903F900895EF92FF9222
:103450000F931F93CF938C01C62F7A01BA018BE88B
:1034600091E00E948E19682F70E090E080E06F3F3D
:1034700071058105910571F0F8012785233099F4D4
:10348000613071058105910571F46FEF70E080E0A6
:1034900090E009C0C7010E94D00B6F3FFFEF7F078C
:1034A0008F079F0761F0F801278521110FC051E0B8
:1034B000672B682B692B09F450E0852FC82F8C2FC0
:1034C000CF911F910F91FF90EF900895DC01CB01F8
:1034D0008F3F9105A105B10529F024F08FEF90E011
:1034E000A0E0B0E0B7FFEACF80E090E0DC01E6CFFB
:1034F0005F926F927F928F929F92AF92BF92CF9284
:10350000DF92EF92FF920F931F93CF93DF93CDB78C
:10351000DEB760970FB6F894DEBF0FBECDBF6C016B
:103520005B01742E188AFC011082E12C10E000E08F
:103530009FE0592E2FE0822E912C652C601A462D8B
:1035400050E0B5016E0D711D81E090E08C0F9D1F64
:10355000800F911D0E94162EF12CE1E0F0E0EC0F9F
:10356000FD1FE00FF11D80818823D1F08C3229F5F9
:103570000F3029F50FE0FF2089F06F2D70E0A401D6
:10358000461B570B81E090E08C0F9D1F680F791F41
:10359000CE0101960E94CD31052D0F19E60CCDCF3D
:1035A0000F3041F3171569F085E1C82E82E0D82E5F
:1035B00018C01F5FFF24F394F00E0F5FCECF1711DA
:1035C000F8CF0F1910E061E070E06C0F7D1F6F0DF8
:1035D000711DA801C6010E94CD31F601E00FF11F57
:1035E0001082C60160960FB6F894DEBF0FBECDBF45
:1035F000DF91CF911F910F91FF90EF90DF90CF90CF
:10360000BF90AF909F908F907F906F905F90089544
:103610008F929F92AF92BF92CF92DF92EF92FF92E2
:103620000F931F93CF93DF93CDB7DEB760970FB69D
:10363000F894DEBF0FBECDBF082FC62E8091B9040F
:10364000681718F0CC24CA94C80E8FEA94E00E9440
:10365000940B8091B904882309F4F6C0E02EF12C74
:103660002DE2029F800111240F5A1C4FD12C97E1AB
:10367000B92ECE14DF040CF4E7C081EC91E00E9477
:10368000BD168FEFE81AF80AC7010E9441178DEAAC
:1036900094E00E94940BC8010E940E178BEA94E0FC
:1036A0000E94940BD8011A96EC91F0E0EE0FFF1FE8
:1036B000E45CFE4F808191810E940E1789EA94E0BC
:1036C0000E94940BAA24AA94AE0C8091B904A81667
:1036D00008F0A8C0F8019285923008F4A3C0838551
:1036E000973008F09AC090915003891708F09AC05B
:1036F0008B9DC00111248C509D4F0E940E1787EAAC
:1037000094E00E94940BD8011D964C9166E67AE0F5
:10371000CE0101960E94781A0E940E1785EA94E065
:103720000E94940B8091B904A81608F083C0F80198
:1037300084859585953008F078C09091500389175D
:1037400008F078C08B9DC00111248C509D4F0E94C1
:103750000E1783EA94E00E94940BD8011E966D9197
:103760007D918D919C9151976E3FBFEF7B078B07A9
:10377000BFE39B0719F46FEF7FEFCB010E94151792
:1037800081EA94E00E94940BF8016289738984892C
:1037900095890E9475178FE994E00E94940BD801D7
:1037A00056966D917D918D919C9159970E947517B8
:1037B0008DE994E00E94940BF801628D738D848DE5
:1037C000958D0E9475178BE994E00E94940B89E90E
:1037D00094E00E94940BD8015E969C90812CAA24C0
:1037E000A39480E0992049F1992D9A2199F088239A
:1037F00021F081EC91E00E940E17482D6EE37AE0F3
:10380000CE0101960E94781A0E940E178A2D80958B
:10381000982281E08394AA0CE5CF0E941A0D0097AC
:1038200009F06BCF85E192E068CF0E941A0D0097F6
:1038300009F08DCF85E192E08ACF85E994E00E947E
:10384000940B035D1F4F15CF60960FB6F894DEBF43
:103850000FBECDBFDF91CF911F910F91FF90EF90E1
:10386000DF90CF90BF90AF909F908F900895DF92A0
:10387000EF92FF920F931F93CF93DF93CDB7DEB7F5
:1038800060970FB6F894DEBF0FBECDBFF82EE62EC0
:1038900084EB90E00E94940B80915003882309F4FC
:1038A0004CC0E81618F0EE24EA94E80E87E1D82E12
:1038B000EF1408F442C00F2D10E082EB90E00E945C
:1038C000940BC80101960E9441178FEA90E00E9474
:1038D000940BFD9C800111240C501D4FC8010E94C7
:1038E0000E178CEA90E00E94940BF80182850E94EA
:1038F00047178AEA90E00E94940BF80143856DE532
:1039000073E0CE0101960E94781A0E940E1788EA91
:1039100090E00E94940BF80184850E94471786EA84
:1039200090E00E94940BF80185850E94471783EA76
:1039300090E00E94940BF394BBCF60960FB6F8947E
:10394000DEBF0FBECDBFDF91CF911F910F91FF90D2
:10395000EF90DF900895EF92FF920F931F93CF9314
:103960008C017B01C0E0EC2FF0E0EE0FFF1FEE0DAD
:10397000FF1D608171816115710539F0C8010E94D8
:10398000B631892B19F0CF5FEECFCFEF8C2FCF91CF
:103990001F910F91FF90EF900895BF92CF92DF9209
:1039A000EF92FF920F931F93CF93DF937C018B01D4
:1039B000B12C6701CB0CD11CF601C0810C2E000C80
:1039C000DD0BCE010E948A2F892B11F0B394F1CF29
:1039D000E0972A97C0F4C6010E942F0CC62F6F3FB4
:1039E00009F0C1508C2FF8010995892B09F4CFEF0C
:1039F0008C2FDF91CF911F910F91FF90EF90DF906F
:103A0000CF90BF900895C0E08C2FF80109950097E2
:103A100071F3BC01C7010E94B631892B49F3CF5F16
:103A2000F3CFCF93611107C00E94DF0E8EE59DE0BA
:103A3000CF910C94940B6AE17DE0FA018081918131
:103A40000E94CD1CC82F8F3F79F30E94B61488E5E1
:103A50009DE00E94940BFDE2CF9FC00111248F5A7C
:103A60009C4F0E940E178CE49DE0E2CF0F931F93B2
:103A7000CF93DF93611108C086EE9CE0DF91CF9178
:103A80001F910F910C94940BFA016AE17DE0808103
:103A900091810E94CD1CC82F8F3F71F3082F10E039
:103AA000DDE2D09FF001D19FF00D1124EF5AFC4FC1
:103AB000878D90A1A1A1B2A10296A11DB11D02976F
:103AC000A105B10558F084ED9CE00E94940BC8015B
:103AD00001960E9441178BEB9CE0D0CF0E94510AC7
:103AE000AB01BC018C2F0E94A01285EB9CE00E94D0
:103AF000940BCD9FC00111248F5A9C4F0E940E172A
:103B000089EA9CE0BBCFCF93DF93611106C08CE1C3
:103B10009CE0DF91CF910C94940BFA016AE17DE077
:103B2000808191810E94CD1C8F3F89F3C82FD0E006
:103B30009DE2899FF0011124EF5AFC4F478D50A15F
:103B400061A172A14F3F5F4F6F4F7F4F59F085E9E1
:103B50009CE00E94940BCE0101960E94411784E8DC
:103B60009CE0D7CFDF91CF910C946E0D0F931F93F4
:103B7000CF93DF93611108C086E89BE0DF91CF917E
:103B80001F910F910C94940BFA016AE17DE0808102
:103B900091810E94CD1CC82F8F3F71F3082F10E038
:103BA000DDE2D09FF001D19FF00D1124EF5AFC4FC0
:103BB000878D90A1A1A1B2A18E3F9F4FAF4FBF4F64
:103BC00059F08BE09CE00E94940BC80101960E9482
:103BD00041178BEF9BE0D2CF8C2F0E94950D85EF84
:103BE0009BE00E94940BCD9FC00111248F5A9C4FE3
:103BF0000E940E178BEE9BE0C1CF7F928F929F9217
:103C0000AF92BF92CF92DF92EF92FF920F931F93EA
:103C1000CF93DF93762E6A01662341F0FA0180810B
:103C20009181FC0120812F3309F055C08EE393E090
:103C30000E94940B86E193E00E94940B8DEE92E03B
:103C40000E94940B8DEA92E00E94940B8BE692E026
:103C50000E94940B88E592E00E94940B84E090E02F
:103C60000E94411784E592E00E94940B86E392E063
:103C70000E94940B89E090E00E94411782E392E059
:103C80000E94940B8FE192E00E94940B8DE090E0F3
:103C90000E9441178BE192E00E94940B8FEE91E01D
:103CA0000E94940B83EB91E00E94940B84E991E0D5
:103CB0000E94940B6FEF80E0DF91CF911F910F91E5
:103CC000FF90EF90DF90CF90BF90AF909F908F903C
:103CD0007F900C94371C2D32B9F581818A32B9F46A
:103CE0000E9446161092500381E894E00E94940BC3
:103CF000DF91CF911F910F91FF90EF90DF90CF90C8
:103D0000BF90AF909F908F907F900C944719E09157
:103D10005003EE2369F3E150E093500327E1E29F63
:103D2000F0011124EC50FD4F82850E94760A8CE749
:103D300094E00E94940B8091500390E001960E94C1
:103D4000411780E794E0D2CF6CE275E10E94CD1C70
:103D5000B82E3FEF83136FC0F601808191810E94DE
:103D60002F0C6F3F49F0BB24BA94B60EFFEFBF167D
:103D700019F021E0271588F08EE094E0DF91CF91D3
:103D80001F910F91FF90EF90DF90CF90BF90AF9079
:103D90009F908F907F900C94940B809150038B1583
:103DA00069F087EE93E00E94940B8091500390E0BD
:103DB00001960E9441178DED93E0E0CF33E03B1573
:103DC00070F080E024EF32E08B1560F4295E3F4F05
:103DD000F9013D979081992329F08F5FF5CF83E911
:103DE00093E0CCCF8B1107C087E1B89EF00111247E
:103DF000EC50FD4F12860B2D10E0E7E1BE9EC00196
:103E000011249C012C503D4F7901F6016281738190
:103E100089E793E00E948E198F3F91F0C1E0C80FAF
:103E2000F2E0F71508F039C1C13009F0F4C0D1E073
:103E300062E0A62E08C091E09715E8F2682F3CCF0B
:103E4000AA24A394D0E0EA2DF0E0EE0FFF1FEC0DC2
:103E5000FD1D6081718149E050E0C7010E94CD31B4
:103E600087E1809FF001819FF00D1124EC50FD4F00
:103E70001186D1115DC0C1E0CA0DC71508F4D1C0CB
:103E8000AA24A394AC0EA714A0F5C0E0EA2DF0E09C
:103E9000EE0FFF1FEC0DFD1D608171818DE593E03C
:103EA0000E948E19833009F054C097E1909FF00171
:103EB000919FF00D1124EC50FD4F9285933041F00D
:103EC0002BEF290F223020F09950933008F080E03A
:103ED00097E1909FF001919FF00D1124EC50FD4F60
:103EE0009285983009F44FC08F3F09F041C0C1114D
:103EF0006AC0A394912CA71408F46DC0A394A714CE
:103F000008F0CBC0EA2DF0E0EE0FFF1FEC0DFD1D19
:103F10004081518187E1809FE001819FD00D112474
:103F2000CC50DD4F6D85C7010E94261A8D87B5C024
:103F3000CA2DA71408F016C1CD2FC33009F044C014
:103F4000C1E0A4CF3DE0361708F08CC0AA24AA94A3
:103F500089C0843009F0BCCF97E1909FF001919F18
:103F6000F00D1124EC50FD4F9285973008F0128629
:103F700097E1909FF001919FF00D1124EC50FD4FBF
:103F800083878787B4CF82E0F3CFC53009F085C03F
:103F9000B9CF70E00E94DF09B1C027E1209FC001C6
:103FA000219F900D11249C012C503D4F6901F90176
:103FB0008285C43029F4825F0E943C0AF601A8C0C1
:103FC0000E944C09FBCFC3E0A71408F066C0C430C0
:103FD000E1F699249394EA2DF0E0EE0FFF1FEC0D2B
:103FE000FD1D4081518187E1809FE001819FD00DBF
:103FF0001124CC50DD4F6C85C7010E94261A8C8796
:104000009F85911104C091E0811190E09D879920D6
:1040100009F474CF42C082E0A82EC23009F08DCFDF
:10402000D1E0EC2FF0E0EE0FFF1FEC0DFD1D8081C5
:1040300091810E942F0C6F3F71058105910521F040
:1040400018F06FEF7FEFCB01A62E28E062137ACF36
:1040500087E1809FF001819FF00D1124EC50FD4F0E
:1040600082E0878727E1209FC001219F900D1124C6
:10407000FC01EC50FD4F4F0182858A1539F0FFEFAE
:10408000AF1621F00E94760AF401A286DD2309F41E
:10409000F7CED2E0C71508F465C0809150038B11AC
:1040A00004C081E08B0D809350030E94471987E183
:1040B000809FF001819FF00D1124EC50FD4FC385CE
:1040C000C7878285C43009F4825FEC2FF0E0EA599B
:1040D000FE4FD0816D2F0E94A309D13009F05DCF32
:1040E00087E1809FF001819FF00D1124EC50FD4F7E
:1040F00064858285C1114DCF0E94750987E1809F3B
:10410000F001819FF00D1124EC50FD4F848590E06B
:10411000918B808BC7010E94F40C0E94510A27E109
:10412000209FF001219FF00D1124EC50FD4F628B78
:10413000738B848B958B81E0868B6B2D8B2D0E94EE
:10414000371C6B2D8B2DDF91CF911F910F91FF901D
:10415000EF90DF90CF90BF90AF909F908F907F9027
:104160000C94B815AC2ECD2F2FCFBF92CF92DF92EB
:10417000EF92FF920F931F93CF93DF93F62E8A0156
:1041800061116FC010915003112309F458C01150F0
:10419000C4EFD2E0F12CE12C07E1670185E091E06A
:1041A0000E94940B8FEFE81AF80AC7010E9441178A
:1041B00082E091E00E94940B0C9DF0010D9DF00DAA
:1041C0001124EC50FD4F6089718990E080E04AE055
:1041D0000E94CA168FEF90E00E94940BEF85F0E0EA
:1041E000EE0FFF1FE85DFE4F808191810E940E1748
:1041F00081EC91E00E940E178F85823050F1833060
:1042000069F187EE90E00E94940BCE010E940E1798
:1042100085EE90E00E94940B8F85823020F489ED2A
:1042200090E00E94940B85E192E00E940E1786EDCB
:1042300090E00E94940B67961E1508F0AECFDF91B8
:10424000CF911F910F91FF90EF90DF90CF90BF9093
:10425000089585EF90E00E94940BD3CF89EE90E013
:10426000FACF6CE275E1FA01808191810E94CD1C48
:104270008F3F69F482E591E0DF91CF911F910F911B
:10428000FF90EF90DF90CF90BF900C94940BC82FCD
:10429000D0E0F1E0FF1568F18DE491E00E94940B0D
:1042A000CE0101960E9441178AE491E00E94940B8E
:1042B00027E12C9FC0012D9F900D1124EC01CC50C3
:1042C000DD4F6889798990E080E04AE00E94CA1653
:1042D00087E491E00E94940BEF85F0E0EE0FFF1F62
:1042E000E85DFE4F808191810E940E1784E491E089
:1042F000C3CFF80182819381FC0120812F3391F497
:1043000087E18C9FF0018D9FF00D1124EC50FD4F43
:104310006089718990E080E04AE00E94CA1681E4D9
:1043200091E0AACF27E12C9F80012D9F100D112431
:104330000C501D4FF801B784EB2DF0E0EA59FE4F09
:104340002081213019F085E191E096CF0E942F0C59
:10435000F8013285B11034C021E0672B682B692B3E
:1043600009F420E0C22ED12CF12CE12C622F832FF6
:104370000E9475090E94510A27E12C9FF0012D9F90
:10438000F00D1124EC50FD4F628B738B848B958B59
:10439000D18AC08A81E0868B80E191E00E94940BF3
:1043A000CE0101960E9441178DE091E00E94940B8E
:1043B0004AE0C701B6010E94CA168AE091E05CCFCC
:1043C0006B017C01FFEFCF16D104E104F10429F069
:1043D00020F0C12CD12C7601CA94B601832F0E9403
:1043E000DF09C8CFFF920F931F93CF93DF9366230C
:1043F00051F063EC71E0DA018D919C910E94B6312D
:10440000D1E0892B09F0D0E086EB9EE00E94940B6E
:1044100083E090E00E94411783E69EE00E94940BA7
:1044200082E090E00E94411781E69EE00E94940B9A
:1044300086E290E00E9441178EE59EE00E94940B78
:104440008FE09EE00E94940B0EE711E0C0E0F801BF
:10445000F280DD2311F0F2FC0DC08C2F0E94CB17EF
:10446000F5FE08C0D801ED91FC9150E040E060E01D
:104470008C2F0995CF5F0D5F1F4FC13141F7DF9141
:10448000CF911F910F91FF9008958F929F92AF92BD
:10449000BF92CF92DF92EF92FF920F931F93CF9331
:1044A000DF93EC0109900020E9F721978C018C172C
:1044B0009D0789F46FEF7FEFCB01DF91CF911F91C3
:1044C0000F91FF90EF90DF90CF90BF90AF909F90B3
:1044D0008F900895E7017E010C171D07D0F4FE01AF
:1044E00082917F01082E000C990B0E948A2F892B44
:1044F00089F75E017501F50182915F01082E000CBC
:10450000990B0E94A331892B21F00A151B0590F30A
:104510007501CE19DF09DD27AE0167EC71E0C70137
:104520000E94BF31812C47E8942E43E9A42E43E03A
:10453000B42E892B21F0812C912C54018394AE014F
:104540006CEC71E0C7010E94BF31892B39F420E483
:10455000822E22E4922E2FE0A22EB12CAE016BEC23
:1045600071E0C7010E94BF31892B31F498EE892E8A
:1045700093E0992EA12CB12CAE016EEC71E0C70135
:104580000E94BF31892B21F4812C912C54018394FA
:104590006EE270E0C8010E94AB31892B89F1C8013D
:1045A0000E94E22D6B017C01C501B4010E94B02F75
:1045B000A70196010E9411300E9439316F3FFFEF31
:1045C0007F078F079F0709F475CF61157105810576
:1045D000910509F472CF61157105810520E49207F8
:1045E00020F06FEF7FEF8FEF9FE364367105810559
:1045F000910508F062CF64E670E080E090E05DCF66
:10460000C8010E942F0CA50194010E946831D6CFE9
:104610004F925F926F927F928F929F92AF92BF92D2
:10462000CF92DF92EF92FF920F931F93CF93DF937E
:10463000CDB7DEB760970FB6F894DEBF0FBECDBF23
:10464000D62E5A01662341F0FA0180819181FC0146
:1046500020812F3309F055C08BE19AE00E94940B22
:1046600081EF99E00E94940B86EC99E00E94940BF4
:1046700083E699E00E94940B84E399E00E94940BF6
:1046800081E299E00E94940B88E090E00E9441173B
:104690008DE199E00E94940B8EEF98E00E94940BBC
:1046A00089E090E00E9441178AEF98E00E94940B05
:1046B00089E998E00E94940B8DE398E00E94940BA6
:1046C0008DEC97E00E94940B82E497E00E94940B9B
:1046D0008CEE96E00E94940B8EEA96E00E94940B7A
:1046E0008EE696E00E94940B8CE296E00E94940B7A
:1046F00084EF95E00E94940B6FEF80E00E94081B0E
:1047000021C02D32B1F581818A3239F41092B90479
:1047100081E79BE00E94940B15C08091B904882327
:1047200089F08BE69BE00E94940B8091B9040E9473
:1047300047178FE59BE00E94940B8091B90481504C
:104740008093B90460960FB6F894DEBF0FBECDBF5C
:10475000DF91CF911F910F91FF90EF90DF90CF905D
:10476000BF90AF909F908F907F906F905F904F9091
:1047700008956AE17DE00E94CD1C582EFFEF8F1353
:1047800029C0F501808191810E942F0C6F3F49F073
:1047900055245A94560EFFEF5F1619F021E02D159F
:1047A00018F089EF9AE0B6CF8091B904851569F0C9
:1047B00080ED9AE00E94940B8091500390E0019666
:1047C0000E94411786EC9AE0A5CF883040F08BE933
:1047D0009AE0A0CF31E03D1510F0682F8FCF052D66
:1047E00010E060E571E0F501828193810E94AB1CCD
:1047F000C82EFFEF8F1791F0EE24E394E80E22E02D
:104800002D1508F426C322E0F22EFD1408F0A1C2F3
:1048100095E0E91218C2EE24E3942CC1FF24F3942E
:10482000912CEF2DF0E0EE0FFF1FEA0DFB1D6081D4
:1048300071818DE2E82E5E9CC001112449E050E0B8
:104840008F5A9C4F0E94CD31E09EF001E19EF00D09
:104850001124EF5AFC4F118691100DC0EE24E39401
:10486000EF0CED14A8F0FF24F394FE0CFD1408F0F7
:10487000D1C0E12CA5C0E92CFD1408F49CC0E92CA2
:104880007EC132E0E2E0FE2EE31295C099249394BB
:10489000EE2DF0E0EE0FFF1FEA0DFB1D6CE371E063
:1048A000808191810E94AB1CC82E4FEF841749F084
:1048B0008DE2809FF001819FF00D1124EF5AFC4F93
:1048C000C286992081F2FE2CED1408F0CAC2F2E0F3
:1048D000EF2EFD1408F05EC089E0E812A4C2EE24B9
:1048E000E394EF2DF0E0EE0FFF1FEA0DFB1D80813A
:1048F00091810E9445226F3FFFEF7F078F079F073F
:1049000029F12DE2209FF001219FF00D1124EF5A93
:10491000FC4F2685378540895189232B242B252B55
:1049200049F0643671058105910520F464E670E074
:1049300080E090E02DE2209FF001219FF00D1124F6
:10494000EF5AFC4F628F738F848F958F8DE2809F1B
:10495000F001819FF00D1124EF5AFC4F8685978559
:10496000A089B189892B8A2B8B2B89F0828D938D1D
:10497000A48DB58D84369105A105B10540F484E67A
:1049800090E0A0E0B0E0828F938FA48FB58FEE20EF
:1049900009F4F2C18091B904851104C081E0850D4C
:1049A0008093B904652D852D0E94081B652D852DEA
:1049B0000E947F15C7CE53E0E51239C0EE24E39480
:1049C0008DE2809FF001819FF00D1124EF5AFC4F82
:1049D0002285223088F0EF2DF0E0EE0FFF1FEA0D68
:1049E000FB1D808191816CE275E1273010F06AE156
:1049F0007DE00E94CD1CC82E8FEFC81649F08DE2D5
:104A0000809FF001819FF00D1124EF5AFC4FC38667
:104A1000E11005C0F394FD1440F5E12C0DC063E0F6
:104A2000962EFD1408F02BCF83E0E82E52CF94E0B1
:104A3000E912EECEEE24E394EF2DF0E0EE0FFF1F2F
:104A4000EA0DFB1D6081718186E69AE00E948E1955
:104A50008F3F49F09DE2909FF001919FF00D11244E
:104A6000EF5AFC4F8587E11070C0F394FD1408F0F5
:104A700066C0E12CEF2DF0E0EE0FFF1FEA0DFB1DED
:104A8000808191814DE2409F9001419F300D112422
:104A9000F901EF5AFC4F4F012585253008F058C029
:104AA0006CE275E10E94CD1C8F3F09F456C027E1EE
:104AB000829FF0011124EC50FD4F9285983041F413
:104AC0009785943029F0F40184858F3F09F445C01F
:104AD0009DE2909FF001919FF00D1124EF5AFC4F41
:104AE00084878DE2809FF001819FF00D1124EF5AA1
:104AF000FC4F8585843009F5E48527E1E29FF001CC
:104B00001124EC50FD4F87858430B9F0909150030B
:104B100024EF32E080E0981781F0295E3F4FF901E1
:104B200038974081443039F59DE2909FF001919F84
:104B3000F00D1124EF5AFC4F8487E1101EC0F3944E
:104B4000FD1408F0DAC0E12C83C044E0E42E5DCE11
:104B50006AE17DE00E94CD1CB8CF8DE2809FF0011C
:104B6000819FF00D1124EF5AFC4F8585853009F0A7
:104B7000B8CF8FEFB5CF8F5FCECF25E0E22EFD14FB
:104B800008F0A7CE58E0E512A4CEEE24E394EF2D72
:104B9000F0E0EE0FFF1FEA0DFB1D808191810E9466
:104BA00045226F3FEFEF7E078E079E0729F12DE22A
:104BB000209FF001219FF00D1124EF5AFC4F268514
:104BC000378540895189232B242B252B49F06436C6
:104BD00071058105910520F464E670E080E090E0C5
:104BE0002DE2209FF001219FF00D1124EF5AFC4F80
:104BF000668B778B808F918F8DE2809FF001819FF4
:104C0000F00D1124EF5AFC4F86859785A089B18954
:104C1000892B8A2B8B2B89F086899789A08DB18D62
:104C200084369105A105B10540F484E690E0A0E04A
:104C3000B0E0868B978BA08FB18FEE2009F497C0E0
:104C400028E0E22E46CE36E0E31286C0EE24E3945E
:104C5000EF2DF0E0EE0FFF1FEA0DFB1D808191812B
:104C60000E94D00B97FD6EC0DC01CB018E3F4FEF51
:104C70009407A4074FE3B40724F08DEF9FEFAFEF45
:104C8000BFE32DE2209FF001219FF00D1124EF5A88
:104C9000FC4F86879787A08BB18B892B8A2B8B2B18
:104CA00051F1828D938DA48DB58D84369105A1052A
:104CB000B10540F484E690E0A0E0B0E0828F938FED
:104CC000A48FB58F8DE2809FF001819FF00D11249C
:104CD000EF5AFC4F86899789A08DB18D8436910556
:104CE000A105B10540F484E690E0A0E0B0E0868B39
:104CF000978BA08FB18FE1102AC0F394FD1490F52B
:104D0000E12CEF2DF0E0EE0FFF1FEA0DFB1D80817F
:104D100091810E9445226F3F5FEF750785079507D8
:104D200061F02DE2209FF001219FF00D1124EF5A38
:104D3000FC4F628B738B848B958BEE2099F037E060
:104D4000E32EC7CD8EEF9FEFAFEFBFE39ACF86E0A4
:104D5000E82EFD1408F01ECEE7E0EE1213CFEE248D
:104D6000E394CFCFF394E12CFD1408F410CFF39427
:104D7000E12CFD1408F4B5CDF394FD1408F00ACE2F
:104D80008F2D90E0880F991FA80EB91EF501A08005
:104D9000B180412C66246394712CF50180818823B5
:104DA00009F449C06501F60181917F01882309F466
:104DB00042C0082E000C990B0E948A2F892BB9F54E
:104DC0005701F70181914F01882339F0082E000C1B
:104DD000990B0E948A2F892B61F1EC18FD08F0E1F4
:104DE000EF16F1041CF04FE0E42EF12CA701B60100
:104DF000CE0101960E94CD3121E030E02C0F3D1F05
:104E0000E20EF31EF7011082B9018EE39AE00E94D0
:104E10008E198F3F11F2930102C0220F331F8A9522
:104E2000E2F7422ABACF2AE0E212B4CDA9CF670155
:104E3000BACF7401C5CF3FEF431609F4ABCD8DE275
:104E4000809FF001819FF00D1124EF5AFC4F468E98
:104E5000A1CD41E0E41215CD9924939492E0F92E6E
:104E6000E0CC92E0E92ED1CCCF92DF92EF92FF928C
:104E70000F931F93CF93DF936623C1F0DA01ED9177
:104E8000FC9190819F3391F0282F30E0F901EE0FD3
:104E9000FF1FE20FF31FE258FE4F128114FD06C000
:104EA00091E08E3009F490E0992351F0DF91CF9199
:104EB0001F910F91FF90EF90DF90CF900C94CB1744
:104EC000EA01B8E28B9FC00111248251914F0E94E8
:104ED000940B85EE9DE00E94940B8881998113FFCD
:104EE00026C00E94E62D97FF03C060E070E0CB0172
:104EF000161617061806190624F461E070E080E023
:104F000090E06093BE047093BF048093C0049093BC
:104F1000C1040E94151782EE9DE0DF91CF911F9191
:104F20000F91FF90EF90DF90CF900C94940BEC01D9
:104F3000C12CD12C7601E991EE23D1F00E2E000C7C
:104F4000FF0BF097EA30F10598F4AAE0B0E0A70172
:104F500096010E94E8308F01FF0F220B330B060FE2
:104F6000171F281F391F0C151D052E053F05C8F4F6
:104F7000C701B601611571058105910521F061E058
:104F800070E080E090E06093BE047093BF04809373
:104F9000C0049093C1044AE00E94CA168FED9DE0C0
:104FA000BCCF68017901C7CFAF92BF92CF92DF9299
:104FB000EF92FF920F931F93CF93DF93C62F7A0147
:104FC000611149C0D091B904DD23D1F101E513E0AD
:104FD000EE24E394F12C8C2F0E944815D82E8EE4F9
:104FE00095E00E94940BC7010E9441178BE495E065
:104FF0000E94940B8D2D0E944717F80183A580FF16
:1050000004C089E495E00E94940BF80183A581FF18
:1050100004C087E495E00E94940B84E395E00E942D
:10502000940BC8010E940E1785EF94E00E94940B28
:10503000CF5FFFEFEF1AFF0A035D1F4FDC13CBCFEB
:10504000DF91CF911F910F91FF90EF90DF90CF9064
:10505000BF90AF9008956AE17DE0FA01808191816F
:105060000E94CD1C182F8EEB95E01F3FC1F1A12EA1
:10507000B12CC23008F03FC0812F0E944815C82FC4
:105080008EE595E00E94940BC50101960E944117A0
:105090008BE595E00E94940B8C2F0E9447178DE2C0
:1050A0008A9DF0018B9DF00D1124EF5AFC4F83A5D2
:1050B00080FF04C089E595E00E94940B8DE28A9DF3
:1050C000F0018B9DF00D1124EF5AFC4F83A581FF59
:1050D00004C087E595E00E94940B84E595E0DF919C
:1050E000CF911F910F91FF90EF90DF90CF90BF90E5
:1050F000AF900C94940BF70182819381FC01208185
:10510000022E000C330B205331092A30310578F57B
:105110000E94E62D6B017C018FE895E0FFEFCF1632
:10512000D104E104F104D9F2D701C6010297A10923
:10513000B1098F3F2FEF9207A207B20709F466C0AB
:10514000FCF48E3F9F4FAF4FBF4F09F443C087E63B
:1051500095E00E94940BF601EE0FFF1FEC5CFE4FF2
:10516000808191810E940E1784E695E0B8CF6AE3B2
:1051700075E10E94CD1CC82ED12CF12CE12CCCCF96
:105180000097A105B10531F10197A105B105F9F627
:105190008DE28A9DF0018B9DF00D1124EF5AFC4F9A
:1051A000878D90A1A1A1B2A18E3F9F4FAF4FBF4F5E
:1051B00070F20E94510AAB01BC01812FDF91CF91A7
:1051C0001F910F91FF90EF90DF90CF90BF90AF9025
:1051D0000C94A0128DE28A9DE0018B9DD00D1124CC
:1051E000CF5ADC4F8F8D98A1A9A1BAA18F3F9F4FB5
:1051F000AF4FBF4F0CF4ABCF8E8D80688E8F812F59
:105200000E94B6148E8D8F778E8F1ACF8DE28A9D75
:10521000F0018B9DF00D1124EF5AFC4F878D90A16A
:10522000A1A1B2A18E3F9F4FAF4FBF4F09F08FCFCB
:10523000812FDF91CF911F910F91FF90EF90DF9021
:10524000CF90BF90AF900C94950D1F920F920FB618
:105250000F9211242F933F938F939F93AF93BF93FC
:105260008091680590916905A0916A05B0916B05E0
:105270003091670523E0230F2D3758F50196A11DC6
:10528000B11D209367058093680590936905A093ED
:105290006A05B0936B0580916C0590916D05A091A6
:1052A0006E05B0916F050196A11DB11D80936C052F
:1052B00090936D05A0936E05B0936F05BF91AF916C
:1052C0009F918F913F912F910F900FBE0F901F9044
:1052D000189526E8230F0296A11DB11DD2CF1F926B
:1052E0000F920FB60F9211242F933F934F935F931A
:1052F0006F937F938F939F93AF93BF93EF93FF939E
:10530000E0910401F09105010995FF91EF91BF91A2
:10531000AF919F918F917F916F915F914F913F914D
:105320002F910F900FBE0F901F9018951F920F9204
:105330000FB60F9211242F933F934F935F936F9368
:105340007F938F939F93AF93BF93EF93FF93E091DE
:105350000201F09103010995FF91EF91BF91AF9187
:105360009F918F917F916F915F914F913F912F917D
:105370000F900FBE0F901F9018951F920F920FB6AF
:105380000F9211242F933F934F935F936F937F93CB
:105390008F939F93AF93BF93EF93FF9380E795E035
:1053A0000E94250BFF91EF91BF91AF919F918F913B
:1053B0007F916F915F914F913F912F910F900FBE11
:1053C0000F901F9018951F920F920FB60F921124F5
:1053D0002F938F939F93EF93FF93E0918005F0912C
:1053E00081058081E0918605F091870582FD1BC0D3
:1053F0009081809189058F5F8F7320918A05821734
:1054000041F0E0918905F0E0E059FA4F958F8093E3
:105410008905FF91EF919F918F912F910F900FBE72
:105420000F901F9018958081F4CF1F920F920FB6A6
:105430000F9211242F933F934F935F936F937F931A
:105440008F939F93AF93BF93EF93FF93E0910701E7
:10545000F09108010995FF91EF91BF91AF919F9154
:105460008F917F916F915F914F913F912F910F900D
:105470000FBE0F901F9018951F920F920FB60F92AC
:1054800011242F933F934F935F936F937F938F9349
:105490009F93AF93BF93CF93DF93EF93FF93C0910D
:1054A000010180915003C817B8F490917800809161
:1054B000790089279827892727E1C29FE0011124D5
:1054C000CC50DD4F998B888B0E94510A6A8B7B8B65
:1054D0008C8B9D8B81E08E8BFF91EF91DF91CF9133
:1054E000BF91AF919F918F917F916F915F914F91FC
:1054F0003F912F910F900FBE0F901F901895CF9353
:10550000DF9300D01F92CDB7DEB7789484B5826068
:1055100084BD84B5816084BD85B5826085BD85B557
:10552000816085BD80916E00816080936E001092D5
:105530008100809181008260809381008091810050
:1055400081608093810080918000816080938000E1
:105550008091B10084608093B1008091B00081603F
:105560008093B00080917A00846080937A0080916B
:105570007A00826080937A0080917A0081608093C3
:105580007A0080917A00806880937A001092C1003E
:10559000E0918005F091810582E08083E0917C05B7
:1055A000F0917D051082E0917E05F0917F0513E07A
:1055B000108310928805E0918405F091850586E0BE
:1055C0008083E0918205F0918305808180618083F2
:1055D000E0918205F0918305808188608083E0916D
:1055E0008205F0918305808180688083E091820547
:1055F000F091830580818F7D808386EB9EE00E9401
:10560000940B83E090E00E94411784EB9EE00E949F
:10561000940B82E090E00E94411782EB9EE00E9492
:10562000940B86E290E00E9441178FEA9EE00E9470
:10563000940B8BE89EE00E94940B90E19093810084
:105640001092800084E08093BD0422E13AE7309319
:10565000BC042093BB04309387002093860084E130
:105660008093810025E932E13093080120930701FE
:1056700081E080936F0090938100809306011092E7
:10568000BA041092BE041092BF041092C00410928B
:10569000C1040E9460161092B9046FEF80E00E946E
:1056A0007F15BE016D5F7F4F90E080E00E94C518BE
:1056B0008B81833041F01983BE016F5F7F4F90E093
:1056C00080E00E94CF18BE016E5F7F4F81E090E0C6
:1056D0000E94C5188A81823049F082E08983BE0128
:1056E0006F5F7F4F81E090E00E94CF188B81833005
:1056F00091F58A81823079F582E090E00E94D23083
:10570000D82E24E0281710F414E0D12ED0925003A4
:10571000B4EFEB2EB2E0FB2E03E010E0045F12408A
:10572000C12CCD1409F4C3C05701470130E1830EE9
:10573000911CC501800F911F0E94D230D5018D931D
:105740005D01A815B905A9F7C394B7E1EB0EF11CEB
:1057500007501109E6CF8DE69EE00E94940B0E944F
:1057600047190E9414191092060162E088E00E9415
:10577000A30988E00E944C0921E0009709F020E08D
:105780002093BA04892B81F58FB7F894C0906805EF
:10579000D0906905E0906A05F0906B058FBF88E0B6
:1057A0000E944C09892B01F52FB7F8948091680568
:1057B00090916905A0916A05B0916B052FBF8C1976
:1057C0009D09AE09BF0989389341A105B10538F398
:1057D00086E192E00E940E1750E040E060E080E039
:1057E0000E9474191092BA046FEF80E00E94B815FD
:1057F0008091BA04811195C06FEF0E945E15F0E0B0
:105800006F2EF0E07F2E80E795E00E94050B892B3C
:1058100009F464C180E795E00E94050B892B09F427
:105820005DC180E795E00E94E30A182F8091BE04D5
:105830009091BF04A091C004B091C104892B8A2B20
:105840008B2B29F0612F80E795E00E94470B1A30DF
:1058500009F06CC080910901109309018D30D1F2DB
:1058600080E2F0E0E0E0A4E4B5E001900D928A95DA
:10587000E1F710926405E0904205F0904305E2ECF8
:10588000CE2EE4E0DE2E10E000E0D6018D916D0119
:105890000E151F050CF065C0082E000C990B0E9418
:1058A0008A2F892B09F45DC00F5F1F4FEECF0E9436
:1058B000151683E490E00E94D230982EE7E0E817B6
:1058C00008F451CF8093B90404E410E0015513406B
:1058D000F12CE12CADE28A2EE914F0F48E9CC0018B
:1058E0008F9C900D11249C012F5A3C4F5901DC01D3
:1058F000A059BC4F6D01C501800F911F0E94D2308D
:10590000F50181935F01EC15FD05A9F7FFEFEF1A93
:10591000FF0A0E501109E0CF6FEF80E00E947F1563
:1059200022CF81ED91E00E940E1769CF10930901FB
:1059300080914205909143051D3009F491CFFC01FF
:10594000EE53FB4F108301969093430580934205DD
:10595000FC01EE53FB4F10828F3791050CF45ACFA8
:105960007FCFF801EE53FB4F6F01F0936605E09394
:1059700065055F01D5019D905D010E151F058CF435
:10598000892D092C000C990B0E948A2F892B49F430
:10599000BDE39B1649F0EBE59E1631F00F5F1F4FFC
:1059A000E9CF992009F471C0F801EE53FB4F108242
:1059B0000F5F1F4FF9E09F1228C080E02091C204C2
:1059C000E82FF0E0EE0FFF1FEC5BFA4F803110F490
:1059D000211103C08093640558C0D801AE53BB4F5A
:1059E000A193B1938F5F9D910E151F052CF49930F3
:1059F00029F00F5F1F4FF7CF993041F7F801EE53B1
:105A0000FB4F10820F5F1F4FD9CF2BE59216E1F0AD
:105A1000C8018E539B4F5C010E151F0564F4DC0119
:105A20008C91082E000C990B0E948A2F892B19F05B
:105A30000F5F1F4FEDCFBDE39B1631F0F501808165
:105A40008D3311F40F5F1F4F64E4A62E65E0B62E70
:105A5000412C98012E533B4F4901D4015D904D01DB
:105A60000E151F0574F4852D052C000C990B0E9452
:105A70008A2F892B19F4BDE35B1203C00F5F1F4F00
:105A8000ECCF51103DC0409264053EEEE32E3EE067
:105A9000F32E10E0B701C6010E940D2E892B39F0BC
:105AA0001F5FE8E2EE0EF11C1131A1F710E0812F2B
:105AB00090E0FC01EE0FFF1FE80FF91FE258FE4FC8
:105AC0000190F081E02D44E455E060916405099572
:105AD00010924305109242051092C2040E941813BE
