:100000000C94470A0C94342F0C94092F0C94DE2E78
:100010000C94B32E0C94882E0C945D2E0C94322EDE
:100020000C94072E0C94780A0C94780A0C94780A95
:100030000C94780A0C94780A0C94780A0C94780A38
:100040000C94780A0C94780A0C94780A0C94780A28
:100050000C945F2F0C94780A0C94780A0C94BD2DA4
:100060000C94780A0C94872D0C945D2D0C94780ACE
:100070000C94780A0C94AA300C94780A0C94780AA0
:100080000C94780A0C94780A0C94780A0C94780AE8
:100090000C94780A0C94780A0C94780A0C948A2FA1
:1000A0000C94780A0C94780A0C94780A0C94780AC8
:1000B0000C94780A0C94780A0C94780A0C94780AB8
:1000C0000C94780A0C94780A0C94780A0C94780AA8
:1000D0000C94780A0C94780A0C94780A0C94780A98
:1000E0000C94780A0C9432220C94020C0C94790E25
:1000F0000C94BC1D0C947A0A0C946C2B0C94F10B90
:100100000C94140C0C943C100C940C2C0C942E0D90
:100110000C944C180C941E0C0C94F0180C94B60A09
:100120000C940B0E0C94ED0B0C942C170C942A26AB
:100130000C942C0C0C94220C0C944B0E0C943E0E34
:100140000C94540D0C940C0C0C94950D0C944027AD
:100150000C94070E0C94060C0C94270C0C94780B42
:100160000C9479220C94E7240C94FD0D0C946C0EE5
:100170000C94100C0C94FC0B0C94770D0C9434180C
:100180000C94030D0C94100B0C94F20D0C94120DA6
:100190000C942A0E0C94280C0C9444180C94090E00
:1001A0000C94D40F0C94010E0C94A70A0C948B0D94
:1001B0000C948D210C944A0D0C94F01D0C94400D60
:1001C0000C94080D0C94050E0C94F90B0C94600E15
:1001D0000C94641C0C943C180C94FF210C94F1308A
:1001E0000C94630D0C94FB0C0C94E70B0C941C0DFD
:1001F0000C94260D0C942C180C94E2180C94531BA0
:100200000C94320E0C94360D0C94CA0A0C941A0CF1
:100210000C9424180C94D80A0C94F50B0C94FF0D34
:100220000C946D0D0C94810D0C9403160C94B2215A
:100230004E414E494E495459494E46CDCCCC3D0ACB
:10024000D7233C17B7D13877CC2B329595E6241FAE
:10025000B14F0A000020410000C84200401C462067
:10026000BCBE4CCA1B0E5AAEC59D740D0A000900D7
:10027000090009002709000927002000696E64654C
:1002800078096E616D650970696E096D6F64650945
:10029000696E697409746F67676C650D0A000D0AF1
:1002A0000020286C6F777C68696768290027002721
:1002B000005B3020746F203235355D20005B3020CC
:1002C000746F20313032335D20005B3020746F203A
:1002D000315D20003A20005D3D0070696E5B000DCD
:1002E0000A005D3D0070696E5B0070696E2065728A
:1002F000726F723A2063616E6E6F74207365742042
:100300007374617465206F6620696E7075742070F7
:10031000696E2E0D0A000D0A000D0A003A20005DDC
:100320003D0070696E5B0070696E206572726F725D
:100330003A20666972737420617267756D656E74B8
:100340002073686F756C642062652070696E206927
:100350006E646578206F72206E616D652E0D0A00E7
:100360006C6F772C6869676800203C746F67676CF6
:10037000653E203A203C70776D3E205B3020746FE4
:10038000203235355D0D0A00203C696E69743E20CF
:1003900020203A203C6F75747075743E205B3020CD
:1003A000746F20315D20286C6F777C6869676829DD
:1003B000203C70776D3E205B3020746F20323535E5
:1003C0005D0D0A00203C6D6F64653E2020203A20C0
:1003D000286F75747075747C696E7075747C707537
:1003E0006C6C75707C70776D7C616463290D0A009C
:1003F0005D0D0A00203C70696E3E202020203A20CE
:100400005B3020746F20005D0D0A00203C6E616D32
:10041000653E2020203A2071756F746564207069F4
:100420006E206E616D65205B005D0D0A00203C69E9
:100430006E6465783E20203A205B3120746F200086
:10044000206470696E203C696E6465783E7C3C6E09
:10045000616D653E203C73657474696E673E205B18
:100460003D5D203C76616C75653E3A206368616E47
:100470006765206F6E652070726F70657274790D9C
:100480000A00206470696E203C696E6465783E20C5
:100490003C6E616D653E203C70696E3E203C6D6F28
:1004A00064653E203C696E69743E203C746F6767EA
:1004B0006C653E3A20646566696E652070696E0DF4
:1004C0000A00206470696E202D5B2A5D203A20644A
:1004D000656C657465206C6173742070696E20288A
:1004E0002A203D20616C6C290D0A00206470696E21
:1004F000203F202020203A2073686F7720616C6CA9
:100500002070696E20646566696E6974696F6E73C8
:100510000D0A00436F6D6D616E64206470696E3A00
:1005200020436F6E6669677572652050696E730D42
:100530000A006F75747075742C696E7075742C7008
:10054000756C6C75702C70776D2C616463006E61D6
:100550006D652C70696E2C6D6F64652C696E6974A5
:100560002C746F67676C65006572726F723A206EEB
:100570006F206D6F7265206E65772070696E7320D5
:1005800063616E20626520646566696E65642E2015
:1005900074797065202770696E2720746F207365E9
:1005A0006520646566696E65642070696E732E0DE2
:1005B0000A002066697273742E0D0A0070696E203D
:1005C000617267756D656E74206572726F723A2024
:1005D000706C6561736520646566696E652070691D
:1005E0006E200070696E20617267756D656E742093
:1005F0006572726F723A20666972737420617267F5
:10060000756D656E742073686F756C64206265200B
:1006100070696E20696E646578206F72206E616DFE
:10062000652E2074797065202770696E2720746F9D
:100630002073656520646566696E65642070696E07
:10064000732E0D0A002064656C657465642E0D0AB6
:100650000070696E2000616C6C2070696E7320649C
:10066000656C657465642E0D0A00270D0A0027006D
:100670000900090009000900090009000900090032
:1006800009000900696E646578096E616D65097419
:1006900072696767657209736F7572636509616373
:1006A00074696F6E0974617267657409636F756E42
:1006B000740964656C617909757009646F776E09F6
:1006C0006F7074696F6E730D0A0027202869646C5F
:1006D000657C61726D65647C66696E69736865646A
:1006E0007C666972656429202A3A74726967676555
:1006F0007265642C202B3A73746172742074726971
:100700006767657265640D0A003A205B3020746F7C
:1007100020335D5B2A5D5B2B5D2027002B002A00C8
:100720005D3D007461736B5B000D0A002B002A00B5
:100730005D3D007461736B5B000D0A006572726F42
:10074000723A207461736B207374617475732063E3
:100750006F756C64206E6F74206265207365742001
:10076000746F20006572726F723A207365636F6EEA
:100770006420617267756D656E742073686F756C47
:1007800064206265207461736B2073746174652EDC
:100790000D0A006572726F723A2066697273742076
:1007A000617267756D656E742073686F756C642017
:1007B0006265207461736B20696E646578206F7266
:1007C000206E616D652E0D0A00203C6F7074696F9C
:1007D0006E733E3A202861726D2D6F6E2D66696EC4
:1007E0006973682061726D2D6F6E2D737461727400
:1007F000757020696E7465727275707473290D0A54
:1008000000203C646F776E3E2020203A206E5B73A0
:100810007C6D737C75735D20646F776E2074696D79
:10082000653A2030206F72206265747765656E20AE
:1008300031303020757320616E642031373A3533A2
:100840000D0A00203C75703E20202020203A206EAA
:100850005B737C6D737C75735D2075702074696D3E
:10086000653A2030206F72206265747765656E206E
:1008700031303020757320616E642031373A353362
:100880000D0A00203C64656C61793E20203A206EA0
:100890005B737C6D737C75735D2064656C61793A04
:1008A0002030206F72206265747765656E2031306C
:1008B0003020757320616E642031373A35330D0A6C
:1008C00000203C636F756E743E20203A205B2D3112
:1008D00020746F20313037333734313832305D2077
:1008E00072657065617420636F756E743A202D3186
:1008F00020666F7220636F6E74696E756F75732CEE
:10090000203020666F722073696E676C65206163AA
:1009100074696F6E0D0A00203C7461726765743EE5
:10092000203A203C6F75747075742D70696E3E208E
:10093000286F75747075742070696E2D696E6465AA
:1009400078206F722070696E2D6E616D6529203C74
:100950006F75742D7461736B3E20287461736B2DF9
:10096000696E646578206F72207461736B2D6E619F
:100970006D6529203C6164633E20286164632070BA
:10098000696E2D696E646578206F722070696E2DB6
:100990006E616D6529203C6E6F6E653E2028290DC5
:1009A0000A00203C616374696F6E3E203A203C6F00
:1009B00075747075742D70696E3E20286C6F777C2D
:1009C000686967687C746F67676C6529203C6F7520
:1009D000742D7461736B3E202861726D7C73746139
:1009E00072747C726573746172747C73746F707CE2
:1009F0006B69636B29203C6164633E2028616463FA
:100A000029203C6E6F6E653E20286E6F6E65290D45
:100A10000A00203C736F757263653E203A203C6982
:100A20006E7075742D70696E3E2028696E707574D5
:100A30002070696E2D696E646578206F7220706910
:100A40006E2D6E616D6529203C696E2D7461736B2E
:100A50003E20287461736B2D696E646578206F7217
:100A6000207461736B2D6E616D65290D0A00203C49
:100A7000747269676765723E3A203C736F6674777B
:100A80006172653E20286175746F7C6D616E756161
:100A90006C29203C696E7075742D70696E3E20283B
:100AA00075707C646F776E7C616E797C686967684D
:100AB0007C6C6F7729203C696E2D7461736B3E20CE
:100AC0002873746172747C73746F70290D0A005DF1
:100AD0000D0A00203C6E616D653E2020203A207199
:100AE000756F746564207461736B206E616D652031
:100AF0005B005D0D0A00203C696E6465783E202035
:100B00003A205B3120746F200020647461736B2085
:100B10003C696E6465783E7C3C6E616D653E203C50
:100B200070726F70657274793E205B3D5D203C761B
:100B3000616C75653E0D0A0020647461736B203C26
:100B4000696E6465783E203C6E616D653E203C7444
:100B50007269676765723E203C736F757263653EAC
:100B6000203C616374696F6E3E203C7461726765FE
:100B7000743E203C636F756E743E203C64656C610E
:100B8000793E203C75703E203C646F776E3E203C81
:100B90006F7074696F6E733E0D0A00206474617328
:100BA0006B202D5B2A5D203A2064656C657465209E
:100BB0006C617374207461736B20282A203D20615E
:100BC0006C6C290D0A0020647461736B203F202037
:100BD00020203A2073686F7720616C6C20746173F9
:100BE0006B20646566696E6974696F6E730D0A00C7
:100BF000436F6D6D616E64207461736B3A20646540
:100C000066696E652F64656C657465207461736BCD
:100C10000D0A0061726D2D6F6E2D66696E697368C5
:100C20002C61726D2D6F6E2D737461727475702CE2
:100C3000696E7465727275707473006E6F6E652C78
:100C40006C6F772C686967682C746F67676C652CAC
:100C50006164632C73746F702C73746172742C7282
:100C60006573746172742C61726D2C6B69636B00B7
:100C70006572726F723A206E6F206D6F7265206EB2
:100C80006577207461736B732063616E20626520E9
:100C9000637265617465642E0D0A00206669727363
:100CA000742E0D0A007461736B20617267756D6537
:100CB0006E74206572726F723A20706C6561736534
:100CC00020646566696E65207461736B20007461D1
:100CD000736B20617267756D656E74206572726FDB
:100CE000723A20666972737420617267756D656E01
:100CF000742073686F756C64206265207461736B17
:100D000020696E646578206F72206E616D652E209B
:100D10007479706520277461736B2720746F20735A
:100D2000656520646566696E6564207461736B73C4
:100D30002E0D0A002064656C657465642E0D0A0032
:100D40007461736B2000616C6C207461736B732031
:100D500064656C657465642E0D0A0061726D2061B6
:100D60007267756D656E74206572726F723A206677
:100D70006972737420617267756D656E7420736833
:100D80006F756C64206265207461736B20696E649A
:100D90006578206F72206E616D652E2074797065A4
:100DA00020277461736B2720746F2073656520643E
:100DB0006566696E6564207461736B732E0D0A003D
:100DC0002061726D65642E0D0A007461736B2000E2
:100DD000206973206E6F742069646C652E0D0A00A3
:100DE00061726D206572726F723A207461736B204C
:100DF0000064697361726D20617267756D656E74F0
:100E0000206572726F723A20666972737420617223
:100E100067756D656E742073686F756C64206265AC
:100E2000207461736B20696E646578206F72206E28
:100E3000616D652E207479706520277461736B274E
:100E400020746F2073656520646566696E65642033
:100E50007461736B732E0D0A00206973206E6F74BA
:100E60002061726D65642E0D0A0064697361726D94
:100E7000206572726F723A207461736B2000207368
:100E80007461727465642E0D0A007461736B2000C6
:100E9000206973206E6F742069646C65206F722006
:100EA00061726D65642E0D0A006669726520657257
:100EB000726F723A207461736B20006669726520EC
:100EC000617267756D656E74206572726F723A201B
:100ED000666972737420617267756D656E742073D4
:100EE000686F756C64206265207461736B20696E35
:100EF000646578206F72206E616D652E2074797044
:100F0000652027742720746F2073656520646566EB
:100F1000696E6564207461736B732E0D0A000D0A8F
:100F2000002073746F707065642E0D0A0074617315
:100F30006B2000616C6C207461736B732073746F31
:100F4000707065642E0D0A000D0A002000742000E8
:100F50000D0A0020007020002E0D0A007461736BD2
:100F600073207772697474656E2E0D0A00456E7475
:100F70006572696E67206F7363696C6C6F73636F02
:100F80007065206D6F64652E2053656E6420616E00
:100F9000792063686172616374657220746F206583
:100FA0006E642E0D0A00726573657420646F6E6541
:100FB0002E0D0A000D0A000D0A003D000D0A003A30
:100FC00020005D200020746F20005B003A20003D6F
:100FD000005D200020746F20005B003A20003D007F
:100FE0003A0D0A00204F7574707574732044696758
:100FF0006974616C205369676E616C73206F7074E3
:10100000696F6E616C6C792073796E6368726F6E54
:10101000697A6564207769746820446967697461D6
:101020006C20496E707574205369676E616C732E05
:101030000D0A000D0A002E002E0075730073006D5E
:10104000730000002100240027002A002D0030003A
:10105000330001010000040107010A010000220021
:10106000250028002B002E00310034000201000072
:10107000050108010B0100002000230026002900C3
:101080002C002F00320000010000030106010901BD
:1010900005050505070508080808020202020A0AF4
:1010A0000808040404040101010101010101030312
:1010B000030303030303040707070C0C0C0C0C0CBD
:1010C0000C0C0202020206060606060606060B0BBA
:1010D0000B0B0B0B0B0B01021020200808102040FB
:1010E00010204080020102010804020101020408EC
:1010F000102040808040201008040201800402017A
:1011000080402010080402010804020101020408C2
:1011100010204080010204081020408000000A0BCB
:1011200002090C0D0E080703040100000000000076
:1011300000000000000000000000000000000000AF
:10114000000000000000000012111000000000006C
:10115000000000000000000000000000000000008F
:101160000000726573657474696E672066616374EC
:101170006F72792064656661756C74732E0D0A0058
:10118000656E746572203F20746F20736565206101
:101190007661696C61626C6520636F6D6D616E6410
:1011A000730D0A000D0A002E002E004E695665725E
:1011B0004469673A20566572736174696C652044AE
:1011C00069676974616C2050756C736520436F6E3C
:1011D00074726F6C6C657220616E642053636F7003
:1011E0006520000000000000000000436F6D6D618D
:1011F0006E647300000000000000000000000000AA
:1012000000000000000000000000003F000000009F
:101210000000005B6775695D2053686F7720737409
:101220006174757320616E6420636F6D6D616E64AF
:1012300073000070696E0000000000536574206147
:101240006E642051756572792050696E2053746107
:1012500074757300000000000000007461736B007F
:1012600000000053657420616E64205175657279C9
:10127000205461736B205374617475730000000017
:1012800000000061726D00000000003C7461736B2F
:101290003E3A2041726D205461736B0000000000E3
:1012A000000000000000000000000064697361722B
:1012B0006D00003C7461736B3E3A20446973617247
:1012C0006D205461736B730000000000000000008B
:1012D00000000073746172740000003C7461736BF1
:1012E0003E3A205374617274205461736B000000A5
:1012F000000000000000000000000073746F700028
:101300000000005B3C7461736B3E207C20215D3AE1
:101310002053746F70205461736B00000000000054
:101320000000002E000000000000005265706F7287
:1013300074207374617465206368616E67657300FF
:10134000000000000000000000000000000000009D
:10135000000000436F6E6669670000000000000037
:10136000000000000000000000000000000000007D
:101370000000006470696E00000000446566696EDC
:10138000652050696E73205B5D0000000000000066
:101390000000000000000000000000647461736B36
:1013A000000000446566696E65205461736B7320AC
:1013B0005B5D000000000000000000000000000075
:1013C0000000007772697465000000536176652043
:1013D0005461736B73000000000000000000000007
:1013E000000000000000000000000073636F7065E3
:1013F0000000004F7363696C6C6F73636F706520DE
:101400004D6F646500000000000000000000000057
:101410000000006563686F000000004563686F208E
:10142000286F66662C6F6E29000000000000000027
:101430000000000000000000000000726573657489
:10144000000000466163746F7279205265736574A1
:10145000000000000000000000000000000000008C
:1014600000000068616C740000000048616C74202A
:10147000616C6C205461736B732028302C3129000F
:10148000000000000000000000000000F130112406
:101490001FBECFEFD1E2DEBFCDBF00E00CBF23E126
:1014A000A2E3B4E001C01D92A83DB207E1F714E049
:1014B000A0E0B2E0E8EEF0E700E00BBF02C007906A
:1014C0000D92A233B107D9F71AE0C7E4DAE000E0E1
:1014D00006C021970109802FFE010E942E38C634D4
:1014E000D10780E00807A9F70E941E310C947238DA
:1014F0000C940000AF92BF92CF92DF92EF92FF92D6
:101500000F931F93CF93DF936C017B018B01040F2B
:10151000151FEB015E01AE18BF08C017D10759F0C7
:101520006991D601ED91FC910190F081E02DC60109
:101530001995892B79F7C501DF91CF911F910F91F3
:10154000FF90EF90DF90CF90BF90AF900895FC0197
:10155000538D448D252F30E0842F90E0821B930B18
:10156000541710F0CF96089501970895FC01918DBE
:10157000828D981761F0A28DAE0FBF2FB11D5D96C1
:101580008C91928D9F5F9F73928F90E008958FEF63
:101590009FEF0895FC01918D828D981731F0828D17
:1015A000E80FF11D858D90E008958FEF9FEF08956E
:1015B000FC01918D228D892F90E0805C9F4F821BD2
:1015C00091098F739927089589E393E10E94D80ABE
:1015D00021E0892B09F420E0822F0895FC01A48DDD
:1015E000A80FB92FB11DA35ABF4F2C91848D90E045
:1015F00001968F739927848FA689B7892C93A08928
:10160000B1898C91837080648C93938D848D9813B1
:1016100006C00288F389E02D80818F7D8083089544
:10162000EF92FF920F931F93CF93DF93EC0181E032
:10163000888F9B8D8C8D98131AC0E889F9898081D9
:1016400085FF15C09FB7F894EE89FF896083E8890C
:10165000F98980818370806480839FBF81E090E0FE
:10166000DF91CF911F910F91FF90EF900895F62E8B
:101670000B8D10E00F5F1F4F0F731127E02E8C8D25
:101680008E110CC00FB607FCFACFE889F98980816A
:1016900085FFF5CFCE010E94EE0AF1CFEB8DEC0F66
:1016A000FD2FF11DE35AFF4FF0829FB7F8940B8F87
:1016B000EA89FB8980818062CFCF0F931F93CF93FC
:1016C000DF938C01D0E0C0E0F801EC0FFD1F6491C6
:1016D000662341F089E393E10E94100B892B11F0FE
:1016E0002196F2CFCE01DF91CF911F910F910895F6
:1016F000CF93DF93EC01888D8823B9F0AA89BB8949
:10170000E889F9898C9185FD03C0808186FD0DC033
:101710000FB607FCF7CF8C9185FFF2CF808185FF54
:10172000EDCFCE010E94EE0AE9CFDF91CF9108956F
:1017300080E090E0892B29F00E94E40A81110E9448
:10174000000080E090E0892B49F080E090E0892B58
:1017500029F00E94000081110E94000080E090E0CA
:10176000892B49F080E090E0892B29F00E9400004D
:1017700081110E94000080E090E0892B49F080E018
:1017800090E0892B29F00E94000081110C94000048
:1017900008958150823108F05AC0E82FF0E0882780
:1017A000EB52F44F8F4F0C942E38F50BF90BE70BDF
:1017B000ED0BF10B270CFC0B020C060C0C0C100CA7
:1017C000140C1A0C1E0C270C220C280C2C0C8091CB
:1017D00080008F77809380000895809180008F7DB6
:1017E000F9CF80918000877FF5CF84B58F7784BD56
:1017F000089584B58F7DFBCF8091B0008F77809363
:10180000B00008958091B0008F7DF9CF8091900055
:101810008F77809390000895809190008F7DF9CF0D
:1018200080919000877FF5CF8091A0008F77809383
:10183000A00008958091A0008F7DF9CF8091A00035
:10184000877FF5CF809120018F77809320010895C5
:10185000809120018F7DF9CF80912001877FF5CF86
:10186000CF93DF93282F30E0F901E45EFE4E8491A0
:10187000F901EA52FF4ED491F901E057FF4EC491AD
:10188000CC23A1F081110E94C90BEC2FF0E0EE0FE8
:10189000FF1FEA58FF4EA591B491EC91ED2381E032
:1018A00090E009F480E0DF91CF91089580E090E02E
:1018B000FACF1F93CF93DF93282F30E0F901E45E36
:1018C000FE4E8491F901EA52FF4ED491F901E0579E
:1018D000FF4EC491CC23A9F0162F81110E94C90B91
:1018E000EC2FF0E0EE0FFF1FE45AFF4EA591B491EC
:1018F0008FB7F894EC91111108C0D095DE23DC93DA
:101900008FBFDF91CF911F910895DE2BF8CFCF933A
:10191000DF9390E0FC01EA52FF4E249180579F4EE6
:10192000FC0184918823C9F090E0880F991FFC0185
:10193000EE5BFF4EA591B491FC01E45AFF4EC591B8
:10194000D49161110DC09FB7F8948C91209582239A
:101950008C938881282328839FBFDF91CF9108959E
:10196000623051F49FB7F8943C91822F8095832385
:101970008C93E8812E2BEFCF8FB7F894EC912E2B20
:101980002C938FBFEACF1F93CF93DF93182FEB01D8
:1019900061E00E94870C209739F460E0812FDF918D
:1019A000CF911F910C94590CCF3FD10511F461E0F8
:1019B000F5CFE12FF0E0E45EFE4EE491E150E2313C
:1019C00008F0B3C0F0E08827E751F34F8F4F0C9435
:1019D0002E38FB0C030D080D120D1C0D950D260D58
:1019E0002E0D360D400D4A0D540D630D6D0D950DE8
:1019F000770D810D8B0D84B5806884BDC7BDDF91E7
:101A0000CF911F91089584B5806284BDC8BDF7CF82
:101A100080918000806880938000D0938900C0937B
:101A20008800EDCF80918000806280938000D09309
:101A30008B00C0938A00E3CF809180008860809300
:101A40008000D0938D00C0938C00D9CF8091B000DE
:101A500080688093B000C093B300D1CF8091B00074
:101A600080628093B000C093B400C9CF8091900091
:101A7000806880939000D0939900C0939800BFCF66
:101A800080919000806280939000D0939B00C093DF
:101A90009A00B5CF80919000886080939000D09399
:101AA0009D00C0939C00ABCF8091A0008068809384
:101AB000A0008091A0008F7B8093A000D093A9000C
:101AC000C093A8009CCF8091A00080628093A0006A
:101AD000D093AB00C093AA0092CF8091A000886001
:101AE0008093A000D093AD00C093AC0088CF8091CC
:101AF0002001806880932001D0932901C0932801A0
:101B00007ECF80912001806280932001D0932B01B1
:101B1000C0932A0174CF80912001886080932001B6
:101B2000D0932D01C0932C016ACFC038D1050CF0A1
:101B30003ECF33CF863308F0865320917B00982F19
:101B40009870277F922B90937B008770806480939E
:101B50007C0080917A00806480937A0080917A0082
:101B600086FDFCCF809178009091790008953FB771
:101B7000F8948091B0049091B104A091B204B09116
:101B8000B30426B5A89B05C02F3F19F00196A11DEF
:101B9000B11D3FBFBA2FA92F982F8827BC01CD01B7
:101BA000620F711D811D911D42E0660F771F881F16
:101BB000991F4A95D1F708958830F0F4282F30E026
:101BC0008150873000F5E82FF0E08827E551F24F8B
:101BD0008F4F0C942E38050EF20DFD0DFF0D010EEA
:101BE000070E090EE898220F331FF901E45DFD4F3F
:101BF0008BE09EE0918380830895E998F4CFEA9882
:101C0000F2CFEB98F0CFEC98EECFED98ECCFEE98CA
:101C1000EACFEF98E8CF0895883008F076C0E82F33
:101C2000F0E0EE0FFF1FE45DFD4F71836083815094
:101C3000873008F03DC0E82FF0E08827ED5DF14FD8
:101C40008F4F0C942E38600E2A0E320E3E0E4B0E25
:101C50006C0E790E809169008C7F482B409369004F
:101C6000E89A089580916900837F440F551F440FBF
:101C7000551F482B40936900E99A089580916900A7
:101C80008F7C74E0440F551F7A95E1F7482B409301
:101C90006900EA9A0895809169008F7366E0440FA5
:101CA000551F6A95E1F7482B40936900EB9A089518
:101CB00080916A008C7F482B40936A00EC9A0895CB
:101CC00080916A00837F440F551F440F551F482B96
:101CD00040936A00ED9A089580916A008F7C24E019
:101CE000440F551F2A95E1F7482B40936A00EE9A5E
:101CF000089580916A008F7396E0440F551F9A955E
:101D0000E1F7482B40936A00EF9A0895209165040B
:101D1000260F3327331F21323105ECF4209189043B
:101D2000FC0190E080E0243069F082E00895A09109
:101D300065042191AC014B5B5B4FA40FB52FB11D26
:101D40002C930196861798F380916504680F609331
:101D5000650480E0089581E0089508958FEF9FEF76
:101D600008958FEF9FEF089580913E0490E0919544
:101D7000819591090895CF93DF93CB01EA01642FF8
:101D80000E94860ECE01DF91CF910895CF93DF930D
:101D90001F92CDB7DEB7698361E0CE0101960E9444
:101DA000860E81E090E00F90DF91CF91089590E052
:101DB00080E008958F929F92AF92BF92CF92DF9270
:101DC000EF92FF920F931F93CF93DF93EC018881E3
:101DD00010E08D3211F4219611E08881082E000C5C
:101DE000990BC0970A9710F500E0C12CD12C760111
:101DF000FE01E00FF11DE0810E2E000CFF0BF097AD
:101E0000EA30F105C0F4AAE0B0E0A70196010E9413
:101E1000B3374F01FF0FAA08BB08860E971EA81EF6
:101E2000B91E8C149D04AE04BF04B4F4CC24CA942F
:101E3000DC2C760102C0111113C0C701B601DF917D
:101E4000CF911F910F91FF90EF90DF90CF90BF90B7
:101E5000AF909F908F9008950F5F75016401C8CF78
:101E6000F094E094D094C094C11CD11CE11CF11CEE
:101E7000E4CF8F929F92AF92BF92CF92DF92EF9278
:101E8000FF921F93CF93DF93EC0110E0C12CD12C74
:101E90007601FE01E10FF11DE0810E2E000CFF0B1B
:101EA000F097EA30F105D8F4AAE0B0E0A701960176
:101EB0000E94B3374F01FF0FAA08BB08860E971E7A
:101EC000A81EB91E8C149D04AE04BF0420F01F5F31
:101ED00075016401DECFCC24CA94DC2C7601C701E5
:101EE000B601DF91CF911F91FF90EF90DF90CF90DF
:101EF000BF90AF909F908F9008951F93CF93DF93E3
:101F0000172FD82FC92F89E393E10E94100B612F5F
:101F100089E393E10E94100B6D2F89E393E10E9406
:101F2000100B6C2F89E393E1DF91CF911F910C94FB
:101F3000100B0F931F93CF93DF9310E007E1809175
:101F40006009181760F5019FE0011124CC54DB4FA4
:101F50008A898823C9F01A8A8F85612F8430B1F469
:101F600089E393E10E94100B6889798976956795DA
:101F70007695679589E393E10E94100B6B897C89C4
:101F80008D899E890E947D0F1F5FD9CF89E393E1E0
:101F90000E94100B8A850E94300C682FEBCFDF91D6
:101FA000CF911F910F91089508951F93CF93DF93C1
:101FB000EC01162F8F85882391F08330A1F00E94C9
:101FC000B70D6B8B7C8B8D8B9E8B612F70E0798B2B
:101FD000688B81E08A8BDF91CF911F9108958A856C
:101FE0000E94590CECCF662339F01D85612F70E0FB
:101FF0008A850E94C30CE3CF1C85F8CFDC011A96BA
:102000009C911A9720E0923051F021E0933039F002
:102010008EEE890F27E1291B843008F02FEF1F96E1
:10202000EC911F97E43041F0F0E0E457FD4F8081E0
:10203000813011F02F3F21F48FEF1E968C9308957D
:10204000923071F0933071F0923171F0933171F000
:10205000943171F0953171F495E01E969C9308953A
:1020600090E0FBCF91E0F9CF92E0F7CF93E0F5CF8E
:1020700094E0F3CF9FEFF1CF8F3F59F0909185120D
:10208000891750F42DE2829FC00111248F59964F79
:10209000089586ED92E0089590E080E00895282F5D
:1020A00030E09DE2899FF0011124EF59F64F13A60D
:1020B000928592509330C0F540918512A1E6B9E027
:1020C00090E03B96491781F09B965C919B9753302B
:1020D00041F4981731F060811B965C911B9765174E
:1020E00019F19F5F9D96EECF8DE2829FF001839F55
:1020F000F00D1124EF59F64FE38587E18E9FF00133
:102100001124EC54FB4F9285923049F0933051F0FA
:102110002EEE290F891B243018F08FEF01C080E0CC
:102120000C94DC0D81E0FCCF0895FC01808187FDDB
:102130008FBF0895FC019FB7908397FF01C0F8946B
:102140000895EF92FF920F931F93CF93DF931F9207
:10215000CDB7DEB7E82EF12C9DE2899FF001112466
:10216000EF59F64F93A5933011F40E944F10CE0112
:1021700001960E949A108DE28E9D80018F9D100D18
:1021800011240F59164F8EEF9FEFAFEFBFEFF801FD
:10219000878F90A3A1A3B2A3CE0101960E949510B0
:1021A00081E0F80184A70F90DF91CF911F910F91EB
:1021B000FF90EF9008951F93CF93DF93182FC82FB0
:1021C000D0E02DE2829FF0011124EF59F64F8FEFFE
:1021D0009FEFDC01878F90A3A1A3B2A3868D82FB22
:1021E000992790F993A791E094A792859530A9F447
:1021F000E38527E1E29FF0011124EC54FB4F208995
:102200003189232BB9F00E94B70DAB01BC01812F9E
:10221000DF91CF911F910C940E169630D1F5E38586
:1022200027E1E29FF0011124EC54FB4F2089318912
:10223000232B49F382FF87C08EEF890F833008F08C
:102240006DC08DE28C9FF0018D9FF00D1124EF5930
:10225000F64FE38587E18E9FF0011124EC54FB4F8C
:1022600026852F3F09F46FC032853230B1F033300C
:1022700099F14EEE430F831B443080F08DE28C9F2A
:10228000F0018D9FF00D1124EF59F64F83E083A7E5
:102290005AC0992309F4B7CFCDCF80E0E22FF0E008
:1022A000EE0FFF1FEE5CFB4F1083918343E050E085
:1022B000923031F041E050E0933011F442E050E0D0
:1022C0002230E9F058F4222399F02130B9F690E257
:1022D0009CBB64E478E110C081E0E0CF2430C9F019
:1022E00098F0253059F691E09CBB64E278E104C097
:1022F00090E19CBB6CE478E10E940C0EBFCF98E0AB
:102300009CBB6CE378E1F8CF94E09CBB64E378E19C
:10231000F3CF92E09CBB6CE278E1EECF9750923025
:1023200090F4EDE2EC9FD001ED9FB00D1124AF5978
:10233000B64F1B968C91E89FF0011124EF59F64F90
:10234000868D82FD9BCFDF91CF911F9108954F9293
:102350005F926F927F928F929F92AF92BF92CF9235
:10236000DF92EF92FF920F931F93CF93DF939090A2
:102370008A12911079C08DE2882E9EEF492E552445
:102380005A94652C752C80918512981608F06CC0B3
:10239000C92CD12C8C9CF0018D9CF00D1124EF598F
:1023A000F64F878D90A1A1A1B2A1892B8A2B8B2BEF
:1023B00009F058C0868D80FF43C0892D0E94DB1034
:1023C00001E619E0F12CE12C8C9CE0018D9CD00DF4
:1023D0001124CF59D64F5E0123E2A20EB11CA7965D
:1023E000809185128E151F04E9F1E4F1CE14DF040B
:1023F00009F1F801878D90A1A1A1B2A18F3F9F4F54
:10240000AF4FBF4FB9F4F8018285883099F48385C6
:10241000891110C0F50140815181628173818881E9
:102420009981AA81BB81480F591F6A1F7B1F8E2D7E
:102430000E940E16FFEFEF1AFF0A035D1F4FD0CF69
:1024400083A5833019F4892D0E944F108C9CF001D4
:102450008D9CF00D1124EF59F64F478E50A261A2CA
:1024600072A2AECF93948FCFDF91CF911F910F9136
:10247000FF90EF90DF90CF90BF90AF909F908F90A4
:102480007F906F905F904F9008954F925F926F9200
:102490007F928F929F92AF92BF92CF92DF92EF92F4
:1024A000FF920F931F93CF93DF931F92CDB7DEB7A9
:1024B000CE0101960E949A104091851250E091E65B
:1024C000E92E99E0F92EF70190E080E08417950756
:1024D00034F4268D2068268F0196BD96F7CF01E64D
:1024E00019E0D12CC12C812C912C54018394809122
:1024F000851290E0C816D906ECF4F801878E90A2F8
:10250000A1A2B2A20E94B70DF80143A054A065A0F9
:1025100076A0641975098609970967A370A781A732
:1025200092A78C2D0E94DD12FFEFCF1ADF0A035D08
:102530001F4FDDCFE1E6F9E030E020E0821793079E
:1025400039F0468D4068468F2F5F3F4FBD96F6CFDE
:102550000E94A71110E000E08091851290E008171A
:10256000190734F4802F0E94A1100F5F1F4FF4CF82
:1025700030E020E08217930751F0F701468D4F7746
:10258000468F2F5F3F4FFDE2EF0EF11CF3CFCE01E0
:1025900001960E9495100F90DF91CF911F910F919E
:1025A000FF90EF90DF90CF90BF90AF909F908F9073
:1025B0007F906F905F904F9008958F929F92AF920F
:1025C000BF92CF92DF92EF92FF921F93CF93DF9350
:1025D000C82FD0E02DE2829FF0011124EF59F64F71
:1025E000878D90A1A1A1B2A1181619061A061B0683
:1025F0000CF095C0682F61704C015D0121E0821ADA
:102600009108A108B108878E90A2A1A2B2A2892840
:102610008A288B2899F486849784A088B1882EEF25
:1026200082162FEF9206A2062FE3B20639F4268D0A
:1026300027FD04C0878E90A2A1A2B2A22DE22C9FFA
:10264000F0012D9FF00D1124EF59F64F878C90A0CB
:10265000A1A0B2A081149104A104B10469F421E005
:1026600024A7C684D784E088F188CD28CE28CF2837
:1026700019F08095682F61702DE22C9FF0012D9F3D
:10268000F00D1124EF59F64F9585953008F0C1C033
:10269000248580916009281788F4E22EF12C87E1C7
:1026A000289FA00111244C545B4F923009F461C063
:1026B00008F041C06927913009F45BC08DE28C9F1E
:1026C000F0018D9FF00D1124EF59F64F478D50A169
:1026D00061A172A1141615061606170604F587A146
:1026E00090A5A1A5B2A540FD15C146895789608D69
:1026F000718D840F951FA61FB71F2DE22C9FF0012F
:102700002D9FF00D1124EF59F64F0097A10520E4FD
:10271000B20708F004C187A390A7A1A7B2A7DF91D1
:10272000CF911F91FF90EF90DF90CF90BF90AF902F
:102730009F908F900895933001F1943009F0BECFAF
:1027400020932B028E9DF0018F9DF00D1124EC54EF
:10275000FB4F8285863308F08653982F97709064DC
:1027600090937C00887080937B008FEC80937A003C
:10277000A5CFCA010E94D50FA1CF662309F49ECF31
:102780008E9DF0018F9DF00D1124EC54FB4F878539
:102790008823B9F0833041F10E94B70D27E12E9DC7
:1027A000F0012F9DF00D1124EC54FB4F638B748BC3
:1027B000858B968B612F70E0718B608B81E0828BB3
:1027C0007DCF8089918911E0892B09F010E087E1A4
:1027D0008E9DF0018F9DF00D1124EC54FB4F612F65
:1027E00082850E94590CD8CF808991891485181749
:1027F000190609F41585612F70E087E18E9DF001BF
:102800008F9DF00D1124EC54FB4F82850E94C30C68
:10281000C3CF662309F452CF868D87FD4FCF8485C1
:1028200030918512831708F06CC0E82EF12C973098
:1028300009F455C040F5953009F460C0963009F4AC
:1028400048C08DE28E9DD0018F9DB00D1124AF59EF
:10285000B64F8C9FF0018D9FF00D1124EF59F64F6C
:1028600043A154A165A176A187A090A4A1A4B2A47C
:10287000480D591D6A1D7B1D93964D935D936D9375
:102880007C9396971BCF983009F19930D1F62E9D05
:10289000F0012F9DF00D1124EF59F64F478D50A1F7
:1028A00061A172A14E3F9FEF59076907790749F26D
:1028B00014161506160617060CF19DE29C9FF001F2
:1028C0009D9FF00D1124EF59F64F09C00E94DB10B7
:1028D000B8CF181419041A041B040CF4B2CF43A186
:1028E00054A165A176A187A090A4A1A4B2A4480D8B
:1028F000591D6A1D7B1D0E940E16A3CF0E945418FD
:10290000A0CF8F3F09F0DACE953009F0D7CE0E94E4
:102910004512D4CE428D538D648D758DEACE8F5F76
:102920009F4FAF4FBF4387A390A7A1A7B2A783A193
:1029300094A1A5A1B6A10197A109B04C83A394A32A
:10294000A5A3B6A3ECCECF92DF92EF92FF920F93A6
:102950001F93CF93DF93C1E6D9E010E000E08091B0
:10296000851280171106F1F0ECF08BA5811116C0CD
:102970000E94B70DCBA0DCA0EDA0FEA06C197D09D4
:102980008E099F09CFA0D8A4E9A4FAA46C157D05EF
:102990008E059F0518F0802F0E94DD120F5F1F4FDC
:1029A000AD96DDCFDF91CF911F910F91FF90EF900A
:1029B000DF90CF9008952F923F924F925F926F9247
:1029C0007F928F929F92AF92BF92CF92DF92EF92BF
:1029D000FF920F931F93CF93DF9300D0CDB7DEB755
:1029E000CE0101960E949A108FEF80932A020E94D6
:1029F000B70D1B012C01712CCC24CA94DC2C760160
:102A0000EDE26E2E80918512781608F074C0872C46
:102A1000912C689CF001699CF00D1124EF59F64F40
:102A200083A5882309F465C05F012FE1A20EB11CC4
:102A3000478D50A161A172A114161506160617063E
:102A40000CF057C043A154A165A176A107A110A520
:102A500021A532A5400F511F621F731F4219530950
:102A600064097509CF0183969B838A838F01095D71
:102A70001F4F423351056105710514F5872D0E94E2
:102A8000DD12EA81FB814081518162817381F8010D
:102A900080819181A281B381840F951FA61FB71FEA
:102AA000AC01BD014219530964097509F501808122
:102AB0009181A281B381181619061A061B06CCF261
:102AC000689CF001699CF00D1124EF59F64F878D39
:102AD00090A1A1A1B2A1181619061A061B064CF462
:102AE0004C155D056E057F0520F470922A026A017F
:102AF0007B01739487CF80912A028F3F09F441C0F4
:102B0000F1E8CF16FFEFDF06FFE7EF06F10450F024
:102B10008FEF80932A0260E8C62EDD24DA946FE7F7
:102B2000E62EF12CD701C60153E0880F991FAA1F8A
:102B3000BB1F5A95D1F7009721E0A207B10540F4D9
:102B400021E020938F1290938E1280938D120CC0EF
:102B50000097E8E0AE07B10570F582E080938F1230
:102B6000D0928E12C0928D1280918D1290918E1201
:102B7000909387008093860080918F12806180936C
:102B80008100CE0101960E9495100F900F900F903A
:102B9000DF91CF911F910F91FF90EF90DF90CF9039
:102BA000BF90AF909F908F907F906F905F904F906D
:102BB0003F902F9008950097F0E4AF07B10558F4C7
:102BC00023E020938F1246E0B695A79597958795B9
:102BD0004A95D1F7B8CF0097A10521E0B20740F49C
:102BE00024E020938F12892F9A2FAB2FBB27ABCFD6
:102BF00025E020938F122AE0B695A79597958795A3
:102C00002A95D1F7A0CF80E18093810080912A029C
:102C10008F3F11F00E94DD120C94DB144F925F92F3
:102C20006F927F92AF92BF92CF92DF92FF920F93FB
:102C30001F93CF93DF931F92CDB7DEB7A82EB12C91
:102C40002DE2829F800111240F59164FF801968DB5
:102C500097FD5DC02A013B01F82ECE0101960E942E
:102C60009A10F80143A254A265A276A24289538920
:102C70006489758947A350A761A772A78685978540
:102C8000A089B189880F991FAA1FBB1F0196A11D9A
:102C9000B11D878F90A3A1A3B2A381E084A7452B88
:102CA000462B472B19F48A2D0E94DD12898187FD5E
:102CB0000E94DB14CE0101960E94951001E619E0F6
:102CC000D12CC12C809185128C151D0401F1FCF0D2
:102CD000AC14BD04B1F0F801878D90A1A1A1B2A1FF
:102CE0008F3F9F4FAF4FBF4F61F4F8018285873010
:102CF00041F483858F1105C0B301A2018C2D0E9480
:102D00000E16FFEFCF1ADF0A035D1F4FDBCF0F90C8
:102D1000DF91CF911F910F91FF90DF90CF90BF90E7
:102D2000AF907F906F905F904F9008957F928F92B9
:102D30009F92AF92BF92CF92DF92EF92FF920F934A
:102D40001F93CF93DF9394EBC92E94E0D92E10E01C
:102D500000E027E1922E88248394809160098017F7
:102D6000110609F00CF46AC0F6018785E82FF0E03F
:102D7000E457FD4F9081913009F45AC0843009F432
:102D800057C0F60182850E94300C9C013327909E2B
:102D9000E001919ED00D1124CC54DB4F4889598914
:102DA0002417350709F444C0782E398B288B0E94EC
:102DB000B70D6B8B7C8B8D8B9E8B8A8A81E6E82E80
:102DC00089E0F82EB12CA12C6396809185128A158A
:102DD0001B0471F16CF1F7019285923010F183853B
:102DE00080131FC0478D50A161A172A14F3F5F4F5B
:102DF0006F4F7F4FB1F4933079F050F4923079F007
:102E0000488159816A817B818A2D0E940E1609C0F2
:102E1000953029F09630A1F7772091F302C0711018
:102E2000EFCF8FEFA81AB80AEDE2EE0EF11CCDCF6E
:102E30000F5F1F4FF7E1CF0ED11C8FCFDF91CF91E6
:102E40001F910F91FF90EF90DF90CF90BF90AF90C8
:102E50009F908F907F900895CF92DF92EF92FF9294
:102E60000F931F93CF93DF938DE69FE00E945D0B3E
:102E70000E94B70D6B017C016FEF89E393E10E9423
:102E8000100B6EEF89E393E10E94100BC701B601AE
:102E90000E947D0F4091600990E080E037E121E0E1
:102EA000841770F4389FF001399FF00D1124EC5411
:102EB000FB4FC38AD48AE58AF68A228B0196F0CF2B
:102EC0000E94990FD7E1C0918512CC2319F10E947D
:102ED00096160E94A3140E94A7110E94990F89E3DD
:102EE00093E10E94D80A892B71F389E393E10E9450
:102EF000B60A6FEF8F33B9F589E393E10E94100BA7
:102F00006EEF89E393E10E94100B0E94B70D0E94BF
:102F10007D0FD9CF80916009C81708F7DC9F800129
:102F200011240C541B4FF80182850E94300C6C0157
:102F30007C01FF24F80180899189E816F90689F05F
:102F40006C2F89E393E10E94100B6C2D89E393E1D0
:102F50000E94100B0E94B70D0E947D0FF801F18AAC
:102F6000E08ACF5FD7CF89E393E10E94100B6FEF28
:102F700089E393E10E94100B0E94B70DDF91CF917E
:102F80001F910F91FF90EF90DF90CF900C947D0FE9
:102F9000CF93C82F0E94B70DAB01BC01EC2FF0E01E
:102FA000EE0FFF1FEE5CFB4F808191812DE2829F2F
:102FB000F0011124EF59F64F238530E0923069F487
:102FC00097E1929FF001939FF00D1124EC54FB4F79
:102FD000A1E0B0E0B18BA08B0CC09330D9F497E1A5
:102FE000929FF001939FF00D1124EC54FB4F118A36
:102FF000108A97E1929FF001939FF00D1124EC54F9
:10300000FB4F438B548B658B768B91E0928BCF91EA
:103010000C940E1697E1929FF001939FF00D1124EE
:10302000EC54FB4F0088F189E02DA1E0B0E0EF2BDC
:1030300011F0B0E0A0E097E1929FF001939FF00DB6
:103040001124EC54FB4FC6CF82E00E94DC0D85E0DA
:103050000E94C8170C94DB1483E00E94DC0D84E00E
:103060000E94C8170C94DB1484E00E94DC0D83E0FE
:103070000E94C8170C94DB1485E00E94DC0D82E0EE
:103080000E94C8170C94DB1481E00E94DC0D81E0E3
:103090000E94C8170C94DB1480E00E94DC0D80E0D5
:1030A0000E94C8170C94DB144F925F926F927F922C
:1030B000AF92BF92DF92EF92FF920F931F93CF9345
:1030C000DF931F92CDB7DEB7D82EA82EB12CCE013C
:1030D00001960E949A108DE28A9D80018B9D100DB1
:1030E00011240F59164FF801878D90A1A1A1B2A10B
:1030F0008F3F9F4FAF4FBF4F0CF451C0F801868DEB
:103100008068868F81E090E0A0E0B0E0878F90A398
:10311000A1A3B2A30E94B70DF80143A054A065A0DB
:1031200076A0641975098609970967A370A781A716
:1031300092A78D2D0E94DD12F801868D8F77868FE4
:10314000CE0101960E94951001E619E0F12CE12CC8
:10315000809185128E151F0431F12CF1AE14BF043D
:10316000C1F0F801878D90A1A1A1B2A18F3F9F4F1F
:10317000AF4FBF4F71F4F8018285883051F48385D9
:103180008D1107C00E94B70DAB01BC018E2D0E94AE
:103190000E16FFEFEF1AFF0A035D1F4FD9CFCE01C6
:1031A00001960E9495100F90DF91CF911F910F9182
:1031B000FF90EF90DF90BF90AF907F906F905F9007
:1031C0004F90089590916009891738F427E1829F04
:1031D000C00111248C549B4F089590E080E0089525
:1031E000843048F4E82FF0E0EE0FFF1FEC57FD4F5E
:1031F00080819181089588ED92E008959DE2899FF4
:10320000F0011124EF59F64F878D90A1A1A1B2A131
:10321000181619061A061B062CF08E5F843018F05B
:1032200080E0089583E008951F93CF93DF93C82F24
:10323000D62F80918512C817A0F4681710F0DFEF21
:10324000D80F1DE2DC1768F01C9FF0011124EF5924
:10325000F64F868D81FF03C08C2F0E94DB10CF5F5D
:10326000F1CFDF91CF911F910895CF92DF92EF922E
:10327000FF9290918512891760F5691710F06FEF32
:10328000690F982F3DE22EEFC22EDD24DA94ED2C4B
:10329000FD2C691780F0399FF0011124EF59F64F8A
:1032A000C78ED0A2E1A2F2A2268D22FB222720F90E
:1032B00023A79F5FEECF90913C0291110AC090919D
:1032C0008A12911106C0FF90EF90DF90CF900C947E
:1032D0001419FF90EF90DF90CF900895DF92EF9256
:1032E000FF920F931F93CF93DF93909160099923DF
:1032F00009F448C0691710F06FEF690F082F10E04C
:1033000097E1899FE0011124CC54DB4FE62EF12C8C
:1033100087E1D82EE016F106ACF19F858A85E92F6A
:10332000F0E0E457FD4F20812130A9F46C85911124
:103330000EC00E94590C8C8590E0D09EF001D19E69
:10334000F00D1124EC54FB4F918B808B14C070E076
:103350000E94C30CF0CF943091F40E949A0DD09E3D
:10336000F001D19EF00D1124EC54FB4F20893189DE
:103370002817390749F70F5F1F4F6796CBCF0E9479
:10338000300CEDCFDF91CF911F910F91FF90EF9017
:10339000DF9008950F931F93CF93DF93C4EBD4E096
:1033A00010E000E0809160098017110689F084F038
:1033B000EB85EF87F0E0E457FD4F60818A850E943E
:1033C000870CCE010E94FE0F0F5F1F4F6796EACF5A
:1033D00080913C02811107C06FEFDF91CF911F9167
:1033E0000F910C946E19DF91CF911F910F91089559
:1033F000CF93DF93CDB7DEB7CF5CD1090FB6F8948A
:10340000DEBF0FBECDBFFE013D9683ECDF011D92F6
:103410008A95E9F78AE0E0EEF2E0DE01119601908C
:103420000D928A95E1F792E09B8781E08C8729E0F5
:10343000EEE3F2E0DE01589601900D922A95E1F755
:1034400019A223E02AA38BA338E0E8E4F2E0DE012E
:103450009F9601900D923A95E1F718AE1FAA32E1BE
:1034600039AF8AAF3AE0EAEEF2E0DE01AA5BBF4F85
:1034700001900D923A95E1F733E161963FAF619784
:1034800062968FAF629739E0E2E5F2E0DE01A35A7F
:10349000BF4F01900D923A95E1F7A7961FAEA797FF
:1034A00034E1A8963FAFA897A9968FAFA99788E077
:1034B000ECE5F2E0DE01AC58BF4F01900D928A9529
:1034C000E1F7EE961FAE1EAEEE9785E0EF968FAF5A
:1034D000EF978AE0E4EFF2E0DE01A557BF4F0190DD
:1034E0000D928A95E1F786E0CB56DF4F8883C55968
:1034F000D04089E0E6E6F2E0DE01AE55BF4F019034
:103500000D928A95E1F7C555DF4F1882CB5AD0400E
:1035100087E0C455DF4F8883CC5AD040E0E7F2E023
:10352000DE01A754BF4F01900D928A95E1F7E9EBB8
:10353000F0E0EC0FFD1F3796DF011D922A95E9F7A9
:1035400088E0CD53DF4F8883C35CD040CC53DF4F3E
:103550009883C45CD04089E0809360098FECEF5B76
:10356000F109A4EBB4E001900D928A95E1F7C15303
:10357000DF4F0FB6F894DEBF0FBECDBFDF91CF9106
:103580000C94CA19FC0101900020E9F73197AF01B2
:10359000481B590BBC0189E393E10C947A0A8F9282
:1035A0009F92AF92BF920F931F93CF93DF93CDB7AC
:1035B000DEB7A1970FB6F894DEBF0FBECDBF19A23C
:1035C000423008F44AE08E010F5D1F4F842E912C8B
:1035D000B12CA12CA50194010E940C38E62FB90151
:1035E000CA01EA30F4F4E05DD801EE938D01232B9B
:1035F000242B252B79F790E080E0109719F0CD016E
:103600000E94C21AA1960FB6F894DEBF0FBECDBFBE
:10361000DF91CF911F910F91BF90AF909F908F90AE
:103620000895E95CE1CF009711F00C94C21A90E084
:1036300080E00895CF92DF92EF92FF92CF93DF93D5
:1036400097FF1BC06B017C016DE289E393E10E944F
:10365000100BEC0166277727CB016C197D098E09C9
:103660009F094AE00E94CF1A8C0F9D1FDF91CF91D6
:10367000FF90EF90DF90CF9008954AE0DF91CF91D7
:10368000FF90EF90DF90CF900C94CF1ABC01990F70
:10369000880B990B0C941A1B682F70E090E080E067
:1036A0004AE00C94CF1A662381F0FA01808191815F
:1036B0000E94390F6F3F71058105910521F018F0C7
:1036C0006FEF7FEFCB016F3F61F48EEF92E00E94CE
:1036D000131B80918A120E944C1B8EE19FE00C9478
:1036E0005D0B60938A1261110C9445126FEF80E0BC
:1036F0000C9435194F925F926F927F928F929F92A6
:10370000AF92BF92CF92DF92EF92FF926B017C015A
:1037100088EE482E83E0582E612C712CC701A3013E
:1037200092010E940C3849015A01672B682B692BC2
:10373000A9F04AE0C701B6010E94CF1A8AE390E1DE
:10374000FF90EF90DF90CF90BF90AF909F908F90C1
:103750007F906F905F904F900C945D0BCA01B90100
:10376000A30192010E940C38672B682B692B41F052
:103770004AE0C501B4010E94CF1A8FE390E1E0CF87
:10378000C701B60120E432E44FE050E00E940C385B
:10379000CA01B9014AE00E94CF1A8DE390E1D0CF6F
:1037A000EF92FF920F931F93CF93DF93C82F90E078
:1037B000FC01EE0FFF1FE80FF91FEF56FD4FD281FE
:1037C00088E2C89F70011124870105511E4ED1FF68
:1037D0000DC0C8010E945D0B80EE9FE0DF91CF918C
:1037E0001F910F91FF90EF900C945D0B84E093E09C
:1037F0000E94131BC7018D519E4E0E945D0B81E0FC
:10380000CE3009F480E081115CC0D3FF2FC08EED73
:103810009FE00E945D0B60919012709191128091D7
:103820009212909193120E941A1B8BED9FE00E94BE
:103830005D0B89ED9FE00E945D0B60E070E0CB01C5
:103840000E941A1B84ED9FE00E945D0B61E070E016
:1038500080E090E00E941A1B81ED9FE00E945D0BCA
:10386000C8010E945D0B8CEB9FE0B8CF8FEC9FE00E
:103870000E945D0B60919012709191128091921252
:10388000909193124AE00E94CF1A8CEC9FE00E9424
:103890005D0B8AEC9FE00E945D0B4AE060E070E007
:1038A000CB010E94CF1A85EC9FE00E945D0B4AE09D
:1038B00061E070E080E090E00E94CF1A82EC9FE02F
:1038C000CDCF8FEB9FE0CACFEF92FF920F931F9364
:1038D000CF93DF9310E007E180916009181730F56E
:1038E000E12EF12C0E9DE0010F9DD00D1124CC5442
:1038F000DB4F8A898823C1F01A8A85E59FE00E9400
:103900005D0BC70101960E94461B83E59FE00E9464
:103910005D0B6889798990E080E04AE00E94CF1AC7
:1039200080E59FE00E945D0B1F5FD6CFC0E0DDE227
:1039300080918512C81720F50C2F10E0D09FF00160
:10394000D19FF00D1124EF59F64F84A58823B1F0D3
:1039500014A68DE49FE00E945D0BC80101960E94B1
:10396000461B8BE49FE00E945D0B8C2F0E94FE188B
:103970000E944C1B88E49FE00E945D0BCF5FD8CF74
:1039800088E59FE0DF91CF911F910F91FF90EF901D
:103990000C945D0BCF93DF93EB010E949D378883DE
:1039A000CE01DF91CF9108951F93CF93DF9385EDE3
:1039B0008093BC008091410490914204A091430403
:1039C000B09144040796A11DB11D23E0B695A795BB
:1039D000979587952A95D1F72091BC0024FD03C0C7
:1039E0001092890452C04091410450914204609168
:1039F000430470914404452B462B472B69F30097F1
:103A0000A105B10541F02AE22A95F1F700C001971E
:103A1000A109B109E1CF80914004C1E0C0933F0406
:103A2000882399F1D091B8001091BA008091BC0020
:103A30008A7B8093BC0060E084E10E94590C60E0C6
:103A400085E10E94590C10928904C0938B04109256
:103A50008A0461E084E10E94590C61E085E10E94E2
:103A6000590C8091B9008E7F8093B9008091B90084
:103A70008D7F8093B90088E48093B80085E48093BB
:103A8000BC001093BA00D093B800DF91CF911F9182
:103A90000895FF920F931F93CF93DF938C01EB0157
:103AA000F8800E949D37F81621F06F2DC8010E9402
:103AB000A537CE01DF91CF911F910F91FF9008950F
:103AC000BF92CF92DF92EF92FF920F931F93CF930B
:103AD000DF937C01EB018B01040F151FB990F701F7
:103AE000C080D180C6010E949D37B81621F06B2D91
:103AF000C6010E94A537F7018081918101969183CB
:103B00008083C017D10751F7DF91CF911F910F919B
:103B1000FF90EF90DF90CF90BF9008950F931F9389
:103B2000CF93DF931F921F92CDB7DEB783E493E06C
:103B30009A83898341E050E065E872E1CE01019605
:103B40000E94601D10E00DE280918512181768F444
:103B5000109FB00111246F59764F4FE150E0CE0114
:103B600001960E94601D1F5FEFCF0F900F90DF91B5
:103B7000CF911F910F9108950E948E1D8CE59FE0BB
:103B80000C945D0B0F931F93CF93DF931F921F92A3
:103B9000CDB7DEB782E090E09A83898341E050E0C0
:103BA00060E679E0CE0101960E94601D10E007E119
:103BB00080916009181768F4109FB00111246C54AB
:103BC0007B4F40E150E0CE0101960E94601D1F5FD7
:103BD000EFCF0F900F90DF91CF911F910F9108952C
:103BE00010928A12109290121092911210929212C8
:103BF000109293120E94F8190E94C21D1092851211
:103C00006FEF80E00E9435190E948E1D86EA9FE0CA
:103C10000C945D0B3F924F925F926F927F928F92C6
:103C20009F92AF92BF92CF92DF92EF92FF920F934B
:103C30001F93CF93DF93CDB7DEB760970FB6F8949D
:103C4000DEBF0FBECDBF5C016B01188AFB01019086
:103C50000020E9F73197E61BF70B612C712C00E08F
:103C60008FE0482E7F01FF249FE0892E912C342C79
:103C7000301A432D50E0B501660D711D81E090E0D2
:103C80008C0F9D1F800F911D0E94D33410E0802F58
:103C900090E0E1E0F0E0EC0FFD1FE80FF91F50802D
:103CA000552019F02CE2521230C00F30B1F40FE061
:103CB000112389F0612F70E0A401461B570B81E0AE
:103CC00090E08C0F9D1F680F791FCE0101960E9416
:103CD0006338042D011B630CCACF612F70E0861B73
:103CE000970B8E159F0561F481E090E08C0F9D1F6E
:103CF000680F791FA701C6010E945538892B49F02A
:103D00007394552021F011E0100F0F5FC0CF77247E
:103D10007A94872D60960FB6F894DEBF0FBECDBFA4
:103D2000DF91CF911F910F91FF90EF90DF90CF9097
:103D3000BF90AF909F908F907F906F905F904F90CB
:103D40003F900895EF92FF920F931F93CF938C01B2
:103D5000C62F7A01BA0180E693E00E940A1E682FFE
:103D600070E090E080E06F3F71058105910571F092
:103D7000F8012785233099F461307105810591059B
:103D800071F46FEF70E080E090E009C0C7010E941D
:103D9000DA0E6F3FFFEF7F078F079F0761F0F80193
:103DA000278521110FC051E0672B682B692B09F47F
:103DB00050E0852FC82F8C2FCF911F910F91FF902E
:103DC000EF900895DC01CB018F3F9105A105B1056E
:103DD00029F024F08FEF90E0A0E0B0E0B7FFEACF49
:103DE00080E090E0DC01E6CF5F926F927F928F924D
:103DF0009F92AF92BF92CF92DF92EF92FF920F937A
:103E00001F93CF93DF93CDB7DEB760970FB6F894CB
:103E1000DEBF0FBECDBF6C015B01742E188AFC01A2
:103E20001082E12C10E000E09FE0592E2FE0822E5E
:103E3000912C652C601A462D50E0B5016E0D711D58
:103E400081E090E08C0F9D1F800F911D0E94D33464
:103E5000F12CE1E0F0E0EC0FFD1FE00FF11D80819F
:103E60008823D1F08C3229F50F3029F50FE0FF209F
:103E700089F06F2D70E0A401461B570B81E090E0A4
:103E80008C0F9D1F680F791FCE0101960E94633829
:103E9000052D0F19E60CCDCF0F3041F3171569F042
:103EA00088E5C82E83E0D82E18C01F5FFF24F39446
:103EB000F00E0F5FCECF1711F8CF0F1910E061E0B1
:103EC00070E06C0F7D1F6F0D711DA801C6010E946F
:103ED0006338F601E00FF11F1082C60160960FB63D
:103EE000F894DEBF0FBECDBFDF91CF911F910F9130
:103EF000FF90EF90DF90CF90BF90AF909F908F900A
:103F00007F906F905F9008958F929F92AF92BF9233
:103F1000CF92DF92EF92FF920F931F93CF93DF9395
:103F2000CDB7DEB760970FB6F894DEBF0FBECDBF3A
:103F3000082FC62E80918512681718F0CC24CA94D9
:103F4000C80E84E896E00E945D0B8091851288235C
:103F500009F4F6C0E02EF12C2DE2029F800111241D
:103F60000F59164FD12C97E1B92ECE14DF040CF463
:103F7000E7C084E093E00E94C21A8FEFE81AF80AC3
:103F8000C7010E94461B82E896E00E945D0BC801B3
:103F90000E94131B80E896E00E945D0BD8011A96E0
:103FA000EC91F0E0EE0FFF1FE050FE4F8081918119
:103FB0000E94131B8EE796E00E945D0BAA24AA9430
:103FC000AE0C80918512A81608F0A8C0F801928561
:103FD000923008F4A3C08385973008F09AC090917E
:103FE0006009891708F09AC08B9DC00111248C5478
:103FF0009B4F0E94131B8CE796E00E945D0BD8013B
:104000001D964C916BE37CE0CE0101960E94F41E5C
:104010000E94131B8AE796E00E945D0B8091851237
:10402000A81608F083C0F80184859585953008F0BE
:1040300078C090916009891708F078C08B9DC00105
:1040400011248C549B4F0E94131B88E796E00E941A
:104050005D0BD8011E966D917D918D919C9151972C
:104060006E3FBFEF7B078B07BFE39B0719F46FEF32
:104070007FEFCB010E941A1B86E796E00E945D0B42
:10408000F80162897389848995890E947A1B84E783
:1040900096E00E945D0BD80156966D917D918D91B1
:1040A0009C9159970E947A1B82E796E00E945D0BD3
:1040B000F801628D738D848D958D0E947A1B80E747
:1040C00096E00E945D0B8EE696E00E945D0BD801A3
:1040D0005E969C90812CAA24A39480E0992049F1BB
:1040E000992D9A2199F0882321F084E093E00E9491
:1040F000131B482D63E17CE0CE0101960E94F41E63
:104100000E94131B8A2D8095982281E08394AA0C2B
:10411000E5CF0E943C10009709F06BCF88E593E053
:1041200068CF0E943C10009709F08DCF88E593E09E
:104130008ACF8AE696E00E945D0B035D1F4F15CF84
:1041400060960FB6F894DEBF0FBECDBFDF91CF9162
:104150001F910F91FF90EF90DF90CF90BF90AF90A5
:104160009F908F900895DF92EF92FF920F931F938D
:10417000CF93DF93CDB7DEB760970FB6F894DEBF6D
:104180000FBECDBFF82EE62E8CE792E00E945D0BAD
:1041900080916009882309F44CC0E81618F0EE24D9
:1041A000EA94E80E87E1D82EEF1408F442C00F2DF0
:1041B00010E08AE792E00E945D0BC80101960E9420
:1041C000461B87E792E00E945D0BFD9C8001112455
:1041D0000C541B4FC8010E94131B84E792E00E94FD
:1041E0005D0BF80182850E944C1B82E792E00E94E1
:1041F0005D0BF801438562E375E0CE0101960E94F4
:10420000F41E0E94131B80E792E00E945D0BF801F0
:1042100084850E944C1B8EE692E00E945D0BF801A3
:1042200085850E944C1B8BE692E00E945D0BF39407
:10423000BBCF60960FB6F894DEBF0FBECDBFDF9147
:10424000CF911F910F91FF90EF90DF900895EF9223
:10425000FF920F931F93CF938C017B01C0E0EC2F53
:10426000F0E0EE0FFF1FEE0DFF1D60817181611503
:10427000710539F0C8010E944C38892B19F0CF5FC5
:10428000EECFCFEF8C2FCF911F910F91FF90EF903A
:104290000895BF92CF92DF92EF92FF920F931F93F8
:1042A000CF93DF937C018B01B12C6701CB0CD11C28
:1042B000F601C0810C2E000CDD0BCE010E9455369C
:1042C000892B11F0B394F1CFE0972A97C0F4C6017F
:1042D0000E94390FC62F6F3F09F0C1508C2FF80193
:1042E0001995892B09F4CFEF8C2FDF91CF911F9176
:1042F0000F91FF90EF90DF90CF90BF900895C0E0B6
:104300008C2FF8011995009771F3BC01C7010E9429
:104310004C38892B49F3CF5FF3CFCF93611107C09E
:104320000E94451283E39FE0CF910C945D0B6CE3F8
:1043300070E1FA01808191810E944921C82F8F3F4D
:1043400079F30E9454188DE29FE00E945D0BFDE21C
:10435000CF9FC00111248F59964F0E94131B81E2F9
:104360009FE0E2CF0F931F93CF93DF93611108C0BB
:104370008BEB9EE0DF91CF911F910F910C945D0B21
:10438000FA016CE370E1808191810E944921C82F7C
:104390008F3F71F3082F10E0DDE2D09FF001D19F35
:1043A000F00D1124EF59F64F878D90A1A1A1B2A174
:1043B0000296A11DB11D0297A105B10558F089EA29
:1043C0009EE00E945D0BC80101960E94461B80E999
:1043D0009EE0D0CF0E94B70DAB01BC018C2F0E9494
:1043E0000E168AE89EE00E945D0BCD9FC00111244D
:1043F0008F59964F0E94131B8EE79EE0BBCFCF9341
:10440000DF93611106C081EF9DE0DF91CF910C94A5
:104410005D0BFA016CE370E1808191810E9449217A
:104420008F3F89F3C82FD0E09DE2899FF0011124CE
:10443000EF59F64F478D50A161A172A14F3F5F4FD9
:104440006F4F7F4F59F08AE69EE00E945D0BCE01D0
:1044500001960E94461B89E59EE0D7CFDF91CF9160
:104460000C94A1100F931F93CF93DF93611108C099
:104470008BE59DE0DF91CF911F910F910C945D0B27
:10448000FA016CE370E1808191810E944921C82F7B
:104490008F3F71F3082F10E0DDE2D09FF001D19F34
:1044A000F00D1124EF59F64F878D90A1A1A1B2A173
:1044B0008E3F9F4FAF4FBF4F59F080EE9DE00E945F
:1044C0005D0BC80101960E94461B80ED9DE0D2CF96
:1044D0008C2F0E94DB108AEC9DE00E945D0BCD9F2B
:1044E000C00111248F59964F0E94131B80EC9DE050
:1044F000C1CF8F929F92AF92BF92CF92DF92EF92F5
:10450000FF920F931F93CF93DF93862E7A0166233A
:1045100041F0FA0180819181FC0120812F3309F063
:1045200054C083E195E00E945D0B8BEE94E00E9405
:104530005D0B82EC94E00E945D0B82E894E00E94A7
:104540005D0B80E494E00E945D0B8DE294E00E949C
:104550005D0B84E390E00E94461B89E294E00E9498
:104560005D0B8BE094E00E945D0B89E090E00E947F
:10457000461B87E094E00E945D0B84EF93E00E946D
:104580005D0B85E390E00E94461B80EF93E00E9464
:104590005D0B84EC93E00E945D0B88E893E00E9441
:1045A0005D0B89E693E00E945D0B6FEF80E0DF9189
:1045B000CF911F910F91FF90EF90DF90CF90BF9020
:1045C000AF909F908F900C94B3202D3259F581813C
:1045D0008A32A1F41092600986E596E00E945D0B94
:1045E000DF91CF911F910F91FF90EF90DF90CF90CF
:1045F000BF90AF909F908F900C94C21D80916009E6
:10460000882371F381508093600981E596E00E94D0
:104610005D0B8091600990E001960E94461B85E445
:1046200096E0DCCF62EE78E10E944921C82F8F3FEF
:1046300009F06BC0F701808191810E94390F6F3FB3
:1046400031F0C60FCF3F19F0F1E0F81580F083EE9E
:1046500095E0DF91CF911F910F91FF90EF90DF9048
:10466000CF90BF90AF909F908F900C945D0B8091F6
:1046700060098C1769F08CEB95E00E945D0B8091CE
:10468000600990E001960E94461B82EB95E0E1CF25
:1046900080E024EB34E0C43318F088E695E0D9CF0D
:1046A0008C1748F4295E3F4FF9013D97908199237B
:1046B00011F08F5FF5CF8C1307C027E1C29FF00187
:1046C0001124EC54FB4F12860C2F10E0E7E1CE9F33
:1046D000C00111249C012C543B4F6901F7016281F8
:1046E00073818EE495E00E940A1E8F3F99F0D1E01D
:1046F000D80FF2E0F81508F06EC0D13009F033C1E0
:10470000BB24B39472E0972E08C031E03815E0F274
:10471000682F4DCF99249394B12CE92DF0E0EE0F42
:10472000FF1FEE0DFF1D6081718149E050E0C60161
:104730000E94633887E1809FF001819FF00D112472
:10474000EC54FB4F1186B11032C0D1E0D90DD81511
:1047500008F410C1992493949D0E981408F0A1C0F8
:10476000D0E0E92DF0E0EE0FFF1FEE0DFF1D6081A0
:10477000718182E395E00E940A1E97E1909FF0010B
:10478000919FF00D1124EC54FB4F9285843009F079
:1047900081C0913108F0128697E1909FF001919FBE
:1047A000F00D1124EC54FB4F8387878778C0D92DF7
:1047B000981408F009C1DB2DD33009F0A9C0D1E06D
:1047C000D0CF663308F4F6C0BB2021F282E0B82EC9
:1047D000D81508F4F9C0809160098C1304C081E0F9
:1047E0008C0F809360090E94C21D27E1209FC001A9
:1047F000219F900D11249C012C543B4F7901F9010C
:10480000D385D787ED2FF0E0E457FD4FB0806B2DB7
:10481000F90182850E94870CF7018285F1E0BF12C1
:104820006DC0F7016485D11165C00E94590C87E104
:10483000809FF001819FF00D1124EC54FB4F848583
:1048400090E0918B808BC6010E94FE0F0E94B70DF5
:1048500027E1209FF001219FF00D1124EC54FB4F24
:10486000638B748B858B968B81E0828B6C2F8C2F66
:104870000E94B3206C2F8C2FDF91CF911F910F914D
:10488000FF90EF90DF90CF90BF90AF909F908F9070
:104890000C946E19983041F18F3F09F07DCFD11102
:1048A00036C09394D0E09814C8F19394981408F00B
:1048B00092CF892D90E0880F991FE80EF91EF7011D
:1048C0004081518127E1209FC001219F900D11243B
:1048D0009C012C543B4F7901F9016585C6010E946A
:1048E000A21EF701858777CF82E056CFD53009F039
:1048F00072CFDFCF70E00E94C30C99CFD43021F487
:104900000E949A0DF7019DCF0E94300CFBCFD3E09F
:10491000981408F060CFD43049F7D1E0E92DF0E0E9
:10492000EE0FFF1FEE0DFF1D4081518127E1209FFB
:10493000C001219F900D11249C012C543B4F590123
:10494000F9016485C6010E94A21EF501848797853E
:10495000911105C091E0811190E0F5019587DD236B
:1049600009F4A3CF38CF92E0992ED23009F024CFAA
:10497000BB24B394ED2FF0E0EE0FFF1FEE0DFF1DF3
:10498000808191810E94390F6F3F710581059105EA
:1049900021F018F06FEF7FEFCB01683009F011CFF5
:1049A00087E1809FF001819FF00D1124EC54FB4FB3
:1049B00082E0878787E1809FF001819FF00D1124BD
:1049C000EC54FB4F628700CF9D2EDB2DA1CFBF9211
:1049D000CF92DF92EF92FF920F931F93CF93DF93CB
:1049E000F62E8A01611175C010916009112309F436
:1049F00059C01150C4EBD4E0F12CE12C07E1670160
:104A00008AED92E00E945D0B8FEFE81AF80AC70169
:104A10000E94461B87ED92E00E945D0B0C9DF00109
:104A20000D9DF00D1124EC54FB4F6089718990E0CD
:104A300080E04AE00E94CF1A84ED92E00E945D0B74
:104A4000EF85F0E0EE0FFF1FE658FD4F808191816A
:104A50000E94131B84E093E00E94131B8F85833018
:104A6000A9F150F5823068F18FEA92E00E945D0B67
:104A7000CE010E94131B8DEA92E00E945D0B8F8590
:104A8000823020F481EA92E00E945D0B88E593E099
:104A90000E94131B8EE992E00E945D0B67961E1523
:104AA00008F0ADCFDF91CF911F910F91FF90EF9064
:104AB000DF90CF90BF9008958430B1F68DEB92E0F7
:104AC00002C08AEC92E00E945D0BCECF81EB92E0B7
:104AD000FACF62EE78E1FA01808191810E9449214A
:104AE0008F3F69F487E293E0DF91CF911F910F919F
:104AF000FF90EF90DF90CF90BF900C945D0BC82F8C
:104B0000D0E0F1E0FF1568F182E293E00E945D0BD6
:104B1000CE0101960E94461B8FE193E00E945D0B3F
:104B200027E12C9FC0012D9F900D1124EC01CC5446
:104B3000DB4F6889798990E080E04AE00E94CF1AD3
:104B40008CE193E00E945D0BEF85F0E0EE0FFF1F1C
:104B5000E658FD4F808191810E94131B89E193E00B
:104B6000C3CFF80182819381FC0120812F3391F41E
:104B700087E18C9FF0018D9FF00D1124EC54FB4FC9
:104B80006089718990E080E04AE00E94CF1A86E156
:104B900093E0AACF27E12C9F80012D9F100D1124B7
:104BA0000C541B4FF801B784EB2DF0E0E457FD4F98
:104BB0002081213019F08AEE92E096CF0E94390FC1
:104BC000F8013285B11034C021E0672B682B692BC6
:104BD00009F420E0C22ED12CF12CE12C622F832F7E
:104BE0000E94590C0E94B70D27E12C9FF0012D9FC8
:104BF000F00D1124EC54FB4F638B748B858B968BDB
:104C0000D18AC08A81E0828B85EE92E00E945D0BA2
:104C1000CE0101960E94461B82EE92E00E945D0B3F
:104C20004AE0C701B6010E94CF1A8FED92E05CCF37
:104C30006B017C01FFEFCF16D104E104F10429F0F0
:104C400020F0C12CD12C7601CA94B601832F0E948A
:104C5000C30CC8CFFF920F931F93CF93DF936623AC
:104C600051F066E073E0DA018D919C910E944C381E
:104C7000D1E0892B09F0D0E08BEA91E10E945D0B35
:104C800083E090E00E94461B88E390E10E945D0B68
:104C900082E090E00E94461B86E390E10E945D0B5B
:104CA00084E290E00E94461B83E390E10E945D0B4A
:104CB00084EE9FE00E945D0B01E912E0C0E0F80184
:104CC000F280DD2311F0F2FC0DC08C2F0E94D01B6E
:104CD000F5FE08C0D801ED91FC9150E040E060E0A5
:104CE0008C2F1995CF5F0D5F1F4FC13141F7DF91B9
:104CF000CF911F910F91FF9008958F929F92AF9245
:104D0000BF92CF92DF92EF92FF920F931F93CF93B8
:104D1000DF93EC0109900020E9F721978C018C17B3
:104D20009D0789F46FEF7FEFCB01DF91CF911F914A
:104D30000F91FF90EF90DF90CF90BF90AF909F903A
:104D40008F900895E7017E010C171D07D0F4FE0136
:104D500082917F01082E000C990B0E945536892BF9
:104D600089F75E017501F50182915F01082E000C43
:104D7000990B0E943938892B21F00A151B0590F3F5
:104D80007501CE19DF09DD27AE016AE073E0C701C6
:104D90000E945538812C47E8942E43E9A42E43E025
:104DA000B42E892B21F0812C912C54018394AE01D7
:104DB0006FE073E0C7010E945538892B39F420E475
:104DC000822E22E4922E2FE0A22EB12CAE016EE0B4
:104DD00073E0C7010E945538892B31F498EE892E73
:104DE00093E0992EA12CB12CAE0161E173E0C701D3
:104DF0000E945538892B21F4812C912C54018394E5
:104E00006EE270E0C8010E944138892B89F1C80127
:104E10000E949F346B017C01C501B4010E947B3666
:104E2000A70196010E94DC360E94CD376F3FFFEF4D
:104E30007F078F079F0709F475CF611571058105FD
:104E4000910509F472CF61157105810520E492077F
:104E500020F06FEF7FEF8FEF9FE3643671058105E0
:104E6000910508F062CF64E670E080E090E05DCFED
:104E7000C8010E94390FA50194010E94FC37D6CFCA
:104E80004F925F926F927F928F929F92AF92BF925A
:104E9000CF92DF92EF92FF920F931F93CF93DF9306
:104EA000CDB7DEB760970FB6F894DEBF0FBECDBFAB
:104EB000D62E5A01662341F0FA0180819181FC01CE
:104EC00020812F3309F055C080EF9BE00E945D0BDD
:104ED00086EC9BE00E945D0B8BE99BE00E945D0BE2
:104EE00088E39BE00E945D0B89E09BE00E945D0BE4
:104EF00086EF9AE00E945D0B84E390E00E94461BDF
:104F000082EF9AE00E945D0B83ED9AE00E945D0BB8
:104F100089E090E00E94461B8FEC9AE00E945D0BB6
:104F20008EE69AE00E945D0B82E19AE00E945D0BA2
:104F300082EA99E00E945D0B87E199E00E945D0B97
:104F400081EC98E00E945D0B83E898E00E945D0B85
:104F500083E498E00E945D0B81E098E00E945D0B85
:104F600089EC97E00E945D0B6FEF80E00E94841F48
:104F700021C02D32B1F581818A3239F41092851227
:104F800086E49DE00E945D0B15C080918512882308
:104F900089F080E49DE00E945D0B809185120E9463
:104FA0004C1B84E39DE00E945D0B80918512815033
:104FB0008093851260960FB6F894DEBF0FBECDBF0A
:104FC000DF91CF911F910F91FF90EF90DF90CF90E5
:104FD000BF90AF909F908F907F906F905F904F9019
:104FE00008956CE370E10E944921582EFFEF8F1362
:104FF00029C0F501808191810E94390F6F3F49F0EE
:1050000055245A94560EFFEF5F1619F021E02D1526
:1050100018F08EEC9CE0B6CF80918512851569F072
:1050200085EA9CE00E945D0B8091600990E001960A
:105030000E94461B8BE99CE0A5CF843340F080E7BB
:105040009CE0A0CF31E03D1510F0682F8FCF052DEB
:1050500010E064E172E0F501828193810E942721D2
:10506000C82EFFEF8F1791F0EE24E394E80E22E0B4
:105070002D1508F426C322E0F22EFD1408F0A1C27B
:1050800095E0E91218C2EE24E3942CC1FF24F394B6
:10509000912CEF2DF0E0EE0FFF1FEA0DFB1D60815C
:1050A00071818DE2E82E5E9CC001112449E050E040
:1050B0008F59964F0E946338E09EF001E19EF00DFB
:1050C0001124EF59F64F118691100DC0EE24E39490
:1050D000EF0CED14A8F0FF24F394FE0CFD1408F07F
:1050E000D1C0E12CA5C0E92CFD1408F49CC0E92C2A
:1050F0007EC132E0E2E0FE2EE31295C09924939443
:10510000EE2DF0E0EE0FFF1FEA0DFB1D60E072E0F8
:10511000808191810E942721C82E4FEF841749F08A
:105120008DE2809FF001819FF00D1124EF59F64F21
:10513000C286992081F2FE2CED1408F0CAC2F2E07A
:10514000EF2EFD1408F05EC089E0E812A4C2EE2440
:10515000E394EF2DF0E0EE0FFF1FEA0DFB1D8081C1
:1051600091810E947D266F3FFFEF7F078F079F078A
:1051700029F12DE2209FF001219FF00D1124EF591C
:10518000F64F2685378540895189232B242B252BE3
:1051900049F0643671058105910520F464E670E0FC
:1051A00080E090E02DE2209FF001219FF00D11247E
:1051B000EF59F64F628F738F848F958F8DE2809FAA
:1051C000F001819FF00D1124EF59F64F86859785E8
:1051D000A089B189892B8A2B8B2B89F0828D938DA5
:1051E000A48DB58D84369105A105B10540F484E602
:1051F00090E0A0E0B0E0828F938FA48FB58FEE2077
:1052000009F4F2C180918512851104C081E0850DF9
:1052100080938512652D852D0E94841F652D852D17
:105220000E943519C7CE53E0E51239C0EE24E3944D
:105230008DE2809FF001819FF00D1124EF59F64F10
:105240002285223088F0EF2DF0E0EE0FFF1FEA0DEF
:10525000FB1D8081918162EE78E1273010F06CE3D4
:1052600070E10E944921C82E8FEFC81649F08DE2E7
:10527000809FF001819FF00D1124EF59F64FC386F6
:10528000E11005C0F394FD1440F5E12C0DC063E07E
:10529000962EFD1408F02BCF83E0E82E52CF94E039
:1052A000E912EECEEE24E394EF2DF0E0EE0FFF1FB7
:1052B000EA0DFB1D608171818BE39CE00E940A1E58
:1052C0008F3F49F09DE2909FF001919FF00D1124D6
:1052D000EF59F64F8587E11070C0F394FD1408F084
:1052E00066C0E12CEF2DF0E0EE0FFF1FEA0DFB1D75
:1052F000808191814DE2409F9001419F300D1124AA
:10530000F901EF59F64F4F012585253008F058C0B7
:1053100062EE78E10E9449218F3F09F456C027E1EF
:10532000829FF0011124EC54FB4F9285983041F498
:105330009785943029F0F40184858F3F09F445C0A6
:105340009DE2909FF001919FF00D1124EF59F64FCF
:1053500084878DE2809FF001819FF00D1124EF5929
:10536000F64F8585843009F5E48527E1E29FF00159
:105370001124EC54FB4F87858430B9F0909160097B
:1053800024EB34E080E0981781F0295E3F4FF9016B
:1053900038974081443039F59DE2909FF001919F0C
:1053A000F00D1124EF59F64F8487E1101EC0F394DD
:1053B000FD1408F0DAC0E12C83C044E0E42E5DCE99
:1053C0006CE370E10E944921B8CF8DE2809FF0012B
:1053D000819FF00D1124EF59F64F8585853009F036
:1053E000B8CF8FEFB5CF8F5FCECF25E0E22EFD1483
:1053F00008F0A7CE58E0E512A4CEEE24E394EF2DFA
:10540000F0E0EE0FFF1FEA0DFB1D808191810E94ED
:105410007D266F3FEFEF7E078E079E0729F12DE275
:10542000209FF001219FF00D1124EF59F64F2685A2
:10543000378540895189232B242B252B49F064364D
:1054400071058105910520F464E670E080E090E04C
:105450002DE2209FF001219FF00D1124EF59F64F0E
:10546000668B778B808F918F8DE2809FF001819F7B
:10547000F00D1124EF59F64F86859785A089B189E3
:10548000892B8A2B8B2B89F086899789A08DB18DEA
:1054900084369105A105B10540F484E690E0A0E0D2
:1054A000B0E0868B978BA08FB18FEE2009F497C068
:1054B00028E0E22E46CE36E0E31286C0EE24E394E6
:1054C000EF2DF0E0EE0FFF1FEA0DFB1D80819181B3
:1054D0000E94DA0E97FD6EC0DC01CB018E3F4FEFCC
:1054E0009407A4074FE3B40724F08DEF9FEFAFEFCD
:1054F000BFE32DE2209FF001219FF00D1124EF5911
:10550000F64F86879787A08BB18B892B8A2B8B2BA5
:1055100051F1828D938DA48DB58D84369105A105B1
:10552000B10540F484E690E0A0E0B0E0828F938F74
:10553000A48FB58F8DE2809FF001819FF00D112423
:10554000EF59F64F86899789A08DB18D84369105E4
:10555000A105B10540F484E690E0A0E0B0E0868BC0
:10556000978BA08FB18FE1102AC0F394FD1490F5B2
:10557000E12CEF2DF0E0EE0FFF1FEA0DFB1D808107
:1055800091810E947D266F3F5FEF75078507950724
:1055900061F02DE2209FF001219FF00D1124EF59C1
:1055A000F64F628B738B848B958BEE2099F037E0EE
:1055B000E32EC7CD8EEF9FEFAFEFBFE39ACF86E02C
:1055C000E82EFD1408F01ECEE7E0EE1213CFEE2415
:1055D000E394CFCFF394E12CFD1408F410CFF394AF
:1055E000E12CFD1408F4B5CDF394FD1408F00ACEB7
:1055F0008F2D90E0880F991FA80EB91EF501A0808D
:10560000B180412C66246394712CF501808188233C
:1056100009F449C06501F60181917F01882309F4ED
:1056200042C0082E000C990B0E945536892BB9F503
:105630005701F70181914F01882339F0082E000CA2
:10564000990B0E945536892B61F1EC18FD08F0E1A9
:10565000EF16F1041CF04FE0E42EF12CA701B60187
:10566000CE0101960E94633821E030E02C0F3D1FEF
:10567000E20EF31EF7011082B90183E19CE00E9463
:105680000A1E8F3F11F2930102C0220F331F8A9529
:10569000E2F7422ABACF2AE0E212B4CDA9CF6701DD
:1056A000BACF7401C5CF3FEF431609F4ABCD8DE2FD
:1056B000809FF001819FF00D1124EF59F64F468E27
:1056C000A1CD41E0E41215CD9924939492E0F92EF6
:1056D000E0CC92E0E92ED1CCCF92DF92EF92FF9214
:1056E0000F931F93CF93DF936623C1F0DA01ED91FF
:1056F000FC9190819F3391F0282F30E0F901EE0F5B
:10570000FF1FE20FF31FEF56FD4F128114FD06C07D
:1057100091E08E3009F490E0992351F0DF91CF9120
:105720001F910F91FF90EF90DF90CF900C94D01BC2
:10573000EA01B8E28B9FC00111248D519E4E0E9458
:105740005D0B8AEB9FE00E945D0B8881998113FFBE
:1057500026C00E94A33497FF03C060E070E0CB0135
:10576000161617061806190624F461E070E080E0AA
:1057700090E06093901270939112809392129093A4
:1057800093120E941A1B87EB9FE0DF91CF911F912C
:105790000F91FF90EF90DF90CF900C945D0BEC0198
:1057A000C12CD12C7601E991EE23D1F00E2E000C04
:1057B000FF0BF097EA30F10598F4AAE0B0E0A701FA
:1057C00096010E94B3378F01FF0F220B330B060F98
:1057D000171F281F391F0C151D052E053F05C8F47E
:1057E000C701B601611571058105910521F061E0E0
:1057F00070E080E090E0609390127093911280933B
:105800009212909393124AE00E94CF1A84EB9FE089
:10581000BCCF68017901C7CFAF92BF92CF92DF9220
:10582000EF92FF920F931F93CF93DF93C62F7A01CE
:10583000611149C0D0918512DD23D1F101E619E053
:10584000EE24E394F12C8C2F0E94FE18D82E83E2D4
:1058500097E00E945D0BC7010E94461B80E297E023
:105860000E945D0B8D2D0E944C1BF80183A580FFCB
:1058700004C08EE197E00E945D0BF80183A581FFD3
:1058800004C08CE197E00E945D0B89E097E00E94E4
:105890005D0BC8010E94131B8AEC96E00E945D0B11
:1058A000CF5FFFEFEF1AFF0A035D1F4FDC13CBCF73
:1058B000DF91CF911F910F91FF90EF90DF90CF90EC
:1058C000BF90AF9008956CE370E1FA0180819181FF
:1058D0000E944921182F83E997E01F3FC1F1A12EB3
:1058E000B12CC23008F03FC0812F0E94FE18C82F93
:1058F00083E397E00E945D0BC50101960E94461B61
:1059000080E397E00E945D0B8C2F0E944C1B8DE280
:105910008A9DF0018B9DF00D1124EF59F64F83A560
:1059200080FF04C08EE297E00E945D0B8DE28A9DAD
:10593000F0018B9DF00D1124EF59F64F83A581FFE7
:1059400004C08CE297E00E945D0B89E297E0DF9152
:10595000CF911F910F91FF90EF90DF90CF90BF906C
:10596000AF900C945D0BF70182819381FC01208143
:10597000022E000C330B205331092A30310578F503
:105980000E94A3346B017C0184E697E0FFEFCF1601
:10599000D104E104F104D9F2D701C6010297A109AB
:1059A000B1098F3F2FEF9207A207B20709F466C033
:1059B000FCF48E3F9F4FAF4FBF4F09F443C08CE3C1
:1059C00097E00E945D0BF601EE0FFF1FEC57FD4FB5
:1059D000808191810E94131B89E397E0B8CF60EF2B
:1059E00078E10E944921C82ED12CF12CE12CCCCF9A
:1059F0000097A105B10531F10197A105B105F9F6AF
:105A00008DE28A9DF0018B9DF00D1124EF59F64F28
:105A1000878D90A1A1A1B2A18E3F9F4FAF4FBF4FE5
:105A200070F20E94B70DAB01BC01812FDF91CF91C5
:105A30001F910F91FF90EF90DF90CF90BF90AF90AC
:105A40000C940E168DE28A9DE0018B9DD00D1124E1
:105A5000CF59D64F8F8D98A1A9A1BAA18F3F9F4F43
:105A6000AF4FBF4F0CF4ABCF8E8D80688E8F812FE0
:105A70000E9454188E8D8F778E8F1ACF8DE28A9D5B
:105A8000F0018B9DF00D1124EF59F64F878D90A1F9
:105A9000A1A1B2A18E3F9F4FAF4FBF4F09F08FCF53
:105AA000812FDF91CF911F910F91FF90EF90DF90A9
:105AB000CF90BF90AF900C94DB101F920F920FB657
:105AC0000F9211240BB60F922F933F934F935F9336
:105AD0006F937F938F939F93AF93BF93EF93FF93B6
